:020000040800F2
:1000000000C00020AD0200088D4E00088F4E000891
:10001000914E0008934E0008954E00080000000025
:10002000000000000000000000000000974E0008E3
:10003000994E0008000000009B4E00089D4E0008ED
:10004000F5020008F5020008F5020008F5020008B4
:10005000F5020008F5020008F5020008F5020008A4
:10006000AB4E0008F5020008F5020008F502000892
:10007000F5020008F5020008F5020008F502000884
:10008000F5020008F5020008F5020008F502000874
:10009000F5020008F5020008F5020008F502000864
:1000A000F5020008F5020008F5020008F502000854
:1000B000B14E0008F5020008F5020008F50200083C
:1000C000F5020008F5020008F5020008F502000834
:1000D000F502000845520008C95200084D530008B7
:1000E000F5020008F5020008F5020008F502000814
:1000F000F5020008F5020008F5020008F502000804
:10010000F5020008F5020008F5020008F5020008F3
:10011000F5020008F5020008F5020008F5020008E3
:10012000F5020008F5020008F5020008F5020008D3
:1001300000000000000000000000000000000000BF
:1001400000000000000000000000000000000000AF
:10015000000000000000000000000000000000009F
:10016000000000000000000000000000000000008F
:10017000000000000000000000000000000000007F
:10018000000000000000000000000000000000006F
:10019000000000000000000000000000000000005F
:1001A000000000000000000000000000000000004F
:1001B000000000000000000000000000000000003F
:1001C000000000000000000000000000000000002F
:1001D000000000000000000000000000000000001F
:1001E0005FF8E0F1044B05481B1A062B02D9044BBB
:1001F00003B11847704700BF4F0600204C0600208F
:100200000000000005490648091A891001EBD17168
:10021000491002D0034B03B1184770474C06002029
:100220004C0600200000000010B5064C237843B9AE
:10023000FFF7D8FF044B13B10448AFF3008001234C
:10024000237010BD4C060020000000008CF1020855
:1002500008B5084B1BB108490848AFF300800848AF
:10026000036813B9BDE80840CCE7064B002BF9D072
:100270009847F7E700000000500600208CF10208C4
:100280004C0600200000000010F8012B11F8013B83
:10029000012A28BF9A42F7D0D01A7047034613F8B4
:1002A000012B002AFBD1181A01387047002103E006
:1002B0000B4B5B58435004310A480B4B42189A428F
:1002C000F6D30A4A02E0002342F8043B084B9A4264
:1002D000F9D300F011F82DF06FF904F001FD70472B
:1002E0004C520308000000204C0600204C06002061
:1002F00078900020FEE700000F4B1A6842F00102E0
:100300001A6059680D4A0A405A601A6822F08472CD
:1003100022F480321A601A6822F480221A605A6825
:1003200022F4FE025A604FF41F029A60044B4FF011
:1003300000629A60704700BF001002400000FFF8A2
:1003400000ED00E010B5044600F038FD4FF47A737C
:10035000B0FBF3F000F0B6F8002221464FF0FF307A
:1003600000F070F8002010BD074A08B5136803209C
:1003700043F01003136000F053F80020FFF7E2FF92
:1003800004F03EFD002008BD00200240154B10B5D2
:100390001A68154901321A600A68187901320A6030
:1003A00059799A790130C0B201310132C9B2D2B261
:1003B0000A28187159719A7104D9002018710B48D4
:1003C00001240470132904D900215971084901201E
:1003D0000870312A04D900229A71064B01221A7042
:1003E00010BD00BF68060020D80C0020C80C0020FB
:1003F000C90C0020CA0C0020014B1868704700BFD0
:100400006806002013B50190FFF7F6FF0446FFF7DA
:10041000F3FF019B001B9842F9D302B010BD00000E
:10042000074A0002D36800F4E06023F4E0631B0491
:100430001B0C43F0BF6343F400330343D3607047A6
:1004400000ED00E0174B30B5DB68C3F30223C3F1C6
:1004500007041D1D042C28BF0424062D4FF00105A0
:1004600005FA04F404F1FF348CBF033B00230C4075
:100470009C4005FA03F3013B1A40002842EA0402BB
:100480004FEA0212AFBF00F16040074B00F00F00CF
:10049000D2B2A5BFD2B200F561401A5480F8002351
:1004A00030BD00BF00ED00E014ED00E04209012383
:1004B00000F01F0003FA00F0014B43F822007047E0
:1004C00000E100E00138B0F1807F0AD2064B074A14
:1004D000F021586082F823100020072298601A60EB
:1004E00070470120704700BF10E000E000ED00E021
:1004F000044B04281A680CBF42F0040222F00402E4
:100500001A60704710E000E0704708B5FFF7FCFF85
:1005100008BD00002DE9F74F002426466A4BDFF89E
:10052000B0E1DFF8B0C101220D68B24032EA050542
:1005300040F0C2804D68122D2BD00ED8022D25D050
:1005400004D84DB3012D30D1CC682EE0032D1BD043
:10055000112D2AD1CC68043427E065451CD006D87B
:10056000DFF87481454517D008F5803809E0DFF8D9
:100570006C81454510D008F5803845450CD0A8F56C
:100580008018454511D107E000240EE0CC680834FE
:100590000BE0CC680C3408E08C682CB1012C0CBF4B
:1005A00002614261082400E00424FF2A97BF8346C9
:1005B000A6F10805D0F80090B50084BFD0F80490EB
:1005C000AD004FF00F0808FA05FA29EA0A0904FA03
:1005D00005F588BF00F1040B49EA0505CBF800508A
:1005E000D1F8049019F0805F66D0384D374FAD696F
:1005F00006F0030A45F00105BD61BD694FEA8A0AAC
:1006000005F001050195019D26F0030505F18045E2
:1006100005F58035D5F808B0A7F5843708FA0AF84B
:10062000B8422BEA080816D007F58067B84215D003
:1006300007F58067B84214D007F58067B84213D039
:1006400007F58067B84212D070450CBF4FF0050B1C
:100650004FF0060B0DE04FF0000B0AE04FF0010BDE
:1006600007E04FF0020B04E04FF0030B01E04FF006
:10067000040B0BFA0AFA4AEA080AC5F808A01D6832
:1006800019F4803F14BF154395431D605D6819F44C
:10069000003F14BF154395435D609D6819F4801FAA
:1006A00014BF154395439D60DD6819F4001F14BF06
:1006B0002A4325EA0202DA600136102E7FF433AFB6
:1006C00003B0BDE8F08F00BF0004014000100240FD
:1006D000001C01400000211000001110000031102A
:1006E0008368194214BF01200020704702B9090431
:1006F00001617047034B5969014202D0586102F011
:1007000011BA70470004014003682DE9F743DC0784
:10071000054603D42B68980773D4F2E0B94C63689C
:1007200003F00C03042B07D0636803F00C03082BC1
:1007300016D16368D90313D54FF4003393FAA3F2AB
:10074000226893FAA3F3B3FA83F303F01F0322FAA8
:1007500003F3DA07DED56B68002BDBD101202DE235
:100760006B68B3F5803F15D06BB923684FF4003642
:1007700023F480332360236823F480232360FFF76E
:100780003BFE07462FE0B3F5A02F236806D143F4C4
:1007900080232360236843F4803305E023F480330F
:1007A0002360236823F480232360FFF725FE074698
:1007B0004FF4003696FAA6F3226896FAA6F3B3FA37
:1007C00083F303F01F0322FA03F3DB07A2D4FFF73E
:1007D00013FEC01B6428EDD90320EFE1FFF70CFEE8
:1007E000C01B6428F8D896FAA6F3226896FAA6F3F6
:1007F000B3FA83F303F01F0322FA03F3D807EDD40F
:1008000088E7804C636813F00C0F07D0636803F02F
:100810000C03082B21D16368D9031ED4022393FA59
:10082000A3F2226893FAA3F3B3FA83F303F01F034E
:1008300022FA03F3DA0702D52B69012B8ED1236844
:10084000F82292FAA2F2B2FA82F2696923F0F8036E
:1008500001FA02F21343236053E02A6901237AB3B9
:1008600093FAA3F2B2FA82F2920002F1844202F504
:1008700084021360FFF7C0FD0746022696FAA6F32E
:100880006048226896FAA6F3B3FA83F303F01F03D5
:1008900022FA03F3DB0705D4FFF7AEFDC01B0228E5
:1008A000ECD999E70368F82292FAA2F2B2FA82F23E
:1008B000696923F0F80301FA02F21343036020E0B0
:1008C00093FAA3F3B3FA83F39B0003F1844303F594
:1008D00084031A60FFF790FD0746022696FAA6F3F6
:1008E000226896FAA6F3B3FA83F303F01F0322FA01
:1008F00003F3D90705D5FFF77FFDC01B0228EDD90B
:100900006AE72B681A0746D5AA693E4C01233E497F
:1009100012B393FAA3F2B2FA82F241F82230FFF74F
:100920006BFD0746022696FAA6F396FAA6F3626ACC
:1009300096FAA6F3B3FA83F303F01F0322FA03F344
:10094000DB0705D4FFF758FDC01B0228EBD943E7AE
:100950000120FFF757FD1EE093FAA3F3B3FA83F3E8
:1009600041F82320FFF748FD0746022696FAA6F332
:1009700096FAA6F3626A96FAA6F3B3FA83F303F043
:100980001F0322FA03F3D80705D5FFF735FDC01B77
:100990000228EBD920E72B68590704D4EA69002A1A
:1009A00040F08180D8E0174C184EE36943F0805343
:1009B000E361E36903F080530193019B336843F4DF
:1009C00080733360FFF718FD07463368DA0505D4F6
:1009D000FFF712FDC01B6428F7D9FDE6EB68012B79
:1009E0001CD0ABB9236A022623F001032362236AD9
:1009F000374623F004032362FFF7FEFC41F28839F7
:100A0000804648E0001002408004424200700040EE
:100A1000052B236A06D143F004032362236A43F0C3
:100A2000010305E023F001032362236A23F004039A
:100A30002362FFF7E1FC02268146B04641F2883787
:100A400096FAA6F396FAA6F30BB1226A00E0626A60
:100A500098FAA8F3B3FA83F303F01F0322FA03F31F
:100A6000DB079BD4FFF7C8FCC9EB0000B842E7D90D
:100A7000B2E6626A97FAA7F3B3FA83F303F01F03AF
:100A800022FA03F3D80789D5FFF7B6FCC8EB0000BC
:100A900048453FF6A1AE96FAA6F396FAA6F3002BC8
:100AA000E7D0226AE6E7474C636803F00C03082BA3
:100AB0003FF454AE022A4FF080735CD193FAA3F353
:100AC000B3FA83F39B0003F1844303F5840300220C
:100AD0001A60FFF791FC80464FF0007696FAA6F375
:100AE000384F226896FAA6F3B3FA83F303F01F0394
:100AF00022FA03F3D90731D42E6AB6F5803F05D127
:100B0000796821F40030A9680143796063686A6AF2
:100B100023F474133243134363604FF0807393FAEA
:100B2000A3F3B3FA83F39B0003F1844303F5840337
:100B300001221A60FFF760FC06464FF0007595FA37
:100B4000A5F3226895FAA5F3B3FA83F303F01F0324
:100B500022FA03F3DA0708D500202FE0FFF74CFC58
:100B6000C8EB00000228B9D936E6FFF745FC801B28
:100B70000228E4D930E693FAA3F3B3FA83F39B0097
:100B800003F1844303F5840300221A60FFF734FC69
:100B900006464FF0007595FAA5F3226895FAA5F37D
:100BA000B3FA83F303F01F0322FA03F3DB07D3D571
:100BB000FFF722FC801B0228EDD90DE603B0BDE84B
:100BC000F08300BF001002401F4B70B503F1100509
:100BD0002E4686B002AC224618685968083303C214
:100BE000AB421446F7D13388184CADF80430606836
:100BF00000F00C03082B24D14FF4701393FAA3F3E5
:100C0000B3FA83F300F4701222FA03F306AA134432
:100C100013F8101CC30311D562684FF4003393FA24
:100C2000A3F3B3FA83F002F40033C34006AA1344DB
:100C300013F8140C064BB3FBF0F000E005484843F2
:100C400000E0034806B070BDBCF10208001002408D
:100C500000127A0000093D00544A2DE9F041136862
:100C6000064603F007038B420D460AD331688C0712
:100C700014D54F48436823F0F002B3681343436030
:100C80000CE0136823F007030B431360136803F0B1
:100C900007039942EAD00120BDE8F081C80706D4D5
:100CA000424A136803F007039D424AD353E0726837
:100CB0003F4C012A02D14FF4003304E0022A0CBF5A
:100CC0004FF00073022393FAA3F1216893FAA3F380
:100CD000B3FA83F303F01F0321FA03F3D907DAD53C
:100CE000636841F2883823F003031A436260FFF718
:100CF00083FB73680746012B0CD1636803F00C0378
:100D0000042BCDD0FFF778FBC01B4045F5D903205D
:100D1000BDE8F081022B0FD1636803F00C03082BB0
:100D2000BED0FFF769FBC01B4045F5D9EFE7FFF7E1
:100D300063FBC01B4045EAD8636813F00C0FF6D183
:100D4000AEE7136823F007032B431360136803F027
:100D500007039D429FD13168154C11F0040F05D057
:100D6000636823F4E062F368134363600B0706D5FE
:100D70006368326923F4605343EAC2036360FFF798
:100D800023FF6368F02292FAA2F2B2FA82F203F031
:100D9000F003D340074AD35CD840074B18600020CB
:100DA000FFF7D0FA0020BDE8F08100BF002002402C
:100DB00000100240A4F1020800000020014B186856
:100DC000704700BF00000020084B4FF4E0625B68F2
:100DD00092FAA2F2B2FA82F203F4E063D340044A38
:100DE000D35C044A1068D840704700BF001002402E
:100DF000B4F1020800000020084B4FF460525B6819
:100E000092FAA2F2B2FA82F203F46053D340044A97
:100E1000D35C044A1068D840704700BF00100240FD
:100E2000B4F1020800000020704770477047704717
:100E3000036810B51A690446910714D5DA68920759
:100E400011D56FF002021A619B6901229B0702769D
:100E500002D0FFF7EAFF04E0FFF7E6FF2046FFF7C6
:100E6000E5FF0023237623681A69500716D5DA6850
:100E7000510713D56FF004021A619B69022213F423
:100E8000407F2276204602D0FFF7CFFF04E0FFF735
:100E9000CBFF2046FFF7CAFF0023237623681A6999
:100EA000120715D5DA68100712D56FF008021A611B
:100EB000DB69042299072276204602D0FFF7B5FFAE
:100EC00004E0FFF7B1FF2046FFF7B0FF00232376D1
:100ED00023681A69D20616D5DA68D00613D56FF0E2
:100EE00010021A61DB69082213F4407F2276204643
:100EF00002D0FFF79AFF04E0FFF796FF2046FFF7C6
:100F000095FF0023237623681A69D10708D5DA688C
:100F1000D20705D56FF001021A61204603F0CEFF1B
:100F200023681A69100608D5DA68110605D56FF02E
:100F300080021A61204600F01EF823681A695206E2
:100F400008D5DA68500605D56FF040021A612046D0
:100F5000FFF76DFF23681A6991060AD5DA689206D1
:100F600007D56FF020022046BDE810401A6100F05E
:100F700001B810BD704770472DE9F04706688168D9
:100F80003369814623F44052C36819241343336103
:100F90000369F26819434369194322F4B05323F0FB
:100FA0000C030B43F360736923F4407283691343AA
:100FB00073613D4B9E4231D1FFF71EFF6043D9F86C
:100FC00004704FF06408BF00B0FBF7F7FFF714FFA1
:100FD0006043D9F80450B7FBF8F7AD00B0FBF5F566
:100FE000FFF70AFF6043D9F804303F019B00B0FBD4
:100FF000F3F0B0FBF8F008FB1055FFF7FDFE2D01F4
:101000003235B5FBF8F56043D9F8041005F0F0056A
:101010008900B0FBF1FAFFF7EFFE30E0FFF7D4FEF6
:101020006043D9F804704FF06408BF00B0FBF7F7D5
:10103000FFF7CAFE6043D9F80450B7FBF8F7AD00DC
:10104000B0FBF5F5FFF7C0FE6043D9F804303F016F
:101050009B00B0FBF3F0B0FBF8F008FB1055FFF776
:10106000B3FE2D013235B5FBF8F56043D9F8041015
:1010700005F0F0058900B0FBF1FAFFF7A5FE444347
:10108000D9F804008000B4FBF0F0B0FBF8F008FBE6
:1010900010A212013232B2FBF8F303F00F032B441B
:1010A0001F44B760BDE8F08700380140F8B504463A
:1010B0000E461546FFF7A0F907462268136836EA80
:1010C000030321D06B1CF9D0C5B923680320DA686B
:1010D00022F08002DA60DA6822F02002DA60DA6850
:1010E00022F48072DA605A6922F001025A61012307
:1010F00084F83930002384F83830F8BDFFF77CF9E4
:10110000C01B8542D9D2E0E70020F8BD10B50446E7
:1011100030B390F8393003F0FF021BB980F8382063
:1011200003F0F4FE2268022384F83930D3682046A5
:1011300023F40053D360FFF71FFF236800201A69D0
:1011400022F490421A615A6922F02A025A61DA683E
:1011500042F40052DA600123E06384F8393010BDB4
:10116000012010BD70B50D4690F839100446C9B283
:1011700001291E4601D0222942D1002D42D0002A49
:1011800040D00023E36394F83930A284222B0CBFB3
:101190003223122384F83930E284E28C02B3A3684C
:1011A000013AB3F5805FE2844FF080013246204679
:1011B0000DD1FFF77BFF08B1032070BD2B8822689B
:1011C000C3F308035360236943B90235E5E7FFF72A
:1011D0006DFF0028F0D123682A785A600135DCE7DA
:1011E000324640212046FFF761FF0028E4D194F801
:1011F0003930322B0CBF2223012384F8393070BDE3
:10120000022070BD012070BD70B51E4690F83930C7
:101210000446DBB2012B0D4601D0122B50D1002D1C
:101220004CD0002A4AD094F83830012B48D0012302
:1012300084F838300023E36394F83930A285122B08
:101240000CBF3223222384F83930E285E38D4BB37F
:10125000013BE385A3683246B3F5805F4FF0200180
:10126000204611D1FFF722FF08B1032070BD23688B
:1012700022695B6822B9C3F3080325F8023BE5E75E
:10128000DBB225F8013BE1E7FFF710FF0028ECD1C6
:10129000236821696A1C5B6809B103F07F032B7026
:1012A0001546D3E794F839300020322B0CBF1223B7
:1012B000012384F8393084F8380070BD012070BDF6
:1012C000022070BD03784278392B04D9602B94BF7B
:1012D000373B573B00E0303B392ADBB204D9602A68
:1012E00094BF373A573A00E0303AD2B203EB0213D8
:1012F0000B7070472DE9F743002406464FF48072C7
:1013000021462D488DF8054025462CF095F9DFF84B
:10131000A8803027002213468DF800708DF80170E8
:101320008DF802708DF803700120715D06EB0509E0
:10133000202901D120B32EE0022A03D15A1E032A0C
:1013400004D914E00A29F9D00D291AE0022B09D199
:101350009DF800309DF801208DF804308DF80020B4
:101360008DF8013008EB04016846FFF7ABFF99F8F0
:1013700000300A2B12D0A3F10D02534253410EE06C
:10138000022ADBD002A818440132013300F8081CFD
:10139000D2B29BB200200135ADB2C6E70123621C78
:1013A000FF2C90B203D01446002BB3D001E04FF4D1
:1013B000807003B0BDE8F0832C4E00204FF6FF7321
:1013C000054A1360054A1360054A1360054A136015
:1013D000054A1360704700BF2C4F00205051002079
:1013E00070660020445000204C5000200023F0B5CF
:1013F0001E460C4D2B809A420FD9C45C11F803E0B5
:101400005F1C7445BFB205D006B12B80CEEB040043
:10141000C0B2F0BD3B460126EDE706B12B800020AF
:10142000F0BD00BF700600200023F0B51C461F462B
:10143000154A164D138016464FF4617202FB015196
:10144000134D834210D2CA5C202A09D0032A07D048
:10145000A2F16104192C98BF203A7C1CEA5527465A
:1014600001339BB20124ECE704B13380094B1F60C8
:10147000074B3B4413F8023C413B192B064B94BFEE
:10148000012200221A70F0BD70060020D8540020FE
:1014900054510020485000203C500020014903F0E6
:1014A000AFBE00BF6825030802460249002003F0D2
:1014B000A7BE00BFC13F03080B46024601491846BC
:1014C00003F09EBEC13F030837B50446514D524953
:1014D0002B7843F001032B7003F092FE4F49204616
:1014E00003F08EFE4C49204603F08AFE6420FEF78E
:1014F00089FF4B4B4B491A782B230093204601233D
:1015000003F07EFE4849204603F07AFE4749204614
:1015100003F076FE4649204603F072FE6420FEF793
:1015200071FF4449204603F06BFE4349204603F017
:1015300067FE4249204603F063FE4149204603F01E
:101540005FFE4049204603F05BFE3F49204603F022
:1015500057FE3E49204603F053FE3D49204603F026
:101560004FFE3C49204603F04BFE3149204603F034
:1015700047FE6420FEF746FF3749204603F040FE51
:10158000364B1B783BB13649204603F039FE3549CE
:10159000204603F035FE3449204603F031FE33493E
:1015A000204603F02DFE6420FEF72CFF3049204634
:1015B00003F026FE2F49204603F022FE2E49204646
:1015C00003F01EFE2D49204603F01AFE6420FEF7AC
:1015D00019FF1749204603F013FE2949204603F05E
:1015E0000FFE6420FEF70EFF2649204603F008FE9A
:1015F0002549204603F004FE2449204603F000FE5E
:101600000549204603F0FCFD2B7823F001032B70E5
:1016100003B030BDC60C002072250308D125030895
:10162000206700203026030895260308F4260308C7
:1016300053270308B227030811280308702803085A
:10164000CF2803082E2903088D290308EC29030855
:101650004B2A0308AA2A0308092B0308880700203D
:10166000682B0308C72B0308262C0308852C0308C6
:10167000E42C0308432D0308A22D0308012E0308C0
:10168000602E0308BF2E03081E2F03087D2F0308BA
:101690002DE9F74304466B4E6B4933786B4F43F0AB
:1016A0000103337003F0ACFD6949204603F0A8FD47
:1016B0006549204603F0A4FD02F08CFC2B23024672
:1016C000644900932046012303F09AFD6420FEF74D
:1016D00099FE6149204603F093FD6049204603F0DE
:1016E0008FFD5F49204603F08BFD02F069F95D4DE7
:1016F0005D49002814BF3A462A46204603F080FD83
:10170000002002F02BFC5949002814BF3A462A4613
:10171000204603F075FD022002F042FC544B554A6E
:101720005549012818BF1A46204603F069FD534960
:10173000204603F065FD6420FEF764FE5049204614
:1017400003F05EFD012002F0E3F801284D4D4E4FFD
:101750000CD17B79012055F8237002F04FFC4B4BE4
:10176000DB7A05EB8305D5F888300CE0022002F027
:10177000CFF80128EDD07B79012055F8237002F0D5
:101780003DFCD5F894300093414A424B4249002831
:1017900018BF13463A46204603F032FD6420FEF798
:1017A00031FE3649204603F02BFD3C49204603F02C
:1017B00027FD012002F032FC354D364F002814BFC2
:1017C000A846B846012002F0DFF800280CBFA94661
:1017D000B946002002F0C2FB002814BF2846384654
:1017E0004B4642462E490090204603F009FD022058
:1017F00002F014FC002814BFA846B846022002F0EC
:10180000C3F800280CBFA946B946002002F0A6FB89
:10181000002814BF284638464B46424600902149CE
:10182000204603F0EDFC6420FEF7ECFD064920465F
:1018300003F0E6FC337823F00103337003B0BDE816
:10184000F08300BFC60C002079250308DC2F0308B5
:10185000043003085C300308BA300308123103086F
:101860006A310308E42F0308C23103081532030864
:10187000F42F0308EC2F030868320308BB32030877
:10188000133303080400002020670020576800205D
:10189000FC2F0308003003086B330308A53303084B
:1018A000FD3303085234030803282DE9F0410546AF
:1018B000DFF860820ED1FFF781FD0222944995483E
:1018C000FFF794FD0446002843D12846FFF7FCFDAE
:1018D00000F050BD012290494046FFF787FD0028E7
:1018E00040F041858D4A8E4940462BF0E9FE98F83C
:1018F0000230303B092B09D88A4B1B68032B05D9D2
:1019000040F2813208F1030140460CE098F80130C2
:10191000303B092B13D8834B1B68022B0FD940F2A5
:1019200082328149881E2BF07CFE7E4B7F4A1B68E9
:10193000043B1360794B1B68002BBCD003E07C4850
:1019400003F03AFCF3E27B4A1278934240F0EF82D4
:10195000B1E7042278496F48FFF748FD044620B9F3
:101960002846FFF795FE00F005BD0322734969483C
:10197000FFF73CFD002840F0CE82042270497148F8
:10198000FFF734FD0446C0B96F4E704932466148D6
:101990002BF096FE3268632A03D92846FFF77EFDB6
:1019A0004AE16B496B482BF067FE6A48FFF77CFD04
:1019B000307802F005FB00F0DDBC03226649614887
:1019C000FFF714FD00284CD1062264496448FFF754
:1019D0000DFD48B95C4C634922464E482BF070FE21
:1019E0002368022B08D9D8E706225C495E48FFF736
:1019F000FDFC0028EED034E003225C495C48FFF790
:101A0000F5FC50B95B495C4B226852482BF034FE20
:101A10005048FFF749FD002116E00322534957487B
:101A2000FFF7E4FC0028EDD0042255495048FFF7A9
:101A3000DDFC70B94F49534B226846482BF01CFE21
:101A40004448FFF731FD0121207801F073FF00F0D9
:101A500058BC04224A494948FFF7C8FC0028E9D08D
:101A60009BE7032248493748FFF7C0FC032218BB15
:101A700046494748FFF7BAFC044640B9454935484E
:101A80002BF08DFE3348FFF70FFD012010E00422FC
:101A900041493F48FFF7AAFC044600287FF47DAF88
:101AA0003E492C482BF07BFE2A48FFF7FDFC2046E0
:101AB00001F07CFF00F05EBC27492248FFF796FC4E
:101AC000002875D1042236492548FFF78FFC0028ED
:101AD0006ED11D4E334F32463B4633490D482BF0F5
:101AE000EFFD3268022A3FF658AF3B6833F002043C
:101AF0007FF453AF2D4917482BF0BEFD1548FFF773
:101B0000D3FC3978307801F061FF00F033BC00BFBE
:101B1000AE34030854510020233F030838500020FE
:101B2000B134030848500020565100206C66002054
:101B3000B534030820670020B6360308C134030813
:101B4000C5340308575100202C4F0020CA34030825
:101B5000D4340308384F00207E35030824360308A8
:101B60005B510020DF3403085C510020EE34030891
:101B700061510020F2340308A734030862510020A9
:101B80000235030800300308073503080B35030846
:101B90005A5100200F350308163503081B3503087A
:101BA0004536030850510020233503083235030819
:101BB00002229D499D48FFF719FC00286FD105229C
:101BC0009B499C48FFF712FC002868D104229A49DF
:101BD0009A48FFF70BFC0446002860D1984E994FB5
:101BE00032463B46984999482BF06AFD3368012BF1
:101BF0003FF6D3AE3B68013B012B3FF6CEAE012250
:101C000093499448FFF7F2FB002814BF10201120DD
:101C10004044FFF76FFB802802D0B0F5807F02D1EF
:101C200023468D490AE02846FFF738FC4FF46172DD
:101C3000214686482BF000FD01249BE3834204D219
:101C40005A5C01331444E4B2F8E7002C7FF4A5AEEB
:101C5000326882493B6882482BF00EFD8048FFF7CE
:101C600023FC7D4A39783078DFF8D48102F04AF8D5
:101C700000283FF492AE734B1B68012B01D1202347
:101C800003E0022B40F076832123D8F80020754929
:101C900073482BF0F1FC7248FFF706FC6AE302225E
:101CA00061496248FFF7A2FB50BB09226E496148B7
:101CB000FFF79CFB58B9624E624C324623466B4993
:101CC00062482BF0FDFC3268012A08D965E609223A
:101CD00065496748FFF78AFB0028ECD010E02368CD
:101CE000591E01293FF659AE62495D482BF0C4FCEC
:101CF0005B48FFF7D9FB3178207801F0CDFF00E396
:101D0000022249494948FFF771FB50BB04225A4956
:101D10004848FFF76BFB58B9494C4A4E22463346B8
:101D200056494A482BF0CCFC2268012A08D934E6EF
:101D3000042251494E48FFF759FB0028ECD010E02F
:101D40003368591E20293FF628AE464944482BF0F7
:101D500093FC4348FFF7A8FB3178207801F03CFF63
:101D6000CFE2032246493148FFF740FB002840D12B
:101D7000032244492F48FFF739FB30B90322424977
:101D80004248FFF733FB40B90DE003223D49384894
:101D9000FFF72CFB0028F1D02BE003223A493C4806
:101DA000FFF724FB50B93B493B4A2D482BF064FC1C
:101DB0002B48FFF779FB012100200FE0042237496F
:101DC0003248FFF713FB60B93249354A24482BF0FB
:101DD00053FC2348FFF768FB0021084602F0ACF8EB
:101DE0008FE204222D492A48FFF700FB0028EBD0A0
:101DF000D3E5032222490D48FFF7F8FA002874D1F1
:101E0000052228491A48FFF7F1FA28B9264B1B7812
:101E1000002B00F086804BE0052222492348FFF783
:101E2000E5FA0028F2D060E0403503085751002061
:101E3000433503085A510020203F03086051002019
:101E40002C4F0020505100204935030854510020E8
:101E50003C370308645100202C4E002058350308FD
:101E6000384F00206B3503087835030882350308A6
:101E70005B51002095350308A54A0308A8350308DF
:101E80007E350308B63503080B3503085D51002085
:101E90005E510020BA3503081335030816350308D0
:101EA0001F350308AB360308880700205C5100206B
:101EB000984C994E22463346984999482BF000FC9D
:101EC0002268022A7FF469AD3368591E01293FF662
:101ED00064AD944994482BF0CFFB9348FFF7E4FAA4
:101EE0003178207802F04AF80BE204228F499048BA
:101EF000FFF77CFA0446A0B98E498B482BF04FFCC3
:101F00008948FFF7D1FA8C4B01229A7002F058F9F8
:101F100002F0AEFE2EE2032288498148FFF766FAFE
:101F200040B14FF4617200217D482BF085FB4FF6E4
:101F3000FF741FE2052282497D48FFF757FA0446E5
:101F400018B9804B80491A78E9E103227F49784823
:101F5000FFF74CFA002833D103227D497D48FFF773
:101F600045FA48B96B4C7C4922466D482BF0A8FBDA
:101F70002468022C08D910E5032275497748FFF739
:101F800035FA0028EED01BE09CB9012001F0C0FC1E
:101F900001220346724964482BF06EFB29466248D1
:101FA000FFF78AFA022001F0B3FC022203466C49D3
:101FB000C3E1E0B201F0ACFC22460346684999E176
:101FC000032262495A48FFF711FA00283FD106223E
:101FD00064496048FFF70AFA48B94E4C6249224604
:101FE0004F482BF06DFB2468022C08D9D5E406225B
:101FF0005C495A48FFF7FAF90028EED027E0DCB92F
:10200000012001F0C1FC594F594E0122002814BF94
:102010003B463346574944482BF02EFB294642485D
:10202000FFF74AFA022001F0AFFC0222002814BF99
:102030003B4633464F4980E1E0B201F0A5FC4B4AF4
:102040004B4B4C49002818BF1346224652E104224C
:1020500049493748FFF7CAF9044640B901F0B0FCD6
:10206000464B474A4749002818BF1A4657E1042201
:1020700045492F48FFF7BAF9044618B9284602F037
:1020800047F877E1032231492948FFF7AFF90028E3
:1020900033D105223D492F48FFF7A8F948B91D4C17
:1020A0003B4922461E482BF00BFB2468022C08D922
:1020B00073E4052235492948FFF798F90028EED046
:1020C0001BE09CB9012001F0ABFC01220346314921
:1020D00015482BF0D1FA29461348FFF7EDF90220F5
:1020E00001F09EFC022203462A4926E1E0B201F0FB
:1020F00097FC224603462749FCE0072226490C4864
:10210000FFF774F9044600284AD10E4B23495A7947
:1021100005E100BF2C4F002050510020C5350308B9
:1021200054510020D5350308384F0020E43503080A
:1021300057510020E935030870060020ED350308EB
:10214000F135030820670020D43403087E350308E6
:10215000F73503085B510020FB3503085C51002074
:1021600006360308143603081C360308003003083B
:10217000A7340308F23403082B360308AA340308F3
:102180001F35030830360308B63603083736030810
:102190003D360308323503084A3603085236030831
:1021A000032276497648FFF721F9D8B90922754903
:1021B0007548FFF71BF970B9744C7549224675488C
:1021C0002BF07EFA2068431E012B3FF6E6ABC0B22F
:1021D00001F0B2FD95E009226A496F48FFF706F960
:1021E0000028E9D002226D496548FFF7FFF8002872
:1021F0003BD104226A496B48FFF7F8F830B9052251
:1022000069496A48FFF7F2F870B107E004226449AF
:102210006748FFF7EBF80028F1D026E00522624975
:102220006448FFF7E3F8C8B9634C6449224659484B
:102230002BF046FA2268531E1F2B3FF6AEAB6049C7
:1022400060482BF019FA5F4A5F49284602F0D8FF30
:1022500022780121284601F0BDFD52E005225249B5
:102260005A48FFF7C3F80028DED003224349444808
:10227000FFF7BCF8C8B9042255494D48FFF7B6F836
:1022800060B9002001F06AFE524B534A53490028BE
:1022900008BF1A464B482BF0EFF92EE004224C49B8
:1022A0003948FFF7A3F80028EBD00322334934481C
:1022B000FFF79CF838BB062249493348FFF796F8E8
:1022C00080B9324C4749224632482BF0F9F924684C
:1022D000022C7FF462AB204601F062FE22460346E8
:1022E000414907E006223E492B48FFF77FF80028C6
:1022F000E7D008E033482BF0BFF929463148FFF713
:10230000DBF8002436E0092238491D48FFF76EF853
:10231000044640B9012001F0E5FE0246344929484F
:102320002BF0AAF91AE0072232491548FFF75EF8A8
:10233000044630B930492B23012222482BF09CF966
:102340000CE008222D490E48FFF750F804460028FB
:102350007FF4E7AD2A491B482BF021FA294619489A
:10236000FFF7AAF806E0274B1B78002B7FF4DFADC0
:10237000FFF7A1BA2046BDE8F08100BF7E35030813
:10238000575100205D3603085B5100202C4F002080
:1023900067360308545100205C5100204035030883
:1023A000A54A030859510020613603085E510020F8
:1023B0005A5100205F510020505100207836030808
:1023C00088360308384F0020C235030860510020CA
:1023D000983603081F35030813350308BA35030878
:1023E0009D360308A4360308D5350308B136030823
:1023F000BB360308C5360308CD360308DF360308AD
:10240000E83603082067002008282DE9F041074638
:102410000D46214E4FEA810405D13219536863B14C
:10242000013B536009E033195A68511C59601B493C
:102430004FF4617303FB0513985406EB0408D8F8B6
:102440000430B3F5617F07D32946154802F0B4FE86
:1024500040F28333C8F804300A2F01D00D2F19D170
:10246000344429466068FEF7DFFF002363604FF4C1
:1024700061736B43094AD35C0D2B0BD00A2B09D037
:102480002846FFF711FA4FF6FF73984202BF054B3B
:1024900001221A70BDE8F08170060020D854002097
:1024A000F7360308A40C002000BF00BF00BF00BF28
:1024B00000BF00BF7047000010B5044638B10122CC
:1024C00040210B48FEF712F9012C07D010BD02463F
:1024D000BDE8104040210648FEF708B940F2E93453
:1024E00040210348FEF7FCF808B9013CF8D110BDC3
:1024F000000C014010B5044638B1012280210B4880
:10250000FEF7F4F8012C07D010BD0246BDE81040DC
:1025100080210648FEF7EAB840F2E93480210348FA
:10252000FEF7DEF808B9013CF8D110BD000C0140FF
:1025300008B50120FFF7DEFF00BF0120FFF7BCFF59
:1025400000BF40210C48FEF7CBF808B9002008BDB9
:1025500080210948FEF7C4F80028F7D00022802126
:102560000548FEF7C3F800BF002240210248FEF7ED
:10257000BDF8012008BD00BF000C014010B50B4C98
:10258000002240212046FEF7B1F800BF0022802142
:102590002046FEF7ABF800BF0120FFF78DFF00BF1C
:1025A0000120FFF7A7FF00BF10BD00BF000C0140D6
:1025B000F8B5074608248026002501228021154809
:1025C000FEF794F80120FFF777FF00BF8021114844
:1025D000FEF786F800B13543002240210D48FEF792
:1025E00085F800BF013C4FEA5606E6D10FB1204600
:1025F00000E00120FFF77EFF00BF0120FFF75CFF36
:1026000000BF002240210348FEF770F800BF2846B3
:10261000F8BD00BF000C014070B5064608248025B7
:1026200016EA050018BF0120FFF764FF00BF012074
:10263000FFF742FF00BF002240211048FEF756F886
:1026400000BF013C4FEA5505EAD1012280210B4829
:10265000FEF74CF800BF0120FFF72EFF00BF8021DE
:102660000648FEF73DF82246054640210348FEF79E
:102670003DF800BF281C18BF012070BD000C0140B0
:1026800038B511B940F0010501E000F0FE05042461
:10269000013C14F0FF0410D0FFF74AFF0028F7D0E8
:1026A0002846FFF7B9FF50B1FFF768FF00BF00BF32
:1026B00000BF00BF00BF00BFEAE7204638BD0120D1
:1026C00038BD00002DE9F04106460F4690461C46F5
:1026D0000425013D15F0FF051CD001213046FFF710
:1026E000CFFF0028F5D03846FFF796FF0128F0D03D
:1026F00000213046FFF7C4FF0028EAD0013CE4B2D5
:10270000FF2C05D02046FFF753FF08F8010BF5E733
:10271000002400E00224FFF731FF2CB13B46324693
:102720002146034802F048FD2046BDE8F08100BF85
:10273000773A03082DE9F0410746884615461E46BC
:102740000424013C14F0FF0414D001213846FFF7A3
:1027500097FF0028F5D04046FFF75EFF0128F0D034
:102760002E44B54204D015F8010BFFF755FFF8E7EA
:10277000002400E00224FFF701FF2CB143463A4653
:102780002146034802F018FD2046BDE8F08100BF55
:10279000B73A030810B5044640B101224FF4804116
:1027A0000C48FDF7A3FF012C08D010BD0246BDE880
:1027B00010404FF480410748FDF798BF40F2E934DC
:1027C0004FF480410348FDF78BFF08B9013CF7D176
:1027D00010BD00BF000C014010B5044640B10122FD
:1027E0004FF400410C48FDF781FF012C08D010BDCB
:1027F0000246BDE810404FF400410748FDF776BFA0
:1028000040F2E9344FF400410348FDF769FF08B98D
:10281000013CF7D110BD00BF000C014008B50120FC
:10282000FFF7DAFFFFF740FE0120FFF7B3FFFFF7E6
:102830003BFE4FF480410E48FDF752FF08B90020DF
:1028400008BD4FF400410A48FDF74AFF0028F6D0C2
:1028500000224FF400410648FDF748FFFFF724FE31
:1028600000224FF480410248FDF740FF012008BDDF
:10287000000C014010B50E4C002220464FF4804160
:10288000FDF734FFFFF710FE00224FF40041204611
:10289000FDF72CFFFFF708FE0120FFF77BFFFFF796
:1028A00003FE0120FFF798FFBDE81040FFF7FCBDD5
:1028B000000C0140F8B507460824802600254FF497
:1028C000004101221948FDF711FFFFF7EDFD01203E
:1028D000FFF760FFFFF7E8FD4FF400411348FDF7F5
:1028E000FFFE00B1354300224FF480410F48FDF751
:1028F000FDFEFFF7D9FD013C4FEA5606DFD10FB1CF
:10290000204600E00120FFF767FFFFF7CDFD012023
:10291000FFF740FFFFF7C8FD00224FF48041034856
:10292000FDF7E4FEFFF7C0FD2846F8BD000C0140AE
:1029300070B506460824802516EA050018BF012058
:10294000FFF74AFFFFF7B0FD0120FFF723FFFFF776
:10295000ABFD00224FF480411348FDF7C7FEFFF79F
:10296000A3FD013C4FEA5505E6D101224FF4004199
:102970000D48FDF7BBFEFFF797FD0120FFF70AFFAB
:10298000FFF792FD4FF400410748FDF7A9FE054609
:1029900022464FF480410448FDF7A8FEFFF784FD6E
:1029A000281C18BF012070BD000C014038B511B9BA
:1029B00040F0010501E000F0FE050424013C14F0A4
:1029C000FF040ED0FFF72AFF0028F7D02846FFF7B4
:1029D000AFFF40B1FFF74EFFFFF766FDFFF764FD65
:1029E000ECE7204638BD012038BD00002DE9F04756
:1029F00006460F4690461C46C1F3072904255FFA98
:102A000081FA013D15F0FF0522D001213046FFF784
:102A1000CDFF0028F5D04846FFF78AFF0128F0D007
:102A20005046FFF785FF0128EBD000213046FFF725
:102A3000BDFF0028E5D014F1FF3407D3201C18BFD8
:102A40000120FFF737FF08F8010BF4E7002400E04E
:102A50000224FFF70FFF2CB13B46324621460348C4
:102A600002F0AAFB2046BDE8F08700BFF83B030850
:102A70002DE9F04780460E4615461F46C1F307294B
:102A800004245FFA81FA013C14F0FF0419D00121FB
:102A90004046FFF78BFF0028F5D04846FFF748FF78
:102AA0000128F0D05046FFF743FF0128EBD02F4418
:102AB000BD4204D015F8010BFFF73AFFF8E70024F8
:102AC00000E00224FFF7D6FE2CB1334642462146F1
:102AD000024802F071FB2046BDE8F0873E3C030847
:102AE00010B5064C0B460246054920462AF0C4FDA7
:102AF0002046BDE81040FEF7D7BC00BF384F00208D
:102B0000D5350308054B1B7813B108B1012200E04D
:102B100000224FF480510248FDF7E8BD88070020ED
:102B2000000C0140042810B540F08180424B012286
:102B30001A70424B5B6A9BB2A3F21551622940495D
:102B40000BD8404A002313703F4A0B7013703F4A62
:102B500013703F4A13703F4A52E0A3F165001728F3
:102B60001ED80B78072B02D8364C9A4014E0A3F1FC
:102B70000800C4B2072C01D8334C0CE0A3F11000BC
:102B8000C4B2072C01D8314C05E0A3F11800C4B23F
:102B9000072C36D82E4C8240207820EA02020AE028
:102BA000A3F1C900302820D80B78072B07D8254C73
:102BB0009A4020780243013322700B7021E0A3F188
:102BC0000800C4B2072C01D81F4C0CE0A3F1100080
:102BD000C4B2072C01D81D4C05E0A3F11800C4B203
:102BE000072C0ED81A4C8240E3E740F2E632A3F5F8
:102BF0000C53293B9BB2934203D8164A13780133F6
:102C000013700B78202B12D10D4B00221A700D4A35
:102C1000114B12781A700C4A12785A700B4A1278BB
:102C20009A700B4A1278DA700C4B01221A70034B1F
:102C300000225A6210BD00BFCD0C002000040040ED
:102C4000D40C0020D30C0020D20C0020D10C00208A
:102C5000D00C0020CF0C0020A86A0020CE0C002051
:102C6000074A138801339BB2C72B138006D9054B43
:102C70000121197000231380034A1370704700BFAD
:102C800012670020C266002074660020013808B573
:102C900003283ED8DFE800F002091A26012210219D
:102CA0001C48FDF723FD002205E0002210211948F1
:102CB000FDF71CFD012220211648FDF717FD00221B
:102CC00080211448FDF712FD00221BE00022102194
:102CD0001048FDF70BFD002220210E48FDF706FDF0
:102CE0000122EDE7002210210A48FDF7FFFC002237
:102CF00020210848FDF7FAFC002280210548FDF755
:102D0000F5FC01224FF480710248BDE80840FDF750
:102D1000EDBC08BD00100140F8B500F03F0700F021
:102D200020000025C4B247FA05F2D207EBB22ED537
:102D3000013B042B04D8DFE803F00507090B0F0063
:102D400001222CE001222EE0012230E0012232E0BB
:102D5000002C3BD1012234E01E4B1A68B2F5967F5D
:102D600034D39A681C4E5A6073783BB901224FF4F1
:102D700080511A48FDF7BAFC012306E000224FF407
:102D800080511648FDF7B2FC002373701EE0042B3F
:102D90001CD8DFE803F003070B0F140000224FF4E8
:102DA00000710AE000224FF4806106E000224FF437
:102DB000006102E000224FF48051094804E02CB980
:102DC000224606484FF48051FDF790FC0135062D50
:102DD000A9D1F8BD906A002088070020000C0140AE
:102DE00000100140054B1B7B012B01D1002002E0AC
:102DF000022B02D10120FFF785BE7047206700201B
:102E000010B5074B1878232894BF0446002458783F
:102E1000FFF73CFF2046BDE81040FFF77DBF00BF35
:102E20001067002038B5164D2B78012B08D1154BB3
:102E30001B78013B012B22D9BDE83840FFF7D2BFF8
:102E4000032B1CD10F4C2378013B032B17D8DFE851
:102E500003F0020A0E1001F055FE022323700A4B04
:102E600000221A8038BDBDE83840FFF7C9BF01F025
:102E700049FE0123044A2B7000231380237038BDC0
:102E8000C2660020746600201267002010B5102171
:102E90002148FDF725FC214CA37810B143F0010334
:102EA00001E023F0010380211D48A370FDF718FC09
:102EB000A37810B143F0020301E023F002034021A4
:102EC0001748A370FDF70CFCA37810B143F004037E
:102ED00001E023F0040320211148A370FDF700FC5A
:102EE000A37810B143F0080301E023F00803102198
:102EF0000B48A370FDF7F4FBA37810B143F0100367
:102F000001E023F01003A370A078E37883421CBF94
:102F1000024BD87010BD00BF001001408807002090
:102F20000008014038B50546002445FA04F3DB07E4
:102F300003D52146034802F03FF90134032CF4D1B4
:102F400038BD00BF123D030801280CD006D302286B
:102F50000ED1084B1879C0F380007047054B1879E3
:102F600000F001007047034B1879C0F34000704730
:102F7000002070478807002038B50D46144668B118
:102F800001281ED1104911482AF076FB0F48FEF7A0
:102F90008BFA2146284600F055FD12E0531E012B06
:102FA0000CD80B4909482AF067FB0848FEF77CFA61
:102FB00029462046BDE8384000F06EBE054802F0C4
:102FC000FBF8012038BD00BF52360308384F0020FF
:102FD000203D0308313D030838B5594C0023637187
:102FE00023785BB101215748FDF77AFB00282FD1E8
:102FF00001215448FDF774FB50BB25E0524B1B7870
:10300000032B25D1514B1A7B1D46022A03D0297B65
:1030100001291DD10FE001214A48FDF761FB01287C
:10302000F5D14B4B5B78002BF1D0494B5A787AB1F4
:1030300000225A7008E04348FDF752FB40B9444B68
:103040005B78002BF1D103E0637943F001036371F6
:1030500010214048FDF744FBA37810B143F0010371
:1030600001E023F0010380213B48A370FDF738FB0A
:10307000A37810B143F0020301E023F002034021E2
:103080003548A370FDF72CFBA37810B143F004037F
:1030900001E023F0040320212F48A370FDF720FB5B
:1030A000A37810B143F0080301E023F008031021D6
:1030B0002948A370FDF714FBA37810B143F0100367
:1030C00001E023F01003A370A278E1781C4B914239
:1030D000224D06D0DA7001229A71DA7101F0F0FE09
:1030E000686001F0EDFE6B68A860C31AB3F57A7FE3
:1030F0002B6024D3194B12495860A379FBB10023EC
:103100008B718B787BB9164A927A12B1C87910B15B
:10311000CB711F220BE0531E012B10D80121FFF7AA
:103120002BFF60B107E05A1E1D2A08D81A4601215C
:103130000846FFF721FFBDE8384001F0E3BC38BD89
:1031400088070020000C0140CB0C002020670020E5
:10315000B80000200010014000080140906A0020E3
:103160005768002008B50B4A13781844C0B21F28CE
:10317000134603D0222801D0242801D0187001E082
:1031800001221A701978044802F016F8034B002245
:103190001A8008BD10670020573D03081267002001
:1031A0000A4B00215A781044C0B2012884BF012282
:1031B0005A70074A98BF587011805A780549013AE9
:1031C000D2B20A4452791A70704700BF10670020CB
:1031D000126700202067002008B50E4B1A78032ADA
:1031E0000D4A04D001211970002313700EE030B98C
:1031F00011780229F6D10120FFF7D2FF06E001285D
:10320000F0D111780229EDD1FFF7ACFF034B00227A
:103210001A8008BDC2660020746600201267002074
:1032200070B51B4C48B91B4B01251B78A57033B9F1
:10323000194801F0C1FF194B5D70A37833B3002327
:10324000A370174C257B012D0BD102263146154862
:10325000267301F0B1FF217B3046FFF741FC2B467E
:103260000CE0022D12D1012631460E48267301F0E2
:10327000A3FF217B2846FFF733FC334604F10C0201
:103280000C21AE20BDE87040FFF7F2BB70BD00BF5F
:103290005768002088070020653D0308B80000201B
:1032A000206700207B3D0308F8B53A4C23895BB3C7
:1032B000A37A4BBB01F004FE238A80B2E081C01ADE
:1032C00041F2883380B29842A0811DD90123A372B4
:1032D000238903F00302032A02D123F003029AB1E7
:1032E0000022174615462371D1B20846FFF72CFE7F
:1032F00010B10F460135EDB20132032AF4D1012D90
:1033000004D000232371F8BD00273D46FFF764FE7B
:103310006379204E218963B132791A439BB2994275
:10332000327136D0338101F0CBFD00233082B3728D
:10333000F8BD21B1B27A12B13381B37233712289EF
:10334000144B12B19A7A02B91A81207908B3FFF7A7
:10335000E9FD0022D1B20846FFF7F6FD10B10F4695
:103360000135EDB20132032AF4D1012D06D000233C
:1033700023710948BDE8F84001F01EBF074B3846ED
:103380001B78012B02D1FFF74BFFBAE7FFF724FFB1
:10339000B7E7F8BD88070020923D0308C266002009
:1033A000024B01221A70FFF73DBD00BF7666002078
:1033B000084B094901221A7000230B8007490B7042
:1033C000074B1B782BB9074B1978074B01B9022221
:1033D0001A737047C26600201267002074660020CE
:1033E00088070020C40C002020670020F0B58BB0B7
:1033F00000250AA901F81D5D284601F013FE0028EA
:1034000000F0D48129469DF80B00FEF7FDFF9DF8E2
:103410000B20B74C082A03D123882BB1013B07E0CE
:103420000A2A0AD00D2A05D02388E1188A720133AE
:10343000238002E0238823449D722388AC48B3F59F
:10344000807F02D900230380A7E10D2A40F0A581E7
:10345000002B00F0A2810025034403AE0E3003953B
:10346000756035819D72FCF719FF2A4680B2E9B27A
:1034700088422AD963189B7B202B05D129B3042AC3
:1034800023D00132D2B21EE0A3F13001092905D8C0
:1034900036F8121003EB0113303B12E0A3F1610187
:1034A000052905D836F8121003EB0113573B08E045
:1034B000A3F14101052908D836F8121003EB0113D6
:1034C000373B26F812300135D1E7894D0023894971
:1034D00005F10A006373FCF7D7FE78B9864DBDF895
:1034E0000C7003262E7027B9844801F065FE2F70FA
:1034F000FAE0834801F060FE2E70F5E0814905F1A5
:103500000A00FCF7C1FEA8B90DF11202BDF81010B7
:103510000123BDF80E00FFF70DF9BDF81200BDF84C
:1035200010300090BDF80E20BDF80C10764801F068
:1035300043FE2AE1754905F10A00FCF7A5FE06469F
:1035400010BBBDF8123006AABDF81010BDF80E0071
:10355000FFF7B8F8BDF81030BDF80E20BDF80C101C
:103560006B4801F029FE3046BDF81230451C80B290
:10357000834240F20A810AAB184410F8101C6548D7
:1035800001F01AFE2846EFE7634905F10A00FCF74F
:103590007BFE074638BBBDF80C30322B40F0A480D0
:1035A000BDF80E60012E40F09F80534D5B482B7894
:1035B00043F001032B7001F0FFFD2B78324623F01E
:1035C00001034FF4807156482B70FDF78FF80220ED
:1035D000FCF718FF3A4631465248FDF787F80220BB
:1035E000FCF710FF80E0504905F10A00FCF74CFEA3
:1035F0000146C0B9BDF80C203F4D4C4B32B90121FA
:1036000019702B784A480B432B7005E018702B7803
:10361000484843F001032B7001F0CEFD2B7823F0D6
:1036200001032B7060E0444905F10A00FCF72CFE11
:1036300090B9BDF80C30322B56D1BDF80E30202B8E
:1036400052D12D4D2B222B78012143F001033B4811
:103650002B7001F0B1FDE1E7394905F10A00FCF7F3
:1036600013FE002840D0374905F10A00FCF70CFE94
:10367000064640B9BDF81020BDF80E10BDF80C008C
:1036800027F070FA7FE0304905F10A00FCF7FCFDF5
:10369000064688B9BDF80E20BDF80C10BDF81030F4
:1036A0002A4801F089FDBDF81020BDF80E10BDF8C4
:1036B0000C0027F051FB66E0254905F10A00FCF7F4
:1036C000E3FD002848D1BDF80E20BDF80C10BDF870
:1036D0001030204801F070FDBDF81020BDF80E102C
:1036E000BDF80C0027F058FB002384F80A354CE0A5
:1036F0009A0700209E3D0308C60C0020A23D030847
:10370000B03D0308BD3D0308C13D0308F43D030877
:10371000F83D0308223E0308293E03082D3E030816
:10372000000C014000100140433E0308C70C00207C
:10373000473E0308563E0308643E0308683E0308FC
:10374000BB4A0308843E0308883E03088C3E0308F6
:103750009B3E03089F3E0308164D174905F10A00DA
:10376000FCF792FD064680B9BDF81400BDF8103094
:103770000190BDF81200BDF80E200090BDF80C10AD
:103780000E4801F019FD85F80A654FF4807200219A
:103790000B4829F051FF0023238094F80A352BB100
:1037A000044B002083F80A05FDF778FE01200BB0DA
:1037B000F0BD00BF9A070020AE3E0308B23E0308EA
:1037C000A407002010B50E2200210A4829F034FF7A
:1037D0000F241B220021084829F02EFF2246002139
:1037E000064829F029FF2246BDE810400021044880
:1037F00029F022BF496800202E6800205768002069
:1038000066680020012808B5014601D1032008BDE3
:10381000024801F0D1FCFF2008BD00BFC93E0308EB
:1038200008B5431E012B05D90146044801F0C4FC2C
:10383000FF2008BD831E5842584108BDE23E0308E0
:103840002DE9F041304C314E2746B0460025B37982
:10385000A27901359A4208D0A371E8B2FFF7E0FFE0
:10386000B2790146002027F02FF9337A227A9A4262
:1038700007D02372E8B2FFF7D3FF0146002027F0FC
:103880000FF9022D04F1010406F10106DFD198F8C9
:103890000230BA789A420FD01B4A01209370FFF78A
:1038A000BFFF0146002027F0FBF82846FFF7B8FFCE
:1038B0000146002027F0F4F898F80A20BB7A9342DA
:1038C00005D0114B002108469A7227F04BF998F861
:1038D0000C303A7B9A4214D00B4A012B137305D15A
:1038E0000020FFF70FF90021084606E0022B08D15F
:1038F0000120FFF707F901210020BDE8F04127F082
:10390000FBB8BDE8F08100BF75680020206700208B
:1039100008B5431E012B014604D9044801F04CFCB4
:10392000FF2008BD02480144887808BDFC3E03081A
:103930002067002070B50C46124DB8B92A46012305
:1039400002F8061FAE200D21FFF792F80520FCF7C4
:1039500059FD2A46012302F8074F0E21AE20FFF73A
:1039600087F8BDE870400520FCF74CBD421E2A4494
:1039700002F8061F012300F10C01BDE87040AE20E3
:10398000FFF776B82067002008B5431E012B0146DB
:1039900004D9044801F010FCFF2008BD024801448E
:1039A000487908BDFC3E030820670020034A012334
:1039B00002F8020F0821AE20FFF75AB82067002056
:1039C000014B9878704700BF2067002070B50D4606
:1039D000124CB8B92246012302F8081FAE200F216D
:1039E000FFF746F80520FCF70DFD2246012302F8FB
:1039F000095F1021AE20FFF73BF8BDE870400520BD
:103A0000FCF700BD2318D971C21D224400F10E013C
:103A10000123AE20BDE87040FFF72AB820670020E0
:103A200008B5431E012B014604D9044801F0C4FB2C
:103A3000FF2008BD02480144C87908BDFC3E0308C8
:103A4000206700202DE9F0410C46414A461E3244D1
:103A500002F8051F012300F110010546AE20FFF713
:103A600007F8023C0520FCF7CDFC1F2C55D8DFE8F9
:103A700004F010121416181A1C1E20222426282ABC
:103A80002C2E30323436383A3C3E40424446484A86
:103A90004C4E304C42E0304C40E0304C3EE0304C3C
:103AA0003CE0304C3AE0304C38E0304C36E0304CC2
:103AB00034E0304C32E0304C30E0304C2EE0304CD2
:103AC0002CE0304C2AE0304C28E0304C26E0304CE2
:103AD00024E0304C22E0304C20E0304C1EE0304CF2
:103AE0001CE0304C1AE0304C18E0304C16E0304C02
:103AF00014E0304C12E0304C10E0304C0EE0304C12
:103B00000CE0304C0AE0304C08E0012100E00221DA
:103B1000284600F009FD2D4C00E02D4C2D4B9F5DFB
:103B20005FB1002728469F55FFF76CFE22460146ED
:103B30003846BDE8F04128F01FBA2846FFF762FE7C
:103B400023463A4601463846BDE8F04128F0D8B948
:103B5000206700204E0E03084E0D03084E0C03088C
:103B60004E0B03084E0A03084E0903084E080308CB
:103B70004E0703084E0603084E0503084E040308CB
:103B80004E0303084E0203084E0103084E000308CB
:103B90004EFF02084EFE02084EFD02084EFC0208CF
:103BA0004EFB02084EFA02084EF902084EF80208CF
:103BB0004EF702084EF602084EF502084EF40208CF
:103BC0004EF302084EF202084E1003082E67002042
:103BD0004E0F03084149002008B538B90120FFF70E
:103BE00031FFBDE808400520FCF70CBCBDE80840EB
:103BF000FFF728BFF8B5214E0246B57B0C46012DD4
:103C000027D1307B00230A46B3731D4F294648B99C
:103C1000284600F06DFC3A46202402F8054F2B465A
:103C2000112109E000F064FC2B46317B20244A1E60
:103C30003A4402F8054F1031AE20FEF719FF224634
:103C40001049114829F018FDBDE8F8400E48FDF76D
:103C50002BBC0E49002001F0D3FA651EFF3415F885
:103C6000012F0B49002001F0CBFAA542F7D10949F9
:103C70000020BDE8F84001F0C3BA00BF576800203B
:103C80002067002052360308A50C0020153F0308CA
:103C9000253F0308783D030870B50446164B012004
:103CA0000D46987319735C73D9B9FFF7ABFD0646DF
:103CB0002046FFF7B5FD32460146284626F0C0FFF4
:103CC00040B10E492046FFF795FF0A20FCF79AFB0A
:103CD000012070BD22460A49002001F091FA00201F
:103CE00070BD0846FFF78EFD05462046FFF798FD9C
:103CF0002A4601460020E1E7576800200E8F002089
:103D00002C3F0308012938B5044604D0022914BF0A
:103D10000025212500E020252CB9012000F0E8FB3A
:103D20002946012004E0204600F0E2FB2946204617
:103D3000FFF788FE012038BD70B5431E012B9EB0F1
:103D4000044604D901461C4801F036FA32E06946BF
:103D5000002022F0D5FA064660BB2046FFF760FD42
:103D60001EAB00EB4000184410F8283C022B1CD17D
:103D700010F8273C022B18D1104B114D2246022C73
:103D800008BF1D460F49304601F03AFA6C1EFF3558
:103D900014F8012F0C49002001F032FAAC42F7D19F
:103DA0000A49002001F02CFA04E0224608490020CC
:103DB00001F026FA1EB070BDFC3E0308FD8D002008
:103DC000FD8C0020153F0308253F0308783D0308BC
:103DD0002C3F0308013A70B506460846202A56D8FB
:103DE000DFE802F011131517191B1D1F21232527CA
:103DF000292B2D2F31333537393B3D3F4143454743
:103E0000494B4D4F51002A4B41E02A4B3FE02A4B92
:103E10003DE02A4B3BE02A4B39E02A4B37E02A4B66
:103E200035E02A4B33E02A4B31E02A4B2FE02A4B76
:103E30002DE02A4B2BE02A4B29E02A4B27E02A4B86
:103E400025E02A4B23E02A4B21E02A4B1FE02A4B96
:103E50001DE02A4B1BE02A4B19E02A4B17E02A4BA6
:103E600015E02A4B13E02A4B11E02A4B0FE02A4BB6
:103E70000DE02A4B0BE02A4B09E02A4B07E02A4BC6
:103E800005E0012100E0022100F04EFB274B5D1E02
:103E900003F1FF0415F8012F2549304601F0B0F970
:103EA000AC42F7D13046BDE87040224901F0A8B9D4
:103EB0004E0F03084E0E03084E0D03084E0C030868
:103EC0004E0B03084E0A03084E0903084E08030868
:103ED0004E0703084E0603084E0503084E04030868
:103EE0004E0303084E0203084E0103084E00030868
:103EF0004EFF02084EFE02084EFD02084EFC02086C
:103F00004EFB02084EFA02084EF902084EF802086B
:103F10004EF702084EF602084EF502084EF402086B
:103F20004EF302084EF202084E1003082E670020DE
:103F3000253F0308783D030818B10146054801F004
:103F40003BB9054A012302F80A1FAE200B21FEF7F8
:103F50008FBD00BFFC3E03082067002008B5014666
:103F600020B1044801F028F9002008BD024B987ADE
:103F700008BD00BFFC3E030820670020022803D0D4
:103F80000146054801F018B9044A012302F80C1F44
:103F9000AE200C21FEF76CBDFC3E0308206700201C
:103FA000022808B5014604D0034801F005F90020B5
:103FB00008BD024B187B08BDFC3E030820670020AB
:103FC000034A012310700721AE20FEF751BD00BF48
:103FD00020670020014B1878704700BF2067002041
:103FE000012803D00146034801F0E6B8024B59719D
:103FF000704700BF3A3F030857680020012808B502
:10400000014604D0034801F0D7F8002008BD024B58
:10401000587908BD663F0308576800202DE9F04134
:10402000471EFBB2012B9EB005464FF0000405D998
:104030000146154801F0C0F8204621E0134E6946BC
:1040400006EB0708204688F8064022F059F9A8B97F
:104050002846FFF7E5FB1EAB00EB4000184410F8C4
:10406000283C022B07D110F8273C022B03D1012357
:1040700088F8063002E0F31900229A713E44B079C4
:104080001EB0BDE8F08100BFFC3E03085768002069
:1040900010B5431E012B9EB0044605D901461048B9
:1040A00001F08AF8002018E06946002022F028F983
:1040B0000028F7D12046FFF7B3FB1EAB00EB400012
:1040C000184410F8283C022BECD110F8273C022BA6
:1040D000E8D110F8260C0128E4D11EB010BD00BFB5
:1040E000FC3E0308012808B5014604D0064801F04B
:1040F00063F8002008BDFFF781FF044B003018BFB4
:104100000120587308BD00BF793F030820670020D5
:10411000F8B504461F4D20492A7801F071F81F4F69
:10412000AA781F4E1F49002A14BF3A46324620463D
:1041300001F066F82B7B02221B49204601F060F853
:10414000AA7A1A49002A14BF3A463246204601F09C
:1041500057F80120FFF718FC154F164E01220028D2
:104160000CBF3B4633461449204601F049F8022073
:10417000FFF70AFC022200280CBF3B4633460E49DB
:10418000204601F03DF86A792046BDE8F8400B4929
:1041900001F036B820670020923F0308133503086A
:1041A0001F3503089F3F0308A83F0308B93F0308D2
:1041B000A734030800300308C63F0308D83F0308AC
:1041C00013B54E2302AA02F8013D36210123AE2089
:1041D000FEF74EFC0520FCF715F900F04DF900F054
:1041E00029FA00F08FFCFEF751FE431EDBB21D2BB7
:1041F0000B4C84BF202363710A4B98BF60711B78FE
:1042000043B901210848FCF76BFA08B1012300E02B
:104210000223237361790120FFF714FC02B010BD63
:104220002067002088070020000C0140014610B5DF
:10423000431E00F1FF02002413F8010F04449342CF
:10424000E4B2F9D10822064829F0DCF900B924B11A
:10425000044800F0B1FF002010BD012010BD00BFD8
:1042600088120308E53F030838B5324B5A791D46DA
:1042700002B101224FF400612F48FCF737FA012008
:10428000FFF706FF024600B101224FF480512A4891
:10429000FCF72CFA0220FFF7FBFE024600B10122D8
:1042A0004FF400512448FCF721FA0120FFF7B6FE35
:1042B000224CD0B1AB7AC3B9214A012513701D4BF2
:1042C0009D72204B1B7843B91F4A13701F4B1D7002
:1042D00000F0F6FD1E4B586004E000F0F1FD1D4BB0
:1042E00060609D771C4800F067FF00F0E9FD63689F
:1042F000A060C31AB3F57A7F236019D9154C0F4B10
:10430000A57F5860012D06D11448FFF78FFF78B1C3
:10431000124A294607E0022D0AD11148FFF786FF0D
:1043200030B10F4A0121084600F0E2F80023A377DC
:1043300038BD00BF57680020000801401467002006
:10434000BA0000208A0700208B0700208E0700207B
:10435000906A0020A50C0020F23F0308FD8C00208D
:10436000FD8D002008B50A20FCF74CF80121074814
:10437000FCF7B6F9064BD8774FF4FA70FCF742F821
:10438000BDE808404FF4FA70FCF73CB8000C01405F
:10439000A50C002070B500F093FD2F4B2F4C5A68F0
:1043A0009860801A186041F28733984226D82578A1
:1043B00015B1012D10D070BD01212948FCF790F9ED
:1043C000284DEB7F834246D001212548FCF788F930
:1043D0000123E877237070BD29462148FCF780F956
:1043E000204EF37F834236D029461D48FCF778F9EA
:1043F0000223F077237086F8205070BD2378032BBA
:1044000029D003232370174B93F820201AB30025DB
:1044100083F82050144B9A781C463AB90120FFF7D4
:10442000C5FA0520FBF7EEFF012006E02846FFF75E
:10443000BDFA0520FBF7E6FF284600F079FBA178DE
:104440000A4B0B4A0020002908BF1A46BDE87040FD
:10445000084900F0D5BE70BD9C6A0020CB0C00203E
:10446000000C0140A50C0020206700201F35030828
:10447000133503089F3F030837B5002301938DF8D8
:10448000033004230DEB03023621AE20FEF7AEFA13
:1044900004220DEB0201124829F0B4F8D8B11148FA
:1044A00000F08AFE0F4800F087FE0E4800F084FE00
:1044B0000D4D0724635D21468DF803300DF1030295
:1044C0000123AE20FEF7D4FA01340A20FBF79AFF4D
:1044D0003A2CEFD102E0054800F06EFE03B030BD8B
:1044E00084120308074003084E1203082C400308F7
:1044F00001384FF4407370B503FB00F505201646F4
:1045000005EB0125FBF77EFF002432192919202332
:10451000AE20FEF7ADFA20340A20FBF773FFB4F5A6
:10452000807FF2D170BD000070B5002426464FF4A4
:104530004073013803FB00F50A2005EB0125FBF76A
:1045400061FF174A4FF480732946AE20FEF74EFAFA
:10455000134AB35C01361C44B6F5807FE4B2F8D14F
:1045600008220F490F4829F04DF800B984B10E4ECA
:104570000024321961192023AE20FEF779FA203485
:104580000A20FBF73FFFB4F5807FF2D1234600E01D
:1045900033462946BDE87040044AAE20FEF726BAED
:1045A00083690020881203084EF402082E67002059
:1045B00070B58AB001AD0F232A462721AE20FEF741
:1045C00015FA0024295D1648013400F0F5FD0F2C82
:1045D000F8D1144800F0F0FD00231946EA5C0133DD
:1045E00011440F2BC9B2F9D1C1B10F4800F0E4FD5D
:1045F0009DF826100D4800F0DFFD0D4E2724A35D29
:1046000021468DF804302A460123AE20FEF730FA09
:1046100001340520FBF7F6FE362CF0D10AB070BD50
:10462000223E0308783D03088240030894400308B3
:104630004E12030870B5954C0E220021944828F0C4
:10464000FBFF4FF487720021204628F0F5FF4FF45E
:104650008772FF218F4828F0EFFF3A218E4800F043
:10466000ABFD012322460721AE20FEF7BFF92178DA
:104670008A4800F0A1FD2378632B07D9002323701B
:10468000874A01230721AE20FEF7F2F90123854A6C
:104690000821AE20FEF7AAF9A178834800F08CFD2E
:1046A000A378012B0BD9794B00229A7008210123A2
:1046B0007E4AAE20FEF7DCF90520FBF7A3FE0123BE
:1046C0007B4A0B21AE20FEF791F9A37A012B0AD980
:1046D0006E4A012393720B21764AAE20FEF7C8F989
:1046E0000520FBF78FFE744800F066FD674DA17A48
:1046F000724800F061FD724800F05EFD0223AA1DC1
:104700000D21AE20FEF772F9A379012B0AD90023FF
:10471000AB716C4A01230D21AE20FEF7A9F90520EB
:10472000FBF770FEE379012B0BD9584B0022DA71AD
:104730000E210123644AAE20FEF79AF90520FBF70B
:1047400061FE624800F038FDA1795C4800F034FD5C
:104750004E4DE179594800F02FFD594800F02CFDED
:10476000022305F108020F21AE20FEF73FF9237A5C
:1047700013F0FD0F0AD000232B72554A01230F219D
:10478000AE20FEF775F90520FBF73CFE237A414D7C
:104790002B72637A13F0FD0F0BD03C4B00225A7240
:1047A000102101234B4AAE20FEF762F90520FBF7EA
:1047B00029FE637A48486B7200F0FEFC217A3F487C
:1047C00000F0FAFC314E617A3C4800F0F5FC3C48C0
:1047D00000F0F2FC0123721D1121AE20FEF706F954
:1047E0006379212B09D901233C4A1121AE20737131
:1047F000FEF73EF90520FBF705FE637938486B713B
:1048000000F0DAFC6179224C2C48254600F0D4FCFB
:104810002B4800F0D1FC1523324A1221AE20FEF7BE
:10482000E5F80623304A0021AE20FEF7DFF8FFF757
:10483000BFFE22460E232721AE20FEF7D7F8A1782F
:104840002A4800F0B9FCE178284800F0B5FC21794D
:10485000264800F0B1FC15F8051F244800F0ACFC18
:10486000093415F8011F214800F0A6FCAC42F8D12C
:104870001F4D14F8011F1D4800F09EFCA542F8D101
:10488000BDE870400E4800F097BC00BF20670020D4
:104890004968002075680020AC400308BD4003084B
:1048A0005512030822670020D4400308561203085B
:1048B0002A67002059120308EB400308714A0308D5
:1048C000783D03085B1203085C120308F5400308F7
:1048D0005D1203085E120308024103085F12030819
:1048E0000D4103082E68002043680020223E030883
:1048F000566800207E4B2DE9F0479A698AB042F055
:1049000001029A619A697B4F02F001020192019AB9
:104910009A69384642F004029A619A694FF400415C
:1049200002F004020292029A9A69012442F00802FB
:104930009A619A69032602F008020392039A9A691F
:10494000DFF8BC9142F010029A619A696A4D02F058
:1049500010020492049A9A694FF4805842F020029F
:104960009A619B69654A03F020030593059B536890
:104970004FF0100A23F0E06343F000735360536874
:1049800043F4004353600122FBF7B0FE4FF40043B1
:1049900006A93846069307940996FBF7BBFD224605
:1049A00038464FF48041FBF7A1FE4FF4804306A93F
:1049B0003846069307940996FBF7ACFD224621463C
:1049C0004846FBF793FE06A94846069407940996C5
:1049D000FBF7A0FD002228464FF48071FBF786FE0E
:1049E0004FF4807306A92846069307940996FBF7AF
:1049F00091FD224648464FF48051FBF777FE06A909
:104A00004846CDF8188007940996FBF783FD0022ED
:104A100038464FF46051FBF769FE4FF4605306A926
:104A20003846069307940996FBF774FD0022414629
:104A30002846FBF75BFE06A92846CDF818800794A8
:104A40000996FBF767FD224621462846FBF74EFEF6
:104A50004FF0000806A928460694CDF81C8008945B
:104A6000FBF758FD06A94846CDF818A0CDF81C80E4
:104A7000CDF82080FBF74EFDF02306A938460693BB
:104A80001127CDF81C80CDF82080FBF743FD4FF4B3
:104A9000404306A92846069307970996FBF73AFD77
:104AA000424628464FF40051FBF720FE4FF40053D6
:104AB00006A92846069307970996FBF72BFDC02306
:104AC00006A92846069307970996FBF723FD224679
:104AD00051462846FBF70AFE06A92846CDF818A03D
:104AE00007940996FBF716FD0AB0BDE8F08700BFF2
:104AF0000010024000080140000C0140000001408D
:104B00000010014010B5094C01224FF460512046BD
:104B1000FBF7ECFD4FF4FA70FBF774FC2046BDE8A0
:104B2000104000224FF46051FBF7E0BD0008014047
:104B300010B5044610B1012837D010BD02464FF41D
:104B400020513748FBF7D2FD01224FF48051344801
:104B5000FBF7CCFDC820FBF755FC22464FF48051F3
:104B60002F48FBF7C3FDC820FBF74CFC01224FF494
:104B700080512B48FBF7BAFDC820FBF743FC2246C7
:104B80004FF480512648FBF7B1FDC820FBF73AFCF3
:104B900001224FF480512248FBF7A8FDC820FBF703
:104BA00031FC22464FF4805135E000224FF4C051D1
:104BB0001B48FBF79BFD22464FF400511848FBF7BA
:104BC00095FDC820FBF71EFC00224FF4005114484D
:104BD000FBF78CFDC820FBF715FC22464FF4005173
:104BE0000F48FBF783FDC820FBF70CFC00224FF4B5
:104BF00000510B48FBF77AFDC820FBF703FC224667
:104C00004FF400510648FBF771FDC820FBF7FAFB93
:104C100000224FF400510248BDE81040FBF766BD8A
:104C20000008014010B504460A20FBF7EBFB74B9FD
:104C3000224602210648FBF759FD0A20FBF7E2FB5A
:104C4000BDE81040012202210148FBF74FBD10BD15
:104C50000014014048B9032907D112F1FF3218BFEF
:104C6000012210210148FBF741BD7047000C0140B3
:104C70000020FFF74DBA30B5102391B00B930023FD
:104C8000022401250E9306A84FF4001306940A95FA
:104C90000D940F93FBF738FD00B1FEE70F2301934E
:104CA00003904FF480630590294601A80294049371
:104CB000FBF7D2FF044600B1FEE7FCF77FF84FF4A4
:104CC0007A73B0FBF3F0FBF7FDFB0420FBF710FC5D
:104CD000224621464FF0FF30FBF7B4FB11B030BD48
:104CE000F8B5394CFBF740FBFFF7C5FFFFF702FEB5
:104CF00000F0ECF8FFF736FB00F0FCF90323334833
:104D0000237000F059FA2B220121314800F054FAA7
:104D10003049314800F050FA3049314800F04CFA3F
:104D200000252A4800F048FA2570FFF7A5FBFEF79A
:104D300049FDFFF77FFCFEF73BFB27F031F9FFF75A
:104D400097FF2846FFF76EFF264800F035FA284601
:104D500025F032FD054688B9234800F02DFAFFF70B
:104D6000D1FE00F0ADF8214B2646586000F0A8F8BF
:104D70001F4B58601F4800F01FFA19E01E4800F052
:104D80001BFA1FE0002FFDD1FEF730FBA37823B103
:104D9000B770FFF7FFFAFEF787FAFEF751FDE378E9
:104DA00043B9237913B13571FDF75AFFFEF7F8FACD
:104DB0006778E7E70020F57025F074FD10B9FFF77C
:104DC00053FAEEE70020F8BDC60C0020AC2503081E
:104DD000344103084C410308584103086241030869
:104DE0006B41030875410308814103089C6A002058
:104DF000906A00209E410308CB410308FEE70000B3
:104E0000204B07B59A69072042F001029A619B691D
:104E100003F001030193019BFBF702FB0022114603
:104E20006FF00B00FBF70EFB002211466FF00A003B
:104E3000FBF708FB002211466FF00900FBF702FBAD
:104E4000002211466FF00400FBF7FCFA0022114625
:104E50006FF00300FBF7F6FA002211466FF0010035
:104E6000FBF7F0FA002211464FF0FF30FBF7EAFAA9
:104E7000054A536823F0E06343F08063536003B056
:104E80005DF804FB00100240000001407047FEE79F
:104E9000FEE7FEE7FEE770477047704708B5FBF78F
:104EA00075FABDE80840FBF730BB0420FBF722BCD5
:104EB0000148FBF7BDBF00BFE86A00207047000053
:104EC000014B1868704700BFD80C002010B50D4882
:104ED0000D4C4FF4614384E809000C220023204666
:104EE000A360E36023616261A361E361FCF70EF9F3
:104EF00008B1FFF783FF2268D36843F02003D36033
:104F000010BD00BF003801405C76002010B503687A
:104F10003E4A88B0934225D13D4B04A99A693D4849
:104F200042F480429A619B69002403F48043019318
:104F3000019B4FF40073049302230593032307930B
:104F4000FBF7E8FA4FF4806304A932480493059410
:104F50000694FBF7DFFA252022462146FBF772FA7A
:104F600025204EE02C4A934223D1294B04A9DA692B
:104F7000284842F40032DA61DB69002403F400338C
:104F80000293029B042304930223059303230793B4
:104F9000FBF7C0FA082304A91E480493059406945D
:104FA000FBF7B8FA262022462146FBF74BFA2620CB
:104FB00027E01A4A934226D1154B04A9DA6918480A
:104FC00042F48022DA61DB69002403F48023039336
:104FD000039B4FF4806304930223059303230793F9
:104FE000FBF798FA4FF4006304A90D480493059465
:104FF0000694FBF78FFA272022462146FBF722FA78
:105000002720FBF753FA08B010BD00BF003801405D
:1050100000100240000801400044004000480040E9
:10502000000C014010B5A8B92D4BB3F8EA23B3F832
:10503000E843944253D09A5C0A70B3F8EA230132F1
:1050400092B2B2F57A7F14BFA3F8EA23A3F8EA0379
:10505000012010BD012816D1224BB3F82223B3F84A
:10506000204394423AD09A5C0A70B3F8222301326A
:1050700092B2B2F5487F02D0A3F82223E8E70022DB
:10508000A3F8222310BD022801D1174B02E0032808
:105090000FD1164BB3F8D227B3F8D00790421DD0EA
:1050A0009A5C0A70B3F8D227013292B2B2F5FA6F65
:1050B0000FE0042812D10E4BB3F8D227B3F8D00773
:1050C00090420BD09A5C0A70B3F8D227013292B2A8
:1050D000C82A08BF0022A3F8D227B9E7002010BDD4
:1050E000707E0020246B0020886E00209C760020BB
:1050F0009C82002010B540F2D4744FF47B720021E2
:105100000C4828F099FA4FF4497200210A4828F017
:1051100093FA22460021094828F08EFA22460021FF
:10512000074828F089FA2246BDE8104000210548CA
:1051300028F082BA707E0020246B0020886E002048
:105140009C7600209C82002010B562B9164C4FF06E
:10515000FF338AB201462046FCF704F823681A6838
:105160001006FCD51CE0012A0CD1104C4FF0FF3387
:105170008AB201462046FBF7F5FF23681A6811063C
:10518000FCD50DE0022A0DD1094C4FF0FF338AB255
:1051900001462046FBF7E6FF23681A681206FCD595
:1051A000044A1A6010BD00BF5C7600205C820020BB
:1051B000486E00207FFFFFEF0FB413B50E4B1B7836
:1051C0009B0713D005AC642200210C48019428F001
:1051D00033FA22460499094828F002FB0748FBF7F6
:1051E0005DF8002201460548FFF7AEFF02B0BDE8BA
:1051F000104004B0704700BFC60C0020DC0C00203B
:105200000EB4F3B507AA52F8047B0D4D14460646BA
:10521000019200216422284628F00EFA22463946DF
:10522000284628F0DDFA2846FBF738F832460146D2
:105230002846FFF789FF02B0BDE8F04003B0704791
:10524000DC0C002037B51D4A00231168ADF806308C
:105250000868CB681546034313F0200F2BD040F2AB
:10526000E632174B164CB3F8E81391429CBF4A1C28
:10527000ADF80620B3F8EA23BDF806309A424FF0A5
:10528000FF334FF001020ED021440C48FBF7BCFF66
:10529000B4F8E83301339BB2B3F57A7F28BF00231B
:1052A000A4F8E83304E00DF106010448FBF7ACFF75
:1052B0002B68044A1A6003B030BD00BF5C76002042
:1052C000707E0020DFFFFFEF37B51D4A0023116815
:1052D000ADF806300868CB681546034313F0200F7D
:1052E0002BD040F2E632174B164CB3F82013914204
:1052F0009CBF4A1CADF80620B3F82223BDF8063047
:105300009A424FF0FF334FF001020ED021440C4877
:10531000FBF77AFFB4F8203301339BB2B3F57A7F01
:1053200028BF0023A4F8203304E00DF1060104484F
:10533000FBF76AFF2B68044A1A6003B030BD00BF58
:105340005C820020246B0020DFFFFFEF37B51D4A91
:1053500000231168ADF806300868CB681546034392
:1053600013F0200F2BD040F2E632174B164CB3F857
:10537000D01791429CBF4A1CADF80620B3F8D22743
:10538000BDF806309A424FF0FF334FF001020ED0C5
:1053900021440C48FBF738FFB4F8D03701339BB2F7
:1053A000B3F57A7F28BF0023A4F8D03704E00DF1CD
:1053B00006010448FBF728FF2B68044A1A6003B073
:1053C00030BD00BF486E0020886E0020DFFFFFEF79
:1053D00070B504460D46164621F0ACFE324629460D
:1053E0002046BDE8704025F0D5BD2DE9F0410446CA
:1053F0000D4616461F4621F0CFFE3B463246294653
:105400002046BDE8F04125F0F7BD2DE9F041044606
:105410000D4616461F4621F0D1FE3B463246294630
:105420002046BDE8F04125F037BE2DE9F0410446A5
:105430000D4616461F4621F0C9FE3B463246294618
:105440002046BDE8F04125F039BE0320704725F025
:105450005DBE0000F7B5427BD0255543837A174FD8
:1054600000214FF0340E0EFB01F466193E4496F80D
:1054700027609E4207D001310429F4D1104623F061
:105480005BFF0F2018E0D02303FB02430B4C1C44AE
:1054900084F82620037B6A4684F82830817A407B92
:1054A00024F068FE40B9064D2378694655F823304C
:1054B000204698470C28F7D003B0F0BD400D0020DF
:1054C0009012030838B50B880446702B0D464FF038
:1054D00000000CD07C2B2AD06F2B45D184F83100F2
:1054E0000B808B7984F82E30012323703BE07123ED
:1054F00020740B8094F8260021F0AEFAAB781422C9
:1055000084F82D3002FB0303E97859722B7917498F
:1055100084F82A306B7984F82C300423237094F8B3
:105520002630CB5C012B1ED094F82D3017E0207470
:1055300071230B808B7894F8260084F82D300B793A
:1055400084F82A300423237084F82C30074B1B5C2A
:10555000012B08D021F080FA94F82D30142202FBA0
:105560000300012303720C2038BD00BFF0230308A1
:105570002DE9F04F04468DB090F826008A4621F0C0
:105580006BFA002681463746DFF8408594F82730CD
:1055900094F826008DF8203011238DF82130D9F8A9
:1055A000783001251B78ADF826608DF8223094F80C
:1055B0002030ADF82450234493F811B08DF82C001E
:1055C00021F04AFABBF1200F00F21882DFE81BF04D
:1055D000230025003400440058006C001D01210008
:1055E00033018100CE00DB01D000D300E000F100E8
:1055F000F400F700F90008014E0164017A019301FB
:10560000BB00AB01C101C9011602E701E9010202B9
:1056100018020725F9E18F2300E0182384F82130D0
:105620009DF8223006338DF8223094F82D3003EBAC
:1056300043031B011333ADE19DF822308DF8237035
:1056400004338DF8223010238DF821300523ADF876
:10565000243000F10E03CFE194F8260021F0FCF98C
:105660009DF82230223004338DF8223040238DF80B
:10567000233010238DF821300523ADF8243026E0A7
:1056800094F8260021F0E8F99DF8223036300433F2
:105690008DF8223080238DF8233010238DF82130AF
:1056A0000523ADF8243012E094F8260021F0D4F957
:1056B0009DF822304A3004338DF82230C0238DF813
:1056C000233010238DF821300523ADF824300A90C3
:1056D00098E19DF8223094F8260004338DF82230AA
:1056E00094F82D309B013C338DF8233021F0B4F930
:1056F00094F82D30142202FB0300027963684AB14A
:1057000094F82C2032B194F8262018F802200AB917
:10571000C02200E080225A7094F82C304BB194F8EB
:10572000263018F8032063680AB9C02200E08022FE
:105730005A7063685B7884F8226084F8213084F8BA
:105740002360032302E19DF82230626804338DF860
:10575000223094F82D309B013C338DF82330537860
:1057600043F0600353706368013345E1102355E74C
:1057700084F82170F0E010238DF821309DF822305C
:1057800004338DF8223094F82D309B013D33DAE05C
:105790009DF8223004338DF8223094F82D309B018F
:1057A0003D338DF823300223ADF824306368023393
:1057B00022E184F8217007E084F8215004E00223FC
:1057C00000E0032384F821309DF8223006338DF861
:1057D000223094F82D3003EB43031B012733D9E02B
:1057E0009DF8223006338DF8223094F82D3003EBEB
:1057F00043031B0128338DF8233063681A1D0A9276
:105800001B78142B74D9142372E0882384F8213078
:105810009DF8223002338DF8223094F82D305A0151
:105820008DF8232004F121020A92142202FB0303C3
:1058300001221A72E6E094F82D1094F82600002256
:10584000FFF7C6FD94F82D2094F826502123ADF8DB
:1058500018300123934028468DF81E3001F062FF76
:1058600006AA0146284624F025FCCDE09DF822300A
:1058700006338DF8223094F82D3003EB43031B01DF
:1058800028338DF82330636803F118020A921B78DD
:10589000282BB8D8143B2BE09DF8223006338DF826
:1058A000223094F82D3003EB43031B0128338DF88D
:1058B0002330636803F12C020A921B783C2BA2D898
:1058C000283B15E09DF8223006338DF8223094F8FD
:1058D0002D3003EB43031B0128338DF8233063681D
:1058E00003F140020A921B78502B00F28B803C3B64
:1058F000ADF8243086E094F82F30032B40F28480FA
:10590000C02384F823309DF8223006338DF82230EE
:1059100094F82D3003EB43031B0113338DF8233030
:1059200004F1230368E00B2384F822309DF8223031
:1059300084F8215006338DF8223094F82D3003EB93
:1059400043031B0122338DF823300223ADF82430AA
:1059500022E0162384F8213094F82D3002335B00C6
:1059600018E09DF822301E2206338DF8223094F87C
:105970002D3003EB43031B0121338DF823302346E5
:1059800003F8212F38E0022384F8213094F82D30D9
:105990005B0005338DF8233004F121032CE008234C
:1059A0003CE614238DF821309DF8223006338DF823
:1059B000223094F82D3003EB43031B0123338DF881
:1059C000233004F121030A93072384F8213084F85B
:1059D000223017E010238DF821309DF82230063355
:1059E0008DF8223094F82D3003EB43031B0126334E
:1059F0008DF8233004F12F030A9303E0032504E01C
:105A00000A2502E0002500E00C250C2D4BD8DFE82C
:105A100005F00C4A4A4A4A4A4A254A4A074A44007B
:105A20001323AAF800300C254BE008A823F0FEFD54
:105A3000054690B3072805D194F82030013384F847
:105A400020303EE044F201030CAA22F8203D94F8F5
:105A5000271094F8260024F02DFB32E094F8203033
:105A600023445B7C072B11D10CAB4FF4804223F80D
:105A7000202D0DF10F0201920122009294F82710BF
:105A800094F82600142224F059FC00E0002594F834
:105A90002030013384F8203010E094F820300133B6
:105AA00084F8203072E544F201030CAA22F8203D6C
:105AB00094F8271094F8260024F0FCFA002D3FF407
:105AC00065AD28460DB0BDE8F08F00BFF023030898
:105AD000F0B50D88ADB0752D04460E461BD004D828
