:020000040800F2
:1000000000C00020AD02000845470008474700082F
:10001000494700084B4700084D4700080000000012
:100020000000000000000000000000004F47000832
:1000300051470008000000005347000855470008DA
:10004000F5020008F5020008F5020008F5020008B4
:10005000F5020008F5020008F5020008F5020008A4
:1000600063470008F5020008F5020008F5020008E1
:10007000F5020008F5020008F5020008F502000884
:10008000F5020008F5020008F5020008F502000874
:10009000F5020008F5020008F5020008F502000864
:1000A000F5020008F5020008F5020008F502000854
:1000B00069470008F5020008F5020008F50200088B
:1000C000F5020008F5020008F5020008F502000834
:1000D000F5020008FD4A0008814B0008054C0008A5
:1000E000F5020008F5020008F5020008F502000814
:1000F000F5020008F5020008F5020008F502000804
:10010000F5020008F5020008F5020008F5020008F3
:10011000F5020008F5020008F5020008F5020008E3
:10012000F5020008F5020008F5020008F5020008D3
:1001300000000000000000000000000000000000BF
:1001400000000000000000000000000000000000AF
:10015000000000000000000000000000000000009F
:10016000000000000000000000000000000000008F
:10017000000000000000000000000000000000007F
:10018000000000000000000000000000000000006F
:10019000000000000000000000000000000000005F
:1001A000000000000000000000000000000000004F
:1001B000000000000000000000000000000000003F
:1001C000000000000000000000000000000000002F
:1001D000000000000000000000000000000000001F
:1001E0005FF8E0F1044B05481B1A062B02D9044BBB
:1001F00003B11847704700BF530600205006002087
:100200000000000005490648091A891001EBD17168
:10021000491002D0034B03B1184770475006002025
:10022000500600200000000010B5064C237843B9AA
:10023000FFF7D8FF044B13B10448AFF3008001234C
:10024000237010BD500600200000000074EE02086C
:1002500008B5084B1BB108490848AFF300800848AF
:10026000036813B9BDE80840CCE7064B002BF9D072
:100270009847F7E7000000005406002074EE0208DB
:10028000500600200000000010F8012B11F8013B7F
:10029000012A28BF9A42F7D0D01A7047034613F8B4
:1002A000012B002AFBD1181A01387047002103E006
:1002B0000B4B5B58435004310A480B4B42189A428F
:1002C000F6D30A4A02E0002342F8043B084B9A4264
:1002D000F9D300F011F82CF0E3FF04F05DF970475A
:1002E000E4550308000000205006002050060020BE
:1002F000C48F0020FEE700000F4B1A6842F0010295
:100300001A6059680D4A0A405A601A6822F08472CD
:1003100022F480321A601A6822F480221A605A6825
:1003200022F4FE025A604FF41F029A60044B4FF011
:1003300000629A60704700BF001002400000FFF8A2
:1003400000ED00E010B5044600F038FD4FF47A737C
:10035000B0FBF3F000F0B6F8002221464FF0FF307A
:1003600000F070F8002010BD074A08B5136803209C
:1003700043F01003136000F053F80020FFF7E2FF92
:1003800004F09AF9002008BD00200240154B10B57A
:100390001A68154901321A600A68187901320A6030
:1003A00059799A790130C0B201310132C9B2D2B261
:1003B0000A28187159719A7104D9002018710B48D4
:1003C00001240470132904D900215971084901201E
:1003D0000870312A04D900229A71064B01221A7042
:1003E00010BD00BF6C060020D80C0020CB0C0020F4
:1003F000CC0C0020CD0C0020014B1868704700BFCA
:100400006C06002013B50190FFF7F6FF0446FFF7D6
:10041000F3FF019B001B9842F9D302B010BD00000E
:10042000074A0002D36800F4E06023F4E0631B0491
:100430001B0C43F0BF6343F400330343D3607047A6
:1004400000ED00E0174B30B5DB68C3F30223C3F1C6
:1004500007041D1D042C28BF0424062D4FF00105A0
:1004600005FA04F404F1FF348CBF033B00230C4075
:100470009C4005FA03F3013B1A40002842EA0402BB
:100480004FEA0212AFBF00F16040074B00F00F00CF
:10049000D2B2A5BFD2B200F561401A5480F8002351
:1004A00030BD00BF00ED00E014ED00E04209012383
:1004B00000F01F0003FA00F0014B43F822007047E0
:1004C00000E100E00138B0F1807F0AD2064B074A14
:1004D000F021586082F823100020072298601A60EB
:1004E00070470120704700BF10E000E000ED00E021
:1004F000044B04281A680CBF42F0040222F00402E4
:100500001A60704710E000E0704708B5FFF7FCFF85
:1005100008BD00002DE9F74F002426466A4BDFF89E
:10052000B0E1DFF8B0C101220D68B24032EA050542
:1005300040F0C2804D68122D2BD00ED8022D25D050
:1005400004D84DB3012D30D1CC682EE0032D1BD043
:10055000112D2AD1CC68043427E065451CD006D87B
:10056000DFF87481454517D008F5803809E0DFF8D9
:100570006C81454510D008F5803845450CD0A8F56C
:100580008018454511D107E000240EE0CC680834FE
:100590000BE0CC680C3408E08C682CB1012C0CBF4B
:1005A00002614261082400E00424FF2A97BF8346C9
:1005B000A6F10805D0F80090B50084BFD0F80490EB
:1005C000AD004FF00F0808FA05FA29EA0A0904FA03
:1005D00005F588BF00F1040B49EA0505CBF800508A
:1005E000D1F8049019F0805F66D0384D374FAD696F
:1005F00006F0030A45F00105BD61BD694FEA8A0AAC
:1006000005F001050195019D26F0030505F18045E2
:1006100005F58035D5F808B0A7F5843708FA0AF84B
:10062000B8422BEA080816D007F58067B84215D003
:1006300007F58067B84214D007F58067B84213D039
:1006400007F58067B84212D070450CBF4FF0050B1C
:100650004FF0060B0DE04FF0000B0AE04FF0010BDE
:1006600007E04FF0020B04E04FF0030B01E04FF006
:10067000040B0BFA0AFA4AEA080AC5F808A01D6832
:1006800019F4803F14BF154395431D605D6819F44C
:10069000003F14BF154395435D609D6819F4801FAA
:1006A00014BF154395439D60DD6819F4001F14BF06
:1006B0002A4325EA0202DA600136102E7FF433AFB6
:1006C00003B0BDE8F08F00BF0004014000100240FD
:1006D000001C01400000211000001110000031102A
:1006E0008368194214BF01200020704702B9090431
:1006F00001617047034B5969014202D0586102F011
:1007000077BB70470004014003682DE9F743DC071D
:10071000054603D42B68980773D4F2E0B94C63689C
:1007200003F00C03042B07D0636803F00C03082BC1
:1007300016D16368D90313D54FF4003393FAA3F2AB
:10074000226893FAA3F3B3FA83F303F01F0322FAA8
:1007500003F3DA07DED56B68002BDBD101202DE235
:100760006B68B3F5803F15D06BB923684FF4003642
:1007700023F480332360236823F480232360FFF76E
:100780003BFE07462FE0B3F5A02F236806D143F4C4
:1007900080232360236843F4803305E023F480330F
:1007A0002360236823F480232360FFF725FE074698
:1007B0004FF4003696FAA6F3226896FAA6F3B3FA37
:1007C00083F303F01F0322FA03F3DB07A2D4FFF73E
:1007D00013FEC01B6428EDD90320EFE1FFF70CFEE8
:1007E000C01B6428F8D896FAA6F3226896FAA6F3F6
:1007F000B3FA83F303F01F0322FA03F3D807EDD40F
:1008000088E7804C636813F00C0F07D0636803F02F
:100810000C03082B21D16368D9031ED4022393FA59
:10082000A3F2226893FAA3F3B3FA83F303F01F034E
:1008300022FA03F3DA0702D52B69012B8ED1236844
:10084000F82292FAA2F2B2FA82F2696923F0F8036E
:1008500001FA02F21343236053E02A6901237AB3B9
:1008600093FAA3F2B2FA82F2920002F1844202F504
:1008700084021360FFF7C0FD0746022696FAA6F32E
:100880006048226896FAA6F3B3FA83F303F01F03D5
:1008900022FA03F3DB0705D4FFF7AEFDC01B0228E5
:1008A000ECD999E70368F82292FAA2F2B2FA82F23E
:1008B000696923F0F80301FA02F21343036020E0B0
:1008C00093FAA3F3B3FA83F39B0003F1844303F594
:1008D00084031A60FFF790FD0746022696FAA6F3F6
:1008E000226896FAA6F3B3FA83F303F01F0322FA01
:1008F00003F3D90705D5FFF77FFDC01B0228EDD90B
:100900006AE72B681A0746D5AA693E4C01233E497F
:1009100012B393FAA3F2B2FA82F241F82230FFF74F
:100920006BFD0746022696FAA6F396FAA6F3626ACC
:1009300096FAA6F3B3FA83F303F01F0322FA03F344
:10094000DB0705D4FFF758FDC01B0228EBD943E7AE
:100950000120FFF757FD1EE093FAA3F3B3FA83F3E8
:1009600041F82320FFF748FD0746022696FAA6F332
:1009700096FAA6F3626A96FAA6F3B3FA83F303F043
:100980001F0322FA03F3D80705D5FFF735FDC01B77
:100990000228EBD920E72B68590704D4EA69002A1A
:1009A00040F08180D8E0174C184EE36943F0805343
:1009B000E361E36903F080530193019B336843F4DF
:1009C00080733360FFF718FD07463368DA0505D4F6
:1009D000FFF712FDC01B6428F7D9FDE6EB68012B79
:1009E0001CD0ABB9236A022623F001032362236AD9
:1009F000374623F004032362FFF7FEFC41F28839F7
:100A0000804648E0001002408004424200700040EE
:100A1000052B236A06D143F004032362236A43F0C3
:100A2000010305E023F001032362236A23F004039A
:100A30002362FFF7E1FC02268146B04641F2883787
:100A400096FAA6F396FAA6F30BB1226A00E0626A60
:100A500098FAA8F3B3FA83F303F01F0322FA03F31F
:100A6000DB079BD4FFF7C8FCC9EB0000B842E7D90D
:100A7000B2E6626A97FAA7F3B3FA83F303F01F03AF
:100A800022FA03F3D80789D5FFF7B6FCC8EB0000BC
:100A900048453FF6A1AE96FAA6F396FAA6F3002BC8
:100AA000E7D0226AE6E7474C636803F00C03082BA3
:100AB0003FF454AE022A4FF080735CD193FAA3F353
:100AC000B3FA83F39B0003F1844303F5840300220C
:100AD0001A60FFF791FC80464FF0007696FAA6F375
:100AE000384F226896FAA6F3B3FA83F303F01F0394
:100AF00022FA03F3D90731D42E6AB6F5803F05D127
:100B0000796821F40030A9680143796063686A6AF2
:100B100023F474133243134363604FF0807393FAEA
:100B2000A3F3B3FA83F39B0003F1844303F5840337
:100B300001221A60FFF760FC06464FF0007595FA37
:100B4000A5F3226895FAA5F3B3FA83F303F01F0324
:100B500022FA03F3DA0708D500202FE0FFF74CFC58
:100B6000C8EB00000228B9D936E6FFF745FC801B28
:100B70000228E4D930E693FAA3F3B3FA83F39B0097
:100B800003F1844303F5840300221A60FFF734FC69
:100B900006464FF0007595FAA5F3226895FAA5F37D
:100BA000B3FA83F303F01F0322FA03F3DB07D3D571
:100BB000FFF722FC801B0228EDD90DE603B0BDE84B
:100BC000F08300BF001002401F4B70B503F1100509
:100BD0002E4686B002AC224618685968083303C214
:100BE000AB421446F7D13388184CADF80430606836
:100BF00000F00C03082B24D14FF4701393FAA3F3E5
:100C0000B3FA83F300F4701222FA03F306AA134432
:100C100013F8101CC30311D562684FF4003393FA24
:100C2000A3F3B3FA83F002F40033C34006AA1344DB
:100C300013F8140C064BB3FBF0F000E005484843F2
:100C400000E0034806B070BDA4EE020800100240A8
:100C500000127A0000093D00544A2DE9F041136862
:100C6000064603F007038B420D460AD331688C0712
:100C700014D54F48436823F0F002B3681343436030
:100C80000CE0136823F007030B431360136803F0B1
:100C900007039942EAD00120BDE8F081C80706D4D5
:100CA000424A136803F007039D424AD353E0726837
:100CB0003F4C012A02D14FF4003304E0022A0CBF5A
:100CC0004FF00073022393FAA3F1216893FAA3F380
:100CD000B3FA83F303F01F0321FA03F3D907DAD53C
:100CE000636841F2883823F003031A436260FFF718
:100CF00083FB73680746012B0CD1636803F00C0378
:100D0000042BCDD0FFF778FBC01B4045F5D903205D
:100D1000BDE8F081022B0FD1636803F00C03082BB0
:100D2000BED0FFF769FBC01B4045F5D9EFE7FFF7E1
:100D300063FBC01B4045EAD8636813F00C0FF6D183
:100D4000AEE7136823F007032B431360136803F027
:100D500007039D429FD13168154C11F0040F05D057
:100D6000636823F4E062F368134363600B0706D5FE
:100D70006368326923F4605343EAC2036360FFF798
:100D800023FF6368F02292FAA2F2B2FA82F203F031
:100D9000F003D340074AD35CD840074B18600020CB
:100DA000FFF7D0FA0020BDE8F08100BF002002402C
:100DB000001002408CEE020800000020014B186871
:100DC000704700BF00000020084B4FF4E0625B68F2
:100DD00092FAA2F2B2FA82F203F4E063D340044A38
:100DE000D35C044A1068D840704700BF001002402E
:100DF0009CEE020800000020084B4FF460525B6834
:100E000092FAA2F2B2FA82F203F46053D340044A97
:100E1000D35C044A1068D840704700BF00100240FD
:100E20009CEE020800000020704770477047704732
:100E3000036810B51A690446910714D5DA68920759
:100E400011D56FF002021A619B6901229B0702769D
:100E500002D0FFF7EAFF04E0FFF7E6FF2046FFF7C6
:100E6000E5FF0023237623681A69500716D5DA6850
:100E7000510713D56FF004021A619B69022213F423
:100E8000407F2276204602D0FFF7CFFF04E0FFF735
:100E9000CBFF2046FFF7CAFF0023237623681A6999
:100EA000120715D5DA68100712D56FF008021A611B
:100EB000DB69042299072276204602D0FFF7B5FFAE
:100EC00004E0FFF7B1FF2046FFF7B0FF00232376D1
:100ED00023681A69D20616D5DA68D00613D56FF0E2
:100EE00010021A61DB69082213F4407F2276204643
:100EF00002D0FFF79AFF04E0FFF796FF2046FFF7C6
:100F000095FF0023237623681A69D10708D5DA688C
:100F1000D20705D56FF001021A61204603F02AFCC2
:100F200023681A69100608D5DA68110605D56FF02E
:100F300080021A61204600F01EF823681A695206E2
:100F400008D5DA68500605D56FF040021A612046D0
:100F5000FFF76DFF23681A6991060AD5DA689206D1
:100F600007D56FF020022046BDE810401A6100F05E
:100F700001B810BD704770472DE9F04706688168D9
:100F80003369814623F44052C36819241343336103
:100F90000369F26819434369194322F4B05323F0FB
:100FA0000C030B43F360736923F4407283691343AA
:100FB00073613D4B9E4231D1FFF71EFF6043D9F86C
:100FC00004704FF06408BF00B0FBF7F7FFF714FFA1
:100FD0006043D9F80450B7FBF8F7AD00B0FBF5F566
:100FE000FFF70AFF6043D9F804303F019B00B0FBD4
:100FF000F3F0B0FBF8F008FB1055FFF7FDFE2D01F4
:101000003235B5FBF8F56043D9F8041005F0F0056A
:101010008900B0FBF1FAFFF7EFFE30E0FFF7D4FEF6
:101020006043D9F804704FF06408BF00B0FBF7F7D5
:10103000FFF7CAFE6043D9F80450B7FBF8F7AD00DC
:10104000B0FBF5F5FFF7C0FE6043D9F804303F016F
:101050009B00B0FBF3F0B0FBF8F008FB1055FFF776
:10106000B3FE2D013235B5FBF8F56043D9F8041015
:1010700005F0F0058900B0FBF1FAFFF7A5FE444347
:10108000D9F804008000B4FBF0F0B0FBF8F008FBE6
:1010900010A212013232B2FBF8F303F00F032B441B
:1010A0001F44B760BDE8F08700380140F8B504463A
:1010B0000E461546FFF7A0F907462268136836EA80
:1010C000030321D06B1CF9D0C5B923680320DA686B
:1010D00022F08002DA60DA6822F02002DA60DA6850
:1010E00022F48072DA605A6922F001025A61012307
:1010F00084F83930002384F83830F8BDFFF77CF9E4
:10110000C01B8542D9D2E0E70020F8BD10B50446E7
:1011100030B390F8393003F0FF021BB980F8382063
:1011200003F050FB2268022384F83930D36820464C
:1011300023F40053D360FFF71FFF236800201A69D0
:1011400022F490421A615A6922F02A025A61DA683E
:1011500042F40052DA600123E06384F8393010BDB4
:10116000012010BD70B50D4690F839100446C9B283
:1011700001291E4601D0222942D1002D42D0002A49
:1011800040D00023E36394F83930A284222B0CBFB3
:101190003223122384F83930E284E28C02B3A3684C
:1011A000013AB3F5805FE2844FF080013246204679
:1011B0000DD1FFF77BFF08B1032070BD2B8822689B
:1011C000C3F308035360236943B90235E5E7FFF72A
:1011D0006DFF0028F0D123682A785A600135DCE7DA
:1011E000324640212046FFF761FF0028E4D194F801
:1011F0003930322B0CBF2223012384F8393070BDE3
:10120000022070BD012070BD70B51E4690F83930C7
:101210000446DBB2012B0D4601D0122B50D1002D1C
:101220004CD0002A4AD094F83830012B48D0012302
:1012300084F838300023E36394F83930A285122B08
:101240000CBF3223222384F83930E285E38D4BB37F
:10125000013BE385A3683246B3F5805F4FF0200180
:10126000204611D1FFF722FF08B1032070BD23688B
:1012700022695B6822B9C3F3080325F8023BE5E75E
:10128000DBB225F8013BE1E7FFF710FF0028ECD1C6
:10129000236821696A1C5B6809B103F07F032B7026
:1012A0001546D3E794F839300020322B0CBF1223B7
:1012B000012384F8393084F8380070BD012070BDF6
:1012C000022070BD03784278392B04D9602B94BF7B
:1012D000373B573B00E0303B392ADBB204D9602A68
:1012E00094BF373A573A00E0303AD2B203EB0213D8
:1012F0000B7070472DE9F743002406464FF48072C7
:1013000021462D488DF8054025462CF009F8DFF8D8
:10131000A8803027002213468DF800708DF80170E8
:101320008DF802708DF803700120715D06EB0509E0
:10133000202901D120B32EE0022A03D15A1E032A0C
:1013400004D914E00A29F9D00D291AE0022B09D199
:101350009DF800309DF801208DF804308DF80020B4
:101360008DF8013008EB04016846FFF7ABFF99F8F0
:1013700000300A2B12D0A3F10D02534253410EE06C
:10138000022ADBD002A818440132013300F8081CFD
:10139000D2B29BB200200135ADB2C6E70123621C78
:1013A000FF2C90B203D01446002BB3D001E04FF4D1
:1013B000807003B0BDE8F083344E00204FF6FF7319
:1013C000054A1360054A1360054A1360054A136015
:1013D000054A1360704700BF344F00205851002069
:1013E000786600204C500020545000200023F0B5B7
:1013F0001E460C4D2B809A420FD9C45C11F803E0B5
:101400005F1C7445BFB205D006B12B80CEEB040043
:10141000C0B2F0BD3B460126EDE706B12B800020AF
:10142000F0BD00BF740600200023F0B51C461F4627
:10143000154A164D138016464FF4617202FB015196
:10144000134D834210D2CA5C202A09D0032A07D048
:10145000A2F16104192C98BF203A7C1CEA5527465A
:1014600001339BB20124ECE704B13380094B1F60C8
:10147000074B3B4413F8023C413B192B064B94BFEE
:10148000012200221A70F0BD74060020E0540020F2
:101490005C5100205050002044500020014903F0CE
:1014A0000BBB00BF5023030802460249002003F093
:1014B00003BB00BF744203080B46024601491846AD
:1014C00003F0FABA7442030837B50446704D714907
:1014D0002B7843F001032B7003F0EEFA6E4920469F
:1014E00003F0EAFA6B49204603F0E6FA6420FEF7BF
:1014F00089FF6A4B6A491A782D23009320460123FD
:1015000003F0DAFA6749204603F0D6FA6649204626
:1015100003F0D2FA6549204603F0CEFA6420FEF7C4
:1015200071FF6349204603F0C7FA6249204603F081
:10153000C3FA6149204603F0BFFA6049204603F030
:10154000BBFA5F49204603F0B7FA5E49204603F034
:10155000B3FA5D49204603F0AFFA5C49204603F038
:10156000ABFA5B49204603F0A7FA5049204603F046
:10157000A3FA6420FEF746FF5649204603F09CFA82
:10158000554B1B783BB15549204603F095FA544919
:10159000204603F091FA5349204603F08DFA524950
:1015A000204603F089FA6420FEF72CFF4F492046BD
:1015B00003F082FA4E49204603F07EFA4D49204658
:1015C00003F07AFA4C49204603F076FA6420FEF7DD
:1015D00019FF3649204603F06FFA4849204603F0C8
:1015E0006BFA4749204603F067FA4649204603F064
:1015F00063FA4549204603F05FFA4449204603F068
:101600005BFA4349204603F057FA4249204603F06B
:1016100053FA4149204603F04FFA4049204603F06F
:101620004BFA6420FEF7EEFE3D49204603F044FAF3
:101630003C49204603F040FA3B49204603F03CFA7F
:101640003A49204603F038FA3949204603F034FA83
:101650003849204603F030FA3749204603F02CFA87
:101660006420FEF7CFFE6420FEF7CCFE334920460F
:1016700003F022FA3249204603F01EFA05492046BB
:1016800003F01AFA2B7823F001032B7003B030BD5E
:10169000C20C00205A230308B923030888660020DF
:1016A000182403087D240308DC2403083B250308D1
:1016B0009A250308F925030858260308B7260308C6
:1016C0001627030875270308D427030833280308BF
:1016D00092280308F12803089207002050290308E4
:1016E000AF2903080E2A03086D2A0308CC2A030831
:1016F0002B2B03088A2B0308E92B0308482C03082B
:10170000A72C0308062D0308652D0308C42D030824
:10171000232E0308822E0308E12E0308402F03081E
:101720009F2F0308FE2F03085D300308BC30030819
:101730001B3103087A310308D93103083832030812
:10174000973203082DE9F74304466B4E6B49337813
:101750006B4F43F00103337003F0AEF96949204643
:1017600003F0AAF96549204603F0A6F902F0F4F85F
:101770002D230246644900932046012303F09CF97F
:101780006420FEF73FFE6149204603F095F9604969
:10179000204603F091F95F49204603F08DF901F0EE
:1017A000EDFE5D4D5D49002814BF3A462A462046AD
:1017B00003F082F9002002F083F85949002814BF91
:1017C0003A462A46204603F077F9022002F0A4F8B0
:1017D000544B554A5549012818BF1A46204603F074
:1017E0006BF95349204603F067F96420FEF70AFEBF
:1017F0005049204603F060F9012001F065FE012800
:101800004D4D4E4F0CD17B79012055F8237002F0DD
:10181000B7F84B4B1B7A05EB8305D5F88C300CE001
:10182000022001F051FE0128EDD07B79012055F80E
:10183000237002F0A5F8D5F898300093414A424B46
:101840004249002818BF13463A46204603F034F9AF
:101850006420FEF7D7FD3649204603F02DF93C49B8
:10186000204603F029F9012002F0AAF8354D364F41
:10187000002814BFA846B846012001F05DFE0028EC
:101880000CBFA946B946002002F01AF8002814BF80
:10189000284638464B4642462E490090204603F0E3
:1018A0000BF9022002F08CF8002814BFA846B846B5
:1018B000022001F041FE00280CBFA946B9460020D5
:1018C00001F0FEFF002814BF284638464B4642462A
:1018D00000902149204603F0EFF86420FEF792FDC6
:1018E0000649204603F0E8F8337823F0010333700B
:1018F00003B0BDE8F08300BFC20C002061230308E1
:10190000F63203081E33030876330308D433030882
:101910002C34030884340308FE320308DC34030843
:101920002F3503080E3303080633030882350308F6
:10193000D53503082D3603080400002088660020F2
:10194000BE670020163303081A33030885360308E0
:10195000BF360308173703086C37030803282DE93F
:10196000F8430546964F0ED1FFF728FD0222954910
:101970009348FFF73BFD0446002840D12846FFF777
:10198000A3FD00F08EBD01228F493846FFF72EFDE2
:10199000002840F07F858D4A8D4938462BF004FDA4
:1019A000BB78303B092B08D88A4B1B68032B04D922
:1019B00040F28132F91C38460BE07B78303B092B32
:1019C00013D8844B1B68022B0FD940F28232824914
:1019D000881E2BF09AFC7F4B804A1B68043B1360E7
:1019E0007A4B1B68002BBFD003E07D4803F040F822
:1019F000F8E27C4A1278934240F0F482B4E7042281
:101A000079496F48FFF7F2FC044620B92846FFF7F2
:101A100099FE00F046BD032274496948FFF7E6FCD1
:101A2000002840F0D382042271497248FFF7DEFC9F
:101A30000446D0B9704E7149324661482BF0B4FC6F
:101A40003268632A05D92846FFF728FD012400F0F3
:101A500028BD6B496B482BF083FC6A48FFF724FDD7
:101A6000307801F069FF00F01CBD0322664961482F
:101A7000FFF7BCFC00284CD1062264496448FFF7FC
:101A8000B5FC48B95C4C634922464D482BF08CFCB0
:101A90002368022B08D9D6E706225C495E48FFF787
:101AA000A5FC0028EED034E003225C495C48FFF737
:101AB0009DFC50B95B495C4B226852482BF050FCAE
:101AC0005048FFF7F1FC002116E003225349574824
:101AD000FFF78CFC0028EDD0042255495048FFF751
:101AE00085FC70B94F49534B226846482BF038FCAF
:101AF0004448FFF7D9FC0121207801F0F7FC00F001
:101B0000A7BC04224A494948FFF770FC0028E9D0E5
:101B100099E7032248493748FFF768FC032218BBBE
:101B200046494748FFF762FC044640B945493548F5
:101B30002BF0A9FC3348FFF7B7FC012010E004228A
:101B400041493F48FFF752FC044600287FF47BAF31
:101B50003E492C482BF097FC2A48FFF7A5FC20466D
:101B600001F0FCFC00F09DBC27492248FFF73EFC39
:101B7000002875D1042236492548FFF737FC002894
:101B80006ED11D4E334F32463B4633490C482BF045
:101B90000BFC3268022A3FF656AF3B6833F0020472
:101BA0007FF451AF2D4917482BF0DAFB1548FFF7AA
:101BB0007BFC3978307801F0E7FC00F072BC00BFA4
:101BC0005C510020C83703089041030840500020B2
:101BD000CB370308505000205E510020746600206F
:101BE000CF37030888660020DF390308DB37030896
:101BF000DF3703085F510020344F0020E43703082B
:101C0000EE370308404F00209838030835390308A1
:101C100063510020F9370308645100200838030895
:101C2000695100200C380308C13703086A510020AD
:101C30001C3803081A330308213803082538030821
:101C4000625100202938030830380308353803086A
:101C500056390308585100203D3803084C38030812
:101C60000222A149A148FFF7C1FB002875D1052236
:101C70009F49A048FFF7BAFB00286ED104229E4975
:101C80009E48FFF7B3FB0646002866D1DFF88C823A
:101C9000DFF88C9242464B4699499A482BF084FBD8
:101CA000D8F80040012C7FF4CEAED9F80030013BCB
:101CB000012B3FF6C8AE224693499448FFF796FBA6
:101CC000002814BF102011203844FFF713FB802890
:101CD00002D0B0F5807F03D1344633468C4909E009
:101CE0002846FFF7DBFB4FF46172314685482BF045
:101CF00017FBD6E3834204D25A5C01331444E4B2A6
:101D0000F8E7002C7FF49FAED8F800208149D9F87D
:101D1000003081482BF024FB7F48FFF7C5FB7C4A4D
:101D200099F8001098F800007C4E01F047FD00285B
:101D30003FF489AE7A4B1B68012B01D1212303E0CC
:101D4000022B40F0AE8322233268764972482BF092
:101D500007FB7148FFF7A8FBA3E30222624963482F
:101D6000FFF744FB10BB09226F496248FFF73EFBB7
:101D700058B96A4E6A4C6D492346324661482BF089
:101D800013FB3168012908D05DE6092266496848DD
:101D9000FFF72CFB0028ECD008E02068431E012B45
:101DA0003FF651AEC0B201F01DFE51E302224E4992
:101DB0004E48FFF71BFB48BB04225E494D48FFF726
:101DC00015FB58B9554C564E224633465A494D4894
:101DD0002BF0EAFA2268012A08D034E60422554999
:101DE0005348FFF703FB0028ECD00FE03368222BA9
:101DF0003FF629AE4B4948482BF0B2FA4648FFF768
:101E000053FB3178207801F0CBFC21E303224B49CE
:101E10003648FFF7EBFA00284AD1032248494448E4
:101E2000FFF7E4FA40B93D4E4649324635482BF0BB
:101E3000BBFA346844B106E6032241494248FFF741
:101E4000D5FA0028EFD033E0032240494048FFF79D
:101E5000CDFA50B93F49404B32682F482BF080FAF9
:101E60002D48FFF721FB012116E0032237493B48AB
:101E7000FFF7BCFA0028EDD0042239493448FFF7B7
:101E8000B5FA68B93349374B326823482BF068FA02
:101E90002148FFF709FB0021307801F0F7FC00E34F
:101EA00004222F492D48FFF7A1FA0028EAD0CAE5FD
:101EB000032222490D48FFF799FA002875D105221F
:101EC00029491B48FFF792FA28B9284B1B78002BA9
:101ED00000F082804CE0052223491B48FFF786FA78
:101EE0000028F2D061E000BF5A3803085F5100209B
:101EF0005D380308625100208D41030868510020BD
:101F0000633803085C510020793A03086C510020C3
:101F1000344E002072380308404F0020344F002018
:101F20005851002085380308923803089C3803086C
:101F3000635100205F4D0308AF3803089838030849
:101F40009E390308BD380308645100202538030872
:101F500066510020C93803082D3803086751002056
:101F60003038030839380308D639030892070020AF
:101F7000A04CA14E22463346A049A1482BF014FAAA
:101F80002268022A7FF45FAD3368591E01293FF6AB
:101F90005AAD9C499C482BF0E3F99B48FFF784FA23
:101FA0003178207801F09CFC52E20422974998484D
:101FB000FFF71CFA044678B9964993482BF063FA68
:101FC0009148FFF771FA01F0D5FE6AE203229249C7
:101FD0008B48FFF70BFA40B14FF46172002188483B
:101FE0002BF09EF94FF6FF745BE205228B4988487F
:101FF000FFF7FCF9044618B9894B8A491A78B5E10C
:10200000032289498248FFF7F1F9002833D10322DE
:1020100086498748FFF7EAF948B9764C8549224650
:1020200077482BF0C1F92468022C08D90BE503226C
:102030007E498148FFF7DAF90028EED01BE09CB911
:10204000012001F041FA012203467C496E482BF041
:1020500087F929466C48FFF72FFA022001F034FA7D
:10206000022203467549FFE1E0B201F02DFA224653
:1020700003467249E5E103226B496548FFF7B6F96B
:1020800000283FD106226E496948FFF7AFF948B9E9
:10209000584C6C4922465A482BF086F92468022C89
:1020A00008D9D0E4062266496348FFF79FF9002863
:1020B000EED027E0DCB9012001F03EFA624F634E1A
:1020C0000122002814BF3B46334661494E482BF09D
:1020D00047F929464C48FFF7EFF9022001F02CFAA6
:1020E0000222002814BF3B4633465949BCE1E0B206
:1020F00001F022FA544A554B5549002818BF13469F
:1021000022469EE1042253494148FFF76FF90446F5
:1021100040B901F033FA504B504A5149002818BFDA
:102120001A4623E104224F493948FFF75FF9044674
:1021300018B9284601F0C2FDB3E103223A493448F8
:10214000FFF754F9002833D1052247493848FFF7F3
:102150004DF948B9274C4549224629482BF024F926
:102160002468022C08D96EE405223F493248FFF763
:102170003DF90028EED01BE09CB9012001F02AFABD
:10218000012203463A4920482BF0EAF829461E4826
:10219000FFF792F9022001F01DFA022203463449AA
:1021A00062E1E0B201F016FA22460346304948E106
:1021B000022230491648FFF719F930B105222E499D
:1021C0001B48FFF713F938B15EE005222A492B4876
:1021D000FFF70CF90028F1D1064C2949224608489E
:1021E0002BF0E2F82268012A7FF42DAC0C4B254934
:1021F0005B7926E1344F002058510020D63803087F
:102200005C510020E6380308404F0020F5380308F1
:102210005F510020FA380308FE380308023903082A
:1022200088660020EE370308983803080839030849
:10223000635100200C39030864510020173903084A
:10224000253903082D3903081A330308C137030859
:102250000C3803083C390308C4370308393803082D
:1022600041390308DF390308483903084E390308A8
:102270004C3803085A3803085B39030862510020C0
:102280006139030885380308022287498748FFF728
:10229000ADF8002842D1042285498648FFF7A6F808
:1022A00030B9052284498548FFF7A0F870B107E0EE
:1022B00004227F498248FFF799F80028F1D02DE0E9
:1022C00005227D497F48FFF791F860B97E4C7F4E2B
:1022D000224633467E497F482BF066F82268012A61
:1022E00009D0FFF7B0BB052273497B48FFF77EF8A2
:1022F0000028EBD012E03368222B3FF6A4AB7749DD
:1023000077482BF02DF8764A7649284602F0D4FB20
:1023100032782178284601F09BFB99E0032272492C
:102320006248FFF763F828BB042270496148FFF751
:102330005DF898B9644C6E49224666482BF034F833
:102340002468002C7FF47FAB204601F0B9FA694B7A
:10235000694A6A49002818BF1A4607E004226349FF
:102360005748FFF743F80028E4D003E05C482AF020
:10237000F7FF8AE003225C494C48FFF737F8D8B9E9
:1023800009225F494E48FFF731F870B94E4C5D495C
:10239000224650482BF008F82068431E012B3FF6D8
:1023A00052ABC0B201F024FA52E009225449564817
:1023B000FFF71CF80028E9D003224B493B48FFF700
:1023C00015F8E8B9062251493D48FFF70FF880B9E2
:1023D0003D4C4F4922463F482AF0E6FF2468022C34
:1023E0007FF431AB204601F097FA22460346494973
:1023F00027E0062245494448FEF7F8FF0028E7D0C9
:10240000022229492948FEF7F1FF30B1072242494B
:102410002B48FEF7EBFF38B11CE007223E49254868
:10242000FEF7E4FF0028F1D1274C3C492246294819
:102430002AF0BAFF2268012A7FF405AB384B3949EC
:102440005B7927482AF08CFF29462548FFF734F8A6
:10245000002426E0072234491448FEF7C7FF04464B
:1024600030B932492D2301221D482AF079FF0CE0B2
:1024700008222F490D48FEF7B9FF044600287FF4D3
:10248000ABAD2C4916482AF0FEFF29461448FFF749
:1024900013F806E0284B1B78002B7FF4A3ADFFF761
:1024A00063BA2046BDE8F8835A3803085F5100201C
:1024B0005F4D030862510020B139030867510020C5
:1024C0006351002068510020344F002058510020F3
:1024D0006D3903085C510020695100207F390308E1
:1024E000404F0020AA39030898380308913903089F
:1024F000963903082D38030839380308A239030830
:10250000AD390308B739030864510020C8390308FE
:10251000CF390308E6380308DC390308E439030837
:10252000BE670020F2390308023A03080A3A03089A
:102530001C3A0308253A03088866002008282DE97C
:10254000F04107460D46214E4FEA810405D132196C
:10255000536863B1013B536009E033195A68511C59
:1025600059601B494FF4617303FB0513985406EB44
:102570000408D8F80430B3F5617F07D3294615481D
:1025800002F076FA40F28333C8F804300A2F01D003
:102590000D2F19D1344429466068FEF745FF00230A
:1025A00063604FF461736B43094AD35C0D2B0BD00E
:1025B0000A2B09D02846FFF7D1F94FF6FF7398424E
:1025C00002BF054B01221A70BDE8F081740600209D
:1025D000E0540020343A0308A20C002000BF00BFE2
:1025E00000BF00BF00BF00BF7047000010B5044629
:1025F00038B1012240210B48FEF778F8012C07D0B2
:1026000010BD0246BDE8104040210648FEF76EB8F6
:1026100040F2E93440210348FEF762F808B9013C72
:10262000F8D110BD000C014010B5044638B10122AC
:1026300080210B48FEF75AF8012C07D010BD024646
:10264000BDE8104080210648FEF750B840F2E9345A
:1026500080210348FEF744F808B9013CF8D110BDC9
:10266000000C014008B50120FFF7DEFF00BF01208C
:10267000FFF7BCFF00BF40210C48FEF731F808B956
:10268000002008BD80210948FEF72AF80028F7D06D
:10269000002280210548FEF729F800BF00224021D2
:1026A0000248FEF723F8012008BD00BF000C0140DE
:1026B00010B50B4C002240212046FEF717F800BF52
:1026C000002280212046FEF711F800BF0120FFF70D
:1026D0008DFF00BF0120FFF7A7FF00BF10BD00BFA7
:1026E000000C0140F8B50746082480260025012289
:1026F00080211548FDF7FAFF0120FFF777FF00BFA3
:1027000080211148FDF7ECFF00B135430022402144
:102710000D48FDF7EBFF00BF013C4FEA5606E6D13E
:102720000FB1204600E00120FFF77EFF00BF01202F
:10273000FFF75CFF00BF002240210348FDF7D6FFF2
:1027400000BF2846F8BD00BF000C014070B506462A
:102750000824802516EA050018BF0120FFF764FF52
:1027600000BF0120FFF742FF00BF002240211048B8
:10277000FDF7BCFF00BF013C4FEA5505EAD101223D
:1027800080210B48FDF7B2FF00BF0120FFF72EFFAD
:1027900000BF80210648FDF7A3FF224605464021E1
:1027A0000348FDF7A3FF00BF281C18BF012070BD20
:1027B000000C014038B511B940F0010501E000F00E
:1027C000FE050424013C14F0FF0410D0FFF74AFF7B
:1027D0000028F7D02846FFF7B9FF50B1FFF768FF90
:1027E00000BF00BF00BF00BF00BF00BFEAE7204638
:1027F00038BD012038BD00002DE9F04106460F46E6
:1028000090461C460425013D15F0FF051CD0012112
:102810003046FFF7CFFF0028F5D03846FFF796FF88
:102820000128F0D000213046FFF7C4FF0028EAD08D
:10283000013CE4B2FF2C05D02046FFF753FF08F817
:10284000010BF5E7002400E00224FFF731FF2CB173
:102850003B4632462146034802F00AF92046BDE8CD
:10286000F08100BFB43D03082DE9F04107468846DA
:1028700015461E460424013C14F0FF0414D0012127
:102880003846FFF797FF0028F5D04046FFF75EFF78
:102890000128F0D02E44B54204D015F8010BFFF703
:1028A00055FFF8E7002400E00224FFF701FF2CB1F8
:1028B00043463A462146034802F0DAF82046BDE88E
:1028C000F08100BFF43D030810B5044640B1012279
:1028D0004FF480410C48FDF709FF012C08D010BDD2
:1028E0000246BDE810404FF480410748FDF7FEBEA8
:1028F00040F2E9344FF480410348FDF7F1FE08B996
:10290000013CF7D110BD00BF000C014010B50446DA
:1029100040B101224FF400410C48FDF7E7FE012CC5
:1029200008D010BD0246BDE810404FF400410748F2
:10293000FDF7DCBE40F2E9344FF400410348FDF7F7
:10294000CFFE08B9013CF7D110BD00BF000C01401B
:1029500008B50120FFF7DAFFFFF740FE0120FFF77F
:10296000B3FFFFF73BFE4FF480410E48FDF7B8FE82
:1029700008B9002008BD4FF400410A48FDF7B0FE39
:102980000028F6D000224FF400410648FDF7AEFEC5
:10299000FFF724FE00224FF480410248FDF7A6FE17
:1029A000012008BD000C014010B50E4C002220464D
:1029B0004FF48041FDF79AFEFFF710FE00224FF41E
:1029C00000412046FDF792FEFFF708FE0120FFF7C9
:1029D0007BFFFFF703FE0120FFF798FFBDE81040E3
:1029E000FFF7FCBD000C0140F8B50746082480261F
:1029F00000254FF4004101221948FDF777FEFFF74B
:102A0000EDFD0120FFF760FFFFF7E8FD4FF4004107
:102A10001348FDF765FE00B1354300224FF48041B5
:102A20000F48FDF763FEFFF7D9FD013C4FEA56065C
:102A3000DFD10FB1204600E00120FFF767FFFFF76D
:102A4000CDFD0120FFF740FFFFF7C8FD00224FF446
:102A500080410348FDF74AFEFFF7C0FD2846F8BD58
:102A6000000C014070B506460824802516EA0500D2
:102A700018BF0120FFF74AFFFFF7B0FD0120FFF765
:102A800023FFFFF7ABFD00224FF480411348FDF711
:102A90002DFEFFF7A3FD013C4FEA5505E6D10122CB
:102AA0004FF400410D48FDF721FEFFF797FD01208F
:102AB000FFF70AFFFFF792FD4FF400410748FDF7CB
:102AC0000FFE054622464FF480410448FDF70EFEF6
:102AD000FFF784FD281C18BF012070BD000C0140C9
:102AE00038B511B940F0010501E000F0FE050424FD
:102AF000013C14F0FF040ED0FFF72AFF0028F7D0A6
:102B00002846FFF7AFFF40B1FFF74EFFFFF766FD26
:102B1000FFF764FDECE7204638BD012038BD00001A
:102B20002DE9F04706460F4690461C46C1F307299B
:102B300004255FFA81FA013D15F0FF0522D001213D
:102B40003046FFF7CDFF0028F5D04846FFF78AFF53
:102B50000128F0D05046FFF785FF0128EBD0002177
:102B60003046FFF7BDFF0028E5D014F1FF3407D34E
:102B7000201C18BF0120FFF737FF08F8010BF4E70E
:102B8000002400E00224FFF70FFF2CB13B46324641
:102B90002146034801F06CFF2046BDE8F08700BFE6
:102BA000353F03082DE9F04780460E4615461F467F
:102BB000C1F3072904245FFA81FA013C14F0FF04F1
:102BC00019D001214046FFF78BFF0028F5D0484679
:102BD000FFF748FF0128F0D05046FFF743FF0128D8
:102BE000EBD02F44BD4204D015F8010BFFF73AFF9C
:102BF000F8E7002400E00224FFF7D6FE2CB13346AC
:102C000042462146024801F033FF2046BDE8F087E6
:102C10007B3F030810B5064C0B460246054920468B
:102C20002AF09EFB2046BDE81040FEF73DBC00BFE9
:102C3000404F0020E638030808B500F09FFC074B22
:102C4000074A0849002808BF1A4607482AF088FBA7
:102C5000BDE808400448FEF727BC00BF3938030828
:102C6000C437030841390308404F002038B5144CDD
:102C700023786BB901211348FDF732FDE378A0708A
:102C800083421CBF01232370237818BFE070B3B1C7
:102C900063780B4D6BB901210A48FDF721FDEB78F4
:102CA000A87083421CBF01236B70237818BFE870A3
:102CB0002BB16278024B12B101221A715A7138BDE0
:102CC0008C070020000C0140394B73B51A781D4663
:102CD00042B3384B1A791C460AB9FFF7C7FF01F017
:102CE0004BFD354B80B25A889880801A80B2B0F57F
:102CF000FA6F188084BF00232B706379002B54D0A7
:102D00002C4B00245C7100F039FC012801D12046D5
:102D100003E000F033FC10B9012000F01FFCFFF7C6
:102D20008BFF42E001212548FDF7DAFC244B08B96E
:102D3000587001E001225A70224A5D785178A94208
:102D40001FBF55701E4A012111701B780BB900205E
:102D50002CE01B4B00241C7095B91B4C02263146FD
:102D60001A48267301F084FE217B3046FFF752FF9C
:102D7000012300930C2204F10C03AE21284611E03C
:102D8000012DE4D1104E29461048357301F070FE34
:102D9000317B0220FFF73EFF2046009506F10C0331
:102DA0000C22AE2101F00FF8D1E7FF2002B070BD78
:102DB000C30C00208C070020C40C0020000C014034
:102DC000BE670020C768002088660020C33F030854
:102DD000054B9B7913B108B1012200E000224FF4AA
:102DE00080510248FDF782BC8C070020000C014096
:102DF000042810B540F08180424B01221A70424BEA
:102E00005B6A9BB2A3F21551622940490BD8404A34
:102E1000002313703F4A0B7013703F4A13703F4AF0
:102E200013703F4A52E0A3F1650017281ED80B78B3
:102E3000072B02D8364C9A4014E0A3F10800C4B224
:102E4000072C01D8334C0CE0A3F11000C4B2072CBE
:102E500001D8314C05E0A3F11800C4B2072C36D8D4
:102E60002E4C8240207820EA02020AE0A3F1C90039
:102E7000302820D80B78072B07D8254C9A4020788B
:102E80000243013322700B7021E0A3F10800C4B2A9
:102E9000072C01D81F4C0CE0A3F11000C4B2072C82
:102EA00001D81D4C05E0A3F11800C4B2072C0ED8C0
:102EB0001A4C8240E3E740F2E632A3F50C53293B7B
:102EC0009BB2934203D8164A1378013313700B78E0
:102ED000202B12D10D4B00221A700D4A114B127883
:102EE0001A700C4A12785A700B4A12789A700B4A70
:102EF0001278DA700C4B01221A70034B00225A62CE
:102F000010BD00BFD00C002000040040D70C0020F2
:102F1000D60C0020D50C0020D40C0020D30C0020AF
:102F2000D20C0020F4690020D10C0020F0B58BB049
:102F300000250AA901F81D5D284601F0CFFC0028F4
:102F400000F0D48129469DF80B00FFF7F7FA9DF8B1
:102F50000B20B74C082A03D123882BB1013B07E093
:102F60000A2A0AD00D2A05D02388E1188A72013373
:102F7000238002E0238823449D722388AC48B3F564
:102F8000807F02D900230380A7E10D2A40F0A581AC
:102F9000002B00F0A2810025034403AE0E30039500
:102FA000756035819D72FDF779F92A4680B2E9B2E4
:102FB00088422AD963189B7B202B05D129B3042A88
:102FC00023D00132D2B21EE0A3F13001092905D885
:102FD00036F8121003EB0113303B12E0A3F161014C
:102FE000052905D836F8121003EB0113573B08E00A
:102FF000A3F14101052908D836F8121003EB01139B
:10300000373B26F812300135D1E7894D0023894935
:1030100005F10A006373FDF737F978B9864DBDF8FD
:103020000C7003262E7027B9844801F021FD2F7003
:10303000FAE0834801F01CFD2E70F5E0814905F1AE
:103040000A00FDF721F9A8B90DF11202BDF8101020
:103050000123BDF80E00FFF707FCBDF81200BDF814
:1030600010300090BDF80E20BDF80C10764801F02D
:10307000FFFC2AE1754905F10A00FDF705F906464E
:1030800010BBBDF8123006AABDF81010BDF80E0036
:10309000FFF7B2FBBDF81030BDF80E20BDF80C10E4
:1030A0006B4801F0E5FC3046BDF81230451C80B29B
:1030B000834240F20A810AAB184410F8101C65489C
:1030C00001F0D6FC2846EFE7634905F10A00FDF759
:1030D000DBF8074638BBBDF80C30322B40F0A4803B
:1030E000BDF80E60012E40F09F80534D5B482B7859
:1030F00043F001032B7001F0BBFC2B78324623F028
:1031000001034FF4807156482B70FDF7EFFA02204F
:10311000FDF778F93A4631465248FDF7E7FA0220C2
:10312000FDF770F980E0504905F10A00FDF7ACF8B1
:103130000146C0B9BDF80C203F4D4C4B32B90121BE
:1031400019702B784A480B432B7005E018702B78C8
:10315000484843F001032B7001F08AFC2B7823F0E0
:1031600001032B7060E0444905F10A00FDF78CF87B
:1031700090B9BDF80C30322B56D1BDF80E30202B53
:1031800052D12D4D2D222B78012143F001033B48D4
:103190002B7001F06DFCE1E7394905F10A00FDF7FC
:1031A00073F8002840D0374905F10A00FDF76CF8A4
:1031B000064640B9BDF81020BDF80E10BDF80C0051
:1031C00027F0BCFA7FE0304905F10A00FDF75CF812
:1031D000064688B9BDF80E20BDF80C10BDF81030B9
:1031E0002A4801F045FCBDF81020BDF80E10BDF8CE
:1031F0000C0027F09DFB66E0254905F10A00FDF76C
:1032000043F8002848D1BDF80E20BDF80C10BDF8D9
:103210001030204801F02CFCBDF81020BDF80E1035
:10322000BDF80C0027F0A4FB002384F80A354CE01D
:10323000980700200B400308C20C00200F40030831
:103240001D4003082A4003082E400308614003087C
:10325000654003088F400308964003089A4003081E
:10326000000C014000100140B0400308CA0C0020CF
:10327000B4400308C3400308D1400308D540030805
:10328000754D0308F1400308F5400308F9400308B1
:10329000084103080C410308164D174905F10A00BF
:1032A000FCF7F2FF064680B9BDF81400BDF81030F7
:1032B0000190BDF81200BDF80E200090BDF80C1072
:1032C0000E4801F0D5FB85F80A654FF480720021A5
:1032D0000B482AF025F80023238094F80A352BB1F7
:1032E000044B002083F80A05FEF7D8F801200BB044
:1032F000F0BD00BF980700201B4103081F410308D1
:10330000A207002008B50E2200210B482AF008F879
:103310001B22002109482AF003F8094B00225A60B9
:103320001A601A72074B5A601A601A72FF225A7199
:103330009A715A7008BD00BFB066002095660020E3
:10334000BE670020C7680020012808B5014601D1EA
:10335000032008BD024801F08BFBFF2008BD00BF21
:103360003641030808B5431E012B05D90146044820
:1033700001F07EFBFF2008BD831E5842584108BD66
:103380004F4103082DE9F84F494D4A4EA946B24630
:10339000494FDFF830B10024B379AA7901349A4259
:1033A00008D0E0B2AB71FFF7DDFFB2790146002033
:1033B00027F076F9337A2A7A9A4207D0E0B22B7254
:1033C000FFF7D0FF0146002027F056F904EB0B036E
:1033D0003A785B79DFF8EC809A4218BF3B70022C98
:1033E00005F1010506F1010607F10107D4D19AF8AC
:1033F000023099F802209A420FD02D4A0120937092
:10340000FFF7B0FF0146002027F036F92046FFF70E
:10341000A9FF0146002027F02FF99AF80A2099F811
:103420000A30934205D0224B002108469A7227F0B9
:1034300085F99AF80C3099F80C209A4212D01C4A5F
:10344000012B137305D10020FFF7C2FC00210846B1
:1034500006E0022B06D10120FFF7BAFC0121002073
:1034600027F036F9154B98F805205979914218BF85
:103470005A71012A1AD14FF400611148FDF736F94B
:1034800098F806204FF48051012A18BF00220C48FA
:10349000FDF72CF998F807204FF40051012A18BFC6
:1034A00000220748BDE8F84FFDF720B90022E2E707
:1034B000D068002088660020CD680020C768002002
:1034C00000080140BE67002008B5431E012B0146DD
:1034D00004D9044801F0CCFAFF2008BD0248014499
:1034E000887808BD6941030888660020F7B50D4655
:1034F0000446104E80B93346012703F8061F0D22FB
:10350000AE21009700F05FFC33460E2203F8075F00
:10351000AE210097204609E0431E0122334403F800
:10352000061F0092AE2100F10C02002000F04BFCBF
:1035300003B0F0BD8866002008B5431E012B01468C
:1035400004D9044801F094FAFF2008BD0248014460
:10355000487908BD694103088866002007B5064B15
:10356000012203F8020FAE2100920020082200F091
:103570002AFC03B05DF804FB88660020014B9878B4
:10358000704700BF88660020F7B50E460446104D10
:1035900080B92B46012703F8081F0F22AE210097A0
:1035A00000F011FC2B46102203F8096FAE210097A2
:1035B000204609E02B18D9710122C31D00922B442B
:1035C00000F10E02AE21002000F0FDFB03B0F0BDC3
:1035D0008866002008B5431E012B014604D9044823
:1035E00001F046FAFF2008BD02480144C87908BD31
:1035F00069410308886600202229F7B505460C4674
:103600004FF0000076D83C4B3C4E2B44012703F88A
:10361000051F05F110020097AE21013CB07000F0CB
:10362000D2FB212C14D8DFE804F0115D5F1B1D1FB5
:1036300021232527292B2D2F31333537393B3D3F8A
:1036400041434547494B4D4F515355572C4A4CE048
:103650004FF4807200212B48B77029F061FE48E0DA
:10366000294A42E0294A40E0294A3EE0294A3CE012
:10367000294A3AE0294A38E0294A36E0294A34E022
:10368000294A32E0294A30E0294A2EE0294A2CE032
:10369000294A2AE0294A28E0294A26E0294A24E042
:1036A000294A22E0294A20E0294A1EE0294A1CE052
:1036B000294A1AE0294A18E0294A16E0294A14E062
:1036C000294A12E0294A10E0294A0EE0294A0CE072
:1036D000294A0AE0012100E00221284600F0E2FB2D
:1036E000264A02E0264A00E0264A0321002028F06C
:1036F00083FA012003B0F0BD87660020BE6700207A
:10370000360C0308C767002036090308360803088B
:10371000360703083606030836050308360403088F
:10372000360303083602030836010308360003088F
:1037300036FF020836FE020836FD020836FC020893
:1037400036FB020836FA020836F9020836F8020893
:1037500036F7020836F6020836F5020836F4020893
:1037600036F3020836F2020836F1020836F0020893
:1037700036EF0208360E0308360D0308DD68002018
:10378000360B0308360A030808B500F0CDFE034BDC
:1037900001205979BDE80840FFF72EBF8866002058
:1037A00008B538B90120FFF727FFBDE8084005201C
:1037B000FCF728BEBDE80840FFF71EBF012938B559
:1037C000044604D0022914BF0025222500E021254B
:1037D0002CB9012000F04AFB2946012004E02046D4
:1037E00000F044FB29462046FFF706FF012038BDC4
:1037F00070B5431E012B9EB0044604D901461C48F7
:1038000001F036F932E06946002022F00FFA064650
:1038100060BB2046FFF7A6FD1EAB00EB400018443E
:1038200010F8283C022B1CD110F8273C022B18D191
:10383000104B114D2246022C08BF1D460F49304641
:1038400001F03AF96C1EFF3514F8012F0C490020E5
:1038500001F032F9AC42F7D10A49002001F02CF90D
:1038600004E022460849002001F026F91EB070BD90
:1038700069410308498D0020498C002082410308DA
:1038800092410308514C03089941030807B50A46C1
:10389000014628B1084803B05DF804EB01F0E8B830
:1038A000064BAE2103F80A2F012200920B2200F0F2
:1038B0008AFA03B05DF804FB6941030888660020BA
:1038C00008B5014620B1044801F0D2F8002008BD37
:1038D000024B987A08BD00BF694103088866002042
:1038E000022807B506D00146094803B05DF804EB8D
:1038F00001F0BEB8074B012203F80C1F0020009214
:10390000AE210C2200F05FFA03B05DF804FB00BFAB
:103910006941030888660020022808B5014604D0E2
:10392000034801F0A5F8002008BD024B187B08BD34
:10393000694103088866002007B5064B012218700C
:10394000AE2100920020072200F03DFA03B05DF89E
:1039500004FB00BF88660020014B1878704700BF49
:1039600088660020012803D00146034801F080B892
:10397000024B5971704700BFA7410308BE67002082
:10398000012808B5014604D0034801F071F8002071
:1039900008BD024B587908BDD3410308BE6700201B
:1039A000431E012B03D90146034801F061B8034BC4
:1039B00018444171704700BF69410308BE67002089
:1039C00008B5431E012B014604D9044801F050F804
:1039D000FF2008BD02480144487908BD4F41030853
:1039E000BE67002038B505460C46FFF7E9FFF8B181
:1039F0002B4622461149124829F0B2FC1048FDF727
:103A000053FD22460F4921230D4829F0A9FC0C48FB
:103A1000FDF74AFD0C4A01210CB9084600E020469A
:103A200000F024FA2046BDE838402121FFF7E4BD2C
:103A30002A46064901F040F838BD00BFFF4103089F
:103A4000A30C002012420308498C0020994103086E
:103A5000013A70B506460846212A5ED8DFE802F032
:103A600013111B1D1F21232527292B2D2F31333502
:103A700037393B3D3F41434547494B5C4D4F5153DF
:103A800055572E4B49E00120FFF79AFF012843D1FB
:103A90002B4B1B7841E02B4B3FE02B4B3DE02B4B5E
:103AA0003BE02B4B39E02B4B37E02B4B35E02B4BDE
:103AB00033E02B4B31E02B4B2FE02B4B2DE02B4BEE
:103AC0002BE02B4B29E02B4B27E02B4B25E02B4BFE
:103AD00023E02B4B21E02B4B1FE02B4B1DE02B4B0E
:103AE0001BE02B4B19E02B4B17E02B4B15E02B4B1E
:103AF00013E02B4B11E02B4B0FE02B4B0DE02B4B2E
:103B00000BE02B4B09E02B4B07E0012100E00221E9
:103B100000F0C8F9284B00E0284B5D1E03F1FF04BC
:103B200015F8012F2649304600F0C6FFAC42F7D108
:103B30003046BDE87040234900F0BEBF360B030895
:103B4000498C0020360A03083609030836080308A2
:103B5000360703083606030836050308360403084B
:103B6000360303083602030836010308360003084B
:103B700036FF020836FE020836FD020836FC02084F
:103B800036FB020836FA020836F9020836F802084F
:103B900036F7020836F6020836F5020836F402084F
:103BA00036F3020836F2020836F0020836EF020851
:103BB000360E0308360D0308DD68002036F10208D2
:103BC00092410308514C0308014B1844817070471F
:103BD000BE67002008B5431E012B014604D90448E6
:103BE00000F046FFFF2008BD02480144887808BD68
:103BF0004F410308BE67002038B52A4B5D79002D80
:103C00004ED10120FFF7DCFE002849D00120FFF74C
:103C1000E1FF002844D0244B9A781C46002A3FD06C
:103C20004FF480722149224829F060FBB0B321484B
:103C300000F01EFF4FF480721C491D4829F065FBFF
:103C4000012108461A4A00F011F9194A03212846B1
:103C500027F0D2FF01224FF460511748FCF746FDD0
:103C6000C820FCF7CFFB2A464FF460511248FCF7FE
:103C70003DFDC820FCF7C6FB01224FF460510E4801
:103C8000FCF734FDC820FCF7BDFB0B482A464FF477
:103C90006051FCF72BFDC820FCF7B4FB0023A37098
:103CA00038BD00BF88660020BE670020498C002018
:103CB000C76700201E420308000801402DE9F041BB
:103CC0000446214D21492A7800F0F6FE204FAA78BB
:103CD000204E2149002A14BF3A463246204600F0C1
:103CE000EBFE2B7B02221D49204600F0E5FEAB7A5D
:103CF0000022002B14BF3B4633461949204600F0F2
:103D0000DBFE0120FFF718FC164F174E012200289A
:103D10000CBF3B4633461549204600F0CDFE02203D
:103D2000FFF70AFC022200280CBF3B4633460F492E
:103D3000204600F0C1FE6B792046BDE8F04101222B
:103D40000B4900F0B9BE00BF88660020434203085B
:103D50002D38030839380308504203085942030834
:103D60006A420308C13703081A330308794203087B
:103D70008B4203081FB5012404AB4E2203F8012D2A
:103D8000AE2136220094002000F01DF80520FCF73B
:103D900039FB00F02DF800F00DF900F089FB044B21
:103DA00020465979FFF728FC00F0BEFB04B010BD97
:103DB0008866002010B5FEF7F5FE04460520FCF7E6
:103DC00021FB204610BD10B40C4611461A46BDF822
:103DD000043028B1012807D1204610BCFEF7A0BE50
:103DE000204610BCFFF7E6BF032010BC7047000060
:103DF00037B5002301938DF8033004230DEB030244
:103E00003621AE20FEF78CFE04220DEB0201134892
:103E100029F06CFAE8B1124800F02AFE104800F0D0
:103E200027FE0F4800F024FE0E4D072415F8013F31
:103E300021468DF803300DF103020123AE20013439
:103E4000FFF7B8FFA4B20520FCF7DCFA3A2CEDD15D
:103E500002E0054800F00CFE03B030BD6C10030812
:103E6000A74203083C100308CC42030801384FF472
:103E7000407370B503FB00F50520164605EB0125E0
:103E8000FCF7C0FA002429193219202389B2AE2088
:103E9000FFF790FF20340520FCF7B4FAB4F5807FDB
:103EA000F1D170BD4FF4407301382DE9F04103FBAF
:103EB00000F505EB01250A20AEB2FCF7A3FA0024B9
:103EC0004FF480733146174AAE20FEF729FE234691
:103ED00014495A5C01331444B3F5807FE4B2F8D13D
:103EE00008221049104829F001FA00B9BCB10F4F5F
:103EF000002461193A19202389B2AE20FFF75AFF36
:103F000020340520FCF77EFAB4F5807FF1D12346FA
:103F10003146BDE8F041034AAE20FEF701BEBDE8E0
:103F2000F08100BFDD6800207010030836F1020840
:103F300070B58AB001AD0F232A462721AE20FEF7C7
:103F4000EFFD0024295D1648013400F091FD0F2C8F
:103F5000F8D1144800F08CFD00231946EA5C0133C7
:103F600011440F2BC9B2F9D1B9B10F4800F080FD4F
:103F70009DF826100D4800F07BFD0D4E272416F805
:103F8000013F214601348DF804302A460123AE203A
:103F9000A4B2FFF70FFF362CF1D10AB070BD00BFFD
:103FA0008F400308514C030822430308344303089D
:103FB0005C10030870B5954C0E220021944829F03E
:103FC000AFF90D220021204629F0AAF90D22FF2188
:103FD000904829F0A5F93A218F4800F049FD0123C6
:103FE00022460721AE20FEF79BFD21788B4800F08A
:103FF0003FFD2378632B07D900232370884A0123D0
:104000000721AE20FFF7D6FE0123864A0821AE2005
:10401000FEF786FDA178844800F02AFDA378012BE5
:1040200008D97A4B00229A70082101237F4AAE20DA
:10403000FFF7C0FE01237E4A0B21AE20FEF770FD84
:10404000A37A012B07D9714A012393720B21794A74
:10405000AE20FFF7AFFE784800F00AFD6B4DA17A65
:10406000764800F005FD764800F002FD012305F1D9
:104070000C020C21AE20FEF753FD217B714800F0AD
:10408000F7FC237B013B012B06D901236E4A0C214F
:10409000AE202B73FFF78EFE02236C4A0D21AE205B
:1040A000FEF73EFDA379012B08D9584B00229A71E7
:1040B0000D210123664AAE20FFF77CFEE379012B38
:1040C00008D9524B0022DA710E210123614AAE2039
:1040D000FFF770FE604800F0CBFCA179574800F074
:1040E000C7FC4A4DE179554800F0C2FC544800F045
:1040F000BFFC022305F108020F21AE20FEF710FDE0
:10410000237A13F0FD0F07D000232B72534A0123AB
:104110000F21AE20FFF74EFE3E4B227A1D461A724B
:10412000627A12F0FD0F08D0384B00225A7210212B
:1041300001234B4AAE20FFF73DFE637A49486B727C
:1041400000F096FC217A3D4800F092FC2F4E617AF7
:104150003A4800F08DFC3A4800F08AFC0123721DB9
:104160001121AE20FEF7DCFC6379222B07D9002356
:1041700073713D4A01231121AE20FFF71BFE3B481E
:1041800000F076FC6179224C2C48254600F070FC4A
:104190002B4800F06DFC1523354A1221AE20FEF7A6
:1041A000BFFC0623334A0021AE20FEF7B9FCFFF71F
:1041B000BFFE22460E232721AE20FEF7B1FCA178D8
:1041C0002D4800F055FCE1782B4800F051FC217996
:1041D000294800F04DFC15F8051F274800F048FC61
:1041E000093415F8011F244800F042FCAC42F8D114
:1041F000224D14F8011F204800F03AFCA542F8D1E6
:10420000BDE870400E4800F033BC00BF8866002057
:10421000B0660020D06800204C4303085D430308CB
:104220003D1003088A660020744303083E1003080B
:1042300092660020411003088B4303082B4D0308AE
:10424000514C030895430308421003088E66002072
:104250004310030844100308AF4303084510030844
:1042600046100308BC43030847100308C74303086C
:1042700095660020AA6600208F400308BD660020D6
:10428000844B2DE9F0479A698AB042F001029A61A5
:104290009A69814F02F001020192019A9A693846A7
:1042A00042F004029A619A694FF4004102F004025C
:1042B0000292029A9A69012442F008029A619A696C
:1042C000032602F008020392039A9A69DFF8DC9150
:1042D00042F010029A619A69704D02F01002049245
:1042E000049A9A694FF4805842F020029A619B69BF
:1042F0006B4A03F020030593059B53684FF0100AA7
:1043000023F0E06343F000735360536843F40043C9
:1043100053600122FCF7EAF94FF4004306A938463E
:10432000069307940996FCF7F5F8224638464FF4B1
:104330008041FCF7DBF94FF4804306A93846069329
:1043400007940996FCF7E6F8224621464846FCF712
:10435000CDF906A94846069407940996FCF7DAF8C1
:10436000002228464FF48071FCF7C0F94FF48073A7
:1043700006A92846069307940996FCF7CBF822462F
:1043800048464FF48051FCF7B1F906A94846CDF8EC
:10439000188007940996FCF7BDF8002238464FF4C0
:1043A0006051FCF7A3F94FF4605306A93846069311
:1043B00007940996FCF7AEF8002241462846FCF720
:1043C00095F906A92846CDF8188007940996FCF7B8
:1043D000A1F8224621462846FCF788F94FF000084C
:1043E00006A928460694CDF81C800894FCF792F89C
:1043F00006A94846CDF818A0CDF81C80CDF820803D
:10440000FCF788F8F02306A9384606931127CDF863
:104410001C80CDF82080FCF77DF84FF4404306A9BE
:104420002846069307970996FCF774F842462846F3
:104430004FF40051FCF75AF94FF4005306A92846EF
:10444000069307970996FCF765F8C02306A9284646
:10445000069307970996FCF75DF8224651462846D1
:10446000FCF744F906A92846CDF818A00794099648
:10447000FCF750F821462846FCF732F9094B214653
:1044800018702846FCF72CF9074B18700AB0BDE8E5
:10449000F08700BF0010024000080140000C0140FE
:1044A000000001408E0700208F070020001001400F
:1044B00010B5094C01224FF460512046FCF716F963
:1044C0004FF4FA70FBF79EFF2046BDE81040002233
:1044D0004FF46051FCF70AB90008014010B50446DA
:1044E0000A20FBF78FFF74B9224602210648FCF729
:1044F000FDF80A20FBF786FFBDE8104001220221EB
:104500000148FCF7F3B810BD0014014048B9032975
:1045100007D112F1FF3218BF012210210148FCF728
:10452000E5B87047000C01400020FFF7C7BB30B56D
:10453000102391B00B930023022401250E9306A8AB
:104540004FF4001306940A950D940F93FCF7DCF8D2
:1045500000B1FEE70F23019303904FF480630590B1
:10456000294601A802940493FCF776FB044600B1A7
:10457000FEE7FCF723FC4FF47A73B0FBF3F0FBF794
:10458000A1FF0420FBF7B4FF224621464FF0FF3085
:10459000FBF758FF11B030BD2DE9F041394CFBF766
:1045A000E3FEFFF7C4FFFFF76BFE00F0EBF800F04F
:1045B000FDF903233448237000F05AFA2D2201211B
:1045C000324800F055FA3249324800F051FA324987
:1045D000324800F04DFA00252B4800F049FA2570CA
:1045E000FFF766FFFFF704FCFEF740FBFEF78AFECD
:1045F000FFF7E0FCFEF73AFB2846FFF76FFF28487D
:1046000000F036FA284625F06DFD0546A8B9254884
:1046100000F02EFAFFF7B8F8FEF728FB01236370CD
:1046200000F0AAF8A08000F0A7F81F4B26465860BB
:104630001E4800F01DFAA04616E01D4800F018FACA
:104640001CE0002FFDD1FEF771FC637A13B1777285
:10465000FEF73AFBFFF7D0FAFEF794FEA37A2BB9E8
:10466000E37A0BB188F80B50277AEAE70020B5729D
:1046700025F0AEFD10B925F0A9FEF1E70020BDE858
:10468000F08100BFC20C002094230308EE4303080E
:1046900006440308124403081C4403082544030885
:1046A0002F4403083B440308E869002058440308EA
:1046B00085440308FEE70000204B07B59A690720F0
:1046C00042F001029A619B6903F001030193019B8F
:1046D000FBF7A6FE002211466FF00B00FBF7B2FEBF
:1046E000002211466FF00A00FBF7ACFE00221146D3
:1046F0006FF00900FBF7A6FE002211466FF00400E0
:10470000FBF7A0FE002211466FF00300FBF79AFEB4
:10471000002211466FF00100FBF794FE00221146C3
:104720004FF0FF30FBF78EFE054A536823F0E0633D
:1047300043F08063536003B05DF804FB0010024057
:10474000000001407047FEE7FEE7FEE7FEE7704726
:104750007047704708B5FBF719FEBDE80840FBF746
:10476000D4BE0420FBF7C6BF0148FCF761BB00BF05
:10477000346A002070470000014B1868704700BF82
:10478000D80C002010B50D480D4C4FF4614384E85F
:1047900009000C2200232046A360E36023616261CC
:1047A000A361E361FCF7B2FC08B1FFF783FF226865
:1047B000D36843F02003D36010BD00BF0038014030
:1047C000A875002010B503683E4A88B0934225D1F1
:1047D0003D4B04A99A693D4842F480429A619B6925
:1047E000002403F480430193019B4FF4007304936E
:1047F0000223059303230793FBF78CFE4FF480639A
:1048000004A93248049305940694FBF783FE2520FF
:1048100022462146FBF716FE25204EE02C4A934205
:1048200023D1294B04A9DA69284842F40032DA611D
:10483000DB69002403F400330293029B04230493F6
:104840000223059303230793FBF764FE082304A9BF
:104850001E48049305940694FBF75CFE262022462E
:104860002146FBF7EFFD262027E01A4A934226D186
:10487000154B04A9DA69184842F48022DA61DB6931
:10488000002403F480230393039B4FF48063049379
:104890000223059303230793FBF73CFE4FF40063C9
:1048A00004A90D48049305940694FBF733FE2720D2
:1048B00022462146FBF7C6FD2720FBF7F7FD08B08F
:1048C00010BD00BF00380140001002400008014048
:1048D0000044004000480040000C014010B5A8B959
:1048E0002D4BB3F8EA23B3F8E843944253D09A5CD3
:1048F0000A70B3F8EA23013292B2B2F57A7F14BF9C
:10490000A3F8EA23A3F8EA03012010BD012816D179
:10491000224BB3F82223B3F8204394423AD09A5C56
:104920000A70B3F82223013292B2B2F5487F02D066
:10493000A3F82223E8E70022A3F8222310BD0228CF
:1049400001D1174B02E003280FD1164BB3F8D22741
:10495000B3F8D00790421DD09A5C0A70B3F8D22702
:10496000013292B2B2F5FA6F0FE0042812D10E4B69
:10497000B3F8D227B3F8D00790420BD09A5C0A70F4
:10498000B3F8D227013292B2C82A08BF0022A3F896
:10499000D227B9E7002010BDBC7D0020706A00203E
:1049A000D46D0020E8750020E881002010B540F2A9
:1049B000D4744FF47B7200210C4828F0B1FC4FF402
:1049C000497200210A4828F0ABFC22460021094820
:1049D00028F0A6FC22460021074828F0A1FC224628
:1049E000BDE810400021054828F09ABCBC7D00209D
:1049F000706A0020D46D0020E8750020E881002056
:104A000010B562B9164C4FF0FF338AB2014620460A
:104A1000FCF7A8FB23681A681006FCD51CE0012AE5
:104A20000CD1104C4FF0FF338AB201462046FCF700
:104A300099FB23681A681106FCD50DE0022A0DD1F6
:104A4000094C4FF0FF338AB201462046FCF78AFB3F
:104A500023681A681206FCD5044A1A6010BD00BF0C
:104A6000A8750020A8810020946D00207FFFFFEF33
:104A70000FB413B50E4B1B789B0713D005AC642203
:104A800000210C48019428F04BFC22460499094867
:104A900028F01AFD0748FBF701FC002201460548F3
:104AA000FFF7AEFF02B0BDE8104004B0704700BF92
:104AB000C20C0020DC0C00200EB4F3B507AA52F89B
:104AC000047B0D4D144606460192002164222846BF
:104AD00028F026FC22463946284628F0F5FC2846D0
:104AE000FBF7DCFB324601462846FFF789FF02B0A0
:104AF000BDE8F04003B07047DC0C002037B51D4A1C
:104B000000231168ADF806300868CB6815460343EA
:104B100013F0200F2BD040F2E632174B164CB3F8AF
:104B2000E81391429CBF4A1CADF80620B3F8EA2373
:104B3000BDF806309A424FF0FF334FF001020ED01D
:104B400021440C48FCF760FBB4F8E83301339BB216
:104B5000B3F57A7F28BF0023A4F8E83304E00DF111
:104B600006010448FCF750FB2B68044A1A6003B0A6
:104B700030BD00BFA8750020BC7D0020DFFFFFEF27
:104B800037B51D4A00231168ADF806300868CB68B8
:104B90001546034313F0200F2BD040F2E632174B9B
:104BA000164CB3F8201391429CBF4A1CADF8062066
:104BB000B3F82223BDF806309A424FF0FF334FF08E
:104BC00001020ED021440C48FCF71EFBB4F8203340
:104BD00001339BB2B3F57A7F28BF0023A4F82033BA
:104BE00004E00DF106010448FCF70EFB2B68044AB3
:104BF0001A6003B030BD00BFA8810020706A002099
:104C0000DFFFFFEF37B51D4A00231168ADF806300E
:104C10000868CB681546034313F0200F2BD040F2F1
:104C2000E632174B164CB3F8D01791429CBF4A1C82
:104C3000ADF80620B3F8D227BDF806309A424FF0FF
:104C4000FF334FF001020ED021440C48FCF7DCFA90
:104C5000B4F8D03701339BB2B3F57A7F28BF002375
:104C6000A4F8D03704E00DF106010448FCF7CCFAB3
:104C70002B68044A1A6003B030BD00BF946D002059
:104C8000D46D0020DFFFFFEF70B504460D461646D9
:104C900021F0E6FE324629462046BDE8704025F068
:104CA00065BF2DE9F04104460D4616461F4621F02A
:104CB00009FF3B46324629462046BDE8F04125F033
:104CC00087BF2DE9F04104460D4616461F4621F0E8
:104CD0000BFF3B46324629462046BDE8F04125F011
:104CE000C7BF2DE9F04104460D4616461F4621F088
:104CF00003FF3B46324629462046BDE8F04125F0F9
:104D0000C9BF0320704725F0EDBF0000F7B5427B17
:104D1000D0255543837A174F00214FF0340E0EFBF8
:104D200001F466193E4496F827609E4207D001318F
:104D30000429F4D1104623F095FF0F2018E0D0236A
:104D400003FB02430B4C1C4484F82620037B6A4679
:104D500084F82830817A407B24F0A2FE40B9064DC9
:104D60002378694655F82330204698470C28F7D019
:104D700003B0F0BD400D00207810030838B50B8853
:104D80000446702B0D464FF000000CD07C2B2AD02F
:104D90006F2B45D184F831000B808B7984F82E304D
:104DA000012323703BE0712320740B8094F82600CC
:104DB00021F0E8FAAB78142284F82D3002FB0303CB
:104DC000E97859722B79174984F82A306B7984F87D
:104DD0002C300423237094F82630CB5C012B1ED09A
:104DE00094F82D3017E0207471230B808B7894F8A1
:104DF000260084F82D300B7984F82A3004232370A0
:104E000084F82C30074B1B5C012B08D021F0BAFA38
:104E100094F82D30142202FB0300012303720C20AE
:104E200038BD00BFD82103082DE9F04F04468DB0EE
:104E300090F826008A4621F0A5FA002681463746DA
:104E4000DFF8408594F8273094F826008DF820305C
:104E500011238DF82130D9F8783001251B78ADF871
:104E600026608DF8223094F82030ADF82450234489
:104E700093F811B08DF82C0021F084FABBF1200FCB
:104E800000F21882DFE81BF0230025003400440004
:104E900058006C001D01210033018100CE00DB01B0
:104EA000D000D300E000F100F400F700F9000801A1
:104EB0004E0164017A019301BB00AB01C101C9013C
:104EC0001602E701E901020218020725F9E18F2322
:104ED00000E0182384F821309DF8223006338DF845
:104EE000223094F82D3003EB43031B011333ADE163
:104EF0009DF822308DF8237004338DF82230102372
:104F00008DF821300523ADF8243000F10E03CFE1F8
:104F100094F8260021F036FA9DF82230223004332E
:104F20008DF8223040238DF8233010238DF8213066
:104F30000523ADF8243026E094F8260021F022FA6B
:104F40009DF82230363004338DF8223080238DF8DE
:104F5000233010238DF821300523ADF8243012E0E2
:104F600094F8260021F00EFA9DF822304A300433DE
:104F70008DF82230C0238DF8233010238DF8213096
:104F80000523ADF824300A9098E19DF8223094F87A
:104F9000260004338DF8223094F82D309B013C33E9
:104FA0008DF8233021F0EEF994F82D30142202FB15
:104FB0000300027963684AB194F82C2032B194F866
:104FC000262018F802200AB9C02200E080225A7078
:104FD00094F82C304BB194F8263018F8032063680D
:104FE0000AB9C02200E080225A7063685B7884F8B6
:104FF000226084F8213084F82360032302E19DF8C5
:105000002230626804338DF8223094F82D309B01F1
:105010003C338DF82330537843F06003537063685A
:10502000013345E1102355E784F82170F0E01023A7
:105030008DF821309DF8223004338DF8223094F819
:105040002D309B013D33DAE09DF8223004338DF89A
:10505000223094F82D309B013D338DF8233002230C
:10506000ADF824306368023322E184F8217007E050
:1050700084F8215004E0022300E0032384F8213067
:105080009DF8223006338DF8223094F82D3003EB52
:1050900043031B012733D9E09DF8223006338DF8F6
:1050A000223094F82D3003EB43031B0128338DF895
:1050B000233063681A1D0A921B78142B74D91423A9
:1050C00072E0882384F821309DF8223002338DF875
:1050D000223094F82D305A018DF8232004F121025A
:1050E0000A92142202FB030301221A72E6E094F8EA
:1050F0002D1094F826000022FFF7C6FD94F82D200D
:1051000094F826502123ADF8183001239340284607
:105110008DF81E3001F062FF06AA0146284624F0F1
:105120005FFCCDE09DF8223006338DF8223094F8F4
:105130002D3003EB43031B0128338DF823306368C4
:1051400003F118020A921B78282BB8D8143B2BE0E5
:105150009DF8223006338DF8223094F82D3003EB81
:1051600043031B0128338DF82330636803F12C02BD
:105170000A921B783C2BA2D8283B15E09DF82230E0
:1051800006338DF8223094F82D3003EB43031B01D6
:1051900028338DF82330636803F140020A921B78AC
:1051A000502B00F28B803C3BADF8243086E094F825
:1051B0002F30032B40F28480C02384F823309DF8E5
:1051C000223006338DF8223094F82D3003EB430360
:1051D0001B0113338DF8233004F1230368E00B2304
:1051E00084F822309DF8223084F8215006338DF85F
:1051F000223094F82D3003EB43031B0122338DF84A
:1052000023300223ADF8243022E0162384F8213025
:1052100094F82D3002335B0018E09DF822301E22F6
:1052200006338DF8223094F82D3003EB43031B0135
:1052300021338DF82330234603F8212F38E0022351
:1052400084F8213094F82D305B0005338DF823303D
:1052500004F121032CE008233CE614238DF82130CF
:105260009DF8223006338DF8223094F82D3003EB70
:1052700043031B0123338DF8233004F121030A93E8
:10528000072384F8213084F8223017E010238DF8AA
:1052900021309DF8223006338DF8223094F82D30DD
:1052A00003EB43031B0126338DF8233004F12F0356
:1052B0000A9303E0032504E00A2502E0002500E04C
:1052C0000C250C2D4BD8DFE805F00C4A4A4A4A4A17
:1052D0004A254A4A074A44001323AAF800300C25FD
:1052E0004BE008A823F038FE054690B3072805D107
:1052F00094F82030013384F820303EE044F201037A
:105300000CAA22F8203D94F8271094F8260024F0E7
:1053100067FB32E094F8203023445B7C072B11D1EB
:105320000CAB4FF4804223F8202D0DF10F020192B7
:105330000122009294F8271094F82600142224F0F9
:1053400093FC00E0002594F82030013384F82030ED
:1053500010E094F82030013384F8203072E544F2F4
:1053600001030CAA22F8203D94F8271094F8260097
:1053700024F036FB002D3FF465AD28460DB0BDE8A6
:10538000F08F00BFD8210308F0B50D88ADB0752DA2
:1053900004460E461BD004D8132D00F09880702DC3
:1053A00009E0B5F5804F00F0AC8044F201039D4266
:1053B00000F0AA807C2D40F0AD8094F82B2094F86A
:1053C000271094F8260024F0A7FC00239FE090F813
:1053D0002A7004AA394690F8260023F018FC022807
:1053E00070D163689DF8102005A91A7063689DF854
:1053F00011205A7063689DF812209A7063689DF8B6
:105400001320DA709DF810306068502B84BF502351
:105410008DF810309DF81020043020F0B4FD94F881
:105420003030002B3ED10E2262740123626884F872
:1054300030301278142A05D80F23A3741323E37491
:10544000032330E0282A09D80F23A3741323E3741D
:105450001023237514236375052324E03C2A0DD8FB
:105460000F23A3741323E37410232375142363758C
:105470001123A3751523E375072314E0502A12D8CE
:105480000F23A3741323E37410232375142363756C
:105490001123A3751523E375122323761623637650
:1054A000092300E00023E21813461F21517417213D
:1054B00091742022DA74002384F820304FF4804362
:1054C000338025E0ADF808508DF80E700DE090F8AF
:1054D0002F30032B02D9002020701CE07523ADF87B
:1054E000083090F82A308DF80E3094F8271094F890
:1054F000260001222B340194009202AB24F0B4FB6D
:1055000008E0FFF791FC06E071230B800423237071
:105510000C2000E000202DB0F0BD13B50B88044630
:10552000772B0A460FD004D8132B32D102AA7A2344
:1055300024E0B3F5804F1ED044F20102934228D1FB
:1055400002AA7B231AE090F82E300BB9022307E061
:10555000012B01D1032303E0022B0CBF04230523FD
:1055600063742023A374002384F820304FF4804315
:1055700013800C200EE0FFF757FC0BE022F8083DEB
:1055800094F8281094F8260024F02AFA00202070BD
:1055900000E0002002B010BD37B50B880446782B20
:1055A0000D4611D004D8132B23D0772B27D03DE004
:1055B000B3F5804F20D044F20102934236D102AAC3
:1055C0007B2322F8083D28E090F8260020F0DAFE40
:1055D0000123637494F82D30142202FB030000238E
:1055E0004372202284F820304FF48043A2742B8031
:1055F00009E077230B8004E0FFF716FC17E04B88E7
:105600001BB9032323700C2011E06A467B23ADF8FD
:10561000003090F82D308DF8063094F8281094F86A
:10562000260024F0DDF90020207000E0002003B007
:1056300030BD73B50D46044690F8260020F0A2FE5A
:105640002B88712B14D006D8132B00F08480702B7C
:1056500000F0E38006E1B3F5804F00F0D98044F21A
:105660000102934240F0FE8071232B80042381E0ED
:1056700094F82C30012B11D1092363740B23A374EC
:105680001A23E3740C2323751B2363751D23A37551
:105690001E23E37519232376082352E0022B16D12B
:1056A0001A220623A2750C226374E27507231B22BB
:1056B000A374227608231D22E374627609231E2236
:1056C0002375A2760B2319226375E27639E0042B49
:1056D0000ED194F82D30142202FB03035B7A83B3BE
:1056E0000B2363741923A3740A23E374032328E0B0
:1056F00023BB0723A3740823E374092323751A2308
:10570000A3750C23E3751B2323761D2363761E23C9
:10571000A37694F82D30062253430B2662746675E7
:10572000806F38331844FF2120F02BFC94F82D3083
:10573000032B05D80123E376334602E0002300E083
:105740000A23234420225A74002384F820304FF483
:1057500080432B800FE0237C012B0ED12289002374
:1057600023742A80A27AAA70E27AEA70227B2A71D4
:10577000627B6A7123700C2075E094F82D1014235D
:1057800003FB01035E7A94F82C30CEB970222670A8
:10579000ADF8002094F82A2094F826408DF80210E5
:1057A00020468DF804208DF805308DF8036000F058
:1057B000B1FF6A460146204624F012F9304652E015
:1057C000042B0AD175232B8094F82A30AB71052362
:1057D0002370002384F83030CDE700257022257037
:1057E000ADF8002094F82A2094F826408DF8021095
:1057F00020468DF804208DF805308DF8036000F008
:1058000089FF6A460146204624F0EAF828462AE045
:1058100029462046FFF708FB25E094F82D20AB78B9
:10582000934213D1142202FB03035A7AEB789A4273
:1058300002D06B79042B09D194F82A202B799A4253
:1058400004D194F82C206B799A420BD00123237455
:105850002B882381AB78A372EB78E3722B792373C7
:105860006B796373002002B070BD7FB50B8804466E
:10587000772B0E464FD004D8132B36D06F2B14D075
:1058800064E0B3F5804F43D044F2010293425DD10E
:1058900004AA7B2390F8281022F8083D90F82600EF
:1058A00024F09EF80020207060E090F8260020F0A0
:1058B000EFFB94F82E20062303FB0200457E002D0B
:1058C00048D00B2363741A23A3741B23237500236E
:1058D00084F82D20637584F820300C2020224FF4AA
:1058E0008043E074A275338040E07723ADF8083040
:1058F0000423ADF80A302B34012390F82710C82276
:1059000090F826000093019402AB24F0ADF91DE05D
:10591000FFF78AFA2AE090F82B2090F8271090F8E9
:10592000260024F0F9F9738823B978233380022301
:10593000237009E094F831300133DBB2032B84F893
:10594000313005D86F2333800C200FE000200DE0AC
:105950000F200BE004AA7A2322F8083D94F82810BF
:1059600094F8260024F03CF82846257004B070BD59
:10597000D0235843342303FB0101024B194491F80F
:1059800027007047400D002010B50C4620F0FAFCAF
:10599000142101FB0400407A10BD00002DE9F347FB
:1059A000074688469146D0244443342202FB0144F2
:1059B000DFF850A04FF41F767E430AEB040528461B
:1059C000002120F0DEFA9F2202FB08660B4B00212B
:1059D0001E44304620F0D5FA002385F826704A464A
:1059E0000093074938460AF8043024F0EDF985F8A9
:1059F00027006E6002B0BDE8F08700BFBC890020C0
:105A00000D4D0008400D0020F7B5427BE0255543C1
:105A1000837A174F00214FF0380E0EFB01F4661900
:105A20003E4496F827609E4207D001310429F4D104
:105A3000104623F017F90F2018E0E02303FB024380
:105A40000B4C1C4484F82620037B6A4684F82830DB
:105A5000817A407B24F024F840B9064D23786946CA
:105A600055F82330204698470C28F7D003B0F0BDF6
:105A7000100E00209010030837B5044690F8260059
:105A800020F080FC054694F82B2094F8271094F819
:105A9000260024F041F994F8272094F826000021EC
:105AA00023F064F994F8271094F8260024F046F8BF
:105AB0000023237094F82D3014228DF8023002FB5D
:105AC00003535B7A02AA8DF8033094F82A3094F8D5
:105AD00027108DF8043094F82C3094F826008DF8B7
