:020000040800F2
:104000007848002065410008616B0108F943010808
:104010005D6B010869080108D97D010800000000F6
:1040200000000000000000000000000013770108FD
:10403000ED09010800000000196C0108F57A01087B
:104040007F410008696801087F4100087F4100083E
:104050007F4100087F4100087F4100087F41000840
:104060007F4100087F4100087F4100087F41000830
:104070007F4100087F4100087F4100087F41000820
:104080007F4100087F4100087F4100087F41000810
:104090007F4100087F4100087F4100087F41000800
:1040A0007F4100086D7B01087F4100087F410008C7
:1040B0007F4100087F4100087F4100087F410008E0
:1040C0007F4100087F4100087F4100087F410008D0
:1040D0007F410008797B0108FD7B01087F410008D2
:1040E0007F4100087F410008917C01087F41000862
:1040F0007F4100087F4100087F4100080000000068
:104100007F410008000000007F4100087F41000857
:104110007F4100087F4100087F4100087F4100087F
:104120007F4100087F4100087F4100087F4100086F
:104130007F41000800000000000000007F410008EF
:104140007F4100087F4100087F410008817C010811
:10415000DFF80CD000F062FB00480047818F0108B7
:10416000784800200648804706480047FEE7FEE7FB
:10417000FEE7FEE7FEE7FEE7FEE7FEE7FEE7FEE717
:10418000017B01085141000840EA01039B0703D06D
:1041900009E008C9121F08C0042AFAD203E011F886
:1041A000013B00F8013B521EF9D27047D2B201E048
:1041B00000F8012B491EFBD270470022F6E710B52C
:1041C00013460A4604461946FFF7F0FF204610BD85
:1041D000421C10F8011B0029FBD1801A704710B552
:1041E000002200E0521C835C8C5CA34201D1002BB6
:1041F000F8D1D8B2E1B2401A10BD30B50446002063
:10420000034600E05B1C934203D2E05CCD5C401BA4
:10421000F8D030BD0FB400B58DB010A909900B9047
:1042200000914FF0FF300A9000200C900548069056
:10423000054807906A4609A80F9900F009F90DB0E2
:104240005DF814FB6D4400088B4400082DE9FF5F06
:104250001D464FF0FF3BD5E9014691465F464FF0C2
:104260000008A9697F1C01988847296A8246884707
:104270000028F6D1BAF1FF3F0CD024F4C064002E20
:1042800019DD600614D5BAF12B0F09D0BAF12D0F44
:104290000ED103E0584604B0BDE8F09F44F48064BA
:1042A000A9697F1C01988847761E8246002E02DD90
:1042B000BAF1300F03D0B9F1000F26D032E0A9696E
:1042C000761E44F400747F1C019888478246002EB5
:1042D00005DDBAF1780F06D0BAF1580F03D0B9F165
:1042E000000F10D01EE0B9F1000F02D0B9F1100F8D
:1042F00018D1A969761E24F400747F1C01988847A0
:104300008246102002E0082000E00A20814609E0F1
:1043100008FB0908A969761E44F400747F1C019803
:1043200088478246002E05DD4946504600F07BF85E
:104330000028EDDAE96901988847A00502D46FF0FA
:104340000100A8E7E00725D1600613D5600502D576
:10435000C8F1000000E0404629680A1D2A6009688B
:10436000220501D5087015E0220701D5088011E06B
:1043700008600FE02868011D29600068210502D54A
:1043800080F8008006E0210702D5A0F8008001E057
:10439000C0F8008038467EE730B50B460146002065
:1043A0002022012409E021FA02F59D4205D303FAF7
:1043B00002F5491B04FA02F52844151EA2F1010278
:1043C000F1DC30BD2DE9F05F0546002092469B46AA
:1043D00088460646814640241BE02846414647461B
:1043E000224600F03CFA53465A46C01A914110D377
:1043F00011461846224600F023FA2D1A67EB0108F1
:104400004F4622460120002100F01AFA17EB00095E
:104410004E41201EA4F10104DFDC484631462A4605
:104420004346BDE8F09F3A2800D2303820F0200201
:10443000412A01D3A2F13700884201D34FF0FF3067
:1044400070470000026811441378016018467047F5
:10445000D160044951610449116200211161114682
:1044600000F024BA45440008A3480008426842B15D
:10447000016811F8013B23B1521EC0E90012184631
:1044800070470121C160881E704742685AB1C368F5
:10449000016843B983688B4205D0491E521CC0E9AC
:1044A0000012002070474FF0FF3070472DE9FE4F9B
:1044B000804681EA0300C00F0C46009021F00041C5
:1044C00023F00045B8EB0200A94105D24046214641
:1044D00090461C460B46024623F00040104347D04E
:1044E000270DC7F30A00C3F30A510290401A019046
:1044F00040286BDAC3F3130040F4801B0098924607
:1045000020B10023D2EB030A63EB0B0B0198594651
:10451000C0F14002504600F093F906460D46504661
:104520005946019A00F0ABF910EB080061410024F4
:1045300087EA115284EAE7731A4340D0009A62B3C3
:10454000019A012A4FEA075215DC001B61EB0201B8
:104550004FF0004202EA0752CDE90042001C41F54B
:10456000801132462B4600F046FB03B0BDE8F08FC9
:1045700040462146F9E7001B61EB0201001C41F5B2
:10458000801300185B412018A2F5001747EB0301C8
:1045900040EAD570B6196D4111E06D084FEA360654
:1045A00045EAC0754FEA0752001B61EB0201001C8F
:1045B00041F5801149084FEA300000195141324657
:1045C0002B4603B0BDE8F04F00F006BB0098012277
:1045D00040000023D0EB020263EBE0730098214619
:1045E0004FEAE074B8EB000061EB0401E9E783F007
:1045F00000435BE781F0004158E72DE9FE4F81EA77
:10460000030404F0004421F0004100944FF0000B3B
:1046100023F0004350EA01045ED052EA03045BD069
:10462000C3F30A54C1F30A552C44A4F2F3340194A1
:10463000A0FB0254C1F3130141F48011C3F313032F
:1046400043F4801301FB024400FB034E840A970AE3
:1046500044EA815447EA8357A4FB076802958D0A10
:1046600005FB07854FEA932C04FB0C542705029D9C
:104670004FEA065847EA1637B5EB08056EEB070C0C
:10468000870E920E47EA811742EA8312A7FB0201C6
:10469000B6EB0B0164EB00042B0D43EA0C335E1800
:1046A00044EB1C50DA465146E7FB0201C5F3130404
:1046B0004FEA0B3343EA14534FEA0432019C43EAB6
:1046C0000603A4F10C040294009CCDE900B400F0B0
:1046D00092FA03B0BDE8F08F00200146F9E72DE91A
:1046E000F04D81EA030404F0004B21F0004514462C
:1046F0004FF0000A23F0004150EA050220D054EAAE
:1047000001021DD0C5F30A570246C5F31303C1F3D6
:104710001300C1F30A5640F4801543F48013A7EB4D
:104720000608101BD64608F2FD3873EB050002D3CD
:1047300008F1010801E092185B41B8F1000F03DABB
:1047400000200146BDE8F08D00204FF480110646A0
:1047500084460EE0171B73EB050705D3121B63EBB2
:10476000050306434CEA010C49084FEA3000921851
:104770005B4150EA0107EDD152EA030012D082EA10
:10478000040083EA0501084305D0101BAB4106D2A3
:104790000122002306E000224FF0004302E06FF008
:1047A000010253101AEB06004CEB085110EB0A0003
:1047B00041EB0B01BDE8F04D00F00EBAC1F30A5217
:1047C000C1F3130140F2FF3341F480119A4202DA3F
:1047D00000200146704740F233439A42A2F233422E
:1047E00002DC524200F03BB800F02AB830B5041E9B
:1047F00071F1000404DB4FF00044404264EB01011E
:10480000141E73F1000405DB1C464FF000435242B6
:1048100063EB0403994208BF904230BD064C074D3C
:1048200006E0E06840F0010394E807009847103480
:10483000AC42F6D3FFF790FCE0EC010800ED010874
:10484000202A04DB203A00FA02F100207047914050
:10485000C2F1200320FA03F3194390407047202A45
:1048600004DB203A21FA02F00021704721FA02F31A
:10487000D040C2F120029140084319467047202AD7
:1048800006DBCB17203A41FA02F043EAE07306E078
:1048900041FA02F3D040C2F1200291400843194688
:1048A0007047C0B24FF4F05100F0F4B92DE9F34F66
:1048B0008BB04FF0000801F10C000C464FF0010BDB
:1048C00046460DF1080A019062690121019890475E
:1048D000051E2DD0252D2CD0216A8847C0B16269D4
:1048E000012101989047216A88470028F7D1411E8D
:1048F00062690198904700E0761CA1690B9888478F
:10490000216A88470028F7D1E1690B988847DBE7DF
:10491000A1690B9888470746A84201D1761CD3E7C6
:10492000E1690B9888477F1C02D1B8F1000F6FD066
:1049300046E1002762693D463946019890472A289A
:1049400004D162690121019890470125DFF8849222
:104950006269012101989047A0F130010A290AD229
:104960004F45E5DC07EB870100EB4107303FDFD423
:1049700045F01005ECE7E90601D46FF000476C281C
:104980000AD04C2814D0682815D06A280DD0742875
:104990001CD07A281AD01DE0626901210198904745
:1049A0006C2802D045F0040514E045F002050DE046
:1049B00045F020050AE062690121019890476828C6
:1049C00002D045F0080505E045F400656269012163
:1049D00001989047C4E9015765283DD019DC582853
:1049E0007AD00CDC452837D004DC252826D0412895
:1049F00031D131E046282FD047282CD12CE05B283C
:104A000077D0612828D063287CD0642823D15AE04D
:104A1000D0E06F2848D008DC66281DD067281BD05E
:104A2000692821D06E2816D127E0702845D0732838
:104A300068D0752847D078280DD14DE0A1690B9832
:104A40008847054625283FF469AFE1690B988847F8
:104A50006D1C3FF46AAFB3E023466A466FF0010075
:104A60000B99AFF300809EE045F040006060A8071E
:104A700023464FF0000236D43EE0E8077FF447AF0C
:104A80002068011D21600068290501D506701BE71B
:104A9000290701D5068017E7A90703D5F117C0E953
:104AA000006111E706600FE745F040006060A8076D
:104AB00023464FF0080216D41EE040F60E0125EA08
:104AC0000100606016E045F040006060A8072346E2
:104AD0004FF00A0207D40FE045F040006060A807DD
:104AE00008D5234610226FF001000B99AFF3008028
:104AF00059E007E0234610226FF001000B99FFF701
:104B0000A5FB50E04FF000094F464B46632802D00A
:104B10005B2806D040E0E80601D40120A060012710
:104B20003AE062690121019890475E2805D14FF073
:104B300001096269494601989047216939B9002104
:104B40000A46534643F82120491C0829FADBB0B332
:104B5000216969B9C11700EBD16253110AEB8301D6
:104B600022F01F02821A01200B68904003430B6061
:104B700062690121019890475D28E8D1B9F1000FE1
:104B800009D00020514651F82020D24341F820207E
:104B9000401C0828F7DB02AB224600976FF00100AB
:104BA0000B99AFF3008000280CDA401C08D1BBF150
:104BB000000F05D04FF0FF300DB0BDE8F08FFFE7DC
:104BC0004046F9E7E90701D108F1010806444FF032
:104BD000000B79E6CCCCCC0C10B5141E73F100049C
:104BE00008DA401C41F1000192185B411A4301D1DF
:104BF00020F0010010BD2DE9F04D92469B4611B109
:104C0000B1FA81F202E0B0FA80F220329046FFF76A
:104C100017FE04460F4640EA0A0041EA0B015346DC
:104C20005A46084313D0114653EA010019D0C8F17F
:104C300040025046FFF713FE05460E4650465946C1
:104C40004246FFF7FDFD084305D0012004E0204661
:104C50003946BDE8F08D0020054346EAE0762C4356
:104C600037430A986305E40AA0EB08000022FD0A16
:104C700044EA47540A3002D500200146E9E701051D
:104C800010196941DDE9084500196941BDE8F04D99
:104C9000A2E700007F2801D9002208E0064A02EBC3
:104CA0005002C007127800D1120902F00F02012051
:104CB00090400840704700003CEB010870B58C182C
:104CC00010F8015B15F0070301D110F8013B2A1120
:104CD00006D110F8012B03E010F8016B01F8016B0D
:104CE0005B1EF9D12B0705D40023521E0DD401F809
:104CF000013BFAE710F8013BCB1A921C03E013F8D2
:104D0000015B01F8015B521EF9D5A142D8D3002006
:104D100070BD70472DE9F04106464FF000080122B2
:104D2000FCA1FD4801F002FB80BBFC4AFCA1FA4853
:104D3000FFF770FAF848807830280FDBF648807863
:104D400039280BDCF7480068042807D340F2813289
:104D5000F149C91CC81EFFF717FA18E0EE48407861
:104D600030280FDBEC48407839280BDCED48006830
:104D7000032807D340F28232E749891C881EFFF7D7
:104D800003FA04E04FF6FF70BDE8F08106E0E54865
:104D90000068001FE4490860012500E0002585B196
:104DA000DE48006808B9032413E0E0480078DB49D6
:104DB0000968884201D101240BE002244FF6FF70FC
:104DC000E2E7DA48007818B102244FF6FF70DBE71B
:104DD000002400F03DFD0422D5A1CF4801F0A6FA41
:104DE00020B9304600F04CFD0020CDE70622D2A1CC
:104DF000C94801F09BFA20B9304601F027FA00209B
:104E0000C2E70322CEA1C44801F090FA00286ED177
:104E10000322CCA1C048C01C01F088FA00283DD173
:104E20000422C9A1BC48C01D01F080FA30B104229F
:104E3000C5A1B948083001F079FA70BBC44BC54A26
:104E4000C5A1B548FFF7E6F900BFC24800680228CF
:104E500004D93046FFF75DFF012095E7BC480068A4
:104E600018B1BB480068012804D93046FFF751FF4C
:104E7000012089E7B6480368B648BBA10268BE486E
:104E800012F0ACFFBC4800F095FCB14A1178B14A71
:104E9000107801F0A3FE002076E7FFE70322A9A126
:104EA0009D48C01C01F042FAA8BB0822B3A19A4851
:104EB000C01D01F03BFA70BBA54BA64AB2A19648B3
:104EC000FFF7A8F9A3480068012804D03046FFF78F
:104ED00020FF012058E79E480068012808D09C4820
:104EE000006828B13046FFF714FF01204CE701E2CB
:104EF000974803689748A9A102689F4812F06EFF7F
:104F00009D4800F057FC92480068012804D1002019
:104F100001F0BEFB03E004E0012001F0B9FB00203A
:104F200032E7032287A17C48C01C01F0FFF9A0BB37
:104F300004229FA17848C01D01F0F8F968BB844B9A
:104F4000844A9DA17448FFF765F9824800680128EA
:104F500004D03046FFF7DDFE012015E77C480068ED
:104F600040B17B480068022804D03046FFF7D1FEEC
:104F7000012009E776480368764893A102687E48D5
:104F800012F02CFF7C4800F015FC714A1178714A30
:104F9000107801F0C5FC0020F6E6FFE702228EA1A2
:104FA0005D48C01C01F0C2F9E0BB04228BA15A4845
:104FB000801D01F0BBF930B1042288A15648C01D04
:104FC00001F0B4F970BB624B624A86A15248FFF708
:104FD00021F960480068012804D03046FFF799FEA7
:104FE0000120D1E600BF5A480068232804D9304682
:104FF000FFF78FFE0120C7E65548036855487DA19D
:1050000002685D4812F0EAFE5B4800F0D3FB012025
:1050100001F044FB4E4A11784E4A107801F0AAFC88
:105020000020B1E6FFE7042276A13B48C01C01F056
:105030007DF9E0B9474A75A13748FFF7EBF84548D5
:105040000068632804D93046FFF763FE01209BE621
:10505000404871A10268484812F0C0FE464800F07E
:10506000A9FB3C49087801F0DFFD00208CE609220D
:105070006CA12948C01C01F059F988BB354A6CA1C4
:105080002548FFF7C7F833480068012804D03046A8
:10509000FFF73FFE012077E6032269A11E480D308D
:1050A00001F044F950B967A1334812F097FE324835
:1050B00000F080FB012001F0EBFA17E0042265A16B
:1050C00015480D3001F032F958B964A12A4812F0A0
:1050D00085FE294800F06EFB002001F0D9FA05E0BA
:1050E00006E03046FFF715FE01204DE600204BE6B6
:1050F00004225EA10848C01C01F018F938B9032247
:105100005CA10548C01D01F011F908B9B4E0D6E072
:10511000BDE0000041000000A81700208C00002026
:105120004125640094000020900000202C1B0020EA
:10513000455A480D00000000455A5354410D0000E7
:10514000455A53004F5554005653494E0000000035
:105150007800002074000020455A534F55542564B0
:105160005653494E256400004F555425642056532C
:1051700020494E2564000000600E00204844435042
:105180004D4F444500000000455A534F5554256487
:10519000484443504D4F4445256400004F55542525
:1051A000642048444350204D4F444525640000008E
:1051B0004844435000000000455A534F555425645D
:1051C00048444350256400004F555425642048440A
:1051D0004350202564000000494E000045444944E6
:1051E00000000000455A53494E2564454449442572
:1051F00064000000494E256420454449442025644C
:10520000000000004144445200000000455A534150
:105210004444522564000000414444522025302E6D
:105220003264000044454255474D4F44450000005C
:10523000455A5344454255474D4F44452564000067
:10524000454E0D004445425547204D4F44453120C1
:10525000454E00004449530D0000000044454255AE
:1052600047204D4F44453120444953004155544F48
:10527000000000004F4E0D00F8A1FA4812F0AEFDFC
:10528000F84800F097FA012001F0CCF815E004226C
:10529000F5A1F74801F04AF850B9F6A1F14812F02B
:1052A0009DFDF04800F086FA002001F0BBF804E014
:1052B0003046FFF72EFD012066E5002064E504225C
:1052C000EFA1EB48001F01F031F850B9EEA1E5481D
:1052D00012F084FDE34800F06DFA01F08FFC00202D
:1052E00052E54FF46171E248C01FFEF766FF4FF6CA
:1052F000FF7049E50322E5A1DD48C01F01F016F863
:1053000000286FD10322AFF2C411D948001F01F069
:105310000DF878BB0322DEA1D54801F007F830B1C3
:105320000322DBA1D248401C01F000F810BBD94A8F
:10533000D9A1CF48C01FFEF76DFF00BFD548006858
:10534000022804D93046FFF7E4FC01201CE5D148CF
:10535000006880B9012001F021FC07463B4601228C
:10536000AFF2FC11BF4812F039FD3146BD4800F0E4
:105370002DFA11E012E0C749087801F00FFC07464A
:105380003B46C448AFF220210268B64812F026FD21
:105390003146B44800F01AFA0020F5E40322AFF2D7
:1053A0005C21B348001F00F0C1FF88BB0522BDA1EE
:1053B000AF4800F0BBFF30B10522BAA1AC48401C99
:1053C00000F0B4FF20BBB34AB9A1A948C01FFEF743
:1053D00021FFB0480068012805D03046FFF799FC4E
:1053E0000120D1E4DCE101F04DF908B9012000E031
:1053F000002007463B46A748AFF260210268994863
:1054000012F0ECFC3146974800F0E0F90020BBE4D4
:10541000FFE70322AFF2D4219548001F00F086FF7A
:1054200070BB0522A7A1924800F080FF30B1052291
:10543000A4A18F48401C00F079FF08BB954AA3A1A6
:105440008B48C01FFEF7E6FE92480068012804D092
:105450003046FFF75EFC012096E48E49087801F0A3
:105460003FFA07463B468B48AFF2A42102687D48CD
:1054700012F0B4FC31467B4800F0A8F9002083E428
:105480000222AFF2AC217A48001F00F04FFF30B982
:10549000072292A17648401E00F048FF28B107225B
:1054A0008EA1734800F042FFF8B97A4A8DA1704886
:1054B000C01FFEF7AFFE77480068012804D03046D1
:1054C000FFF727FC01205FE472480068401E89490D
:1054D0000B5C704888A10268624812F07FFC31467C
:1054E000604800F073F900204EE40222AFF2183158
:1054F0005F48001F00F01AFF30B9052282A15C4806
:10550000401E00F013FF28B105227FA1584800F08B
:105510000DFF00BB5F4A7EA15548C01FFEF77AFE13
:105520005C480068012804D03046FFF7F2FB0120F8
:105530002AE458480068401E78490B5C5548AFF291
:105540004C310268474812F049FC3146454800F0AA
:105550003DF9002018E4052271A14548001F00F024
:10556000E5FE68B96D48C01E0278AFF254313D487F
:1055700012F034FC31463B4800F028F9002003E4E7
:10558000072269A13A48001F00F0D0FE58B909234C
:10559000012267A1334812F021FC3146314800F066
:1055A00015F900200CE4082266A13148001F00F024
:1055B000BDFE50B966A269A12A4812F00FFC31461F
:1055C000284800F003F900200FE40922AFF2AC31C3
:1055D0002748001F00F0AAFE08BB2E4A60A12448FD
:1055E000C01FFEF717FE2B480068012804D0304684
:1055F000FFF78FFB012030E401F044F808B15CA014
:1056000001E0AFF29C3007463A465AA1154812F025
:10561000E5FB3146134800F0D9F800201DE40922CB
:1056200058A11348001F00F081FE68B900F0F4FE95
:1056300007463A4656A10B4812F0D0FB31460948BE
:1056400000F0C4F8002008E44FF461710848C01F5E
:10565000FEF7B3FD4FF6FF700BE400004155544FC9
:10566000204F4E00600E00204F46460D0000000007
:10567000AF1700204155544F204F46460000000010
:105680005253540D0000000052535400455A470035
:1056900056530D0074000020455A474F5554256459
:1056A00056530000484443504D4F44450D00000000
:1056B000455A474F55542564484443504D4F44453F
:1056C00000000000484443500D000000455A474F79
:1056D0005554256448444350000000005349475343
:1056E00054410D00455A47494E2564534947535488
:1056F00041000000431B0020494E256420534947C8
:105700002053544120256400454449440D000000C5
:10571000455A47494E256445444944002F1B002003
:10572000414444520D000000564552494E460D007A
:105730004D41494E204D4355205625642E252E328D
:105740006400000054595045494E460D00000000C9
:10575000455A2D5350313248323100002573000034
:10576000455A4744454255474D4F4445256400003E
:10577000454E20004445425547204D4F4445312079
:10578000257300004155544F4D4F44450D00000016
:105790004155544F204D4F444520256400000000E2
:1057A0004FF461710248FEF708FD4FF6FF7018E4F0
:1057B000A817002010B50446214602A012F0A4FA52
:1057C00010BD000025730D0A0000000070B50446EE
:1057D0000D46214601A012F097FA70BD25730D0AFF
:1057E0000000000070B50646002400254FF46171EA
:1057F0001448FEF7E2FC00BF1EE01348005D2028BD
:1058000000D117E01048005D61280CDB0E48005DF8
:105810007A2808DC0C48005D2038C2B228466D1C8E
:1058200008490A5405E00848025D28466D1C0549F0
:105830000A5400BF601C84B2B442DED30348056042
:10584000AD1E70BDA8170020441E0020940000204B
:105850004FF6FF7005490860054908600549086072
:105860000549086005490860704700007400002081
:10587000780000207C0000208000002084000020B0
:1058800010B504463BA012F03FFA022013F01EF8B8
:1058900048A012F039FA022013F018F835A012F0DF
:1058A00033FA022013F012F852480178092301223A
:1058B000514812F029FA022013F008F84FA012F014
:1058C00023FA022013F002F85CA012F01DFA022065
:1058D00012F0FCFF69A012F017FA022012F0F6FF96
:1058E00076A012F011FA022012F0F0FF83A012F05D
:1058F0000BFA022012F0EAFF90A012F005FA022043
:1059000012F0E4FF9DA012F0FFF9022012F0DEFF7A
:10591000AAA012F0F9F9022012F0D8FF37A012F075
:10592000F3F9022012F0D2FFB4A012F0EDF9022038
:1059300012F0CCFFC1A012F0E7F9022012F0C6FF6E
:10594000CEA012F0E1F9022012F0C0FFDBA012F0AD
:10595000DBF9022012F0BAFFE8A012F0D5F902201C
:1059600012F0B4FFF5A012F0CFF9022012F0AEFF52
:1059700004E200003D3D3D3D3D3D3D3D3D3D3D3D65
:105980003D3D3D3D3D3D3D3D3D3D3D3D3D3D3D3D47
:105990003D3D3D3D3D3D3D3D3D3D3D3D3D3D3D3D37
:1059A0003D3D3D3D3D3D3D3D3D3D3D3D3D3D3D3D27
:1059B0000D0A00003D3D2020202020202020202016
:1059C00020202020202020202020202020202020D7
:1059D00053797374656D732048454C502020202006
:1059E00020202020202020202020202020203D3D7D
:1059F0000D0A00002C1B00207CEB01083D3D2D2DE5
:105A00002D2D2D2D2D2D2D2D2D2D2D2D2D2D2D2DC6
:105A10002D2D2D2D2D2D2D2D2D2D2D2D2D2D2D2DB6
:105A20002D2D2D2D2D2D2D2D2D2D2D2D2D2D2D2DA6
:105A30002D2D2D2D2D2D3D3D0D0A00003D3D2053DA
:105A4000797374656D20436F6E74726F6C2053654B
:105A500074757020436F6D6D616E64733A20202001
:105A60002020202020202020202020202020202036
:105A70002020202020203D3D0D0A00003D3D2045F6
:105A80005A482020202020202020202020202020B4
:105A90002020202020203A2048656C7020202020E3
:105AA00020202020202020202020202020202020F6
:105AB0002020202020203D3D0D0A00003D3D2045B6
:105AC0005A53544120202020202020202020202014
:105AD0002020202020203A2053686F7720476C6FC9
:105AE00062616C2053797374656D205374617475B1
:105AF0007320202020203D3D0D0A00003D3D204523
:105B00005A532041444452207878202020202020DD
:105B1000202020203A205365742053797374656DDA
:105B2000204164647265737320746F20787820203C
:105B30002020202020203D3D0D0A00003D3D20205A
:105B40002020202020202020202020202020202055
:105B50002020202020207B78783D5B30307E393932
:105B60005D2830303D53696E676C65297D202020AB
:105B70002020202020203D3D0D0A00003D3D2045F5
:105B80005A5320525354202020202020202020200F
:105B9000202020203A20526573657420746F2046BF
:105BA0006163746F72792044656661756C747320EB
:105BB0002020202020203D3D0D0A00003D3D2045B5
:105BC0005A472041444452202020202020202020D9
:105BD000202020203A204765742053797374656D26
:105BE00020416464726573732020202020202020CF
:105BF0002020202020203D3D0D0A00003D3D204971
:105C00006E70757420536574757020436F6D6D618F
:105C10006E643A20284E6F74653A696E7075742010
:105C20006E756D6265722878293D48444D49287823
:105C3000292C783D31293D3D0D0A00003D3D204590
:105C40005A5320494E782045444944207920202049
:105C5000202020203A2053657420496E70757420EE
:105C60007820454449447B783D5B315D2C20793D6B
:105C70005B307E33305D3D3D0D0A00003D3D202010
:105C8000303A31303830505F3243482850434D2944
:105C90002020202020313A31303830505F364348C0
:105CA00020202020202020323A31303830505F38F8
:105CB0004348202020203D3D0D0A00003D3D20208E
:105CC000333A31303830505F33445F3243482850E4
:105CD000434D292020343A31303830505F33445F0F
:105CE00036434820202020353A31303830505F3359
:105CF000445F384348203D3D0D0A00003D3D2020D3
:105D0000363A344B3330487A5F33445F3243482865
:105D100050434D2920373A344B3330485A5F33448F
:105D20005F364348202020383A344B3330485A5F9E
:105D300033445F3843483D3D0D0A00003D3D20207F
:105D4000393A344B3630487A2859343230295F3367
:105D5000445F3243482850434D29202020202031E1
:105D6000303A344B3630487A2859343230295F3350
:105D7000445F364348203D3D0D0A000033A011F03A
:105D8000C3FF022012F0A2FD40A011F0BDFF0220CF
:105D900012F09CFD4DA011F0B7FF022012F096FD0D
:105DA0005AA011F0B1FF022012F090FD67A011F08F
:105DB000ABFF022012F08AFD74A011F0A5FF0220B3
:105DC00012F084FD81A011F09FFF022012F07EFDF1
:105DD0008EA011F099FF022012F078FD9BA011F027
:105DE00093FF022012F072FDA8A011F08DFF022097
:105DF00012F06CFDB5A011F087FF022012F066FDD5
:105E0000C2A011F081FF022012F060FDCFA011F0BE
:105E10007BFF022012F05AFDDCA011F075FF02207A
:105E200012F054FDE9A011F06FFF022012F04EFDB8
:105E3000F6A011F069FF022012F048FDAFF24440D5
:105E400011F062FF022012F041FD10BD3D3D202007
:105E500031313A344B3630487A2859343230295F60
:105E600033445F3843482020202020202020203148
:105E7000323A344B3630485A5F33445F324348201D
:105E80002020202020203D3D0D0A00003D3D202007
:105E900031333A344B3630485A5F33445F364348E7
:105EA00020202020202020202020202020202031E1
:105EB000343A344B3630485A5F33445F38434820D5
:105EC0002020202020203D3D0D0A00003D3D2020C7
:105ED00031353A31303830505F3243485F484452B0
:105EE0002031363A31303830505F3643485F4844CD
:105EF000522031373A31303830505F3843485F48AC
:105F00004452202020203D3D0D0A00003D3D202030
:105F100031383A31303830505F33445F32434828AB
:105F200050434D295F484452202020202031393AE7
:105F300031303830505F33445F3643485F48445215
:105F40002020202020203D3D0D0A00003D3D202046
:105F500032303A31303830505F33445F3843485F35
:105F60004844522020202020202020202032313A76
:105F7000344B3330487A5F33445F324348285043D0
:105F80004D295F4844523D3D0D0A00003D3D202013
:105F900032323A344B3330487A5F33445F364348C9
:105FA0005F48445220202020202020202032333AF5
:105FB000344B3330487A5F33445F3843485F48445A
:105FC0005220202020203D3D0D0A00003D3D202094
:105FD00032343A344B3630487A2859343230295FDB
:105FE00033445F3243485F4844522032353A344BA1
:105FF0003630487A2859343230295F33445F36438B
:10600000485F484452203D3D0D0A00003D3D2020A0
:1060100032363A344B3630487A2859343230295F98
:1060200033445F3843485F4844522032373A344B58
:106030003630487A5F33445F3243482850434D2915
:106040005F48445220203D3D0D0A00003D3D202088
:1060500032383A344B3630487A5F33445F364348FF
:106060005F4844522020202020202032393A344BEF
:106070003630487A5F33445F3843485F48445220A3
:106080002020202020203D3D0D0A00003D3D202005
:1060900033303A344B3630487A5F33445F324348CA
:1060A0002850434D295F444C56532033313A344BEA
:1060B0003630487A5F33445F3643485F444C56532A
:1060C0005F444C4154203D3D0D0A00003D3D2020E1
:1060D00033323A344B3630487A5F33445F38434882
:1060E0005F444C56535F444C41542033333A46523C
:1060F0004C3430475F384B5F3243482850434D297A
:106100005F48562020203D3D0D0A00003D3D2020E7
:1061100033343A46524C3430475F384B5F3643484D
:106120005F4856202020202020202033353A465238
:106130004C3430475F384B5F3843485F4856412006
:106140002020202020203D3D0D0A00003D3D202044
:1061500033363A436F7079204F75747075743120FF
:1061600045444944284E4F20535555504F525420D2
:10617000434D442053455454494E47292020202064
:106180002020202020203D3D0D0A00003D3D202004
:1061900033373A436F7079204F75747075743120BE
:1061A0004544494420352E314348284E4F2053550D
:1061B00055504F525420434D442053455454494E5A
:1061C0004729202020203D3D0D0A00003D3D202094
:1061D00033383A436F7079204F757470757431207D
:1061E0004544494420372E314348284E4F205355CB
:1061F00055504F525420434D442053455454494E1A
:106200004729202020203D3D0D0A00003D3D20452E
:106210005A4720494E7820454449442020202020D8
:10622000202020203A2047657420496E7075742024
:1062300078204544494420496E6465787B783D5B0D
:10624000315D7D2020203D3D0D0A0000704700009B
:1062500070B506460024002540212D48FDF7ADFF0E
:1062600000202C49088000BF48E02A480088C0B9B7
:106270002948005D20283FD02748005D0D283BD0ED
:106280002548005D0A2837D022480088401C214953
:1062900008802148025D2846691C8DB21C490A54B9
:1062A0002AE01D48005D202826D01B48005D0D28EF
:1062B00003D01948005D0A280FD101201749087042
:1062C00014480088401C134908801348025D284682
:1062D000691C8DB20E490A540EE01048007858B976
:1062E0000C480088401C0B4908800B48025D28467A
:1062F000691C8DB206490A54601C84B2B442B4DBF6
:106300000648007810B906A011F0FEFC70BD000030
:10631000441E0020A0010020841E0020A2010020B5
:10632000434D44204552520D0A00000030B503464B
:106330000C46002100BF0AE0585C655CA84204D00E
:10634000585C655C401BC0B230BD481C81B29142B4
:10635000F2DB0020F8E7000001460022122903DCEE
:10636000144830F8310008B900207047042902DAD7
:106370001148026801E0114802680E4800EBC100B4
:106380004068904205D80B4800EBC1004068121AE3
:1063900006E0084800EBC1004068C0F1FF3002444D
:1063A000044830F83100904201D80220DDE7012096
:1063B000DBE70000741D0020380100203C010020B4
:1063C000122800DA01B97047094A22F8301004286F
:1063D00006DA084A1268064B03EBC0035A6005E070
:1063E000054A1268024B03EBC0035A6000BFEAE79C
:1063F000741D0020380100203C010020122800DB21
:1064000070470021034A22F8301002EBC0025160AD
:1064100000BFF5E7741D00200148007A70470000B6
:106420002C1B002001490872704700002C1B002023
:1064300070B5002500260A20FFF78EFF02280AD13A
:1064400008215E4812F0BCFB10215C4812F0B8FB3A
:106450000A20FFF7D3FF5A48007878B90D20FFF7DC
:106460007BFF02280AD10D20FFF7C8FF0120544905
:1064700008705448C178012000F0B0F95248C07942
:106480005049C97988420FD001264E48C1794FA0A2
:1064900011F0B4F8002405E00120A0402843C5B263
:1064A000601CC4B2022CF7DB00241CE04648001D2F
:1064B000015D4448001D005D81420AD0012641482B
:1064C000001D015D48A011F099F80120A04028436B
:1064D000C5B20120A040284018B1611C00200DF079
:1064E0006FFF601CC4B2022CE0DB0EB10AF0BEF9F3
:1064F000002424E000200DF08BFE01464248005DA0
:1065000081421AD000200DF083FEC1B23E480155F1
:10651000015D3EA011F072F83B48401F407920B168
:106520008021264812F04CFB03E08021234812F022
:1065300045FB611CC8B210F04FFB601CC4B2012CBB
:10654000D8DB002436E0601C0DF01EFF2E49491CEC
:10655000095D88422CD0601C0DF016FFC1B22A489C
:10656000401C0155025D611C2FA011F047F8601C12
:1065700001280DD12448401C005D20B104210F48A2
:1065800012F01EFB14E004210C4812F017FB0FE080
:10659000601C02280CD11C48401C005D20B1022167
:1065A000064812F00DFB03E00221044812F006FB3E
:1065B000601CC4B2022CC6DB70BD000000080140A4
:1065C0009C0000202C1B0020351B002044656275B8
:1065D000674D6F646531206368616E676520746F15
:1065E0002025640D0A0000004F75747075744864AE
:1065F00063704D6F6465206368616E676520746FBA
:106600002025640D0A000000431B0020527820530F
:1066100069676E616C206368616E676520746F20C6
:106620002564210D0A0000004F75747075745B2598
:10663000645D20485044206368616E676520746F14
:10664000202564210D0A000070472DE9F041044621
:106650000F46002500268920207000BF00BF04E0FF
:10666000605D3044C6B2681C85B2781EA842F7DC73
:10667000F043401CC6B266553946204600F0EEF99C
:10668000BDE8F0810148C079704700002C1B002054
:106690000149C871704700002C1B0020034949784C
:1066A000814201D001494870704700002C1B002036
:1066B00003498978814201D0014988707047000000
:1066C0002C1B00200748C078252807D00548C07833
:1066D000262803D00348C078272801D1012070471D
:1066E0000020FCE72C1B00202DE9F04104460F465A
:1066F000002500262078892806D0217811A010F0E6
:106700007DFF0020BDE8F0810026002504E0605DEB
:106710003044C6B2681C85B2781EA842F7DCF0434C
:10672000401CC6B2605DB04206D0625D31460DA02D
:1067300010F064FF0020E5E715A010F05FFF0120D6
:10674000E0E7000041707020446174612048656199
:10675000646572204572726F72205B252E32585D1F
:106760000D0A000041707020446174612043686527
:10677000636B53756D204572726F72205B252E32EC
:10678000585D213D5B252E32585D0D0A000000004A
:10679000417070204461746120436865636B537578
:1067A0006D205269676874210D0A000070B50446B7
:1067B0000025FFF767FF00B10EE0204600F090F8DB
:1067C00010B1022807D104E000200DF0FBFCC5B297
:1067D00001E0002500BF00BF284670BD2DE9F04153
:1067E00005460C46304E0027681E30490C54304890
:1067F000007808B9BDE8F081252C03D0262C01D003
:10680000272C27D12B480AF091FBC0B1272C06D1A9
:10681000002332462849274810F07CFF16E0262C3A
:1068200006D1002332462549224810F073FF0DE0BF
:106830004FF400721F493046FDF7A6FC06E02048E1
:106840004FF48072C16E3046FDF79EFC30460AF070
:10685000B4F911E0232C08DC194850F824104FF447
:1068600080723046FDF790FC06E015484FF48072C8
:10687000C16E3046FDF788FC681E0C4A115C11A001
:1068800010F0BCFE1548007810B130460AF012FA3C
:10689000232C02DC304609F0F7FF314600200DF0D2
:1068A00027FD00BFA6E700005E1B00202F1B002075
:1068B0009C000020C82C00208AD801088AD6010834
:1068C000A40000204170705374617475732E456488
:1068D000696453656C3D25640D0A00003E0000208C
:1068E00010B50446204610F065F928B9214604A0E9
:1068F00010F084FEFF2010BD601E0849085CFAE716
:106900004F757075745B25645D2072616E676520DC
:106910006572726F72210D0A00000000301B0020AA
:1069200010B5002248B9012204E0531E054CE15481
:10693000531CDAB2022AF8DD02E0431E014CE15496
:1069400010BD0000301B002010B510210748FDF7D6
:1069500034FC10210648FDF730FCFF200449C872C2
:10696000C87301200149887310BD00003E1B002040
:106970004E1B00202DE9F04105460E46002400275D
:1069800055B9012405E031462046FFF727FF601C7A
:10699000C4B2012CF7DD03E031462846FFF71EFFA5
:1069A000BDE8F08170B505464FF4007229461B48DA
:1069B000FDF723FC002830D04FF400722946174819
:1069C000FDF7E2FB0E22032128460AF0A9F8C6B221
:1069D00056B1301D2C5C701D285C40EA0424214611
:1069E0000FA010F00BFE00E00024FFF76BFE40B19B
:1069F0000CB1104804601048C1780120FFF7EEFE8A
:106A00000BE00C480068A04207D034B1094804608C
:106A10000948C1780120FFF7E1FE70BDC82C0020B5
:106A20004345432061646472203078253034780D0A
:106A30000A000000400100202C1B002070B5044615
:106A40000D4612F03BF82A462146034810F010F894
:106A500011F0D4FF70BD000000F8010870B50446C5
:106A60000D4612F02BF805480FF0E8FF2A462146A4
:106A7000024810F010F811F0C1FF70BD00F80108D5
:106A800010B500240F480021016041600172002010
:106A90000C4908700120C871002008714870887086
:106AA0002520C87001208871087207480A680260B2
:106AB0004A684260097A01720B21401EFFF7C5FD4A
:106AC00010BD00002C1B0020681D002010B5002404
:106AD0000B211448FFF7B2FF0B211248FFF704FE09
:106AE00030B90B210F48FFF7AFFDFFF7C9FF0FE0EB
:106AF0000DA010F083FD0B210A48FFF7A5FD1248F9
:106B00000849491C0A6802604A684260097A0172B1
:106B10000E480D490A6802604A684260097A0172AB
:106B200010BD0000671D0020417070204461746139
:106B30002056616C756520697320696E6974204FF9
:106B40004B210D0A000000002C1B0020351B0020EB
:106B500010B50F480F490A6802604A684260097A16
:106B600001720D4800210160416001818172401C69
:106B700008490A6802604A684260097A01720B217A
:106B8000401EFFF762FD0B210348FFF75DFD10BDBE
:106B9000351B00202C1B0020671D002010B504466B
:106BA000204610F010F828B9214604A010F026FD68
:106BB000FF2010BD08488079FBE700004F75707515
:106BC000745B25645D2072616E6765206572726F0B
:106BD00072210D0A000000002C1B0020002240B989
:106BE000012203E0044B9971531CDAB2022AF9DD49
:106BF00001E0014B997170472C1B002010B5FFF785
:106C00003FFF002005490870FF200549087005482E
:106C1000C1780120FFF7E2FD10BD00009F000020B9
:106C2000A00000202C1B00200149087070470000C4
:106C30002C1B002010B5002450480078C0F3C1047C
:106C40004F480078A0422BD04D480470007800F0E7
:106C5000010018B101204B49087002E000204949A9
:106C600008704748007800F0020018B1012045493B
:106C7000487002E00020434948704148007818B944
:106C800000204149087002E001203F4908703F4858
:106C9000C1780120FFF7A2FD21463DA010F0AEFC17
:106CA0003648007800F0070440480078A04264D0DD
:106CB0003E480470354880783C490978884203D1C1
:106CC0003248407800284CD10020FFF7E7FC3748D5
:106CD0000078FFF7EDFC3548007820B92521012028
:106CE000FFF77CFD45E031480078012803D12621DB
:106CF000FFF774FD3DE02D480078022804D12721DC
:106D00000120FFF76BFD34E028480078032804D108
:106D100022210120FFF762FD2BE02448007804289F
:106D200004D123210120FFF759FD22E01F480078FC
:106D3000052804D11E210120FFF750FD19E01B4852
:106D40000078062804D11F210120FFF747FD10E03D
:106D50001648007807280CD120210120FFF73EFDBE
:106D600007E00A48407820B10848C1780120FFF7C1
:106D700035FD21460EA010F041FC10BD370000206B
:106D800039000020B00300203E0000202C1B002012
:106D90004469705363616C657253656C20737769E5
:106DA00074636820746F2025640D0A003800002089
:106DB0004469704564696453656C207377697463D2
:106DC0006820746F2025640D0A00000070B5044629
:106DD000DDE90456217062706360A560E660002002
:106DE00070BD00002DE9F04107460C4615461E46D1
:106DF0000B48006808B90A4804602760E5802671DE
:106E0000204600F0E0F80748006810B10548006827
:106E100004670448046000202067BDE8F08100009A
:106E20007C030020800300202DE9F04104460D463C
:106E3000164600270EB1022E32D120790F282DD20E
:106E4000DFE800F00809100A112C0B120C0D0E0FD0
:106E50002C2C130000BF00BF00BF00BF00BF00BF4D
:106E600000BF00BF00BF00BF00BF284609F094FD6F
:106E7000E06D20B1E06DA84201D0E16DA965E56546
:106E80006C652879062808D10021E86B418500232C
:106E90001A460421204602F03DF900E000BF00BF81
:106EA000012E01D0022E2BD12079052810D005DC2F
:106EB00058B101280AD0032820D10CE0062806D0BA
:106EC000082807D00F2819D103E000BF00BF00BF7A
:106ED00000BF00BF00BF284609F034FDA06E20B1FE
:106EE000A06EA84201D0A16E6966A5662C662879BD
:106EF000062802D10021286C018100E000BF00BFFC
:106F00000EB1022E29D12079102825D2DFE800F019
:106F10000809120C13200A100B0D0E0F2424112146
:106F200000BF00BF00BF00BF00BF00BF00BF00BF69
:106F300000BF00BF00BFE06C38B1E76C00E0FF6C41
:106F4000F86C0028FBD1EF6401E0E16CE96403E038
:106F500000BF0021E16400BF00BF32462946204641
:106F600003F058F90020BDE8F08110B5002403F0CB
:106F7000EDFB0446204610BD10B50446204603F044
:106F800003FC002010BD10B504462079072816D256
:106F9000DFE800F0040515150C10110000BF2046B5
:106FA00001F0A2FB204601F0ACFB09E0204601F015
:106FB000A8FB05E004E0204601F09AFB00E000BFDA
:106FC00000BF002010BD10B50446FF2084F86C00FF
:106FD000FF216D2001556E2001556F2001550020C5
:106FE000A0600021E16021616161A161E161216234
:106FF0006162A162E16221636163A163E163216473
:107000006164A164E16421656165A165E165216652
:107010006166A16604F10801022002F08DFB20796F
:1070200006283DD005DC58B101280AD0052872D1C8
:1070300030E009285DD00A2861D00F286BD164E0C8
:1070400000BF04F10C01012002F076FB04F11001F5
:10705000012002F071FB04F11C01012002F06CFB25
:1070600004F12001012002F067FB04F12C0134201F
:1070700002F062FB04F13401082002F05DFB04F130
:107080003C01322002F058FB04F140011C2002F0C8
:1070900053FB40E004F140011C2002F04DFB3AE0BC
:1070A00004F11401012002F047FB04F11801012052
:1070B00002F042FB04F12401012002F03DFB04F147
:1070C0002801012002F038FB04F13001442002F0D5
:1070D00033FB04F138010B2002F02EFB04F13C01DC
:1070E000322002F029FB04F140011C2002F024FBB5
:1070F00011E004F144012C2002F01EFB0BE004F12E
:107100004801242002F018FB05E004F140011C2096
:1071100002F012FB00BF00BF002010BD10B50548F3
:10712000046803E02046FFF72EFF246F002CF9D1FE
:10713000002010BD7C03002070B52D48046852E08B
:107140000FF062FF2079102848D2DFE800F008092C
:10715000474725292A47473F43474747373B00BF13
:10716000E069057820460DF0D9FA204601F0D2FA00
:10717000294620460FF052FD206A057820460DF082
:107180005AFB204601F0AAFD294620460FF0E2FEF8
:1071900020460EF05CFD21E020460DF0BDFA1DE01A
:1071A0001CE0606A057820460DF0EEFA204601F0FA
:1071B000DBFB294620460FF0E9FD0FE020460DF0ED
:1071C000ACFA0BE020460DF0A1FA07E020460DF0E6
:1071D00003FC03E020460DF04DFB00BF00BF206F15
:1071E00000B902E0246F002CAAD100BF002070BDBE
:1071F0007C03002030B503460C460021002000250A
:107200009D5400BF04E05D5C0544E8B24D1CA9B28A
:10721000A142F8DB4542E8B2985430BD2DE9F04F69
:1072200005460F460024A046A1460026A246A346D6
:1072300000BF2BE008EBC800482101EB4000385CA0
:1072400000BB08EBC80001EB4000401C385CC8B92B
:1072500008EBC80001EB4000801C385C90B908EBDB
:10726000C80001EB4000C01C385CFD280AD108EBC7
:10727000C80001EB40000930385C00EB80004000A2
:10728000A5F87E0008F1010000F0FF08B8F1030F37
:10729000D0DB00220221384600F07AFE0446260A9E
:1072A00004F0FF0A4FF000081AE0701C4044385CFC
:1072B00000F07F0B4FF000090BE06C4810F809005C
:1072C000584502D1012005F8090009F1010000F03C
:1072D000FF09B9F1330FF0DB08F1010000F0FF08FE
:1072E000D045E2DB00220121384600F051FE044681
:1072F000260A04F0FF0A2EB1334652463946284684
:1073000000F0B6F800220321384600F041FE0446A2
:10731000260A04F0FF0A26B132463946284600F014
:1073200084FA01220321384600F032FE0446260A80
:1073300004F0FF0A26B122463946284600F076FBC3
:1073400097F8830000F0100028B1A220405D401C97
:10735000C1B2A220415597F8830000F0200028B167
:10736000A320405D401CC1B2A3204155002207214B
:10737000384600F00DFE0446260A04F0FF0A26B146
:1073800032463946284600F0F2F9062207213846EF
:1073900000F0FEFD0446260A04F0FF0A26B132463C
:1073A0003946284600F0B6F90E220721384600F08B
:1073B000EFFD0446260A04F0FF0A26B1324639469C
:1073C000284600F061FD05220721384600F0E0FD67
:1073D0000446260A04F0FF0A26B1324639462846FA
:1073E00000F034F90F220721384600F0D1FD0446A1
:1073F000260A04F0FF0A26B132463946284600F034
:10740000B3FC01220721384600F0C2FD0446260ADB
:1074100004F0FF0A26B132463946284600F088FCBF
:1074200002220321384600F0B3FD0446260A04F088
:10743000FF0A26B132463946284600F0D3F9B5F89E
:107440007E00B5F88010884204DDB5F87E00A5F80E
:10745000800009E0B5F87E00B5F88010884203DAB4
:10746000B5F88000A5F87E00BDE8F08FD6EA0108E7
:107470002DE9F04F88B004460D4616460021002045
:107480000027804681460022824684468346CDF806
:1074900010B0CDF814B0CDF818B0CDF81CB0CDF8C0
:1074A00000B0CDF804B0CDF808B0CDF80CB04FF076
:1074B000030B96FBFBFB0BF0FF0703F1010BB3443F
:1074C00015F80BB00BF0E00BBBF1200F0CD103F162
:1074D000010BB34415F80BB00BF01F0B4FF0030E6C
:1074E0009BFBFEFB0BF0FF0807EB080B0BF0FF0903
:1074F00000217CE0B94205DA01EB410B9B440BF023
:10750000FF020AE003EB060BA1EB070E0EEB4E0E9B
:10751000F3440BF1010B0BF0FF0202F1010B15F824
:107520000BB00BF0780A02F1010B15F80BB00BF061
:10753000070C002055E0DFF810B11BF800B0D34570
:107540004BD10DF1100B1BF800B0BBF1000F07D1B0
:107550004FF0010B0DF1100E0EF800B00DF800C049
:1075600004F1410B1BF800B002F1020E15F80EE019
:107570000BEA0E0B04F1410E0EF800B01DF800B03E
:10758000E34501DA0DF800C050B994F85DB002F19E
:10759000030E15F80EE00BEA0E0B84F85DB01CE04C
:1075A000072812DA02F1030B15F80BB004F15D0E97
:1075B0001EF800E0F34510DA02F1030B15F80BB0EA
:1075C00004F15D0E0EF800B007E002F1030B15F8B0
:1075D0000BB004F15D0E0EF800B000F1010B0BF0E2
:1075E000FF000E28A7DB01F1010B0BF0FF0149455D
:1075F00080DB002122E00DF1100B1BF801B0BBF184
:10760000000F17D004F1330B1BF801B00BF1010B85
:1076100004F1330E0EF801B01DF801B004F14F0E65
:107620001EF801E0F34505DA1DF801B004F14F0E34
:107630000EF801B001F1010B0BF0FF010E29DADBAE
:1076400008B0BDE8F08F0000C8EA010810B5931C2F
:10765000CB5C03F0010323B190F8C6305B1C80F8CB
:10766000C630931CCB5C03F002032BB1C7231B5C19
:107670005B1CDCB2C7231C54931CCB5C03F00403DB
:107680002BB1C8231B5C5B1CDCB2C8231C54931CAD
:10769000CB5C03F008032BB1C9231B5C5B1CDCB281
:1076A000C9231C54931CCB5C03F010032BB1CA23D9
:1076B0001B5C5B1CDCB2CA231C54931CCB5C03F028
:1076C00020032BB1CB231B5C5B1CDCB2CB231C54F3
:1076D000931CCB5C03F040032BB1CC231B5C5B1CE5
:1076E000DCB2CC231C54931CCB5C03F080032BB185
:1076F000CD231B5C5B1CDCB2CD231C54D31CCB5CA8
:1077000003F080032BB1CE231B5C5B1CDCB2CE23C9
:107710001C5410BD10B5931CCB5C03F0010323B1C6
:1077200090F8C2305B1C80F8C230931CCB5C03F035
:1077300002032BB1C3231B5C5B1CDCB2C3231C54B0
:10774000931CCB5C03F004032BB1C4231B5C5B1CB8
:10775000DCB2C4231C54931CCB5C03F008032BB194
:10776000C5231B5C5B1CDCB2C5231C5410BD10B5CB
:10777000931CCB5C03F0800323B190F89E305B1C1C
:1077800080F89E30931CCB5C03F040032BB19F2309
:107790001B5C5B1CDCB29F231C54931CCB5C03F072
:1077A0000C030C2B05D1A0231B5C5B1CDCB2A023BB
:1077B0001C54931CCB5C03F00303032B05D1A123C2
:1077C0001B5C5B1CDCB2A1231C54931CCB5C03F040
:1077D0003003302B05D1A4231B5C5B1CDCB2A4233B
:1077E0001C5410BD10B5131DCB5C012B03D1082315
:1077F00080F8D0300AE0131DCB5C022B03D10A23A2
:1078000080F8D03002E0002380F8D030531DCB5CEC
:1078100003F00104D1231C54931DCC5CD2231C54CF
:10782000D31DCC5CD3231C5410BDF0B50024002321
:107830000025161D8E5D16B9561D8E5D2EB17A2659
:10784000365C761CF7B27A2637548E5C06F01F063B
:10785000062E07DCB0F87E601EB1B0F87E60A0F89E
:107860007C60F0BD961D8E5D06F080062EB17326FD
:10787000365C761CF7B273263754961D8E5D06F083
:1078800040062EB17426365C761CF7B27426375447
:10789000961D8E5D06F020062EB17526365C761C90
:1078A000F7B275263754961D8E5D06F010062EB180
:1078B0007626365C761CF7B276263754961D8E5D9A
:1078C00006F008062EB17726365C761CF7B27726CE
:1078D0003754961D8E5D06F001062EB17826365C73
:1078E000761CF7B27826375402F108068E5D06F052
:1078F000080626B190F86B60761C80F86B6002F188
:1079000008068E5D06F004062EB16C26365C761CE9
:10791000F7B26C26375402F108068E5D06F00206B7
:107920002EB16D26365C761CF7B26D26375402F107
:1079300008068E5D06F001062EB16E26365C761CBA
:10794000F7B26E26375402F108068E5D06F0200667
:10795000002E55D00A2302F108068E5D06F080063F
:107960000EB19E1CF3B202F108068E5D06F04006D1
:107970000EB19E1CF3B2D6188E5D7509002431E05D
:10798000D618761C26448E5D012E05D16F26365CF6
:10799000761CF7B26F263754D618761C26448E5DB7
:1079A000022E05D17026365C761CF7B2702637544D
:1079B000D618761C26448E5D032E05D17126365CC2
:1079C000761CF7B271263754D618761C26448E5D85
:1079D000042E05D17226365C761CF7B27226375417
:1079E000661CF4B2AC42CBDBD618761E8E5D06F078
:1079F00080062EB17926365C761CF7B2792637548C
:107A0000D61D8E5D06EB8606B0F87C70BE4202DBAA
:107A1000B0F87C6046B9D61D8E5D2EB1D61D8E5D48
:107A200006EB8606A0F87C6000BF1AE7F0B51546A5
:107A300000232A0AECB2D61D8E5D06F0040626B19C
:107A400090F88860761C80F88860D61D8E5D06F000
:107A500002062EB18926365C761CF7B28926375489
:107A6000D61D8E5D06F001062EB18A26365C761C88
:107A7000F7B28A263754961D8E5D06F080062EB129
:107A80008B26365C761CF7B28B263754961D8E5D9E
:107A900006F001062EB18C26365C761CF7B28C26D9
:107AA0003754961D8E5D06F002062EB18D26365C8B
:107AB000761CF7B28D263754961D8E5D06F00406AF
:107AC0002EB18E26365C761CF7B28E263754961D64
:107AD0008E5D06F008062EB18F26365C761CF7B256
:107AE0008F263754961D8E5D06F040062EB19026E7
:107AF000365C761CF7B290263754961D8E5D06F0E4
:107B000010062EB19C26365C761CF7B29C263754A4
:107B1000561D8E5D06EB8603B0F880609E4202DC47
:107B2000B0F880601EB9A0F88030A0F87E30D61D75
:107B30008E5D331190F87B609E4202DC90F87B6092
:107B40000EB980F87B30072C47DD02F108068E5D08
:107B500006F020062EB19126365C761CF7B29126EF
:107B6000375402F108068E5D06F010062EB19226FB
:107B7000365C761CF7B29226375402F108068E5D09
:107B800006F008062EB19326365C761CF7B29326D3
:107B9000375402F108068E5D06F004062EB19426D5
:107BA000365C761CF7B29426375402F108068E5DD7
:107BB00006F002062EB19526365C761CF7B29526A5
:107BC000375402F108068E5D06F001062EB19626A6
:107BD000365C761CF7B296263754082C20DD02F16D
:107BE0000A068F5D761E8E5D06F0C00607EB8603E3
:107BF000B0F882609E4202DCB0F882600EB9A0F854
:107C0000823002F109068E5D06F03F0390F8846031
:107C10009E4202DB90F884603EB980F8843004E034
:107C20000026A0F8826080F884600A2C47DD02F10B
:107C30000B068E5D06F080062EB19726365C761C0C
:107C4000F7B29726375402F10B068E5D06F0400618
:107C50002EB19826365C761CF7B29826375402F17E
:107C60000B068E5D06F004062EB19926365C761C56
:107C7000F7B29926375402F10B068E5D06F0020624
:107C80002EB19A26365C761CF7B29A26375402F14A
:107C90000B068E5D06F001062EB19B26365C761C27
:107CA000F7B29B26375402F10B068E5D06F00806EC
:107CB0002EB19D26365C761CF7B29D2637540B2CD0
:107CC0001BDD02F10C068E5D330990F885609E4243
:107CD00002DC90F885600EB980F8853002F10C0660
:107CE0008E5D06F00F0390F886609E4202DC90F8ED
:107CF00086603EB980F8863004E0002680F8856012
:107D000080F886600C2C0EDD02F10D068E5D06F00B
:107D10003F0390F887609E4202DC90F887602EB99E
:107D200080F8873002E0002680F88760F0BD000010
:107D300010B5931CCB5C0B4C2478A34210D1D31C00
:107D4000CB5C084C6478A3420AD1131DCB5C054C74
:107D5000A478A34204D190F8CF305B1C80F8CF30D8
:107D600010BD00008CEA01082DE9F84F05460E46CB
:107D700091460020009082460024002780468346DA
:107D800000220221304600F003F9009000984FEAEB
:107D90001028009800F0FF0B16F8090000F01F00F3
:107DA000401E00F0FF0ABBEBCA0F03DD4FEACA60BA
:107DB0004FEA106BBBF1000F62D000245EE0E217C7
:107DC00004EB5272D31009F102021A44B25CE317B9
:107DD00004EB5373DB10A4EBC30C012303FA0CF385
:107DE0001A40002A48D008EB0400401C305C602890
:107DF00005D195F8A500401C85F8A5003CE008EBEE
:107E00000400401C305C612806D1A620405D401C67
:107E1000C1B2A62041552FE008EB0400401C305CA5
:107E2000652806D1A720405D401CC1B2A72041555E
:107E300022E008EB0400401C305C662806D1A82034
:107E4000405D401CC1B2A820415515E0002711E05B
:107E500008EB0400401C305C0A49C95D884207D128
:107E600005F1A900C05D401CC1B205F1A900C155D2
:107E7000781CC7B2192FEBDB601CC4B25C459EDBDB
:107E8000BDE8F88FD6EA0108F0B5002500230024EC
:107E90008E5C06F01F06761EF5B200BF45E0D618D0
:107EA000B61C8E5D602E05D190F8A560761C80F81A
:107EB000A56038E0D618B61C8E5D612E06D1A626C8
:107EC000365C761CF7B2A62637542CE0D618B61CC2
:107ED0008E5D652E06D1A726365C761CF7B2A726E6
:107EE000375420E0D618B61C8E5D662E06D1A82623
:107EF000365C761CF7B2A826375414E0002410E054
:107F0000D618B61C8E5D0A4F3F5DBE4207D100F108
:107F1000A906365D761CF7B200F1A9063755661C36
:107F2000F4B2192CECDB5E1CF3B2AB42B7DBF0BD54
:107F3000D6EA010810B502460020002100BF04E087
:107F4000535C0344D8B24B1CD9B27F29F8DB0346FB
:107F5000C41700EB14642412A0EB0424644282F8DA
:107F60007F400020002106E001F18003D35C034440
:107F7000D8B24B1CD9B27F29F6DB0346C41700EBFD
:107F800014642412A0EB0424644282F8FF4010BD64
:107F9000F0B503460D461446002200270026842132
:107FA0005878FF2803D193F88000022801D00020E0
:107FB000F0BD99E0585C00F01F02585C4609AE42E3
:107FC00076D1032D5FD1E4B9481C185CDFF824C1D9
:107FD0009CF800C0604514D1881C185CDFF814C1FF
:107FE0009CF801C060450CD1C81C185CDFF804C1C6
:107FF0009CF802C0604504D102EB012087B23846EC
:10800000D6E7012C1CD1481C185CDFF8ECC09CF8AA
:1080100000C0604514D1881C185CDFF8DCC09CF8F7
:1080200001C060450CD1C81C185CDFF8CCC09CF8BE
:1080300002C0604504D102EB012087B23846B7E7A1
:10804000022C1CD1481C185CDFF8B0C09CF800C0A2
:10805000604514D1881C185CDFF8A0C09CF801C0F2
:1080600060450CD1C81C185CDFF890C09CF802C0B9
:10807000604504D102EB012087B2384698E78818A2
:10808000401C81B230E0072D0DD1481C185CA04285
:1080900004D102EB012087B2384689E78818401CDA
:1080A00081B221E004E002EB012087B238467FE78D
:1080B00012B9481C81B217E0072E12D1032D10D13E
:1080C000012C0ED1481C185C79280AD1881C185C38
:1080D00038B9C81C185C20B902EB012087B23846B9
:1080E00066E78818401C81B2FD297FF763AF00273F
:1080F00038465DE771EA010874EA010877EA010889
:108100000146002000BF03E000220A54421CD0B206
:108110003328F9DB002005E0002301F1330213547A
:10812000421CD0B20E28F7DB002005E0002301F14D
:1081300041021354421CD0B20E28F7DB002005E0A8
:10814000002301F14F021354421CD0B20E28F7DB7A
:10815000002005E0002301F15D021354421CD0B25F
:108160000E28F7DB002005E0002301F16B02135419
:10817000421CD0B21028F7DB00227C3101F8012C20
:108180000A804A808A80CA800A724A728A72CA72D7
:108190007C39002005E0002301F188021354421CC1
:1081A000D0B21628F7DB002005E0002301F19E0283
:1081B0001354421CD0B20728F7DB002005E000234F
:1081C00001F1A5021354421CD0B20428F7DB0020B1
:1081D00005E0002301F1A9021354421CD0B2192872
:1081E000F7DB002005E0002301F1C2021354421C1A
:1081F000D0B20428F7DB002005E0002301F1C6021D
:108200001354421CD0B20928F7DB002281F8CF209A
:10821000002005E0002301F1D0021354421CD0B22B
:108220000428F7DB7047000070B5044600251026CF
:10823000FE4920460DF039FEFD48FFF761FFFB497E
:10824000FB48FEF7EBFFE088052802D1F748FEF770
:10825000A9FBF64890F87E00022801D1182605E017
:10826000F24890F87E00032800D12026F048B0F8AC
:108270007C0050B9EE48B0F87E00ED49A1F87C00D2
:108280000846B0F87E00A1F880004FF48061206BB2
:108290008161206B806940F00101206B8161E448BD
:1082A00090F89000012805D1206B806940F0020110
:1082B000206B8161DE4890F88F00012805D1206B8A
:1082C000806940F01001206B8161D94890F88900E5
:1082D000012805D1206B806940F00801206B816185
:1082E000D34890F88A00012805D1206B806940F0BE
:1082F0000401206B8161CE48B0F88000B0F5167F94
:1083000005DB206B806940F02001206B8161C8484B
:10831000B0F88000B0F5E17F05DB206B806940F0AC
:108320004001206B8161C248B0F88000B0F5B97F90
:1083300005DB206B806940F08001206B8161BC48C7
:10834000B0F87C00B0F5967F19DBB94890F86F0063
:1083500001280ED0B64890F87000012809D0B44822
:1083600090F87100012804D0B14890F872000128FB
:1083700005D1206B806940F48071206B8161AC482D
:10838000B0F87C00E12805DB206B806940F40071C7
:10839000206B8161A64890F8C20058B9A44890F8B3
:1083A000C30038B9A24890F8C40018B9A04890F8A2
:1083B000C50028B1206B806940F40061206B8161A9
:1083C0009B4890F8A500012805D1206B806940F4F6
:1083D0000051206B8161964890F8A600012805D1D4
:1083E000206B806940F48041206B8161904890F857
:1083F000A700012805D1206B806940F40041206B63
:1084000081618B4890F8A800012805D1206B806914
:1084100040F48031206B8161854890F8C6000128C6
:1084200005D1206B806940F40031206B8161804868
:1084300090F8C700012805D1206B806940F48021A5
:10844000206B81617A4890F8CB00012804D07848ED
:1084500090F8CC00012805D1206B806940F4801190
:10846000206B8161724890F8CD00012805D1206B06
:10847000806940F40021206B81616D4890F89E0076
:10848000012805D1206B806940F40011206B8161C7
:10849000674890F89F00012805D1206B806940F45F
:1084A0008001206B8161206B806940F00061206B4E
:1084B0008161206B806940F08061206B81615C4844
:1084C00090F8D000082813D1594890F8D10078B11D
:1084D000206BC06940F00101206BC161544890F8E5
:1084E000D31090F8D20041EA0021206B818217E07E
:1084F0004F4890F8D0000A2812D14D4890F8D1008A
:1085000070B1206BC06940F00201206BC161484826
:1085100090F8D31090F8D20041EA0021206B8182BC
:1085200001250DE042483330405D012806D1206B23
:10853000806940F08051206B816103E0681CC5B206
:108540000E2DEFDB00BF0021206BC162384890F890
:108550007B00062805DB206BC06A40F00101206B20
:10856000C162334890F87B0005280FDB06203049B4
:1085700081F87B00206BC06A40F00101206BC16272
:10858000206BC06A40F00201206BC162284890F85D
:108590007B00042805DB206BC06A40F00401206BDF
:1085A000C162234890F87B00032805DB206BC06A7A
:1085B00040F00801206BC1621D4890F87B00022842
:1085C00005DB206BC06A40F01001206BC1621848C7
:1085D00090F87B00012805DB206BC06A40F0200189
:1085E000206BC1621248B0F88200114991F88410E2
:1085F000884205D0206BC06A40F08001206BC162C8
:108600000B4890F89400012805D1206BC06A40F413
:108610008071206BC162064890F8970001280AD14A
:10862000206BC06A40F04001206B03E0C8240020AA
:10863000F4230020C1621C4890F87B00062804DB6C
:108640000621206B80F830102BE0174890F87B0053
:10865000052804DB0521206B80F8301021E012484A
:1086600090F87B00042804DB0421206B80F8301094
:1086700017E00D4890F87B00032804DB0321206BF2
:1086800080F830100DE0084890F87B00022804DBE9
:108690000221206B80F8301003E00021206B80F86D
:1086A0003010002070BD0000F423002038B50446CF
:1086B0000025216849780B4A02EB412069460CF0FD
:1086C0001DFB054620684078064A02EB40216B46B8
:1086D0002A4620460DF020FA0521E06A817100202B
:1086E00038BD0000C82A00200122C1690A70704705
:1086F00010B504460121606A017020460CF031FD7E
:1087000010BD10B504460121206A017020460CF00E
:10871000CDFE10BD2DE9F0410546EC6A002600278C
:1087200000BF00BFE8690078092875D2DFE800F0D3
:10873000C5051237467F9CACBC000821E869017072
:1087400028460CF0C7FC28460CF0BEFC28460CF06E
:10875000A0FCF6E0E07908B901271FE0207860B1BD
:108760000821E869017028460CF0B4FC28460CF09A
:10877000ABFC28460CF08DFC10E0A079052801D058
:1087800001270BE0207A012805D1607C18B1052172
:10879000E869017002E028460CF016FCD1E0607C2C
:1087A00030B90221E869017028460CF00DFC04E0A4
:1087B0000921E86901700120E070C2E0207878B1F9
:1087C00028460CF0AAFE0821E869017028460CF042
:1087D00081FC28460CF078FC28460CF05AFC25E079
:1087E000607C30B90221E869017028460CF0ECFB8E
:1087F0001CE0207918B90521E869017016E0A0791C
:10880000052802D1207A012807D00621E8690170E5
:1088100028460CF03EFC09E04FE0A079052805D180
:108820000721E869017028460DF09BFA89E0607C19
:1088300030B90221E869017028460CF0C5FB12E04E
:10884000A079052802D1207A012806D00621E869FE
:10885000017028460CF01DFC05E02079012802D1AA
:108860000421E86901706CE0E07948B1A07905283D
:1088700006D10221E869017028460CF0A5FB02E050
:1088800028460CF048FC5CE0607C30B90221E869C5
:10889000017028460CF098FB05E00321E86901709F
:1088A00028460CF00CFE4CE0207828B90621E86937
:1088B000017028460CF0EDFB43E0207888B1284693
:1088C0000CF02BFE0020E0700821E86901702846BA
:1088D0000CF000FC28460CF0F7FB28460CF0D9FB06
:1088E0002EE0A079052801D1E07970B928460CF076
:1088F00014FE28460CF0E8FB0020E0700621E86931
:10890000017028460CF0C5FB1AE0207A28B1207AC5
:10891000022802D0207A052804D128460CF0FDFD5B
:1089200001260DE0607C08B9012609E0207D38B9F8
:10893000607C012804D10020E0700421E869017006
:1089400000BF00BF2FB10621E869017028460CF076
:10895000A0FB3EB10020E0700221E86901702846CA
:108960000CF032FBBDE8F0812DE9F84F05462C6B89
:10897000AE6B0027B846B946BA46BB460020009009
:1089800000BF00BF00BF00BF00BF0090686A007852
:108990000C2870D2DFE800F06F061317405174788E
:1089A000A9C7D3F00921686A017028460CF000FCC1
:1089B00028460CF0DCFB28460DF0E3FA4DE10521DA
:1089C000686A017049E194F8200001280CD009215F
:1089D000686A017028460CF0EBFB28460CF0C7FBD8
:1089E00028460DF0CEFA16E0286B407B022810D105
:1089F000A07B30B90421686A017028460DF03BFA6B
:108A000009E0A07B012801D1012704E04FF0010B10
:108A100001E04FF0010B20E194F8200001280BD079
:108A20000921686A017028460CF0C2FB28460CF048
:108A30009EFB28460DF0A5FA0FE194F820000128CE
:108A40000FD028460DF0AFFA0921686A0170284658
:108A50000CF0AEFB28460CF08AFB28460DF091FA8C
:108A60000DE0A078012807D1607B052804D10B21F7
:108A7000686A017003E0C5E028460BF0ABFDECE04E
:108A80000321686A0170E8E094F82000012818D0FA
:108A900094F82000022804D1012084F820008046A8
:108AA00022E028460DF07FFA0921686A0170284605
:108AB0000CF07EFB28460CF05AFB28460DF061FABC
:108AC00012E0307908B9B07A30B10A21686A0170D1
:108AD00028460DF0BEF907E0A07810B94FF0010864
:108AE00002E028460DF0D1F9B7E0606A30B1062106
:108AF000686A017028460CF021FB13E094F820000E
:108B000001280CD00921686A017028460CF050FB3E
:108B100028460CF02CFB28460DF033FA02E02846DC
:108B20000CF006FB99E094F82000012803D10821FD
:108B3000686A017002E0002084F820008DE094F85B
:108B40002000012819D094F82000022804D1012027
:108B500084F8200081461EE028460DF024FA092101
:108B6000686A017028460CF023FB28460CF0FFFAD7
:108B700028460DF006FA0EE00EE0A07810B94FF08E
:108B8000010908E028460DF038FA28460DF0EFF804
:108B900028460DF07AF960E094F82000012818D0FA
:108BA00094F82000022804D1012084F82000824695
:108BB00027E028460DF0F7F90921686A0170284678
:108BC0000CF0F6FA28460CF0D2FA28460DF0D9F946
:108BD00017E0A0680A2812D37078012803D1072172
:108BE000686A01700DE0707830B90A21686A017016
:108BF00028460DF02EF904E00120009001E001204C
:108C000000902AE0A07830B128460CF097FA0B21AA
:108C1000686A017020E094F8200001281CD094F8C4
:108C20002000022809D1012084F820000C21686A64
:108C3000017028460DF0C1F90EE028460DF0B3F999
:108C40000921686A017028460CF0B2FA28460CF037
:108C50008EFA28460DF095F900BF00BF009850B17C
:108C6000A07810B94FF0010A05E028460DF0C5F9CB
:108C700028460DF07CF8BBF1000F0BD0607B48B1AB
:108C8000A07B012801D1012704E0A07B10B90521B8
:108C9000686A0170BAF1000F05D00C21686A017092
:108CA00028460DF08AF9B9F1000F05D00C21686A49
:108CB000017028460DF081F9B8F1000F05D00C21A4
:108CC000686A017028460DF078F92FB10221686AB0
:108CD000017028460DF081F9BDE8F88F2DE9F041CB
:108CE0000546EC6A00260027B04600BF00BF00BF63
:108CF000286A0078012806D002280BD003282AD041
:108D0000042864D14BE00521286A017028460CF044
:108D100029FC62E02078012806D10521286A01702B
:108D200028460CF01FFC15E0207908B9607808B9D6
:108D3000A07830B10321286A017028460CF0A0FB0E
:108D400008E02079012805D10421286A017028460D
:108D50000CF086FB41E0607830B928460CF089FBC6
:108D60000221286A017019E02078012809D12846DB
:108D70000CF07FFB0521286A017028460CF0F2FBFD
:108D80000CE0207950B1A07840B928460CF071FB76
:108D90000421286A017028460CF062FB1DE020784F
:108DA00008B1012612E0A07808B101270EE0207971
:108DB00050B9607808B1012708E0A07808B9012609
:108DC00004E04FF0010801E04FF0010805E02078D1
:108DD00010B90221286A017000BF00BFB8F1000F6E
:108DE00005D028460CF0E8FC28460CF017FA2FB105
:108DF0000321286A017028460CF042FB2EB10521A0
:108E0000286A017028460CF0ADFBBDE8F08110B572
:108E100004462079062809D1606A00780A2805D11D
:108E20000C21606A017020460DF0C7F810BD0000EB
:108E30002DE9F04106460F4614461D464FF0000846
:108E400023462A4639463046DFF810C0DCF800C019
:108E5000E04780464046BDE8F081000090030020D6
:108E60002DE9FF4F83B0834691469A46DDF8408056
:108E7000DDE9124600200290306023466A465846DB
:108E8000DFF8B8C00499DCF800C0E0470290119800
:108E9000012827D19DF8000000EA09008DF80000A4
:108EA000601EC4B21DF8040000EA0A000DF80400B8
:108EB000C8EBC400C7B200250AE01DF80510B94090
:108EC000306808433060A7F10800C7B2681CC5B21B
:108ED000A542F2DB1DF8041041FA08F1306808439E
:108EE000306026E09DF8000000EA0A008DF80000DE
:108EF000601EC4B21DF8040000EA09000DF8040069
:108F0000C8EBC400C7B225460AE01DF80510B940F9
:108F1000306808433060A7F10800C7B2681EC5B2C8
:108F2000002DF2DC9DF8001041FA08F1306808438A
:108F30003060029807B0BDE8F08F00009003002079
:108F40002DE9F0470746884615461E46089C4FF017
:108F500000090123224641463846DFF818C0DCF8F4
:108F600000C0E047814620782840304120704846C4
:108F7000BDE8F087900300202DE9F04106460F463A
:108F800014461D464FF0000823462A46394630460F
:108F9000DFF810C0DCF800C0E04780464046BDE87E
:108FA000F0810000940300202DE9FE4F82468B469D
:108FB00090469946DDE90E470C9E0020029023461C
:108FC0006A4659465046DFF8E8C0DCF800C0E04782
:108FD00002900D98012834D19DF8000020EA080085
:108FE000611EC6EBC10227FA02F101EA080108433B
:108FF0008DF8000001250AE0601B401EC6EBC00092
:1090000027FA00F0C0B20DF80500681CC5B2601E5A
:10901000A842F1DC1DF8000020EA090007FA06F179
:1090200001EA09010843611E0DF8010023466A4662
:1090300059465046DFF87CC0DCF800C0E04702909B
:1090400033E09DF8000020EA090007FA06F101EA82
:10905000090108438DF8000001250AE0601B401E4D
:10906000C6EBC00027FA00F0C0B20DF80500681C7E
:10907000C5B2601EA842F1DC1DF8000020EA08001D
:10908000611EC6EBC10227FA02F101EA080108439A
:10909000611E0DF8010023466A4659465046DFF826
:1090A00014C0DCF800C0E04702900298BDE8FE8FD3
:1090B00090030020940300202DE9F84307468846DA
:1090C00014461D46089E4FF000090096FF2C10D054
:1090D00001236A4641463846DFF830C0DCF800C05C
:1090E000E0479DF80000A04306FA05F1214008433F
:1090F000009001236A4641463846DFF814C0DCF888
:1091000000C0E04781464846BDE8F8839003002050
:10911000940300202DE9F84304460D46174698466F
:109120000026152D7BD2DFE805F02021AAAB2223F3
:109130002E397B7F8388AC0B0F8DA1A098161B0066
:109140000121606B01709FE00221A06B8170012101
:10915000A06BC17098E00221E06A80F8261093E0CD
:10916000012108460EF006FD8EE08DE08CE08BE0DC
:10917000A179091FC8B200210EF0FDFC01210846AB
:109180000EF0F8FC80E0A179091FC8B201210EF0B1
:10919000F2FC012108460EF0EDFC75E06946204620
:1091A0000BF06FFE002839D100980079B0BB009811
:1091B000C06A0079012810D1206B807B012802D081
:1091C000206B408A28B10098C06A817E206B0170B4
:1091D00006E00021206B017002E00121206B01708C
:1091E00020460CF0BFFE206B806BB8B9606D00901C
:1091F00000980079092803D10021206B80F83010F5
:109200000098007950B994F96C00401C30B900986E
:10921000C06A90F82410206B80F8301034E030E001
:1092200000200EF075FA2FE001200EF071FA2BE00D
:10923000002101200EF09EFC26E0012108460EF0E0
:1092400099FC21E0E06A8079052805D02046FFF7E7
:109250002DFA0521E06A817116E02046FEF7E4FF51
:10926000694620460BF00DFE0EE00DE04FF0FF3199
:10927000206B81614FF4FF71206BC16204E003E059
:1092800002E06FF0020600BF00BF3046BDE8F88381
:1092900010B503460020034C2360034C2160034CAF
:1092A000226010BD84030020880300208C0300206E
:1092B000F0B5034600261C460D4608E020782F78BE
:1092C000C01B061E00D004E0641C6D1C521E002A48
:1092D000F4D800BFB0B2F0BD03465AB103B109B92A
:1092E0000020704704E0087818705B1C491C521E6F
:1092F000002AF8D10120F4E7034642B10BB900205F
:10930000704702E019705B1C521E002AFAD101203E
:10931000F6E72DE9F04F89B08346002600270020AC
:1093200007900690824605900490039002909BF867
:109330000000072803D0301F09B0BDE8F08FDBF82C
:10934000085005F1740805F1E80905F54B7008901F
:1093500005F52E74E86A0079012801D00020EBE7BA
:1093600098F80400062804D14146284600F054F934
:10937000064699F80400062804D14946284600F01C
:109380004BF90746224641462846089B00F026F93D
:109390000790224649462846089B00F01FF9069090
:1093A000032E01D0032F44D1022E00D10326022F19
:1093B00000D10327012003900290032E0BD14246D7
:1093C0002146284600F04DF88246CAF30720039054
:1093D0000AF0FF000290032F17D14A462146284683
:1093E00000F03FF88246CAF3072005900AF0FF001C
:1093F000049003990598884201DD0598039002992D
:109400000498884201DD04980290606C90F8221064
:109410000398814203D00398616C81F82200606C4C
:1094200090F823100298814203D00298616C81F871
:1094300023000798B04207D036B123460096414634
:109440002846089A00F02CF90698B84207D037B1A0
:109450002346009749462846089A00F021F9002043
:109460006AE72DE9F04F03468A461746042504268D
:109470000020D3F83CB0BBF81420AC024FF4076CCA
:10948000804681460121D7F830B09BF80DB0BBF182
:10949000050F22D1D3F83CB0BBF81CB0BBF13D0F97
:1094A00006DCD3F83CB09BF82FB0BBF1010F04D120
:1094B0004FF400644FF4876C0FE0D3F83CB0BBF876
:1094C0001CB0BBF11F0F04DD4FF400644FF4876C38
:1094D00003E04FF400644FF4876CD3F83CB09BF882
:1094E00001B0BBF1030F03D14FF6FF7B0BEA420241
:1094F000B2F5205F08DBB4F5805F02D104260325B6
:1095000068E00826042565E0B2F5F05F08DBB4F5F5
:10951000805F02D1022602255CE00426042559E082
:10952000B2F5A05F08DBB4F5805F02D10226022508
:1095300050E0042603254DE0A04601214FF000092C
:1095400017E0202900DB19E0042904DB4FEA416B16
:109550004FEA1B6103E001F1010B0BF0FF0104FB7B
:1095600001FB1FFA8BF892FBF1FB01FB1B2B1FFA8F
:109570008BF94245E5DCB9F1000FE2D100BF0E46A0
:10958000E04601214FF0000914E0042900DB1AE055
:1095900001F1010B0BF0FF010CFB01FB1FFA8BF833
:1095A000D3F83CB0BBF816B09BFBF1FE01FB1EBB31
:1095B0001FFA8BF9D3F83CB0BBF816B0C345E4DC16
:1095C000B9F1000FE1D100BF0D46B54201DD3546CE
:1095D00000E02E4606EB0520BDE8F08F30B50446CE
:1095E00000204D6DA54201D1012014E04D6D9D423A
:1095F00006D15D6DA54201D102200CE000200AE0F9
:109600004D6D954206D1556DA54201D1032002E072
:10961000002000E0002030BD30B502460023107964
:1096200008B1002030BD087906280AD1086B407BBC
:10963000052804D1086B90F82000012803D00020F1
:10964000F0E70020EEE70123D06B0089B0F5917FB1
:109650000CDBC888052802D0C888062806D1C8882F
:10966000401F0D4C205C012800D10323C888052829
:1096700002D0C88806280CD1032B05D10124C88844
:10968000401F064D2C5404E00024C888401F034DA1
:109690002C541846C6E70000B0030020B203002097
:1096A0002DE9F04706460F4614461D46DDF820809A
:1096B0004FF00009B8F1010F06D0B8F1020F0ED03B
:1096C000B8F1030F35D11FE0786DB04206D04FF0EE
:1096D0000109002239463046FDF7A6FB29E0606DFE
:1096E000B04206D04FF00109002221463046FDF776
:1096F0009BFB786DA04206D04FF00109002239464D
:109700002046FDF791FB14E0686DB04206D04FF0A3
:109710000109002229463046FDF786FB786DA842F4
:1097200006D04FF00109002239462846FDF77CFBA0
:1097300000BF00BFBDE8F0872DE9F04104460D46AB
:10974000002724F003060E4800682044B0F5946F0B
:109750000DD20C480A49096808442860B44200D078
:10976000341D0748006820440549086005E006A04C
:1097700001F0E6F800BF00BFFEE73846BDE8F08123
:10978000AC030020441F00204552524F523A20673C
:109790006C6F62616C2073746174696320627566BA
:1097A000666572206578686175737465642E000063
:1097B0002DE9FE430646002700200290FF25019078
:1097C0004FF00808346E24B32079B0B9206C90F8BB
:1097D0001680E06AC07C18B1206C807A012801D123
:1097E000FF2516E0206C407B012802D0206C407BD6
:1097F00008B900250DE0EF250BE02079062801D1FE
:10980000EF2506E02079052802D020790C2800D128
:109810000025306C807A012800D1FF25F0880828C7
:109820002DD102A80023FF229D2100904FF4D830B3
:10983000FFF786FB9DF80800854251D00023FF22E8
:109840009D214FF4D8300095FFF736FC002D47D10D
:10985000306C007EF0B32079E0BB0120062340226B
:109860008A2100903E48FFF727FC306C007E0023E1
:109870003F228A2100903A48FFF71EFC30E0F08832
:1098800009282DD102A80023FF229E2100904FF429
:10989000D830FFF755FB9DF80800854220D0002303
:1098A000FF229E214FF4D8300095FFF705FC8DB9BB
:1098B000306C007E70B1207960B90120062340220F
:1098C0008A2100902648FFF7F7FB306C007E0023CA
:1098D0003F2200E004E08A2100902148FFF7ECFBE2
:1098E00005F00100C8BB002709E01E48C05D4045E7
:1098F00003D11C49B81C0D5C06E0F81CC7B219491D
:10990000781C085CFF28F0D100BF207928BB7DB10E
:1099100001AB0222144912482138FFF789FA9DF859
:1099200004009DF80510084300F0220707B1002548
:1099300002A800230722142100900948801EFFF787
:10994000FFFA9DF80800854207D000230722142162
:109950000348801E0095FFF7AFFB0020BDE8FE83A3
:1099600022B0010074E80108090008002DE9FE4357
:109970000446002002900190002680460027656D75
:10998000B5484068A04201D1E06DD0B902A80023DB
:10999000072201210090B148FFF7D2FA9DF8080094
:1099A000022803D09DF80800032807D100200346B1
:1099B000072201210090A948FFF77EFB0020BDE8A7
:1099C000FE83287940B995F96C00401C20B1E86A03
:1099D000C07808B90020F2E702A80023FF22662120
:1099E00000909E481130FFF7ABFAA06C80789DF88C
:1099F0000810884220D0002005232022194600901C
:109A000096481530FFF758FBA06C80780023FF22A2
:109A10006621009091481130FFF74EFB02A8052304
:109A20002022194600908D481530FFF789FA9DF8DD
:109A30000810204607F098FCA06C82790179204636
:109A400007F070FB02A80023072201210090834841
:109A5000FFF776FAA06C4079032805D1A06CC07896
:109A6000032801D003260AE0A06C4079032805D022
:109A7000A06CC078032801D1022600E000269DF8E2
:109A80000800B04214D00023072201217348009639
:109A9000FFF712FB02A805232022194600906F4809
:109AA0001530FFF74DFA9DF80810204607F05CFCD2
:109AB00002A8042370227821009068481130FFF733
:109AC0003FFA01A800230722782100906348113053
:109AD000FFF736FA0026B046A06C4079032806D17D
