:020000040800F2
:104000008025002065410008313D010805180108A0
:104010002D3D01088FF00008814C010800000000D0
:10402000000000000000000000000000A54A010898
:1040300019F2000800000000593E0108A74A0108D3
:104040007F4100087F4100087F4100087F41000850
:104050007F4100087F4100087F4100087F41000840
:104060007F4100087F4100087F4100087F41000830
:104070007F4100087F4100087F4100087F41000820
:104080007F4100087F4100087F4100087F41000810
:104090007F4100087F4100087F4100087F41000800
:1040A0007F4100080D4B01087F4100087F41000857
:1040B0007F4100087F4100087F4100087F410008E0
:1040C0007F4100087F4100087F4100087F410008D0
:1040D0007F410008414B01087F4100087F410008F3
:1040E0007F4100087F410008D14B01087F41000853
:1040F0007F4100087F4100087F4100080000000068
:104100007F410008000000007F4100087F41000857
:104110007F4100087F4100087F4100087F4100087F
:104120007F4100087F4100087F4100087F4100086F
:104130007F41000800000000000000007F410008EF
:104140007F4100087F4100087F410008C14B010802
:10415000DFF80CD000F062FB00480047915D0108D9
:10416000802500200648804706480047FEE7FEE716
:10417000FEE7FEE7FEE7FEE7FEE7FEE7FEE7FEE717
:10418000B54A01085141000840EA01039B0703D0EA
:1041900009E008C9121F08C0042AFAD203E011F886
:1041A000013B00F8013B521EF9D27047D2B201E048
:1041B00000F8012B491EFBD270470022F6E710B52C
:1041C00013460A4604461946FFF7F0FF204610BD85
:1041D000421C10F8011B0029FBD1801A704710B552
:1041E000002200E0521C835C8C5CA34201D1002BB6
:1041F000F8D1D8B2E1B2401A10BD30B50446002063
:10420000034600E05B1C934203D2E05CCD5C401BA4
:10421000F8D030BD0FB400B58DB010A909900B9047
:1042200000914FF0FF300A9000200C900548069056
:10423000054807906A4609A80F9900F009F90DB0E2
:104240005DF814FB6D4400088B4400082DE9FF5F06
:104250001D464FF0FF3BD5E9014691465F464FF0C2
:104260000008A9697F1C01988847296A8246884707
:104270000028F6D1BAF1FF3F0CD024F4C064002E20
:1042800019DD600614D5BAF12B0F09D0BAF12D0F44
:104290000ED103E0584604B0BDE8F09F44F48064BA
:1042A000A9697F1C01988847761E8246002E02DD90
:1042B000BAF1300F03D0B9F1000F26D032E0A9696E
:1042C000761E44F400747F1C019888478246002EB5
:1042D00005DDBAF1780F06D0BAF1580F03D0B9F165
:1042E000000F10D01EE0B9F1000F02D0B9F1100F8D
:1042F00018D1A969761E24F400747F1C01988847A0
:104300008246102002E0082000E00A20814609E0F1
:1043100008FB0908A969761E44F400747F1C019803
:1043200088478246002E05DD4946504600F07BF85E
:104330000028EDDAE96901988847A00502D46FF0FA
:104340000100A8E7E00725D1600613D5600502D576
:10435000C8F1000000E0404629680A1D2A6009688B
:10436000220501D5087015E0220701D5088011E06B
:1043700008600FE02868011D29600068210502D54A
:1043800080F8008006E0210702D5A0F8008001E057
:10439000C0F8008038467EE730B50B460146002065
:1043A0002022012409E021FA02F59D4205D303FAF7
:1043B00002F5491B04FA02F52844151EA2F1010278
:1043C000F1DC30BD2DE9F05F0546002092469B46AA
:1043D00088460646814640241BE02846414647461B
:1043E000224600F03CFA53465A46C01A914110D377
:1043F00011461846224600F023FA2D1A67EB0108F1
:104400004F4622460120002100F01AFA17EB00095E
:104410004E41201EA4F10104DFDC484631462A4605
:104420004346BDE8F09F3A2800D2303820F0200201
:10443000412A01D3A2F13700884201D34FF0FF3067
:1044400070470000026811441378016018467047F5
:10445000D160044951610449116200211161114682
:1044600000F024BA45440008A3480008426842B15D
:10447000016811F8013B23B1521EC0E90012184631
:1044800070470121C160881E704742685AB1C368F5
:10449000016843B983688B4205D0491E521CC0E9AC
:1044A0000012002070474FF0FF3070472DE9FE4F9B
:1044B000804681EA0300C00F0C46009021F00041C5
:1044C00023F00045B8EB0200A94105D24046214641
:1044D00090461C460B46024623F00040104347D04E
:1044E000270DC7F30A00C3F30A510290401A019046
:1044F00040286BDAC3F3130040F4801B0098924607
:1045000020B10023D2EB030A63EB0B0B0198594651
:10451000C0F14002504600F093F906460D46504661
:104520005946019A00F0ABF910EB080061410024F4
:1045300087EA115284EAE7731A4340D0009A62B3C3
:10454000019A012A4FEA075215DC001B61EB0201B8
:104550004FF0004202EA0752CDE90042001C41F54B
:10456000801132462B4600F046FB03B0BDE8F08FC9
:1045700040462146F9E7001B61EB0201001C41F5B2
:10458000801300185B412018A2F5001747EB0301C8
:1045900040EAD570B6196D4111E06D084FEA360654
:1045A00045EAC0754FEA0752001B61EB0201001C8F
:1045B00041F5801149084FEA300000195141324657
:1045C0002B4603B0BDE8F04F00F006BB0098012277
:1045D00040000023D0EB020263EBE0730098214619
:1045E0004FEAE074B8EB000061EB0401E9E783F007
:1045F00000435BE781F0004158E72DE9FE4F81EA77
:10460000030404F0004421F0004100944FF0000B3B
:1046100023F0004350EA01045ED052EA03045BD069
:10462000C3F30A54C1F30A552C44A4F2F3340194A1
:10463000A0FB0254C1F3130141F48011C3F313032F
:1046400043F4801301FB024400FB034E840A970AE3
:1046500044EA815447EA8357A4FB076802958D0A10
:1046600005FB07854FEA932C04FB0C542705029D9C
:104670004FEA065847EA1637B5EB08056EEB070C0C
:10468000870E920E47EA811742EA8312A7FB0201C6
:10469000B6EB0B0164EB00042B0D43EA0C335E1800
:1046A00044EB1C50DA465146E7FB0201C5F3130404
:1046B0004FEA0B3343EA14534FEA0432019C43EAB6
:1046C0000603A4F10C040294009CCDE900B400F0B0
:1046D00092FA03B0BDE8F08F00200146F9E72DE91A
:1046E000F04D81EA030404F0004B21F0004514462C
:1046F0004FF0000A23F0004150EA050220D054EAAE
:1047000001021DD0C5F30A570246C5F31303C1F3D6
:104710001300C1F30A5640F4801543F48013A7EB4D
:104720000608101BD64608F2FD3873EB050002D3CD
:1047300008F1010801E092185B41B8F1000F03DABB
:1047400000200146BDE8F08D00204FF480110646A0
:1047500084460EE0171B73EB050705D3121B63EBB2
:10476000050306434CEA010C49084FEA3000921851
:104770005B4150EA0107EDD152EA030012D082EA10
:10478000040083EA0501084305D0101BAB4106D2A3
:104790000122002306E000224FF0004302E06FF008
:1047A000010253101AEB06004CEB085110EB0A0003
:1047B00041EB0B01BDE8F04D00F00EBAC1F30A5217
:1047C000C1F3130140F2FF3341F480119A4202DA3F
:1047D00000200146704740F233439A42A2F233422E
:1047E00002DC524200F03BB800F02AB830B5041E9B
:1047F00071F1000404DB4FF00044404264EB01011E
:10480000141E73F1000405DB1C464FF000435242B6
:1048100063EB0403994208BF904230BD064C074D3C
:1048200006E0E06840F0010394E807009847103480
:10483000AC42F6D3FFF790FC14AE010834AE010889
:10484000202A04DB203A00FA02F100207047914050
:10485000C2F1200320FA03F3194390407047202A45
:1048600004DB203A21FA02F00021704721FA02F31A
:10487000D040C2F120029140084319467047202AD7
:1048800006DBCB17203A41FA02F043EAE07306E078
:1048900041FA02F3D040C2F1200291400843194688
:1048A0007047C0B24FF4F05100F0F4B92DE9F34F66
:1048B0008BB04FF0000801F10C000C464FF0010BDB
:1048C00046460DF1080A019062690121019890475E
:1048D000051E2DD0252D2CD0216A8847C0B16269D4
:1048E000012101989047216A88470028F7D1411E8D
:1048F00062690198904700E0761CA1690B9888478F
:10490000216A88470028F7D1E1690B988847DBE7DF
:10491000A1690B9888470746A84201D1761CD3E7C6
:10492000E1690B9888477F1C02D1B8F1000F6FD066
:1049300046E1002762693D463946019890472A289A
:1049400004D162690121019890470125DFF8849222
:104950006269012101989047A0F130010A290AD229
:104960004F45E5DC07EB870100EB4107303FDFD423
:1049700045F01005ECE7E90601D46FF000476C281C
:104980000AD04C2814D0682815D06A280DD0742875
:104990001CD07A281AD01DE0626901210198904745
:1049A0006C2802D045F0040514E045F002050DE046
:1049B00045F020050AE062690121019890476828C6
:1049C00002D045F0080505E045F400656269012163
:1049D00001989047C4E9015765283DD019DC582853
:1049E0007AD00CDC452837D004DC252826D0412895
:1049F00031D131E046282FD047282CD12CE05B283C
:104A000077D0612828D063287CD0642823D15AE04D
:104A1000D0E06F2848D008DC66281DD067281BD05E
:104A2000692821D06E2816D127E0702845D0732838
:104A300068D0752847D078280DD14DE0A1690B9832
:104A40008847054625283FF469AFE1690B988847F8
:104A50006D1C3FF46AAFB3E023466A466FF0010075
:104A60000B99AFF300809EE045F040006060A8071E
:104A700023464FF0000236D43EE0E8077FF447AF0C
:104A80002068011D21600068290501D506701BE71B
:104A9000290701D5068017E7A90703D5F117C0E953
:104AA000006111E706600FE745F040006060A8076D
:104AB00023464FF0080216D41EE040F60E0125EA08
:104AC0000100606016E045F040006060A8072346E2
:104AD0004FF00A0207D40FE045F040006060A807DD
:104AE00008D5234610226FF001000B99AFF3008028
:104AF00059E007E0234610226FF001000B99FFF701
:104B0000A5FB50E04FF000094F464B46632802D00A
:104B10005B2806D040E0E80601D40120A060012710
:104B20003AE062690121019890475E2805D14FF073
:104B300001096269494601989047216939B9002104
:104B40000A46534643F82120491C0829FADBB0B332
:104B5000216969B9C11700EBD16253110AEB8301D6
:104B600022F01F02821A01200B68904003430B6061
:104B700062690121019890475D28E8D1B9F1000FE1
:104B800009D00020514651F82020D24341F820207E
:104B9000401C0828F7DB02AB224600976FF00100AB
:104BA0000B99AFF3008000280CDA401C08D1BBF150
:104BB000000F05D04FF0FF300DB0BDE8F08FFFE7DC
:104BC0004046F9E7E90701D108F1010806444FF032
:104BD000000B79E6CCCCCC0C10B5141E73F100049C
:104BE00008DA401C41F1000192185B411A4301D1DF
:104BF00020F0010010BD2DE9F04D92469B4611B109
:104C0000B1FA81F202E0B0FA80F220329046FFF76A
:104C100017FE04460F4640EA0A0041EA0B015346DC
:104C20005A46084313D0114653EA010019D0C8F17F
:104C300040025046FFF713FE05460E4650465946C1
:104C40004246FFF7FDFD084305D0012004E0204661
:104C50003946BDE8F08D0020054346EAE0762C4356
:104C600037430A986305E40AA0EB08000022FD0A16
:104C700044EA47540A3002D500200146E9E701051D
:104C800010196941DDE9084500196941BDE8F04D99
:104C9000A2E700007F2801D9002208E0064A02EBC3
:104CA0005002C007127800D1120902F00F02012051
:104CB000904008407047000031AC010870B58C1876
:104CC00010F8015B15F0070301D110F8013B2A1120
:104CD00006D110F8012B03E010F8016B01F8016B0D
:104CE0005B1EF9D12B0705D40023521E0DD401F809
:104CF000013BFAE710F8013BCB1A921C03E013F8D2
:104D0000015B01F8015B521EF9D5A142D8D3002006
:104D100070BD000010B5044601A00FF095FF10BD56
:104D2000434D44204552520D0A0000002DE9F04148
:104D300006464FF000080122F5A1F64801F04CF9B3
:104D4000A8BBF54AF5A1F348FFF764FAF14880786B
:104D500030280EDBEF48807839280ADCF0480068FC
:104D6000042806D33D22EB49C91CC81EFFF70CFAE4
:104D700016E0E848407830280EDBE64840783928CD
:104D80000ADCE7480068032806D33E22E149891C73
:104D9000881EFFF7F9F903E04FF6FF70BDE8F081D8
:104DA000DF480068001FDF490860012501E0FFE7D8
:104DB000002585B1D848006808B9032413E0DA4813
:104DC0000078D5490968884201D101240BE002240A
:104DD0004FF6FF70E2E7D448007818B102244FF68E
:104DE000FF70DBE7002400F09FFA0422CFA1C9483E
:104DF00001F0F2F820B9304600F0AEFA0020CDE71D
:104E00000622CCA1C34801F0E7F820B9304600F0F3
:104E100089FF0020C2E70322C8A1BE4801F0DCF8E8
:104E200000287CD10222C6A1BA48C01C01F0D4F8E7
:104E3000002839D10422C3A1B648801D01F0CCF866
:104E400030B10422BFA1B348C01D01F0C5F858BB62
:104E5000BE4BBF4ABFA1AF48FFF7DCF9BC480068B2
:104E6000012804D03046FFF755FF012096E700BF28
:104E7000B64800681F2804D93046FFF74BFF0120D1
:104E80008CE7B2480368B248B6A10268B9480FF08F
:104E9000F9FEB84800F0F0F9AC4A1178AC4A107845
:104EA00001F016FA002079E70422B3A19948C01C4A
:104EB00001F092F8E0B9A64AB1A19648FFF7AAF925
:104EC000A3480068632804D93046FFF723FF012078
:104ED00064E79F48ADA10268A6480FF0D3FEA5483D
:104EE00000F0CAF99A49087801F0BCFA002055E7A9
:104EF0000322A9A18748C01C01F06EF860BB032201
:104F0000A6A18448801D01F067F860B9A4A1994862
:104F10000FF0B8FE974800F0AFF9012000E034E050
:104F200001F076F816E004229FA17A48801D01F076
:104F300053F850B99EA18F480FF0A4FE8D4800F0A1
:104F40009BF9002001F064F804E03046FFF7E2FE30
:104F5000012023E7002021E7042297A16D48C01C0F
:104F600001F03AF850B996A182480FF08BFE8148C3
:104F700000F082F901F064FA00200FE74021654853
:104F8000FFF71BF94FF6FF7008E703228DA1614878
:104F900001F022F800287BD1022269A15D48C01CE3
:104FA00001F01AF830B9072287A15A48801D01F094
:104FB00013F830B1072284A15648C01D01F00CF847
:104FC000F0B9634A82A15348FFF724F960480068AA
:104FD000012804D03046FFF79DFE0120DEE65C4844
:104FE0000068401E7E490B5C59487EA102686148FA
:104FF0000FF048FE31465F4800F04EF90020CDE644
:1050000002224FA14348C01C00F0E6FF30B9052240
:1050100078A14048801D00F0DFFF30B1052275A166
:105020003C48C01D00F0D8FFF8B9494A73A139487F
:10503000FFF7F0F846480068012804D03046FFF733
:1050400069FE0120AAE642480068401E3649091D53
:105050000B5C3F4843A1026846480FF013FE3146FF
:10506000444800F019F9002098E6052266A1294875
:10507000C01C00F0B1FF60B92B48027843A13D4845
:105080000FF000FE31463B4800F006F9002085E6AF
:10509000E9E007225EA11F48C01C00F09DFF58B93F
:1050A000052302225CA133480FF0ECFD3146314864
:1050B00000F0F2F8002071E608225CA11548C01C3F
:1050C00000F08AFF50B95CA25EA12A480FF0DAFD19
:1050D0003146284800F0E0F800205FE604225AA19B
:1050E0000C48C01C00F078FF88B900F08BFF08B1B5
:1050F0002CA000E02FA007463A4655A11D480FF00E
:10510000C1FD31461B4800F0C7F8002046E6A3E089
:1051100041000000F80800207C00002041256400C8
:1051200084000020800000208C000020455A480D9B
:1051300000000000455A5354410D0000455A5300E9
:10514000494E00004544494400000000680000202A
:1051500064000020455A53494E256445444944257E
:1051600064000000494E25642045444944202564DC
:105170000000000078060020414444520000000076
:10518000455A53414444522564000000414444526E
:105190002025302E3264000043415300454E0D005F
:1051A00043415320454E00004449530D0000000088
:1051B00043415320444953005253540D0000000012
:1051C00052535400455A47005349475354410D0028
:1051D000455A47494E2564534947535441000000FE
:1051E00097000020494E25642053494720535441DD
:1051F00020256400454449440D000000455A4749B4
:105200004E25644544494400414444520D00000089
:10521000564552494E460D004D41494E204D43558D
:10522000205625642E252E32640000005459504526
:10523000494E460D00000000455831314841532D7C
:1052400050524F00257300004341530D00000000F1
:10525000434153202573000040210648FEF7ADFF6F
:105260004FF6FF709AE540210248FEF7A6FF4FF681
:10527000FF7093E5F808002010B50446224604A10B
:1052800000200FF0F1FB214601A00FF0DDFC10BD66
:1052900025730D0A0000000070B504460D46224635
:1052A00004A128460FF0E0FB214602A00FF0CCFC41
:1052B00070BD000025730D0A0000000070B50646A1
:1052C0000024002540211548FEF777FF00BF1EE0AF
:1052D0001348005D202800D117E01148005D6128C7
:1052E0000CDB0F48005D7A2808DC0D48005D203893
:1052F000C2B228466D1C09490A5405E00848025DFF
:1053000028466D1C05490A5400BF601C84B2B44293
:10531000DED304480560AD1E70BD0000F808002013
:10532000560B0020840000204FF6FF7005490860EE
:105330000549086005490860054908600549086095
:105340007047000064000020680000206C0000200E
:10535000700000207400002010B504463BA00FF040
:1053600073FC022010F006FA48A00FF06DFC02203A
:1053700010F000FA35A00FF067FC022010F0FAF9E7
:10538000524801780523022251480FF05DFC0220AB
:1053900010F0F0F94FA00FF057FC022010F0EAF9DE
:1053A0005CA00FF051FC022010F0E4F969A00FF0AE
:1053B0004BFC022010F0DEF976A00FF045FC022035
:1053C00010F0D8F983A00FF03FFC022010F0D2F9C2
:1053D00090A00FF039FC022010F0CCF99DA00FF046
:1053E00033FC022010F0C6F9AAA00FF02DFC022019
:1053F00010F0C0F9B7A00FF027FC022010F0BAF9A6
:10540000C4A00FF021FC022010F0B4F9D1A00FF0DD
:105410001BFC022010F0AEF92EA00FF015FC0220AC
:1054200010F0A8F9DBA00FF00FFC022010F0A2F999
:10543000E8A00FF009FC022010F09CF9F5A00FF095
:1054400003FC022010F096F904E200003D3D3D3DD2
:105450003D3D3D3D3D3D3D3D3D3D3D3D3D3D3D3D7C
:105460003D3D3D3D3D3D3D3D3D3D3D3D3D3D3D3D6C
:105470003D3D3D3D3D3D3D3D3D3D3D3D3D3D3D3D5C
:105480003D3D3D3D3D3D3D3D0D0A00003D3D202063
:10549000202020202020202020202020202020200C
:1054A000202020202020202053797374656D7320E4
:1054B00048454C5020202020202020202020202043
:1054C0002020202020203D3D0D0A00008C000020DF
:1054D00074AC01083D3D2D2D2D2D2D2D2D2D2D2D67
:1054E0002D2D2D2D2D2D2D2D2D2D2D2D2D2D2D2DEC
:1054F0002D2D2D2D2D2D2D2D2D2D2D2D2D2D2D2DDC
:105500002D2D2D2D2D2D2D2D2D2D2D2D2D2D3D3DAB
:105510000D0A00003D3D2053797374656D20436F83
:105520006E74726F6C20536574757020436F6D6D6F
:10553000616E64733A20202020202020202020202B
:1055400020202020202020202020202020203D3D21
:105550000D0A00003D3D20455A48202020202020F3
:1055600020202020202020202020202020203A2021
:1055700048656C7020202020202020202020202022
:1055800020202020202020202020202020203D3DE1
:105590000D0A00003D3D20455A5354412020202053
:1055A00020202020202020202020202020203A20E1
:1055B00053686F7720476C6F62616C205379737406
:1055C000656D2053746174757320202020203D3D4B
:1055D0000D0A00003D3D20455A53204144445220CD
:1055E0007878202020202020202020203A20536579
:1055F000742053797374656D2041646472657373AC
:1056000020746F20787820202020202020203D3D0D
:105610000D0A00003D3D20202020202020202020B9
:1056200020202020202020202020202020207B78C7
:10563000783D5B30307E39395D2830303D53696EBE
:10564000676C65297D2020202020202020203D3DE2
:105650000D0A00003D3D20455A532052535420204E
:105660002020202020202020202020203A205265A9
:1056700073657420746F20466163746F727920447F
:10568000656661756C7473202020202020203D3DCC
:105690000D0A00003D3D20455A532043415320450B
:1056A0004E2F444953202020202020203A205365AB
:1056B000742043617363616465204D6F64652045A8
:1056C0006E61626C652F44697361626C65203D3D5B
:1056D0000D0A00003D3D20455A47204341532020FC
:1056E0002020202020202020202020203A20476534
:1056F000742043617363616465204D6F646520535A
:1057000074617475732020202020202020203D3DCE
:105710000D0A00003D3D20455A4720414444522097
:105720002020202020202020202020203A204765F3
:10573000742053797374656D20416464726573736A
:1057400020202020202020202020202020203D3D1F
:105750000D0A00003D3D20455A4720494E78205310
:105760004947205354412020202020203A204765DB
:105770007420496E7075742078205369676E616C6F
:10578000205374617475737B783D5B315D7D3D3D65
:105790000D0A00003D3D20496E70757420536574FC
:1057A000757020436F6D6D616E643A20284E6F7482
:1057B000653A696E707574206E756D6265722878D1
:1057C000293D48444D492878292C783D31293D3DD3
:1057D0000D0A00003D3D20455A5320494E78204592
:1057E0004449442079202020202020203A2053655D
:1057F0007420496E707574207820454449447B7844
:105800003D5B315D2C20793D5B307E33305D3D3D2D
:105810000D0A00003D3D2020303A31303830505FD5
:105820003243482850434D292020202020313A314E
:10583000303830505F36434820202020202020324E
:105840003A31303830505F384348202020203D3DE9
:105850000D0A000033A00FF0F7F902200FF08AFFC5
:1058600040A00FF0F1F902200FF084FF4DA00FF0DF
:10587000EBF902200FF07EFF5AA00FF0E5F90220AD
:105880000FF078FF67A00FF0DFF902200FF072FF32
:1058900074A00FF0D9F902200FF06CFF81A00FF077
:1058A000D3F902200FF066FF8EA00FF0CDF9022091
:1058B0000FF060FF9BA00FF0C7F902200FF05AFF16
:1058C000A8A00FF0C1F902200FF054FFB5A00FF00F
:1058D000BBF902200FF04EFFC2A00FF0B5F9022075
:1058E0000FF048FFCFA00FF0AFF902200FF042FFFA
:1058F000DCA00FF0A9F902200FF03CFFE9A00FF0A7
:10590000A3F902200FF036FFF6A00FF09DF9022058
:105910000FF030FFAFF244400FF096F902200FF085
:1059200029FF10BD3D3D2020333A31303830505FE3
:1059300033445F3243482850434D292020343A31C4
:10594000303830505F33445F3643482020202035C4
:105950003A31303830505F33445F384348203D3D62
:105960000D0A00003D3D2020363A344B3330487A52
:105970005F33445F3243482850434D2920373A343F
:105980004B3330485A5F33445F3643482020203839
:105990003A344B3330485A5F33445F3843483D3DD7
:1059A0000D0A00003D3D2020393A344B3630487A0C
:1059B0002859343230295F33445F324348285043FA
:1059C0004D29202020202031303A344B3630487A7F
:1059D0002859343230295F33445F364348203D3DF7
:1059E0000D0A00003D3D202031313A344B3630481D
:1059F0007A2859343230295F33445F3843482020B5
:105A00002020202020202031323A344B3630485A92
:105A10005F33445F324348202020202020203D3D3A
:105A20000D0A00003D3D202031333A344B363048DA
:105A30005A5F33445F364348202020202020202016
:105A40002020202020202031343A344B3630485A50
:105A50005F33445F384348202020202020203D3DF4
:105A60000D0A00003D3D202031353A3130383050AC
:105A70005F3243485F4844522031363A3130383043
:105A8000505F3643485F4844522031373A3130380E
:105A900030505F3843485F484452202020203D3D2D
:105AA0000D0A00003D3D202031383A313038305069
:105AB0005F33445F3243482850434D295F48445286
:105AC000202020202031393A31303830505F3344A3
:105AD0005F3643485F4844522020202020203D3D2F
:105AE0000D0A00003D3D202032303A313038305030
:105AF0005F33445F3843485F4844522020202020D1
:105B0000202020202032313A344B3330487A5F3322
:105B1000445F3243482850434D295F4844523D3D3D
:105B20000D0A00003D3D202032323A344B333048DC
:105B30007A5F33445F3643485F4844522020202038
:105B4000202020202032333A344B3330487A5F33E0
:105B5000445F3843485F48445220202020203D3D88
:105B60000D0A00003D3D202032343A344B36304897
:105B70007A2859343230295F33445F3243485F48D2
:105B800044522032353A344B3630487A2859343230
:105B900030295F33445F3643485F484452203D3DDF
:105BA0000D0A00003D3D202032363A344B36304855
:105BB0007A2859343230295F33445F3843485F488C
:105BC00044522032373A344B3630487A5F33445FA0
:105BD0003243482850434D295F48445220203D3DE0
:105BE0000D0A00003D3D202032383A344B36304813
:105BF0007A5F33445F3643485F4844522020202078
:105C000020202032393A344B3630487A5F33445FB3
:105C10003843485F484452202020202020203D3D2A
:105C20000D0A00003D3D202033303A344B5F444F95
:105C30004C42595F564953494F4E5F41544D4F5363
:105C40002020202020202020202020202020202054
:105C500020202020202020202020202020203D3D0A
:105C60000D0A00003D3D202033313A344B36304898
:105C70007A5F33445F3843485F4844525F444C4145
:105C800054202020202020202020202020202020E0
:105C900020202020202020202020202020203D3DCA
:105CA0000D0A00003D3D202033323A496E6469639D
:105CB00061746520436F7079204F7574707574310D
:105CC0002045444944284E4F20535555504F525477
:105CD00020434D442053455454494E4729203D3DCF
:105CE0000D0A00003D3D20455A4720494E78204589
:105CF0004449442020202020202020203A204765AD
:105D00007420496E707574207820454449442049B8
:105D10006E6465787B783D5B315D7D2020203D3D64
:105D20000D0A000070B505461FA00EF08DFF022081
:105D30000FF020FD2CA00EF087FF02200FF01AFDBF
:105D400019A00EF081FF02200FF014FD36480178F3
:105D50000523022235480EF077FF02200FF00AFDDE
:105D600033A00EF071FF02200FF004FD40A00EF0F2
:105D70006BFF02200FF0FEFC00F044F908B14CA0CC
:105D800000E04DA0044621464DA00EF05DFF02202C
:105D90000FF0F0FC26A00EF057FF02200FF0EAFCF7
:105DA00001A00EF051FF70BD3D3D3D3D3D3D3D3DEF
:105DB0003D3D3D3D3D3D3D3D3D3D3D3D3D3D3D3D13
:105DC0003D3D3D3D3D3D3D3D3D3D3D3D3D3D3D3D03
:105DD0003D3D3D3D3D3D3D3D3D3D3D3D3D3D3D3DF3
:105DE0003D3D3D3D0D0A00003D3D2020202020206E
:105DF00020202020202020202020202020202020A3
:105E0000202053797374656D732053544154555356
:105E10002020202020202020202020202020202082
:105E200020203D3D0D0A00008C00002074AC0108CC
:105E30003D3D2D2D2D2D2D2D2D2D2D2D2D2D2D2D72
:105E40002D2D2D2D2D2D2D2D2D2D2D2D2D2D2D2D82
:105E50002D2D2D2D2D2D2D2D2D2D2D2D2D2D2D2D72
:105E60002D2D2D2D2D2D2D2D2D2D3D3D0D0A0000DF
:105E70003D3D2053797374656D20536574757020B2
:105E80005374617475732020203A20202020202034
:105E90002020202020202020202020202020202002
:105EA000202020202020202020203D3D0D0A000021
:105EB000454E41424C45200044495341424C450027
:105EC0003D3D2043617363616465204D6F646520CF
:105ED0005374617475732020203A2025732020208C
:105EE00020202020202020202020202020202020B2
:105EF00020202020203D3D0D0A00000070B5064600
:105F00000024002540212D48FEF757F900202C4998
:105F1000088000BF48E02A480088C0B92948005DD1
:105F200020283FD02748005D0D283BD02548005D44
:105F30000A2837D022480088401C2149088021487F
:105F4000025D2846691C8DB21C490A542AE01D488E
:105F5000005D202826D01B48005D0D2803D019487D
:105F6000005D0A280FD101201749087014480088E5
:105F7000401C134908801348025D2846691C8DB2F5
:105F80000E490A540EE01048007858B90C480088B1
:105F9000401C0B4908800B48025D2846691C8DB2E5
:105FA00006490A54601C84B2B442B4DB0648007847
:105FB00010B906A00EF048FE70BD0000560B002080
:105FC00078010020960B00207A010020434D4420E8
:105FD0004552520D0A00000030B503460C46002120
:105FE00000BF0AE0585C655CA84204D0585C655C60
:105FF000401BC0B230BD481C81B29142F2DB002090
:10600000F8E7000001484078704700008C0000204D
:1060100002494870FF21024A517070478C000020ED
:106020009100002070B505460E461648007840F0F5
:1060300001001449087014A00EF092FC1BA00EF091
:106040008FFC22A00EF08CFC00240FE0E11704EB83
:106050005171C910A4EBC10111B924A00EF080FC4C
:10606000295D24A00EF07CFC601C84B2B442EDDB00
:1060700005A00EF075FC0348007820F001000149EE
:10608000087070BD4A0000200D0A3D3D3D3D3D3D7C
:106090003D3D3D3D3D3D3D3D3D3D3D3D3D3D3D3D30
:1060A0003D3D3D3D3D3D3D0D0A0000003D20202091
:1060B00020202041707053746174757320446174A2
:1060C00061202020202020203D0D0A003D3D3D3D47
:1060D0003D3D3D3D3D3D3D3D3D3D3D3D3D3D3D3DF0
:1060E0003D3D3D3D3D3D3D3D3D0000000D0A202034
:1060F0000000000020252E32580000002DE9F0415C
:1061000004460F46002500268820207000BF00BFEF
:1061100004E0605D3044C6B2681C85B2781EA842B7
:10612000F7DCF043401CC6B266553946204600F005
:10613000F9F8BDE8F08100002DE9F04104460F4672
:10614000002500262078882806D0217811A00EF09E
:1061500007FC0020BDE8F0810026002504E0605D1A
:106160003044C6B2681C85B2781EA842F7DCF04302
:10617000401CC6B2605DB04206D0625D31460DA0E3
:106180000EF0EEFB0020E5E715A00EF0E9FB012084
:10619000E0E700004170702044617461204865614F
:1061A000646572204572726F72205B252E32585DD5
:1061B0000D0A0000417070204461746120436865DD
:1061C000636B53756D204572726F72205B252E32A2
:1061D000585D213D5B252E32585D0D0A0000000000
:1061E000417070204461746120436865636B53752E
:1061F0006D205269676874210D0A000070B505466C
:106200000C46224E681E22490C54202C1BD1012022
:106210000DF0ACFD78B101200DF0FEFD58B11D4828
:106220000068806B007D012805D102021A493046C2
:10623000FDF7AAFF19E019484FF48072816F3046CC
:10624000FDF7A2FF11E01F2C08DC144850F82410C1
:106250004FF480723046FDF797FF06E00F484FF489
:106260008072816F3046FDF78FFF681E084A115C0F
:106270000BA00EF075FB202C02D0304608F018FF62
:1062800031460D4800680BF071FA70BD560A0020C7
:1062900090000020940300207C100020A00000202B
:1062A0004170705374617475732E456469645365ED
:1062B0006C3D25640D0A0000900300200248002177
:1062C0000160024801607047960000209A0000209B
:1062D00070B505460E46002455B9012405E0314647
:1062E0002046FFF78BFF601CC4B2012CF7DD03E0F2
:1062F00031462846FFF782FF01200149887070BDB2
:106300008C00002070B504460D460FF02BFB2A468A
:10631000214603480DF092FC0FF0C4FA70BD000056
:1063200000FC010870B504460D460FF01BFB054844
:106330000DF06AFC2A46214602480DF092FC0FF04F
:10634000B1FA70BD00FC010810B500240B48002113
:106350000160017100200949087001204870002087
:106360008870C8701E20087105480A68C0F80120AE
:10637000097941710721FFF7C1FE10BD8C00002093
:106380002001002010B5002407211248FFF7BAFFB2
:1063900007211048FFF7D0FE30B907210D48FFF75D
:1063A00041FEFFF7D1FF0DE00BA00EF0D9FA072157
:1063B0000848FFF737FE10480649D1F8012002606F
:1063C000497901710D480C490A6802600979017127
:1063D00010BD0000200100204170702044617461F4
:1063E0002056616C756520697320696E6974204F51
:1063F0004B210D0A000000008C00002091000020BD
:1064000010B50C480C490A680260097901710B4803
:10641000002101608180817107490A68C0F801206C
:10642000097941710721FFF769FE07210348FFF74A
:10643000F9FD10BD910000208C00002020010020FB
:1064400010B5FFF781FFFF2003490870034908706A
:106450000349087010BD0000350000203100002005
:106460003200002001490870704700008C000020B5
:1064700070B50446DDE90456217062706360A56062
:10648000E660002070BD00002DE9F04107460C4693
:1064900015461E460B48006808B90A480460276084
:1064A000E5802671204600F0F3F80748006810B137
:1064B000054800688467044804600020A067BDE8C0
:1064C000F081000054030020580300202DE9F04122
:1064D00004460D46164600270EB1022E3DD1207906
:1064E0000D2839D2DFE800F0071A081B36091C0A0C
:1064F0000B12191D370000BF00BF00BF00BF20797D
:10650000082802D10121E06C017000BF2079092820
:1065100002D10121206D017000BF00BF00BF00BF8C
:1065200000BF284608F044FE606E20B1606EA842AD
:1065300001D0616E29666566EC652879052808D169
:106540000021686CC18300231A460421204602F012
:10655000DDF901E000BF00BF00BF012E01D0022E17
:1065600028D120790D2824D2DFE800F007210C2261
:1065700009081F0B232323200A0000BF00BF00BF10
:1065800000BF00BF284608F0DFFD206F20B1206F5C
:10659000A84201D0216FE9662567AC6628790528F5
:1065A00002D10021A86C818003E000BF00BF00BFC2
:1065B00000BF00BF0EB1022E27D120790D2823D2B3
:1065C000DFE800F007100A111E080E090B0C0D0F72
:1065D0001F0000BF00BF00BF00BF00BF00BF00BF63
:1065E00000BF00BF00BF606D38B1676D00E07F6D18
:1065F000786D0028FBD16F6501E0616D696503E08E
:1066000000BF0021616500BF00BF2946204603F09E
:1066100075F90020BDE8F08110B5002403F0CCFB33
:106620000446204610BD10B50446204603F0E2FBA8
:10663000002010BD10B504462079072824D2DFE8D9
:1066400000F0040B12161A1B1F00204601F098FBE5
:10665000204601F0A2FB18E0204601F091FB204605
:1066600001F09BFB11E0204601F097FB0DE0204676
:1066700001F093FB09E008E0204601F085FB04E00F
:10668000204601F081FB00E000BF00BF002010BDEC
:1066900010B50446FF2175200155FF2084F87400D1
:1066A00076200155772001550020A0600021E1608F
:1066B00021616161A161E16121626162A162E162C6
:1066C00021636163A163E16321646164A164E164A6
:1066D00021656165A165E16521666166A166E16686
:1066E000216720790D283FD2DFE800F0073F638261
:1066F0009CA7DFFDFCFB3EFAF90004F10801022033
:1067000002F078FB04F10C01012002F073FB04F1AC
:106710001001012002F06EFB04F11401012002F0CF
:1067200069FB04F11801012002F064FB04F11C0173
:10673000012002F05FFB04F12001012002F05AFB6E
:1067400004F134011E2002F055FB04F13C01082045
:1067500002F050FB04F14401222002F04BFB04F153
:106760004801182002F046FB28E104F1080102204C
:1067700002F040FB04F10C01012002F03BFB04F1AC
:106780001001012002F036FB04F11401012002F097
:1067900031FB04F11801012002F02CFB04F134015B
:1067A0001E2002F027FB04F14401222002F022FB0C
:1067B00004E104F10801022002F01CFB04F11401C1
:1067C000012002F017FB04F11801012002F012FB76
:1067D00004F134011E2002F00DFB04F144012220DB
:1067E00002F008FB04F14801182002F003FBE5E089
:1067F00004F10801022002F0FDFA04F11401012065
:1068000002F0F8FA04F11801012002F0F3FA04F1A1
:1068100034011E2002F0EEFA04F14401222002F0BD
:10682000E9FACBE004F10801022002F0E3FA04F1F6
:106830004801182002F0DEFAC0E004F1080102204D
:1068400002F0D8FA04F12401012002F0D3FA04F195
:106850002801012002F0CEFA04F12C01012002F0FF
:10686000C9FA04F13001012002F0C4FA04F11C015C
:10687000012002F0BFFA04F12001012002F0BAFA6F
:1068800004F138011C2002F0B5FA04F140010C209B
:1068900002F0B0FA04F14401222002F0ABFA04F154
:1068A0004801182002F0A6FA88E004F1080102204D
:1068B00002F0A0FA04F12401012002F09BFA04F195
:1068C0002801012002F096FA04F12C01012002F0C7
:1068D00091FA04F13001012002F08CFA04E062E048
:1068E00047E03BE02FE00FE004F138011C2002F00C
:1068F00081FA04F14401222002F07CFA04F14801FB
:10690000182002F077FA59E004F10801022002F0A1
:1069100071FA04F12C01012002F06CFA04F130014B
:10692000012002F067FA04F138011C2002F062FA3B
:1069300004F14401222002F05DFA04F1480118201C
:1069400002F058FA3AE004F10801022002F052FA8B
:1069500004F14C01052002F04DFA2FE004F108018A
:10696000022002F047FA04F15001072002F042FA37
:1069700024E004F10801022002F03CFA04F12C01A9
:10698000012002F037FA04F13001012002F032FA5E
:1069900004F138011C2002F02DFA04F144012220F8
:1069A00002F028FA0AE004F10801022002F022FABB
:1069B00004F14801182002F01DFA00BF00BF0020BA
:1069C00010BD000010B50548046803E02046FFF73D
:1069D00031FEA46F002CF9D1002010BD540300201B
:1069E00070B53D48046871E03B4800683B49096860
:1069F0008847394800683A49096888473648006836
:106A000038490968884720790D285AD2DFE800F014
:106A100007082A2B323340474D515548490000BFE3
:106A2000E068057820460BF0C9F8204601F0BEF971
:106A3000294620460DF002FB6069057820460BF0E0
:106A400047F9204601F056FD294620460DF09EFCF0
:106A5000E069057820460CF008FA294620460DF03A
:106A6000FDF92EE000BF20460BF032F9204601F080
:106A700041FD26E025E0606A057820460BF0D4F859
:106A8000204601F0B3FA294620460DF097FB18E0A6
:106A900020460BF0C9F8204601F0A8FA11E000BF2B
:106AA0000FE020460BF084F80BE020460BF0BEF917
:106AB00007E020460BF02BF903E020460BF0AFF97E
:106AC00000BF00BFA06F00B902E0A46F002C8BD103
:106AD00000BF002070BD00005403002060030020B0
:106AE0005C030020640300202DE9F04F06460C46AD
:106AF0000025A846A9460027AA46AB4600BF2BE0C2
:106B000008EBC800482101EB4000205C00BB08EB0B
:106B1000C80001EB4000401C205CC8B908EBC8006D
:106B200001EB4000801C205C90B908EBC80001EB31
:106B30004000C01C205CFD280AD108EBC80001EB16
:106B400040000930205C00EB80004000A6F86200A5
:106B500008F1010000F0FF08B8F1030FD0DB0022BC
:106B60000221204600F060FE05462F0A05F0FF0ACC
:106B70004FF000081AE0781C4044205C00F07F0BC6
:106B80004FF000090BE0834810F80900584502D186
:106B9000012006F8090009F1010000F0FF09B9F130
:106BA000170FF0DB08F1010000F0FF08D045E2DB31
:106BB00000220121204600F037FE05462F0A05F08D
:106BC000FF0A2FB13B4652462146304600F0E4F81A
:106BD00000220321204600F027FE05462F0A05F07B
:106BE000FF0A27B13A462146304600F08FFA0122CB
:106BF0000321204600F018FE05462F0A05F0FF0A83
:106C000027B12A462146304600F070FB94F88300F5
:106C100000F0100028B18620805D401CC1B28620A3
:106C2000815594F8830000F0200028B18720805D12
:106C3000401CC1B28720815500220721204600F068
:106C4000F3FD05462F0A05F0FF0A27B13A46214613
:106C5000304600F020FA06220721204600F0E4FD2D
:106C600005462F0A05F0FF0A27B13A46214630466D
:106C700000F0E4F90E220721204600F0D5FD05467C
:106C80002F0A05F0FF0A27B13A462146304600F0A8
:106C900060FD05220721204600F0C6FD05462F0AAB
:106CA00005F0FF0A27B13A462146304600F062F966
:106CB0000F220721204600F0B7FD05462F0A05F0F8
:106CC000FF0A27B13A462146304600F09FFC0122D8
:106CD0000721204600F0A8FD05462F0A05F0FF0A0F
:106CE00027B13A462146304600F074FC207A20282D
:106CF00007D1607AA32804D1A07A302801D1E07AA4
:106D000050B3207A0D2807D1607A042804D1A07AE4
:106D1000302801D1E07AF8B1207A202807D1607AB2
:106D2000A32804D1A07A012801D1E07AA0B1207A69
:106D30004D2807D1607A792804D1A07A012801D1A1
:106D4000E07A48B1207A412821D1607A0C281ED1FE
:106D5000A07AE0B9E07AD0B9B6F86000B0F5967FD5
:106D600003DD4FF49670A6F86000B6F86400B0F545
:106D7000967F03DD4FF49670A6F86400B6F86200C3
:106D8000B0F5967F03DD4FF49670A6F86200BDE87B
:106D9000F08F00001AAC01082DE9F04F88B00446CE
:106DA0000D4616460021002000278046814600221D
:106DB000824684468346CDF810B0CDF814B0CDF8A5
:106DC00018B0CDF81CB0CDF800B0CDF804B0CDF8B7
:106DD00008B0CDF80CB04FF0030B96FBFBFB0BF0AB
:106DE000FF0703F1010BB34415F80BB00BF0E00BF8
:106DF000BBF1200F0CD103F1010BB34415F80BB01C
:106E00000BF01F0B4FF0030E9BFBFEFB0BF0FF087C
:106E100007EB080B0BF0FF0900217CE0B94205DA13
:106E200001EB410B9B440BF0FF020AE003EB060B66
:106E3000A1EB070E0EEB4E0EF3440BF1010B0BF022
:106E4000FF0202F1010B15F80BB00BF0780A02F10A
:106E5000010B15F80BB00BF0070C002055E0DFF824
:106E600010B11BF800B0D3454BD10DF1100B1BF83E
:106E700000B0BBF1000F07D14FF0010B0DF1100E68
:106E80000EF800B00DF800C004F1250B1BF800B09F
:106E900002F1020E15F80EE00BEA0E0B04F1250EBE
:106EA0000EF800B01DF800B0E34501DA0DF800C09F
:106EB00050B994F841B002F1030E15F80EE00BEA58
:106EC0000E0B84F841B01CE0072812DA02F1030B24
:106ED00015F80BB004F1410E1EF800E0F34510DA8E
:106EE00002F1030B15F80BB004F1410E0EF800B0DF
:106EF00007E002F1030B15F80BB004F1410E0EF898
:106F000000B000F1010B0BF0FF000E28A7DB01F130
:106F1000010B0BF0FF01494580DB002122E00DF160
:106F2000100B1BF801B0BBF1000F17D004F1170BC9
:106F30001BF801B00BF1010B04F1170E0EF801B0B4
:106F40001DF801B004F1330E1EF801E0F34505DA37
:106F50001DF801B004F1330E0EF801B001F1010B80
:106F60000BF0FF010E29DADB08B0BDE8F08F00005E
:106F70000CAC010810B5931CCB5C03F0010323B1EA
:106F800090F891305B1C80F89130931CCB5C03F03F
:106F900002032BB192231B5C5B1CDCB292231C54BA
:106FA000931CCB5C03F004032BB193231B5C5B1C91
:106FB000DCB293231C54931CCB5C03F008032BB16D
:106FC00094231B5C5B1CDCB294231C54931CCB5C91
:106FD00003F010032BB195231B5C5B1CDCB29523E3
:106FE0001C54931CCB5C03F020032BB196231B5C39
:106FF0005B1CDCB296231C54931CCB5C03F0400357
:107000002BB197231B5C5B1CDCB297231C54931C95
:10701000CB5C03F080032BB198231B5C5B1CDCB2C0
:1070200098231C54D31CCB5C03F080032BB1992311
:107030001B5C5B1CDCB299231C5410BD10B5931C67
:10704000CB5C03F0010323B190F88D305B1C80F81A
:107050008D30931CCB5C03F002032BB18E231B5CA1
:107060005B1CDCB28E231C54931CCB5C03F004032A
:107070002BB18F231B5C5B1CDCB28F231C54931C35
:10708000CB5C03F008032BB190231B5C5B1CDCB2D0
:1070900090231C5410BD10B5931CCB5C03F08003EF
:1070A00023B190F882305B1C80F88230931CCB5C5B
:1070B00003F040032BB183231B5C5B1CDCB28323F6
:1070C0001C54931CCB5C03F00C030C2B05D18423C4
:1070D0001B5C5B1CDCB284231C54931CCB5C03F054
:1070E0000303032B05D185231B5C5B1CDCB28523CA
:1070F0001C54931CCB5C03F03003302B05D1882348
:107100001B5C5B1CDCB288231C5410BDF0B5002452
:1071100000230025161D8E5D16B9561D8E5D2EB1FD
:107120005E26365C761CF7B25E263754961D8E5D61
:1071300006F080062EB15726365C761CF7B257262D
:107140003754961D8E5D06F040062EB15826365CEB
:10715000761CF7B258263754961D8E5D06F0200631
:107160002EB15926365C761CF7B259263754961D37
:107170008E5D06F010062EB15A26365C761CF7B2EC
:107180005A263754961D8E5D06F008062EB15B26F2
:10719000365C761CF7B25B263754961D8E5D06F082
:1071A00001062EB15C26365C761CF7B25C2637549D
:1071B00002F108068E5D06F0080626B190F84F60D1
:1071C000761C80F84F6002F108068E5D06F004061A
:1071D0002EB15026365C761CF7B25026375402F199
:1071E00008068E5D06F002062EB15126365C761C2E
:1071F000F7B25126375402F108068E5D06F00106FB
:107200002EB15226365C761CF7B25226375402F164
:1072100008068E5D06F02006002E55D00A2302F1E6
:1072200008068E5D06F080060EB19E1CF3B202F1D8
:1072300008068E5D06F040060EB19E1CF3B2D6180D
:107240008E5D7509002431E0D618761C26448E5DCB
:10725000012E05D15326365C761CF7B253263754DF
:10726000D618761C26448E5D022E05D15426365C37
:10727000761CF7B254263754D618761C26448E5DF9
:10728000032E05D15526365C761CF7B255263754A9
:10729000D618761C26448E5D042E05D15626365C03
:1072A000761CF7B256263754661CF4B2AC42CBDBE0
:1072B000D618761E8E5D06F080062EB15D26365CF1
:1072C000761CF7B25D263754D61D8E5D06EB86061A
:1072D000B0F86070BE4202DBB0F860602EB9D61D17
:1072E0008E5D06EB8606A0F86060F0BDF0B5144632
:1072F0000023220AE5B2D61D8E5D06F0040626B1F3
:1073000090F86C60761C80F86C60D61D8E5D06F07F
:1073100002062EB16D26365C761CF7B26D26375408
:10732000D61D8E5D06F001062EB16E26365C761CEB
:10733000F7B26E263754961D8E5D06F080062EB18C
:107340006F26365C761CF7B26F263754961D8E5D1D
:1073500006F001062EB17026365C761CF7B2702658
:107360003754961D8E5D06F002062EB17126365CEE
:10737000761CF7B271263754961D8E5D06F0040612
:107380002EB17226365C761CF7B272263754961DE3
:107390008E5D06F008062EB17326365C761CF7B2B9
:1073A00073263754961D8E5D06F040062EB1742666
:1073B000365C761CF7B274263754961D8E5D06F047
:1073C00010062EB18026365C761CF7B28026375424
:1073D000561D8E5D06EB8603B0F864609E4202DCAB
:1073E000B0F864601EB9A0F86430A0F86230072DD0
:1073F0007EDD02F108068E5D06F020062EB17526B0
:10740000365C761CF7B27526375402F108068E5D9D
:1074100006F010062EB17626365C761CF7B276267C
:10742000375402F108068E5D06F008062EB1772665
:10743000365C761CF7B27726375402F108068E5D6B
:1074400006F004062EB17826365C761CF7B2782654
:10745000375402F108068E5D06F002062EB1792639
:10746000365C761CF7B27926375402F108068E5D39
:1074700006F001062EB17A26365C761CF7B27A2623
:10748000375402F10B068E5D06F080062EB17B2686
:10749000365C761CF7B27B26375402F10B068E5D04
:1074A00006F040062EB17C26365C761CF7B27C26B0
:1074B000375402F10B068E5D06F004062EB17D26D0
:1074C000365C761CF7B27D26375402F10B068E5DD2
:1074D00006F002062EB17E26365C761CF7B27E26BA
:1074E000375402F10B068E5D06F001063EB100E056
:1074F00067E07F26365C761CF7B27F26375402F1B0
:107500000B068E5D06F008062EB18126365C761CD1
:10751000F7B281263754D61D8E5D331190F85F6027
:107520009E4202DC90F85F600EB980F85F3002F195
:107530000A068F5D761E8E5D06F0C00607EB860399
:10754000B0F866609E4202DCB0F866600EB9A0F842
:10755000663002F109068E5D06F03F0390F8686020
:107560009E4202DB90F868600EB980F8683002F144
:107570000C068E5D330990F869609E4202DC90F83B
:1075800069600EB980F8693002F10C068E5D06F074
:107590000F0390F86A609E4202DC90F86A600EB9B0
:1075A00080F86A3002F10D068E5D06F03F0390F818
:1075B0006B609E4202DC90F86B6056B980F86B30CD
:1075C00007E0002620F8666F8670C6700671467167
:1075D0006638F0BD10B5931CCB5C0B4C2478A342ED
:1075E00010D1D31CCB5C084C6478A3420AD1131D84
:1075F000CB5C054CA478A34204D190F89A305B1C74
:1076000080F89A3010BD0000F4AB01082DE9F84F66
:1076100006460D461746002000908246002480460C
:107620008146834600220221284600F0FDF80090A2
:1076300000984FEA1029009800F0FF0BE85D00F079
:107640001F00401E00F0FF0ABBEBCA0F03DD4FEA2C
:10765000CA604FEA106BBBF1000F78D0002474E0D1
:1076600009EB0401491C695C602912D1E11704EBA4
:107670005171C910A4EBC1020121914007EB08022E
:10768000921CAA5C114021B196F88900401C86F832
:10769000890009EB0401491C695C612913D1E117D8
:1076A00004EB5171C910A4EBC1020121914007EB19
:1076B0000802921CAA5C114029B18A20805D401CFE
:1076C000C1B28A20815509EB0401491C695C652916
:1076D00013D1E11704EB5171C910A4EBC1020121D0
:1076E000914007EB0802921CAA5C114029B18B2043
:1076F000805D401CC1B28B20815509EB0401491CFF
:10770000695C662913D1E11704EB5171C910A4EB30
:10771000C1020121914007EB0802921CAA5C1140B2
:1077200029B18C20805D401CC1B28C208155E117AD
:1077300004EB5171C910A4EBC101072903D108F171
:10774000010000F0FF08601CC4B25C4588DBBDE8A6
:10775000F88F70B5002400238D5C05F01F056D1EA9
:10776000ECB200BF2FE0D518AD1C4D5D602D05D1EA
:1077700090F889506D1C80F8895022E0D518AD1C16
:107780004D5D612D06D18A252D5C6D1CEEB28A25DA
:107790002E5416E0D518AD1C4D5D652D06D18B25F8
:1077A0002D5C6D1CEEB28B252E540AE0D518AD1C55
:1077B0004D5D662D05D18C252D5C6D1CEEB28C25A2
:1077C0002E545D1CEBB2A342CDDB70BD10B502465A
:1077D0000020002100BF04E0535C0344D8B24B1CDE
:1077E000D9B27F29F8DB0346C41700EB14642412D6
:1077F000A0EB0424644282F87F400020002106E0D0
:1078000001F18003D35C0344D8B24B1CD9B27F2969
:10781000F6DB0346C41700EB14642412A0EB042427
:10782000644282F8FF4010BDF0B503460C46154691
:1078300000220026002784215878FF2803D193F8DE
:107840008000022801D00020F0BD64E0585C00F008
:107850001F02585C4709A74256D1032C40D1E5B915
:10786000481C185CDFF8B8C09CF800C0604514D113
:10787000881C185CDFF8A8C09CF801C060450CD1DA
:10788000C81C185CDFF898C09CF802C0604504D1A1
:1078900002EB012086B23046D6E7012D1CD1481CF0
:1078A000185CDFF880C09CF800C0604514D1881CCB
:1078B000185CDFF870C09CF801C060450CD1C81C92
:1078C000185CDFF860C09CF802C0604504D102EB90
:1078D000012086B23046B7E78818401C81B21AE012
:1078E000072C0CD1481C185CA84204D102EB0120E3
:1078F00086B23046A8E78818401C81B20BE002EB44
:10790000012086B230469FE712B9002630469BE739
:107910008818401C81B2FD2998DD0026304693E787
:10792000EEAB0108F1AB01080146002000BF03E007
:1079300000220A54421CD0B21728F9DB002005E0CF
:10794000002301F117021354421CD0B20E28F7DBBA
:10795000002005E0002301F125021354421CD0B29F
:107960000E28F7DB002005E0002301F13302135459
:10797000421CD0B20E28F7DB002005E0002301F105
:1079800041021354421CD0B20E28F7DB002005E060
:10799000002301F14F021354421CD0B21028F7DB30
:1079A0000022603101F8012C0A804A808A80CA8056
:1079B0000A724A728A72CA726039002005E0002396
:1079C00001F16C021354421CD0B21628F7DB0020E0
:1079D00005E0002301F182021354421CD0B20728B3
:1079E000F7DB002005E0002301F189021354421C5B
:1079F000D0B20428F7DB002005E0002301F18D025E
:107A00001354421CD0B20428F7DB002005E0002309
:107A100001F191021354421CD0B20928F7DB002275
:107A200081F89A207047000070B504460025E08870
:107A3000001FB94A02EB002120460BF0B3FBB74808
:107A4000FFF772FFE088001FB34A02EB0021B34842
:107A5000FFF74AF8E088C11EB1A002F053FA00BF58
:107A600015E0E088001FAC4A02EB0020415DB2A0A7
:107A70000CF076FFE91705EB11710911A5EB011167
:107A80000F2902D1AEA00CF06BFF681C85B2FF2D50
:107A9000E7DDABA00CF064FFE088C01E012815D123
:107AA000012108460CF080F9A06B8089A54909885E
:107AB00088420BD0A06B808940B1A06B8089A1491E
:107AC0000880A14801790120FEF798FB9348B0F89F
:107AD000600050B99148B0F862009049A1F8600088
:107AE0000846B0F86200A1F864004FF48061A06B12
:107AF00001618A4890F86F00012805D1A06B0069E8
:107B000040F00101A06B0161844890F874000128E5
:107B100005D1A06B006940F00201A06B01617F48B4
:107B200090F87300012805D1A06B006940F01001A6
:107B3000A06B0161794890F86D00012805D1A06B18
:107B4000006940F00801A06B0161744890F86E0074
:107B5000012805D1A06B006940F00401A06B016110
:107B60006E48B0F86400B0F5167F05D1A06B0069CF
:107B700040F02001A06B01616848B0F86400B0F5E6
:107B8000E17F05DBA06B006940F04001A06B016163
:107B90006248B0F86400B0F5B97F05DBA06B0069FE
:107BA00040F08001A06B01615C48B0F86000B0F566
:107BB000967F05DBA06B006940F48071A06B0161CA
:107BC0005648B0F86000E12805DBA06B006940F47E
:107BD0000071A06B0161514890F88D0058B94F4871
:107BE00090F88E0038B94D4890F88F0018B94B487E
:107BF00090F8900028B1A06B006940F40061A06B80
:107C00000161464890F88900012805D1A06B006900
:107C100040F40051A06B0161404890F88A000128AF
:107C200005D1A06B006940F48041A06B01613B4825
:107C300090F88B00012805D1A06B006940F4004149
:107C4000A06B0161354890F88C00012805D1A06B2C
:107C5000006940F48031A06B0161304890F89100D8
:107C6000012805D1A06B006940F40031A06B0161CF
:107C70002A4890F89200012805D1A06B006940F4D1
:107C80008021A06B0161254890F89600012804D05E
:107C9000224890F89700012805D1A06B006940F4B4
:107CA0008011A06B01611D4890F89800012805D152
:107CB000A06B006940F40021A06B0161174890F8A7
:107CC0008200012805D1A06B006940F40011A06B6F
:107CD0000161124890F88300012805D1A06B00696A
:107CE00040F48001A06B01610C4890F85A00012813
:107CF00005D1A06B006940F08071A06B016107485D
:107D000090F85B00012805D1A06B006940F40001E8
:107D1000A06B0161002070BD7C100020E00E0020EF
:107D2000547820256420526561642045646964208C
:107D300053746172743A200025302E32782000008E
:107D40000D0A00008C0300208C00002010B50446B2
:107D5000E088411C02A00CF003FE002010BD0000D2
:107D60000952782025642047656E657261746564E8
:107D700020456469642053746172743A200D0A00CE
:107D80000122C1680A70704710B504460121606A7B
:107D9000017020460AF09FFC10BD10B50446012179
:107DA0006069017020460AF0D0FD10BD2DE9F04158
:107DB00005466C6B0026002700BF00BFE86800780E
:107DC000092875D2DFE800F0C5051237467F9CAC64
:107DD000BC000821E868017028460AF039FC2846F2
:107DE0000AF030FC28460AF014FCEBE0E07908B910
:107DF00001271FE0207860B10821E868017028465B
:107E00000AF026FC28460AF01DFC28460AF001FC70
:107E100010E0A079052801D001270BE0207A012885
:107E200005D1E07A18B10521E868017002E0284622
:107E30000AF08AFBC6E0E07A30B90221E8680170F6
:107E400028460AF081FB04E00921E868017001205E
:107E5000E070B7E0207878B128460AF0AFFD08213D
:107E6000E868017028460AF0F3FB28460AF0EAFBAE
:107E700028460AF0CEFB25E0E07A30B90221E86816
:107E8000017028460AF060FB1CE0207918B9052132
:107E9000E868017016E0A079052802D1207A01284F
:107EA00007D00621E868017028460AF0B2FB09E015
:107EB0004FE0A079052805D10721E8680170284620
:107EC0000BF094F87EE0E07A30B90221E8680170A6
:107ED00028460AF039FB12E0A079052802D1207A61
:107EE000012806D00621E868017028460AF091FBB7
:107EF00005E02079012802D10421E868017061E0E1
:107F0000E07948B1A079052806D10221E86801701E
:107F100028460AF019FB02E028460AF0B8FB51E0B7
:107F2000E07A30B90221E868017028460AF00CFBBB
:107F300005E00321E868017028460AF007FD41E0EA
:107F4000207828B90621E868017028460AF061FB0C
:107F500038E0207888B128460AF030FD0020E07033
:107F60000821E868017028460AF072FB28460AF0EA
:107F700069FB28460AF04DFB23E0A079052801D1D2
:107F8000E07970B928460AF019FD28460AF05AFB34
:107F90000020E0700621E868017028460AF039FBED
:107FA0000FE0207A28B1207A022802D0207A052812
:107FB00004D128460AF002FD012602E0E07A00B969
:107FC000012600BF00BF2FB10621E86801702846D6
:107FD0000AF01FFB3EB10020E0700221E86801704A
:107FE00028460AF0B1FABDE8F08100002DE9F84F0B
:107FF0000446A56B266C0027B846B946BA46BB4670
:108000000020009000BF00BF00BF00BF00BF009075
:10801000606A00780C2874D2DFE800F0730613174A
:108020003F4F787CAAC3D0EF0921606A01702046D7
:108030000AF06CFB20460AF054FB20460BF0C2F815
:10804000ADE10521606A0170A9E1287D01280CD00D
:108050000921606A017020460AF058FB20460AF0A8
:1080600040FB20460BF0AEF816E0A06B007A022829
:1080700010D1687A30B90421606A017020460BF093
:1080800077F809E0687A012801D1012704E04FF070
:10809000010B01E04FF0010B81E1287D01280BD09D
:1080A0000921606A017020460AF030FB20460AF080
:1080B00018FB20460BF086F871E1287D01280FD0CF
:1080C00020460BF0A3F80921606A017020460AF0EF
:1080D0001DFB20460AF005FB20460BF073F814E068
:1080E000A878012806D1287A052803D10B21606AD7
:1080F00001700AE0E088052804D120460AF0DAFF82
:1081000003E021E1204609F0C3FC48E10321606A55
:10811000017044E1287D012816D0287D022803D172
:1081200001202875804622E020460BF06FF80921D7
:10813000606A017020460AF0E9FA20460AF0D1FA96
:1081400020460BF03FF812E0307908B9B07A30B130
:108150000A21606A017020460AF0E6FF07E0A8786D
:1081600010B94FF0010802E020460BF00BF816E1C1
:10817000687D30B10621606A017020460AF098FAE5
:108180000EE0287D01280BD00921606A017020468D
:108190000AF0BCFA20460AF0A4FA20460BF012F8C6
:1081A000FDE0287D012806D10821606A0170204683
:1081B0000AF07AFA01E000202875F0E0287D012815
:1081C00016D0287D022803D101202875814633E08E
:1081D00020460BF01BF80921606A017020460AF066
:1081E00095FA20460AF07DFA20460AF0EBFF23E0DC
:1081F000A87818B94FF001091EE01EE0FDF702FF54
:1082000088B989480068406B407960B1307850B9CE
:10821000707A40B90B21606A0170F27AE088011F20
:1082200082A00CF09DFB20460BF01AF820460AF0C5
:10823000E3FE20460AF0A6FFB1E0287D012816D013
:10824000287D022803D10120287582467BE0204644
:108250000AF0DCFF0921606A017020460AF056FA34
:1082600020460AF03EFA20460AF0ACFF6BE0A879FF
:10827000052820DB3078012802D0707A01281AD135
:108280007078012806D10721606A017075A00CF092
:1082900067FB58E0707858B90A21606A017020467F
:1082A0000AF042FF75A00CF05BFB0020F0724AE080
:1082B0000120009047E05C480068406B407908BBB3
:1082C000A87905281EDB3078E0B9707AD0B97078CB
:1082D000012806D10721606A01706EA00CF040FBF6
:1082E00031E0707858B90A21606A017020460AF0BE
:1082F0001BFF6EA00CF034FB0020F07223E0012085
:10830000009020E0FDF77EFED8B947480068406B3A
:108310004079B0B13078A0B9707A90B9F07A03287A
:1083200009DAF07A401CF0720021204608F03CFB8C
:1083300020460AF047FFA879052804DB0020A87131
:1083400001E0012000902AE0A87848B120460AF018
:10835000AFF90B21606A01705AA00CF001FB1DE01F
:10836000287D01281AD0287D022808D101202875EF
:108370000C21606A017020460AF052FF0EE0204690
:108380000AF044FF0921606A017020460AF0BEF934
:1083900020460AF0A6F920460AF014FF00BF00BFED
:1083A000009868B1A87828B94FF0010A4CA00CF0E9
:1083B000D7FA05E020460AF053FF20460AF01CFEDB
:1083C000BBF1000F0BD0287A48B1687A012801D19F
:1083D000012704E0687A10B90521606A0170BAF1DA
:1083E000000F05D00C21606A017020460AF018FFCA
:1083F000B9F1000F05D00C21606A017020460AF027
:108400000FFFB8F1000F05D00C21606A0170204603
:108410000AF006FF2FB10221606A017020460AF0BF
:108420000FFFBDE8F88F000090030020202D2D2DB8
:10843000496E7075742048444350204F4E2C547838
:108440005B25645D204E6F7420537570706F72747D
:1084500020484443502C436865636B5B25645D0D85
:108460000A000000092B2B417646736D506C75672E
:108470005478486463700D0A00000000092B2B41FA
:108480007646736D506C75675478537461626C6591
:108490000D0A0000092D2D417646736D506C7567ED
:1084A0005478486463700D0A00000000092D2D41C6
:1084B0007646736D506C75675478537461626C6561
:1084C0000D0A000031417646736D506C7567547823
:1084D0005472616E736D6974566964656F0D0A003C
:1084E000092B2B3348646370456E61626C65640DC3
:1084F0000A0000002DE9F04105466C6B00260027BC
:10850000B04600BF00BF00BF68690078012806D0F0
:1085100002280BD003282AD0042864D14BE005217F
:108520006869017028460AF06CFA62E02078012838
:1085300006D105216869017028460AF062FA15E043
:10854000207908B9607808B9A07830B1032168694A
:10855000017028460AF0F2F908E02079012805D1D7
:1085600004216869017028460AF0DBF941E060786F
:1085700030B928460AF0DBF902216869017019E078
:108580002078012809D128460AF0D1F90521686927
:10859000017028460AF035FA0CE0207950B1A07835
:1085A00040B928460AF0C3F90421686901702846D9
:1085B0000AF0B7F91DE0207808B1012612E0A07892
:1085C00008B101270EE0207950B9607808B1012781
:1085D00008E0A07808B9012604E04FF0010801E0A6
:1085E0004FF0010805E0207810B902216869017098
:1085F00000BF00BFB8F1000F05D028460AF018FAF6
:1086000028460AF0B5F82FB10321686901702846A1
:108610000AF094F92EB105216869017028460AF024
:10862000F0F9BDE8F08100002DE9F04106460F4663
:1086300014461D464FF0000823462A463946304668
:10864000DFF810C0DCF800C0E04780464046BDE8D7
:10865000F0810000680300202DE9FF4F83B08346BE
:1086600091469A46DDF84080DDE9124600200290EE
:10867000306023466A465846DFF8B8C00499DCF8F3
:1086800000C0E04702901198012827D19DF8000012
:1086900000EA09008DF80000601EC4B21DF8040055
:1086A00000EA0A000DF80400C8EBC400C7B20025B8
:1086B0000AE01DF80510B940306808433060A7F1A2
:1086C0000800C7B2681CC5B2A542F2DB1DF8041051
:1086D00041FA08F130680843306026E09DF8000058
:1086E00000EA0A008DF80000601EC4B21DF8040004
:1086F00000EA09000DF80400C8EBC400C7B2254623
:108700000AE01DF80510B940306808433060A7F151
:108710000800C7B2681EC5B2002DF2DC9DF800103B
:1087200041FA08F1306808433060029807B0BDE8AC
:10873000F08F0000680300202DE9F04707468846C7
:1087400015461E46089C4FF000090123224641466B
:108750003846DFF818C0DCF800C0E04781462078D2
:108760002840304120704846BDE8F087680300206B
:108770002DE9F04106460F4614461D464FF000080D
:1087800023462A4639463046DFF810C0DCF800C0E0
:10879000E04780464046BDE8F08100006C030020C1
:1087A0002DE9FE4F82468B4690469946DDE90E47FD
:1087B0000C9E0020029023466A4659465046DFF838
:1087C000E8C0DCF800C0E04702900D98012834D1E1
:1087D0009DF8000020EA0800611EC6EBC10227FADE
:1087E00002F101EA080108438DF8000001250AE0C2
:1087F000601B401EC6EBC00027FA00F0C0B20DF8A7
:108800000500681CC5B2601EA842F1DC1DF800001E
:1088100020EA090007FA06F101EA09010843611E8E
:108820000DF8010023466A4659465046DFF87CC0E1
:10883000DCF800C0E047029033E09DF8000020EA39
:10884000090007FA06F101EA090108438DF8000062
:1088500001250AE0601B401EC6EBC00027FA00F0AD
:10886000C0B20DF80500681CC5B2601EA842F1DC5C
:108870001DF8000020EA0800611EC6EBC10227FABD
:1088800002F101EA08010843611E0DF801002346C8
:108890006A4659465046DFF814C0DCF800C0E0478D
:1088A00002900298BDE8FE8F680300206C03002050
:1088B0002DE9F8430746884614461D46089E4FF0AA
:1088C00000090096FF2C10D001236A464146384625
:1088D000DFF830C0DCF800C0E0479DF80000A0439E
:1088E00006FA05F121400843009001236A464146FB
:1088F0003846DFF814C0DCF800C0E047814648463F
:10890000BDE8F883680300206C0300202DE9F041E6
:1089100004460D46174698460026102D60D2DFE823
:1089200005F013145D5E1516222E2F34080C3958ED
:1089300057440121E06B017055E00221206C8170E9
:108940000021206CC1704EE04DE04CE04BE0E0882F
:10895000C11E27A00CF004F8A179C91EC8B20021DD
:108960000CF0D8F83FE0E088C11E2BA00BF0F8FF18
:10897000A179C91EC8B201210CF0CCF833E032E075
:10898000002108460CF05CF82DE0012100200CF0DD
:1089900057F828E0606B8079052805D02046FFF75E
:1089A000D5F90521606B81711DE0E08805280BD1A8
:1089B000A06B007A052802D00521A06B01724FF050
:1089C000FF31A06B016102E02046FFF72DF80AE0BD
:1089D00009E04FF0FF31A06B016104E003E002E029
:1089E0006FF0020600BF00BF3046BDE8F081000016
:1089F00041764576656E74506F7274446F776E532E
:108A0000747265616D446973636F6E6E65637465DE
:108A1000645B25645D0D0A0041764576656E745091
:108A20006F7274446F776E53747265616D436F6ECD
:108A30006E65637465645B25645D0D0A000000006B
:108A400010B503460020034C2360034C2160034C07
:108A5000226010BD5C03002060030020640300203E
:108A6000F0B5034600261C460D4608E020782F7816
:108A7000C01B061E00D004E0641C6D1C521E002AA0
:108A8000F4D800BFB0B2F0BD03465AB103B109B982
:108A90000020704704E0087818705B1C491C521EC7
:108AA000002AF8D10120F4E7034642B10BB90020B7
:108AB000704702E019705B1C521E002AFAD1012097
:108AC000F6E700002DE9F8430646002400250027BC
:108AD000A0463078012802D0201FBDE8F8832E4838
:108AE0000068406B0079012801D00020F5E72B4891
:108AF00000680079052806D12848016826480068E2
:108B000000F092F80446264800680079052806D14E
:108B1000234801682048006800F086F8054621488F
:108B20000368214802681D4801681B48006800F07E
:108B30005DF80746A7420FD074B121461BA00BF089
:108B40000FFF19480094036816480268134801682B
:108B50001148006800F0BCF8124803681248026827
:108B60000F4801680C48006800F040F88046A845AE
:108B70000FD075B1294615A00BF0F2FE0A480095FA
:108B8000036808480268064801680348006800F066
:108B90009FF80020A1E7000090030020940300202C
:108BA00098030020A0030020A4030020092A2A2AF9
:108BB0002A2A2A547841436F6E6E65637453747920
:108BC0006C653D5B25645D0D0A000000092A2A2AB8
:108BD0002A2A2A547842436F6E6E656374537479FF
:108BE0006C653D5B25645D0D0A00000030B50446F0
:108BF0000020CD6DA54201D1012014E0CD6D9D4234
:108C000006D1DD6DA54201D102200CE000200AE072
:108C1000CD6D954206D1D56DA54201D1032002E06C
:108C2000002000E0002030BD02460023107908B18A
:108C3000002070470879052809D1886B007A05283B
:108C400003D1886B007D012803D00020F1E70020CC
:108C5000EFE70123506C0089B0F5917F13DB506C76
:108C6000407803280FD118480078012803D1C8881C
:108C7000042800D1032315480078012803D1C888AF
:108C8000052800D10323506C0089B0F5917F19DBD2
:108C9000506C008BB0F5706F14DB506C408BB0F5EE
:108CA000076F0FDB08480078012803D1C888042823
:108CB00000D1032305480078012803D1C88805287E
:108CC00000D103231846B4E7890300208A0300205B
:108CD0002DE9F04704460D4616461F46DDF8209064
:108CE0004FF00008B9F1010F06D0B9F1020F18D00A
:108CF000B9F1030F53D133E0E86DA04206D04FF035
:108D00000108022229462046FDF7E0FBB8F1010FD9
:108D100006D1E888C21EE088411C22A001F0F2F8CA
:108D20003DE0F06DA04206D04FF001080022314630
:108D30002046FDF7CBFBE86DB04206D04FF00108AE
:108D4000002229463046FDF7C1FBB8F1010F06D1DC
:108D5000E888C21EE088411C18A001F0D3F81EE08C
:108D6000F86DA04206D04FF0010800223946204697
:108D7000FDF7ACFBE86DB84206D04FF001080022C9
:108D800029463846FDF7A2FBB8F1010F06D1E88865
:108D9000C21EE088411C10A001F0B4F800BF00BF63
:108DA000BDE8F0874E657720526F7574653A2052A2
:108DB0007825642D54782564000000004E657720E6
:108DC000526F7574653A20527825642D436F6C6F2D
:108DD000722D5478256400004E657720526F7574AB
:108DE000653A20527825642D5363616C65722D5469
:108DF000782564002DE9F04104460D46002724F053
:108E000003060E4800682044B0F50E7F0DD20C48D2
:108E10000A49096808442860B44200D0341D074854
:108E2000006820440549086005E006A001F06AF8E2
:108E300000BF00BFFEE73846BDE8F0818403002094
:108E4000A80C00204552524F523A20676C6F626165
:108E50006C20737461746963206275666665722044
:108E60006578686175737465642E00007CB505468D
:108E700000200190FF26AC6EA4B1207970B9606B20
:108E8000407B00B90EE0A06C407A012802D0A06CB3
:108E9000407A08B9002605E0EF2603E0207905288E
:108EA00000D1EF26A86C8079012800D1FF26E88840
:108EB000082814D101A80023FF229D2100904FF41F
:108EC000D830FFF739FC9DF80400864207D0002314
:108ED000FF229D214FF4D8300096FFF7E9FC0020D7
:108EE0007CBD000001B596B0002015901490139041
:108EF000129042201190109000200F900E9006903A
:108F0000FE4841681698814202D11698406EC8B951
:108F100015A80023072201210090F948FFF70CFC57
:108F20009DF8540018B19DF85400012807D1042081
:108F30000023072201210090F148FFF7B9FC00202F
:108F400017B000BD15A80023FF2266210090EC4851
:108F50001130FFF7F1FB1698006D40789DF8541022
:108F600088420AD01698006D40780023FF226621BF
:108F70000090E3481130FFF79BFC15A8032308225B
:108F800001210090DE48FFF7D7FB1698006D80782E
:108F900030B91698006D007910B10020139001E0EF
:108FA000012013909DF854101398814207D0139814
:108FB0000323082201210090D148FFF779FC139880
:108FC00000287ED11698006DC078059006F024FF29
:108FD00011901698006D4079059006F01DFF1090D5
:108FE000C8480D9000200F9018E0C7480F9910F85E
:108FF0003110119881420ED1C3480F9900EBC10086
:1090000041781098814206D1BF480F9900EBC1000A
:1090100040680D9009E00F98401C0F90BA480F99D6
:1090200000EBC10040680028DFD100BFB6480F99AF
:1090300000EBC1004078FF280BD19DF85400E8BB3D
:1090400001200323082201460090AD48FFF730FCC1
:1090500037E007AB1822AD49A9481130FFF7E4FA11
:10906000002013900F900DE007A80F99415C0F9A14
:109070000D98805C814202D00120139005E00F988A
:10908000401C0F900F981828EED300BF13980128AA
:1090900017D118229D499A4811300D9BFFF768FBA4
:1090A0000D980078C0F3411015909DF854000023EE
:1090B0000322382100909248113000E001E0FFF7D0
:1090C000F7FB15A800230722012100908C48FFF729
:1090D00033FB1698006D0079032807D11698006DB0
:1090E0008078032802D0012013900EE01698006DBE
:1090F0000079032807D01698006D8078032802D1E4
:109100000020139001E0042013909DF85410139850
:10911000814207D01398002307220121009078484C
:10912000FFF7C6FB15A8042370227821009074482D
:109130001130FFF701FB14A80023072278210090CB
:109140006F481130FFF7F8FA00201390129016982C
:10915000006D0079032807D11698006D80780328E8
:1091600002D0032012900BE01698006D00790328BE
:1091700006D01698006D8078032801D10420139042
:109180009DF854101398814204D19DF85010129804
:10919000814211D0139804237022782100905848FE
:1091A0001130FFF785FB12980023072278210090E9
:1091B00053481130FFF77CFB1698006D00790328A7
:1091C00004D11698006D8078032809D11698006D97
:1091D0000079032807D01698006D8078032802D103
:1091E0000120139001E00020139000200F900DE06B
:1091F0001698006D407846490F9A895C884202D1E2
:109200000020139007E00F98401C0F9040480F99E2
:10921000405CFF28ECD100BF15A800230122682183
:10922000009037481130FFF787FA9DF854101398D3
:10923000814208D013980023012268210090304811
:109240001130FFF735FB1698C06D06901398012872
:109250007ED1069800790028FAD1069890F974001A
:10926000401C002874D0069806F0DAFA05900FA882
:10927000022101220023CDE90032CDE90210FF23B3
:109280001F22224914390598FFF7E6F90EA802219A
:1092900001220023CDE90032CDE90210FF231F2275
:1092A0001A49343116481130FFF7D6F9DDE90E01BD
:1092B00088420FD00221012200230F98CDE900320D
:1092C000CDE90210FF231F22104934310C48113020
:1092D000FFF766FA069806F0A3FA05900FA8022198
:1092E00001220023CDE90032CDE90210FF233F2205
:1092F0000649891D0598FFF7AFF90BE0580C0020CF
:1093000001B00100F4A3010864A6010820000800D0
:10931000C5A801080EA8022101220023CDE90032D0
:10932000CDE90210FF231F22EA49EB48FFF794F929
:10933000DDE90E0188420FD00221012200230F989F
:10934000CDE90032CDE90210FF231F22E14900E000
:10935000BDE1E148FFF724FA069806F061FA0590AE
:109360000FA8022101220023CDE90032CDE902102D
:10937000FF231F22D7492A390598FFF76DF90EA858
:10938000022101220023CDE90032CDE90210FF23A2
:109390001F22D049091DD048FFF75EF9DDE90E0113
:1093A00088420ED00221012200230F98CDE900321D
:1093B000CDE90210FF231F22C649091DC648FFF749
:1093C000EFF9069806F02CFA05900FA80221012269
:1093D0000023CDE90032CDE90210FF231F22BD4951
:1093E00028390598FFF738F90EA802210122002339
:1093F000CDE90032CDE90210FF231F22B549891DB6
:10940000B548FFF729F9DDE90E0188420ED00221A7
:10941000012200230F98CDE90032CDE90210FF238D
:109420001F22AC49891DAC48FFF7BAF9069806F02F
:10943000F7F905900FA8022101220023CDE900329F
:10944000CDE90210FF231F22A24926390598FFF714
:1094500003F90EA8022101220023CDE90032CDE953
:109460000210FF231F229B4908319B48FFF7F4F8A5
:10947000DDE90E0188420ED00221012200230F985F
:10948000CDE90032CDE90210FF231F2291490831B6
:109490009148FFF785F9069806F0C2F905900FA8E4
:1094A000022101220023CDE90032CDE90210FF2381
:1094B0003F22884924390598FFF7CEF80F984008D5
:1094C0000F900EA8022101220023CDE90032CDE940
:1094D0000210FF231F227F490A317F48FFF7BCF8A3
:1094E000DDE90E0188420ED00221012200230F98EF
:1094F000CDE90032CDE90210FF231F2275490A3160
:109500007548FFF74DF9069806F08AF905900FA8FF
:10951000022101220023CDE90032CDE90210FF2310
:109520001F226C4944390598FFF796F80EA80221CE
:1095300001220023CDE90032CDE90210FF231F22D2
:1095400064490C316448FFF787F8DDE90E01884271
:109550000ED00221012200230F98CDE90032CDE97F
:109560000210FF231F225B490C315B48FFF718F9FB
:10957000069806F055F905900FA802210122002354
:10958000CDE90032CDE90210FF233F2251492039B5
:109590000598FFF761F80F9840080F900EA8022178
:1095A00001220023CDE90032CDE90210FF231F2262
:1095B00048490E314848FFF74FF8DDE90E0188426F
:1095C0000ED00221012200230F98CDE90032CDE90F
:1095D0000210FF231F223F490E313F48FFF7E0F8FA
:1095E000069806F01DF905900FA80221012200231C
:1095F000CDE90032CDE90210FF233F2235491C3965
:109600000598FFF729F80F9840080F900EA802213F
:1096100001220023CDE90032CDE90210FF231F22F1
:109620002C4910312C48FFF717F8DDE90E0188426C
:109630000ED00221012200230F98CDE90032CDE99E
:109640000210FF231F22234910312348FFF7A8F8F7
:10965000069806F0E5F805900FA8022101220023E4
:10966000CDE90032CDE90210FF233F221949183914
:109670000598FEF7F1FF0F9800F0010010B10F9868
:10968000401C0F900F9840080F900EA80221012255
:109690000023CDE90032CDE90210FF231F220D493E
:1096A00012310D48FEF7D8FFDDE90E0188420ED0D9
:1096B0000221012200230F98CDE90032CDE90210EA
:1096C000FF231F22034912310348FFF769F80020E6
:1096D00036E400005200080012B0010001460020EC
:1096E00070470000FEB5044600200290002501905E
:1096F000002600277F484068A04201D1606EC8B9AB
:1097000002A800230722012100907B48FFF714F8EC
:109710009DF80800022803D09DF80800032807D10F
:10972000042000230722012100907348FFF7C0F8AE
:109730000020FEBD02A803230822012100906E48EC
:10974000FEF7FAFF9DF8080038B90120032308222C
:10975000014600906848FFF7ABF8E06C40785D3850
:109760000F283DD2DFE800F00827182C120D321D1B
:1097700037223C3C3C2D13005D272021E06C81709A
:109780003CE062272021E06C817037E000BF612758
:109790001021E06C817031E05F272221E06C817044
:1097A0002CE064272221E06C817027E066271021DD
:1097B000E06C817022E05E272121E06C81701DE069
:1097C00000BF60271F21E06C817017E06327212113
:1097D000E06C817012E065271F21E06C81700DE064
:1097E00000200346FF226621009043481130FFF716
:1097F0005FF80021E06C8170481E9AE700BF02A864
:109800000023FF22662100903B481130FEF794FFB1
:109810009DF80800B84219D00023FF22662136487F
:1098200011300097FFF744F8002003460122682119
:10983000009031481130FFF73BF80020012302224D
:10984000682100902C481130FFF732F802A800235D
:109850000722012100902848FEF76EFFE06CC078D7
:10986000032801D1022501E0032500BF00BF9DF8B8
:109870000800A84206D00023072201211E480095B7
:10988000FFF716F802A804237022782100901A48E6
:109890001130FEF751FF01A8002307227821009024
:1098A00015481130FEF748FFE06CC078032802D15C
:1098B0000425002602E00025002600BF00BF9DF819
:1098C0000800A84203D19DF80400B0420FD0042341
:1098D00070227821084811300095FEF7E9FF002337
:1098E00007227821044811300096FEF7E1FF00209E
:1098F0001FE70000580C002001B001002DE9F84FCF
:1099000005460C464FF00009C846C246002600270F
:10991000E088042802D0E08805281CD1A06B80795B
:10992000052803DD0221A06B017502E00021A06B78
:109930008171E3480068A84208D0287930B9E0482E
:10994000006818B1DE49086800F0BEF90021204621
:1099500007F02AF83BE0E088142802D0E0881828B5
:1099600035D1E088142802D0182806D102E04FF043
:10997000180802E04FF0140800BF00BF206890F8FC
:1099800001A0206886681DE0F088404504D10021D0
:10999000F1657166316614E0F76D27B1F8884045CE
:1099A00001D10021F165776E27B1F888404501D1DA
:1099B00000217166376E27B1F888404501D100213A
:1099C0003166B66F1EB1306840785045DCD0E08813
:1099D000042802D0E088052811D1287910B9002088
:1099E00085F874000021A06B8170606CC183A06C4D
:1099F000818000224EF27E71204603F06FFBE088EA
:109A00000A2874D006DC042809D0052865D0082867
:109A100062D1C2E014286BD01828F9D118E1E88887
:109A20000B2833D005DC58B101280AD00A2852D1BE
:109A300022E0142834D018283BD01C284BD141E018
:109A400000BFA87904237022012100904FF4D83080
:109A5000FEF72EFF01200423F022082100904FF48E
:109A6000D830FEF725FF002003460722052100908D
:109A70009448FEF71DFF2EE005200423F022082164
:109A800000904FF4D830FEF713FF24E006200423A3
:109A9000F022082100904FF4D830FEF709FF1AE0B9
:109AA000022000230722052100908648FEF700FFD0
:109AB00011E0022000230722052100908148FEF7D3
:109AC000F7FE08E0042000230722052100907D48CE
:109AD000FEF7EEFE00BF00BFE1E0E8880B2835D0BE
