:020000040800F2
:104000005824002065410008952E01088509010803
:10401000912E0108D7E00008093F010800000000C8
:10402000000000000000000000000000013B01084B
:1040300061E2000800000000C12F0108113D0108E5
:104040007F4100087F4100087F4100087F41000850
:104050007F4100087F4100087F4100087F41000840
:104060007F4100087F4100087F4100087F41000830
:104070007F4100087F4100087F4100087F41000820
:104080007F4100087F4100087F4100087F41000810
:104090007F4100087F4100087F4100087F41000800
:1040A0007F410008753D01087F4100087F410008FD
:1040B0007F4100087F4100087F4100087F410008E0
:1040C0007F4100087F4100087F4100087F410008D0
:1040D0007F410008C93D01087F4100087F41000879
:1040E0007F4100087F410008593E01087F410008D8
:1040F0007F4100087F4100087F4100080000000068
:104100007F410008000000007F4100087F41000857
:104110007F4100087F4100087F4100087F4100087F
:104120007F4100087F4100087F4100087F4100086F
:104130007F41000800000000000000007F410008EF
:104140007F4100087F4100087F410008493E010887
:10415000DFF80CD000F062FB00480047195001085E
:10416000582400200648804706480047FEE7FEE73F
:10417000FEE7FEE7FEE7FEE7FEE7FEE7FEE7FEE717
:104180001D3D01085141000840EA01039B0703D08F
:1041900009E008C9121F08C0042AFAD203E011F886
:1041A000013B00F8013B521EF9D27047D2B201E048
:1041B00000F8012B491EFBD270470022F6E710B52C
:1041C00013460A4604461946FFF7F0FF204610BD85
:1041D000421C10F8011B0029FBD1801A704710B552
:1041E000002200E0521C835C8C5CA34201D1002BB6
:1041F000F8D1D8B2E1B2401A10BD30B50446002063
:10420000034600E05B1C934203D2E05CCD5C401BA4
:10421000F8D030BD0FB400B58DB010A909900B9047
:1042200000914FF0FF300A9000200C900548069056
:10423000054807906A4609A80F9900F009F90DB0E2
:104240005DF814FB6D4400088B4400082DE9FF5F06
:104250001D464FF0FF3BD5E9014691465F464FF0C2
:104260000008A9697F1C01988847296A8246884707
:104270000028F6D1BAF1FF3F0CD024F4C064002E20
:1042800019DD600614D5BAF12B0F09D0BAF12D0F44
:104290000ED103E0584604B0BDE8F09F44F48064BA
:1042A000A9697F1C01988847761E8246002E02DD90
:1042B000BAF1300F03D0B9F1000F26D032E0A9696E
:1042C000761E44F400747F1C019888478246002EB5
:1042D00005DDBAF1780F06D0BAF1580F03D0B9F165
:1042E000000F10D01EE0B9F1000F02D0B9F1100F8D
:1042F00018D1A969761E24F400747F1C01988847A0
:104300008246102002E0082000E00A20814609E0F1
:1043100008FB0908A969761E44F400747F1C019803
:1043200088478246002E05DD4946504600F07BF85E
:104330000028EDDAE96901988847A00502D46FF0FA
:104340000100A8E7E00725D1600613D5600502D576
:10435000C8F1000000E0404629680A1D2A6009688B
:10436000220501D5087015E0220701D5088011E06B
:1043700008600FE02868011D29600068210502D54A
:1043800080F8008006E0210702D5A0F8008001E057
:10439000C0F8008038467EE730B50B460146002065
:1043A0002022012409E021FA02F59D4205D303FAF7
:1043B00002F5491B04FA02F52844151EA2F1010278
:1043C000F1DC30BD2DE9F05F0546002092469B46AA
:1043D00088460646814640241BE02846414647461B
:1043E000224600F03CFA53465A46C01A914110D377
:1043F00011461846224600F023FA2D1A67EB0108F1
:104400004F4622460120002100F01AFA17EB00095E
:104410004E41201EA4F10104DFDC484631462A4605
:104420004346BDE8F09F3A2800D2303820F0200201
:10443000412A01D3A2F13700884201D34FF0FF3067
:1044400070470000026811441378016018467047F5
:10445000D160044951610449116200211161114682
:1044600000F024BA45440008A3480008426842B15D
:10447000016811F8013B23B1521EC0E90012184631
:1044800070470121C160881E704742685AB1C368F5
:10449000016843B983688B4205D0491E521CC0E9AC
:1044A0000012002070474FF0FF3070472DE9FE4F9B
:1044B000804681EA0300C00F0C46009021F00041C5
:1044C00023F00045B8EB0200A94105D24046214641
:1044D00090461C460B46024623F00040104347D04E
:1044E000270DC7F30A00C3F30A510290401A019046
:1044F00040286BDAC3F3130040F4801B0098924607
:1045000020B10023D2EB030A63EB0B0B0198594651
:10451000C0F14002504600F093F906460D46504661
:104520005946019A00F0ABF910EB080061410024F4
:1045300087EA115284EAE7731A4340D0009A62B3C3
:10454000019A012A4FEA075215DC001B61EB0201B8
:104550004FF0004202EA0752CDE90042001C41F54B
:10456000801132462B4600F046FB03B0BDE8F08FC9
:1045700040462146F9E7001B61EB0201001C41F5B2
:10458000801300185B412018A2F5001747EB0301C8
:1045900040EAD570B6196D4111E06D084FEA360654
:1045A00045EAC0754FEA0752001B61EB0201001C8F
:1045B00041F5801149084FEA300000195141324657
:1045C0002B4603B0BDE8F04F00F006BB0098012277
:1045D00040000023D0EB020263EBE0730098214619
:1045E0004FEAE074B8EB000061EB0401E9E783F007
:1045F00000435BE781F0004158E72DE9FE4F81EA77
:10460000030404F0004421F0004100944FF0000B3B
:1046100023F0004350EA01045ED052EA03045BD069
:10462000C3F30A54C1F30A552C44A4F2F3340194A1
:10463000A0FB0254C1F3130141F48011C3F313032F
:1046400043F4801301FB024400FB034E840A970AE3
:1046500044EA815447EA8357A4FB076802958D0A10
:1046600005FB07854FEA932C04FB0C542705029D9C
:104670004FEA065847EA1637B5EB08056EEB070C0C
:10468000870E920E47EA811742EA8312A7FB0201C6
:10469000B6EB0B0164EB00042B0D43EA0C335E1800
:1046A00044EB1C50DA465146E7FB0201C5F3130404
:1046B0004FEA0B3343EA14534FEA0432019C43EAB6
:1046C0000603A4F10C040294009CCDE900B400F0B0
:1046D00092FA03B0BDE8F08F00200146F9E72DE91A
:1046E000F04D81EA030404F0004B21F0004514462C
:1046F0004FF0000A23F0004150EA050220D054EAAE
:1047000001021DD0C5F30A570246C5F31303C1F3D6
:104710001300C1F30A5640F4801543F48013A7EB4D
:104720000608101BD64608F2FD3873EB050002D3CD
:1047300008F1010801E092185B41B8F1000F03DABB
:1047400000200146BDE8F08D00204FF480110646A0
:1047500084460EE0171B73EB050705D3121B63EBB2
:10476000050306434CEA010C49084FEA3000921851
:104770005B4150EA0107EDD152EA030012D082EA10
:10478000040083EA0501084305D0101BAB4106D2A3
:104790000122002306E000224FF0004302E06FF008
:1047A000010253101AEB06004CEB085110EB0A0003
:1047B00041EB0B01BDE8F04D00F00EBAC1F30A5217
:1047C000C1F3130140F2FF3341F480119A4202DA3F
:1047D00000200146704740F233439A42A2F233422E
:1047E00002DC524200F03BB800F02AB830B5041E9B
:1047F00071F1000404DB4FF00044404264EB01011E
:10480000141E73F1000405DB1C464FF000435242B6
:1048100063EB0403994208BF904230BD064C074D3C
:1048200006E0E06840F0010394E807009847103480
:10483000AC42F6D3FFF790FC909E0108B09E0108B1
:10484000202A04DB203A00FA02F100207047914050
:10485000C2F1200320FA03F3194390407047202A45
:1048600004DB203A21FA02F00021704721FA02F31A
:10487000D040C2F120029140084319467047202AD7
:1048800006DBCB17203A41FA02F043EAE07306E078
:1048900041FA02F3D040C2F1200291400843194688
:1048A0007047C0B24FF4F05100F0F4B92DE9F34F66
:1048B0008BB04FF0000801F10C000C464FF0010BDB
:1048C00046460DF1080A019062690121019890475E
:1048D000051E2DD0252D2CD0216A8847C0B16269D4
:1048E000012101989047216A88470028F7D1411E8D
:1048F00062690198904700E0761CA1690B9888478F
:10490000216A88470028F7D1E1690B988847DBE7DF
:10491000A1690B9888470746A84201D1761CD3E7C6
:10492000E1690B9888477F1C02D1B8F1000F6FD066
:1049300046E1002762693D463946019890472A289A
:1049400004D162690121019890470125DFF8849222
:104950006269012101989047A0F130010A290AD229
:104960004F45E5DC07EB870100EB4107303FDFD423
:1049700045F01005ECE7E90601D46FF000476C281C
:104980000AD04C2814D0682815D06A280DD0742875
:104990001CD07A281AD01DE0626901210198904745
:1049A0006C2802D045F0040514E045F002050DE046
:1049B00045F020050AE062690121019890476828C6
:1049C00002D045F0080505E045F400656269012163
:1049D00001989047C4E9015765283DD019DC582853
:1049E0007AD00CDC452837D004DC252826D0412895
:1049F00031D131E046282FD047282CD12CE05B283C
:104A000077D0612828D063287CD0642823D15AE04D
:104A1000D0E06F2848D008DC66281DD067281BD05E
:104A2000692821D06E2816D127E0702845D0732838
:104A300068D0752847D078280DD14DE0A1690B9832
:104A40008847054625283FF469AFE1690B988847F8
:104A50006D1C3FF46AAFB3E023466A466FF0010075
:104A60000B99AFF300809EE045F040006060A8071E
:104A700023464FF0000236D43EE0E8077FF447AF0C
:104A80002068011D21600068290501D506701BE71B
:104A9000290701D5068017E7A90703D5F117C0E953
:104AA000006111E706600FE745F040006060A8076D
:104AB00023464FF0080216D41EE040F60E0125EA08
:104AC0000100606016E045F040006060A8072346E2
:104AD0004FF00A0207D40FE045F040006060A807DD
:104AE00008D5234610226FF001000B99AFF3008028
:104AF00059E007E0234610226FF001000B99FFF701
:104B0000A5FB50E04FF000094F464B46632802D00A
:104B10005B2806D040E0E80601D40120A060012710
:104B20003AE062690121019890475E2805D14FF073
:104B300001096269494601989047216939B9002104
:104B40000A46534643F82120491C0829FADBB0B332
:104B5000216969B9C11700EBD16253110AEB8301D6
:104B600022F01F02821A01200B68904003430B6061
:104B700062690121019890475D28E8D1B9F1000FE1
:104B800009D00020514651F82020D24341F820207E
:104B9000401C0828F7DB02AB224600976FF00100AB
:104BA0000B99AFF3008000280CDA401C08D1BBF150
:104BB000000F05D04FF0FF300DB0BDE8F08FFFE7DC
:104BC0004046F9E7E90701D108F1010806444FF032
:104BD000000B79E6CCCCCC0C10B5141E73F100049C
:104BE00008DA401C41F1000192185B411A4301D1DF
:104BF00020F0010010BD2DE9F04D92469B4611B109
:104C0000B1FA81F202E0B0FA80F220329046FFF76A
:104C100017FE04460F4640EA0A0041EA0B015346DC
:104C20005A46084313D0114653EA010019D0C8F17F
:104C300040025046FFF713FE05460E4650465946C1
:104C40004246FFF7FDFD084305D0012004E0204661
:104C50003946BDE8F08D0020054346EAE0762C4356
:104C600037430A986305E40AA0EB08000022FD0A16
:104C700044EA47540A3002D500200146E9E701051D
:104C800010196941DDE9084500196941BDE8F04D99
:104C9000A2E700007F2801D9002208E0064A02EBC3
:104CA0005002C007127800D1120902F00F02012051
:104CB0009040084070470000AE9C010870B58C1809
:104CC00010F8015B15F0070301D110F8013B2A1120
:104CD00006D110F8012B03E010F8016B01F8016B0D
:104CE0005B1EF9D12B0705D40023521E0DD401F809
:104CF000013BFAE710F8013BCB1A921C03E013F8D2
:104D0000015B01F8015B521EF9D5A142D8D3002006
:104D100070BD000010B5044601A00FF0D9F810BD19
:104D2000434D44204552520D0A0000002DE9F04148
:104D300006464FF000080122F5A1F64801F04AF9B5
:104D4000A8BBF54AF5A1F348FFF764FAF14880786B
:104D500030280EDBEF48807839280ADCF0480068FC
:104D6000042806D33D22EB49C91CC81EFFF70CFAE4
:104D700016E0E848407830280EDBE64840783928CD
:104D80000ADCE7480068032806D33E22E149891C73
:104D9000881EFFF7F9F903E04FF6FF70BDE8F081D8
:104DA000DF480068001FDF490860012501E0FFE7D8
:104DB000002585B1D848006808B9032413E0DA4813
:104DC0000078D5490968884201D101240BE002240A
:104DD0004FF6FF70E2E7D448007818B102244FF68E
:104DE000FF70DBE7002400F09DFA0422CFA1C94840
:104DF00001F0F0F820B9304600F0ACFA0020CDE721
:104E00000622CCA1C34801F0E5F820B9304600F0F5
:104E100087FF0020C2E70322C8A1BE4801F0DAF8EC
:104E200000287CD10222C6A1BA48C01C01F0D2F8E9
:104E3000002839D10422C3A1B648801D01F0CAF868
:104E400030B10422BFA1B348C01D01F0C3F858BB64
:104E5000BE4BBF4ABFA1AF48FFF7DCF9BC480068B2
:104E6000012804D03046FFF755FF012096E700BF28
:104E7000B64800681F2804D93046FFF74BFF0120D1
:104E80008CE7B2480368B248B6A10268B9480FF08F
:104E90003DF8B84800F0EEF9AC4A1178AC4A107809
:104EA00001F096FA002079E70422B3A19948C01CCA
:104EB00001F090F8E0B9A64AB1A19648FFF7AAF927
:104EC000A3480068632804D93046FFF723FF012078
:104ED00064E79F48ADA10268A6480FF017F8A548FF
:104EE00000F0C8F99A49087801F04CFB002055E71A
:104EF0000322A9A18748C01C01F06CF860BB032203
:104F0000A6A18448801D01F065F860B9A4A1994864
:104F10000EF0FCFF974800F0ADF9012000E034E00E
:104F200001F090F816E004229FA17A48801D01F05C
:104F300051F850B99EA18F480EF0E8FF8D4800F05F
:104F400099F9002001F07EF804E03046FFF7E2FE18
:104F5000012023E7002021E7042297A16D48C01C0F
:104F600001F038F850B996A182480EF0CFFF814881
:104F700000F080F901F0FCFA00200FE740216548BD
:104F8000FFF71BF94FF6FF7008E703228DA1614878
:104F900001F020F800287BD1022269A15D48C01CE5
:104FA00001F018F830B9072287A15A48801D01F096
:104FB00011F830B1072284A15648C01D01F00AF84B
:104FC000F0B9634A82A15348FFF724F960480068AA
:104FD000012804D03046FFF79DFE0120DEE65C4844
:104FE0000068401E7E490B5C59487EA102686148FA
:104FF0000EF08CFF31465F4800F04CF90020CDE602
:1050000002224FA14348C01C00F0E4FF30B9052242
:1050100078A14048801D00F0DDFF30B1052275A168
:105020003C48C01D00F0D6FFF8B9494A73A1394881
:10503000FFF7F0F846480068012804D03046FFF733
:1050400069FE0120AAE642480068401E3649091D53
:105050000B5C3F4843A1026846480EF057FF3146BB
:10506000444800F017F9002098E6052266A1294877
:10507000C01C00F0AFFF60B92B48027843A13D4847
:105080000EF044FF31463B4800F004F9002085E66D
:10509000E7E007225EA11F48C01C00F09BFF58B943
:1050A000062302225CA133480EF030FF314631481E
:1050B00000F0F0F8002071E608225CA11548C01C41
:1050C00000F088FF50B95CA25DA12A480EF01EFFD7
:1050D0003146284800F0DEF800205FE6042259A19E
:1050E0000C48C01C00F076FF88B900F0A5FF08B19D
:1050F0002CA000E02FA007463A4654A11D480EF010
:1051000005FF31461B4800F0C5F8002046E6A1E047
:1051100041000000700800207C0000204125640050
:10512000840000208000002089000020455A480D9E
:1051300000000000455A5354410D0000455A5300E9
:10514000494E00004544494400000000680000202A
:1051500064000020455A53494E256445444944257E
:1051600064000000494E25642045444944202564DC
:1051700000000000F00500204144445200000000FF
:10518000455A53414444522564000000414444526E
:105190002025302E3264000043415300454E0D005F
:1051A00043415320454E00004449530D0000000088
:1051B00043415320444953005253540D0000000012
:1051C00052535400455A47005349475354410D0028
:1051D000455A47494E2564534947535441000000FE
:1051E00094000020494E25642053494720535441E0
:1051F00020256400454449440D000000455A4749B4
:105200004E25644544494400414444520D00000089
:10521000564552494E460D004D41494E204D43558D
:10522000205625642E252E32640000005459504526
:10523000494E460D000000005350313248480000EE
:10524000257300004341530D0000000043415320EB
:105250002573000040210648FEF7AFFF4FF6FF70B0
:105260009CE540210248FEF7A8FF4FF6FF7095E548
:105270007008002010B50446224604A100200EF05C
:1052800021FC214601A00EF023FE10BD25730D0A5E
:105290000000000070B504460D46224604A12846D1
:1052A0000EF010FC214602A00EF012FE70BD0000B0
:1052B00025730D0A0000000070B506460024002585
:1052C00040211548FEF779FF00BF1EE01348005D3E
:1052D000202800D117E01148005D61280CDB0F4841
:1052E000005D7A2808DC0D48005D2038C2B22846EF
:1052F0006D1C09490A5405E00848025D28466D1CEA
:1053000005490A5400BF601C84B2B442DED304488D
:105310000560AD1E70BD000070080020CE0A0020A0
:10532000840000204FF6FF700549086005490860B9
:105330000549086005490860054908607047000094
:1053400064000020680000206C0000207000002035
:105350007400002010B504463BA00EF0B9FD0220F9
:105360000FF04CFB48A00EF0B3FD02200FF046FBFF
:1053700035A00EF0ADFD02200FF040FB5248017841
:105380000623022251480EF0A3FD02200FF036FB47
:105390004FA00EF09DFD02200FF030FB5CA00EF040
:1053A00097FD02200FF02AFB69A00EF091FD02206C
:1053B0000FF024FB76A00EF08BFD02200FF01EFBF9
:1053C00083A00EF085FD02200FF018FB90A00EF0D8
:1053D0007FFD02200FF012FB9DA00EF079FD022050
:1053E0000FF00CFBAAA00EF073FD02200FF006FBDD
:1053F000B7A00EF06DFD02200FF000FBC4A00EF070
:1054000067FD02200FF0FAFAD1A00EF061FD022034
:105410000FF0F4FA2EA00EF05BFD02200FF0EEFA72
:10542000DBA00EF055FD02200FF0E8FAE8A00EF028
:105430004FFD02200FF0E2FAF5A00EF049FD022028
:105440000FF0DCFA04E200003D3D3D3D3D3D3D3DB9
:105450003D3D3D3D3D3D3D3D3D3D3D3D3D3D3D3D7C
:105460003D3D3D3D3D3D3D3D3D3D3D3D3D3D3D3D6C
:105470003D3D3D3D3D3D3D3D3D3D3D3D3D3D3D3D5C
:105480003D3D3D3D0D0A00003D3D202020202020D7
:10549000202020202020202020202020202020200C
:1054A0002020202053797374656D732048454C503B
:1054B00020202020202020202020202020202020EC
:1054C00020203D3D0D0A000089000020F09C0108CD
:1054D0003D3D2D2D2D2D2D2D2D2D2D2D2D2D2D2DDC
:1054E0002D2D2D2D2D2D2D2D2D2D2D2D2D2D2D2DEC
:1054F0002D2D2D2D2D2D2D2D2D2D2D2D2D2D2D2DDC
:105500002D2D2D2D2D2D2D2D2D2D3D3D0D0A000048
:105510003D3D2053797374656D20436F6E74726FD7
:105520006C20536574757020436F6D6D616E64738C
:105530003A20202020202020202020202020202051
:10554000202020202020202020203D3D0D0A00008A
:105550003D3D20455A48202020202020202020208A
:10556000202020202020202020203A2048656C7018
:10557000202020202020202020202020202020202B
:10558000202020202020202020203D3D0D0A00004A
:105590003D3D20455A5354412020202020202020EA
:1055A000202020202020202020203A2053686F77C0
:1055B00020476C6F62616C2053797374656D205362
:1055C000746174757320202020203D3D0D0A000079
:1055D0003D3D20455A5320414444522078782020B4
:1055E00020202020202020203A2053657420537949
:1055F0007374656D204164647265737320746F20E9
:10560000787820202020202020203D3D0D0A000019
:105610003D3D202020202020202020202020202050
:10562000202020202020202020207B78783D5B3007
:10563000307E39395D2830303D53696E676C65299D
:105640007D2020202020202020203D3D0D0A00002C
:105650003D3D20455A5320525354202020202020E5
:1056600020202020202020203A20526573657420BD
:10567000746F20466163746F72792044656661754A
:105680006C7473202020202020203D3D0D0A000056
:105690003D3D20455A532043415320454E2F444918
:1056A00053202020202020203A205365742043617D
:1056B0007363616465204D6F646520456E61626C43
:1056C000652F44697361626C65203D3D0D0A0000E1
:1056D0003D3D20455A472043415320202020202093
:1056E00020202020202020203A204765742043617C
:1056F0007363616465204D6F6465205374617475D4
:10570000732020202020202020203D3D0D0A000075
:105710003D3D20455A47204144445220202020202E
:1057200020202020202020203A2047657420537913
:105730007374656D2041646472657373202020204A
:10574000202020202020202020203D3D0D0A000088
:105750003D3D20455A4720494E7820534947205324
:1057600054412020202020203A2047657420496E93
:105770007075742078205369676E616C2053746172
:105780007475737B783D5B315D7D3D3D0D0A000096
:105790003D3D20496E7075742053657475702043CB
:1057A0006F6D6D616E643A20284E6F74653A696E54
:1057B000707574206E756D6265722878293D484455
:1057C0004D492878292C783D31293D3D0D0A0000AE
:1057D0003D3D20455A5320494E78204544494420B8
:1057E00079202020202020203A2053657420496E03
:1057F000707574207820454449447B783D5B315D69
:105800002C20793D5B307E33305D3D3D0D0A00003C
:105810003D3D2020303A31303830505F3243482807
:1058200050434D292020202020313A31303830504B
:105830005F36434820202020202020323A31303863
:1058400030505F384348202020203D3D0D0A0000A5
:1058500033A00EF03DFB02200FF0D0F840A00EF078
:1058600037FB02200FF0CAF84DA00EF031FB0220EA
:105870000FF0C4F85AA00EF02BFB02200FF0BEF878
:1058800067A00EF025FB02200FF0B8F874A00EF010
:105890001FFB02200FF0B2F881A00EF019FB0220CE
:1058A0000FF0ACF88EA00EF013FB02200FF0A6F85C
:1058B0009BA00EF00DFB02200FF0A0F8A8A00EF0A8
:1058C00007FB02200FF09AF8B5A00EF001FB0220B2
:1058D0000FF094F8C2A00EF0FBFA02200FF08EF841
:1058E000CFA00EF0F5FA02200FF088F8DCA00EF041
:1058F000EFFA02200FF082F8E9A00EF0E9FA022098
:105900000FF07CF8F6A00EF0E3FA02200FF076F824
:10591000AFF244400EF0DCFA02200FF06FF810BD39
:105920003D3D2020333A31303830505F33445F32D0
:1059300043482850434D292020343A3130383050E4
:105940005F33445F36434820202020353A313038D9
:1059500030505F33445F384348203D3D0D0A00001E
:105960003D3D2020363A344B3330487A5F33445F34
:105970003243482850434D2920373A344B3330487E
:105980005A5F33445F364348202020383A344B3343
:1059900030485A5F33445F3843483D3D0D0A0000AC
:1059A0003D3D2020393A344B3630487A285934323C
:1059B00030295F33445F3243482850434D2920202B
:1059C00020202031303A344B3630487A285934324E
:1059D00030295F33445F364348203D3D0D0A0000C7
:1059E0003D3D202031313A344B3630487A28593405
:1059F0003230295F33445F38434820202020202064
:105A000020202031323A344B3630485A5F33445FDD
:105A1000324348202020202020203D3D0D0A000058
:105A20003D3D202031333A344B3630485A5F3344C1
:105A30005F364348202020202020202020202020C6
:105A400020202031343A344B3630485A5F33445F9B
:105A5000384348202020202020203D3D0D0A000012
:105A60003D3D202031353A31303830505F324348A7
:105A70005F4844522031363A31303830505F364337
:105A8000485F4844522031373A31303830505F381F
:105A900043485F484452202020203D3D0D0A00002D
:105AA0003D3D202031383A31303830505F33445F4B
:105AB0003243482850434D295F484452202020203B
:105AC0002031393A31303830505F33445F36434803
:105AD0005F4844522020202020203D3D0D0A000038
:105AE0003D3D202032303A31303830505F33445F12
:105AF0003843485F48445220202020202020202086
:105B00002032313A344B3330487A5F33445F32438A
:105B1000482850434D295F4844523D3D0D0A00003E
:105B20003D3D202032323A344B3330487A5F3344A3
:105B30005F3643485F484452202020202020202008
:105B40002032333A344B3330487A5F33445F384342
:105B5000485F48445220202020203D3D0D0A00008F
:105B60003D3D202032343A344B3630487A2859347F
:105B70003230295F33445F3243485F484452203219
:105B8000353A344B3630487A2859343230295F332D
:105B9000445F3643485F484452203D3D0D0A0000B3
:105BA0003D3D202032363A344B3630487A2859343D
:105BB0003230295F33445F3843485F4844522032D3
:105BC000373A344B3630487A5F33445F32434828A3
:105BD00050434D295F48445220203D3D0D0A0000AE
:105BE0003D3D202032383A344B3630487A5F3344DA
:105BF0005F3643485F484452202020202020203236
:105C0000393A344B3630487A5F33445F3843485F23
:105C1000484452202020202020203D3D0D0A000035
:105C20003D3D202033303A344B5F444F4C42595F66
:105C3000564953494F4E5F41544D4F532020202029
:105C40002020202020202020202020202020202054
:105C5000202020202020202020203D3D0D0A000073
:105C60003D3D202033313A344B3630487A5F33445F
:105C70005F3843485F4844525F444C4154202020E1
:105C80002020202020202020202020202020202014
:105C9000202020202020202020203D3D0D0A000033
:105CA0003D3D202033323A496E646963617465205A
:105CB000436F7079204F7574707574312045444975
:105CC00044284E4F20535555504F525420434D4475
:105CD0002053455454494E4729203D3D0D0A0000AC
:105CE0003D3D20455A4720494E78204544494420AF
:105CF00020202020202020203A2047657420496E53
:105D00007075742078204544494420496E64657854
:105D10007B783D5B315D7D2020203D3D0D0A0000FC
:105D200070B505461FA00EF0D3F802200EF066FEF7
:105D30002CA00EF0CDF802200EF060FE19A00EF09F
:105D4000C7F802200EF05AFE3648017806230222D8
:105D500035480EF0BDF802200EF050FE33A00EF0D4
:105D6000B7F802200EF04AFE40A00EF0B1F8022073
:105D70000EF044FE00F060F908B14CA000E04DA028
:105D8000044621464DA00EF0A3F802200EF036FE88
:105D900026A00EF09DF802200EF030FE01A00EF0BD
:105DA00097F870BD3D3D3D3D3D3D3D3D3D3D3D3D5B
:105DB0003D3D3D3D3D3D3D3D3D3D3D3D3D3D3D3D13
:105DC0003D3D3D3D3D3D3D3D3D3D3D3D3D3D3D3D03
:105DD0003D3D3D3D3D3D3D3D3D3D3D3D3D3D3D3DF3
:105DE0000D0A00003D3D20202020202020202020E2
:105DF0002020202020202020202020202020537917
:105E00007374656D732053544154555320202020E2
:105E100020202020202020202020202020203D3D48
:105E20000D0A000089000020F09C01083D3D2D2D49
:105E30002D2D2D2D2D2D2D2D2D2D2D2D2D2D2D2D92
:105E40002D2D2D2D2D2D2D2D2D2D2D2D2D2D2D2D82
:105E50002D2D2D2D2D2D2D2D2D2D2D2D2D2D2D2D72
:105E60002D2D2D2D2D2D3D3D0D0A00003D3D2053A6
:105E7000797374656D205365747570205374617403
:105E800075732020203A2020202020202020202050
:105E90002020202020202020202020202020202002
:105EA0002020202020203D3D0D0A0000454E41428B
:105EB0004C45200044495341424C45003D3D204360
:105EC000617363616465204D6F6465205374617410
:105ED00075732020203A20257320202020202020A8
:105EE00020202020202020202020202020202020B2
:105EF000203D3D0D0A00000070B506460024002537
:105F000040212D48FEF759F900202C49088000BF98
:105F100048E02A480088C0B92948005D20283FD0C1
:105F20002748005D0D283BD02548005D0A2837D062
:105F300022480088401C214908802148025D2846EB
:105F4000691C8DB21C490A542AE01D48005D2028B6
:105F500026D01B48005D0D2803D01948005D0A2893
:105F60000FD101201749087014480088401C1349BC
:105F700008801348025D2846691C8DB20E490A54F8
:105F80000EE01048007858B90C480088401C0B49B6
:105F900008800B48025D2846691C8DB206490A54E8
:105FA000601C84B2B442B4DB0648007810B906A085
:105FB0000DF08EFF70BD0000CE0A0020F40000201E
:105FC0000E0B0020F6000020434D44204552520D98
:105FD0000A00000030B503460C46002100BF0AE06D
:105FE000585C655CA84204D0585C655C401BC0B23C
:105FF00030BD481C81B29142F2DB0020F8E700007E
:1060000010B50748407808B106A000E006A0024697
:1060100006A108480DF07AFF0648FFF72BF910BDDE
:1060200089000020454E000044495300434153205D
:1060300025730000B0090020014840787047000037
:106040008900002001494870704700008900002045
:1060500070B505460E461648007840F00100144918
:10606000087014A00DF0AAFC1BA00DF0A7FC22A044
:106070000DF0A4FC00240FE0E11704EB5171C910EE
:10608000A4EBC10111B924A00DF098FC295D24A056
:106090000DF094FC601C84B2B442EDDB05A00DF061
:1060A0008DFC0348007820F001000149087070BDA4
:1060B000480000200D0A3D3D3D3D3D3D3D3D3D3DFF
:1060C0003D3D3D3D3D3D3D3D3D3D3D3D3D3D3D3D00
:1060D0003D3D3D0D0A0000003D20202020202041B4
:1060E0007070537461747573204461746120202052
:1060F000202020203D0D0A003D3D3D3D3D3D3D3DE4
:106100003D3D3D3D3D3D3D3D3D3D3D3D3D3D3D3DBF
:106110003D3D3D3D3D0000000D0A202000000000F7
:1061200020252E32580000002DE9F04104460F468C
:10613000002500268820207000BF00BF04E0605DBD
:106140003044C6B2681C85B2781EA842F7DCF04322
:10615000401CC6B266553946204600F07BF9BDE8C2
:10616000F08100002DE9F04104460F46002500268D
:106170002078882806D0217811A00DF01FFC00207F
:10618000BDE8F0810026002504E0605D3044C6B221
:10619000681C85B2781EA842F7DCF043401CC6B2EA
:1061A000605DB04206D0625D31460DA00DF006FC88
:1061B0000020E5E715A00DF001FC0120E0E700005C
:1061C000417070204461746120486561646572208B
:1061D0004572726F72205B252E32585D0D0A0000E9
:1061E000417070204461746120436865636B53752E
:1061F0006D204572726F72205B252E32585D213DF5
:106200005B252E32585D0D0A0000000041707020A1
:106210004461746120436865636B53756D205269F6
:10622000676874210D0A00002DE9F04105460C460F
:1062300000260027B0461F2C00DD71E0681E3A4999
:106240000C5405200EF0DAFB202C51D2DFE804F0CC
:1062500010121416181A1C1E20222426282A2C2E4E
:1062600030323436383A3C3E40424446484A4C4E3E
:106270002E4E3FE02E4E3DE02E4E3BE02E4E39E0BE
:106280002E4E37E02E4E35E02E4E33E02E4E31E0CE
:106290002E4E2FE02E4E2DE02E4E2BE02E4E29E0DE
:1062A0002E4E27E02E4E25E02E4E23E02E4E21E0EE
:1062B0002E4E1FE02E4E1DE02E4E1BE02E4E19E0FE
:1062C0002E4E17E02E4E15E02E4E13E02E4E11E00E
:1062D0002E4E0FE02E4E0DE02E4E0BE02E4E09E01E
:1062E0002E4E07E02E4E05E02E4E03E02E4E01E02E
:1062F0002C4E00BF00BF4FF4807231462B48FDF793
:1063000043FF2B48007810B1284808F0CDF9274802
:1063100007F0F2FE2549274800680AF003FB012731
:106320003846BDE8F08100008D000020D2750108DC
:10633000D2760108D2770108D2780108D279010813
:10634000D27A0108D27B0108D27C0108D27D0108F3
:10635000D27E0108D27F0108D2800108D2810108D3
:10636000D2820108D2830108D2840108D2850108B3
:10637000D2860108D2870108D2880108D289010893
:10638000D28A0108D28B0108D28C0108D28D010873
:10639000D28E0108D28F0108D2900108D291010853
:1063A000D2920108D2730108D2740108CE090020EC
:1063B000360000200803002003480021016001711D
:1063C000024801600171704793000020980000208E
:1063D0002DE9F04105460E46002400275DB9012451
:1063E00006E031462046FFF71FFF0746601CC4B297
:1063F000012CF6DD04E031462846FFF715FF07467D
:106400000120024988703846BDE8F08189000020EB
:1064100070B504460D460EF0E9FB2A4621460348B6
:106420000CF0BEFC0EF082FB70BD000000FC010809
:1064300070B504460D4616460EF0D8FB04496018A8
:10644000324629460CF0ACFC0EF070FB70BD00002B
:1064500000FC010870B504460D460EF0C7FB054868
:106460000CF084FC2A46214602480CF0ACFC0EF0ED
:106470005DFB70BD00FC010810B500240B48002135
:106480000160017100200949087001204870002056
:106490008870C8701E20087105480A68C0F801207D
:1064A000097941710721FFF73FFE10BD89000020E7
:1064B0009D00002010B5002407211248FFF7A8FF17
:1064C00007211048FFF74EFE30B907210D48FFF7AE
:1064D000BFFDFFF7D1FF0DE00BA00DF06FFA072114
:1064E0000848FFF7B5FD10480649D1F801200260C1
:1064F000497901710D480C490A68026009790171F6
:1065000010BD00009D000020417070204461746146
:106510002056616C756520697320696E6974204F1F
:106520004B210D0A00000000890000208E00002091
:1065300010B50C480C490A680260097901710B48D2
:10654000002101608180817107490A68C0F801203B
:10655000097941710721FFF7E7FD07210348FFF79C
:1065600077FD10BD8E000020890000209D000020D6
:1065700010B5FFF781FFFF200149087010BD000032
:106580003100002001490870704700008900002098
:1065900070B50446DDE90456217062706360A56041
:1065A000E660002070BD00002DE9F04107460C4672
:1065B00015461E460B48006808B90A480460276063
:1065C000E5802671204600F0F3F80748006810B116
:1065D000054800688467044804600020A067BDE89F
:1065E000F0810000D0020020D40200202DE9F0410B
:1065F00004460D46164600270EB1022E3DD12079E5
:106600000D2839D2DFE800F0071A081B36091C0AEA
:106610000B12191D370000BF00BF00BF00BF20795B
:10662000082802D10121E06C017000BF20790928FF
:1066300002D10121206D017000BF00BF00BF00BF6B
:1066400000BF284607F0D8FD606E20B1606EA842FA
:1066500001D0616E29666566EC652879052808D148
:106660000021686CC18300231A460421204601F0F2
:10667000F5F801E000BF00BF00BF012E01D0022EDF
:1066800028D120790D2824D2DFE800F007210C2240
:1066900009081F0B232323200A0000BF00BF00BFEF
:1066A00000BF00BF284607F073FD206F20B1206FA8
:1066B000A84201D0216FE9662567AC6628790528D4
:1066C00002D10021A86C818003E000BF00BF00BFA1
:1066D00000BF00BF0EB1022E27D120790D2823D292
:1066E000DFE800F007100A111E080E090B0C0D0F51
:1066F0001F0000BF00BF00BF00BF00BF00BF00BF42
:1067000000BF00BF00BF606D38B1676D00E07F6DF6
:10671000786D0028FBD16F6501E0616D696503E06C
:1067200000BF0021616500BF00BF2946204602F07E
:1067300071F80020BDE8F08110B5002402F0C8FA1D
:106740000446204610BD10B50446204602F0DEFA8D
:10675000002010BD10B504462079072824D2DFE8B8
:1067600000F0040B12161A1B1F00204600F0B6FAA8
:10677000204600F0C0FA18E0204600F0AFFA2046AC
:1067800000F0B9FA11E0204600F0B5FA0DE020461D
:1067900000F0B1FA09E008E0204600F0A3FA04E0B6
:1067A000204600F09FFA00E000BF00BF002010BDAF
:1067B00010B50446FF2175200155FF2084F87400B0
:1067C00076200155772001550020A0600021E1606E
:1067D00021616161A161E16121626162A162E162A5
:1067E00021636163A163E16321646164A164E16485
:1067F00021656165A165E16521666166A166E16665
:10680000216720790D283FD2DFE800F0073F63823F
:106810009CA7DFFDFCFB3EFAF90004F10801022011
:1068200001F074FA04F10C01012001F06FFA04F197
:106830001001012001F06AFA04F11401012001F0B5
:1068400065FA04F11801012001F060FA04F11C015D
:10685000012001F05BFA04F12001012001F056FA59
:1068600004F134011E2001F051FA04F13C0108202A
:1068700001F04CFA04F14401222001F047FA04F13E
:106880004801182001F042FA28E104F10801022031
:1068900001F03CFA04F10C01012001F037FA04F197
:1068A0001001012001F032FA04F11401012001F07D
:1068B0002DFA04F11801012001F028FA04F1340145
:1068C0001E2001F023FA04F14401222001F01EFAF7
:1068D00004E104F10801022001F018FA04F11401A6
:1068E000012001F013FA04F11801012001F00EFA61
:1068F00004F134011E2001F009FA04F144012220C0
:1069000001F004FA04F14801182001F0FFF9E5E074
:1069100004F10801022001F0F9F904F11401012049
:1069200001F0F4F904F11801012001F0EFF904F18C
:1069300034011E2001F0EAF904F14401222001F0A3
:10694000E5F9CBE004F10801022001F0DFF904F1E0
:106950004801182001F0DAF9C0E004F10801022032
:1069600001F0D4F904F12401012001F0CFF904F180
:106970002801012001F0CAF904F12C01012001F0E5
:10698000C5F904F13001012001F0C0F904F11C0146
:10699000012001F0BBF904F12001012001F0B6F95A
:1069A00004F138011C2001F0B1F904F140010C2080
:1069B00001F0ACF904F14401222001F0A7F904F13F
:1069C0004801182001F0A2F988E004F10801022032
:1069D00001F09CF904F12401012001F097F904F180
:1069E0002801012001F092F904F12C01012001F0AD
:1069F0008DF904F13001012001F088F904E062E032
:106A000047E03BE02FE00FE004F138011C2001F0EB
:106A10007DF904F14401222001F078F904F14801E4
:106A2000182001F073F959E004F10801022001F087
:106A30006DF904F12C01012001F068F904F1300135
:106A4000012001F063F904F138011C2001F05EF926
:106A500004F14401222001F059F904F14801182001
:106A600001F054F93AE004F10801022001F04EF976
:106A700004F14C01052001F049F92FE004F108016F
:106A8000022001F043F904F15001072001F03EF922
:106A900024E004F10801022001F038F904F12C018E
:106AA000012001F033F904F13001012001F02EF949
:106AB00004F138011C2001F029F904F144012220DD
:106AC00001F024F90AE004F10801022001F01EF9A6
:106AD00004F14801182001F019F900BF00BF00209F
:106AE00010BD000010B50548046803E02046FFF71C
:106AF00031FEA46F002CF9D1002010BDD00200207F
:106B000070B53D48046871E03B4800683B4909683E
:106B10008847394800683A49096888473648006814
:106B200038490968884720790D285AD2DFE800F0F3
:106B300007082A2B323340474D515548490000BFC2
:106B4000E068057820460AF0F7F8204600F0DCF807
:106B5000294620460CF026FB6069057820460AF09D
:106B600075F9204600F06EFC294620460CF0C2FC68
:106B7000E069057820460BF069FA294620460CF0BA
:106B800021FA2EE000BF20460AF060F9204600F00E
:106B900059FC26E025E0606A057820460AF002F9F3
:106BA000204600F0D1F9294620460CF0BBFB18E046
:106BB00020460AF0F7F8204600F0C6F911E000BFC1
:106BC0000FE020460AF0B2F80BE020460AF0ECF99C
:106BD00007E020460AF059F903E020460AF0DDF903
:106BE00000BF00BFA06F00B902E0A46F002C8BD1E2
:106BF00000BF002070BD0000D0020020DC02002099
:106C0000D8020020E002002070B505460024E88884
:106C1000001F1B4A02EB002128460BF075FBE88899
:106C2000C11E18A002F0FAF800BF15E0E888001FA6
:106C3000134A02EB0020015D18A00CF0BFFEE11723
:106C400004EB11710911A4EB01110F2902D115A058
:106C50000CF0B4FE601C84B2FF2CE7DD11A00CF038
:106C6000ADFEE888C01E022803D1012108460CF0C1
:106C70004FF94FF0FF31A86B0161002070BD00009B
:106C8000580E002054782025642052656164204508
:106C90006469642053746172743A200025302E3286
:106CA000782000000D0A000010B50446E088411C61
:106CB00002A00CF083FE002010BD000009527820D5
:106CC00025642047656E657261746564204564695A
:106CD000642053746172743A200D0A000122C16865
:106CE0000A70704710B504460121606A01702046A1
:106CF0000AF0DDFD10BD10B5044601216069017088
:106D000020460AF00EFF10BD2DE9F04105466C6BE0
:106D10000026002700BF00BFE8680078092875D268
:106D2000DFE800F0C5051237467F9CACBC000821A7
:106D3000E868017028460AF077FD28460AF06EFDE3
:106D400028460AF052FDEBE0E07908B901271FE080
:106D5000207860B10821E868017028460AF064FDD7
:106D600028460AF05BFD28460AF03FFD10E0A079B6
:106D7000052801D001270BE0207A012805D1E07A0F
:106D800018B10521E868017002E028460AF0C8FC45
:106D9000C6E0E07A30B90221E868017028460AF0BE
:106DA000BFFC04E00921E86801700120E070B7E051
:106DB000207878B128460AF0EDFE0821E8680170D5
:106DC00028460AF031FD28460AF028FD28460AF038
:106DD0000CFD25E0E07A30B90221E8680170284610
:106DE0000AF09EFC1CE0207918B90521E8680170C2
:106DF00016E0A079052802D1207A012807D00621C3
:106E0000E868017028460AF0F0FC09E04FE0A0793C
:106E1000052805D10721E868017028460BF0D2F952
:106E20007EE0E07A30B90221E868017028460AF075
:106E300077FC12E0A079052802D1207A012806D03B
:106E40000621E868017028460AF0CFFC05E02079A9
:106E5000012802D10421E868017061E0E07948B1BD
:106E6000A079052806D10221E868017028460AF0B9
:106E700057FC02E028460AF0F6FC51E0E07A30B90F
:106E80000221E868017028460AF04AFC05E0032167
:106E9000E868017028460AF045FE41E0207828B9EC
:106EA0000621E868017028460AF09FFC38E0207847
:106EB00088B128460AF06EFE0020E0700821E868DC
:106EC000017028460AF0B0FC28460AF0A7FC2846C4
:106ED0000AF08BFC23E0A079052801D1E07970B994
:106EE00028460AF057FE28460AF098FC0020E07079
:106EF0000621E868017028460AF077FC0FE0207A46
:106F000028B1207A022802D0207A052804D1284608
:106F10000AF040FE012602E0E07A00B9012600BF37
:106F200000BF2FB10621E868017028460AF05DFC19
:106F30003EB10020E0700221E868017028460AF0A6
:106F4000EFFBBDE8F08100002DE9F84F0446A56B8A
:106F5000266C0027B846B946BA46BB4600200090CA
:106F600000BF00BF00BF00BF00BF0090606A007894
:106F70000C2871D2DFE800F0700613173F4F7175CF
:106F8000A3BCC9FB0921606A017020460AF0AAFC73
:106F900020460AF092FC20460BF0C6F9A7E1052135
:106FA000606A0170A3E1287D01280CD00921606A84
:106FB000017020460AF096FC20460AF07EFC20462E
:106FC0000BF0B2F916E0A06B007A022810D1687AB3
:106FD00030B90421606A017020460BF07BF909E0AA
:106FE000687A012801D1012704E04FF0010B01E08C
:106FF0004FF0010B7BE1287D01280BD00921606A4D
:10700000017020460AF06EFC20460AF056FC20462D
:107010000BF08AF96BE1287D01280FD020460BF098
:10702000A7F90921606A017020460AF05BFC20463E
:107030000AF043FC20460BF077F90CE0A878012811
:1070400006D1287A052803D10B21606A017002E07D
:10705000204609F0DBFD4AE11EE10321606A017070
:1070600045E1287D012816D0287D022803D1012082
:107070002875804622E020460BF07AF90921606AE3
:10708000017020460AF02EFC20460AF016FC20462D
:107090000BF04AF912E0307908B9B07A30B10A2120
:1070A000606A017020460BF0F1F807E0A87810B98B
:1070B0004FF0010802E020460BF016F917E1687D59
:1070C00030B10621606A017020460AF0DDFB0EE057
:1070D000287D01280BD00921606A017020460AF042
:1070E00001FC20460AF0E9FB20460BF01DF9FEE00A
:1070F000287D012806D10821606A017020460AF027
:10710000BFFB01E000202875F1E0287D012816D0A2
:10711000287D022803D101202875814634E02046CD
:107120000BF026F90921606A017020460AF0DAFBAB
:1071300020460AF0C2FB20460BF0F6F824E0A878BF
:1071400010B94FF001091FE0FEF776FF98B98A48A1
:107150000068406B407970B1307860B9707A50B98E
:107160000B21606A0170F27AE088011F00E00CE0F8
:1071700082A00CF023FC20460BF024F920460BF0F3
:1071800027F820460BF0B0F8B1E0287D012816D092
:10719000287D022803D10120287582467BE0204605
:1071A0000BF0E6F80921606A017020460AF09AFBAC
:1071B00020460AF082FB20460BF0B6F86BE0A87977
:1071C000052820DB3078012802D0707A01281AD1F6
:1071D0007078012806D10721606A017075A00CF053
:1071E000EDFB58E0707858B90A21606A01702046BA
:1071F0000BF04CF875A00CF0E1FB0020F0724AE0B7
:107200000120009047E05C480068406B407908BB73
:10721000A87905281EDB3078E0B9707AD0B970788B
:10722000012806D10721606A01706EA00CF0C6FB30
:1072300031E0707858B90A21606A017020460BF07D
:1072400025F86EA00CF0BAFB0020F07223E00120BC
:10725000009020E0FEF7F0FED8B947480068406B88
:107260004079B0B13078A0B9707A90B9F07A03283B
:1072700009DAF07A401CF0720021204608F058FC30
:1072800020460BF051F8A879052804DB0020A871EE
:1072900001E0012000902AE0A87848B120460AF0D9
:1072A000F3FA0B21606A01705AA00CF087FB1DE015
:1072B000287D01281AD0287D022808D101202875B0
:1072C0000C21606A017020460BF05CF80EE020464D
:1072D0000BF04EF80921606A017020460AF002FBAB
:1072E00020460AF0EAFA20460BF01EF800BF00BF65
:1072F000009868B1A87828B94FF0010A4CA00CF0AA
:107300005DFB05E020460BF05DF820460AF060FFCB
:10731000BBF1000F0BD0287A48B1687A012801D15F
:10732000012704E0687A10B90521606A0170BAF19A
:10733000000F05D00C21606A017020460BF022F886
:10734000B9F1000F05D00C21606A017020460BF0E6
:1073500019F8B8F1000F05D00C21606A01702046C1
:107360000BF010F82FB10221606A017020460BF07B
:1073700019F8BDE8F88F000008030020202D2D2DFE
:10738000496E7075742048444350204F4E2C5478F9
:107390005B25645D204E6F7420537570706F72743E
:1073A00020484443502C436865636B5B25645D0D46
:1073B0000A000000092B2B417646736D506C7567EF
:1073C0005478486463700D0A00000000092B2B41BB
:1073D0007646736D506C75675478537461626C6552
:1073E0000D0A0000092D2D417646736D506C7567AE
:1073F0005478486463700D0A00000000092D2D4187
:107400007646736D506C75675478537461626C6521
:107410000D0A000031417646736D506C75675478E3
:107420005472616E736D6974566964656F0D0A00FC
:10743000092B2B3348646370456E61626C65640D83
:107440000A0000002DE9F04105466C6B002600277C
:10745000B04600BF00BF00BF68690078012806D0B1
:1074600002280BD003282AD0042864D14BE0052140
:107470006869017028460AF0B0FB62E020780128B4
:1074800006D105216869017028460AF0A6FB15E0BF
:10749000207908B9607808B9A07830B1032168690B
:1074A000017028460AF036FB08E02079012805D152
:1074B00004216869017028460AF01FFB41E06078EA
:1074C00030B928460AF01FFB02216869017019E0F3
:1074D0002078012809D128460AF015FB05216869A2
:1074E000017028460AF079FB0CE0207950B1A078B1
:1074F00040B928460AF007FB042168690170284654
:107500000AF0FBFA1DE0207808B1012612E0A0780D
:1075100008B101270EE0207950B9607808B1012741
:1075200008E0A07808B9012604E04FF0010801E066
:107530004FF0010805E0207810B902216869017058
:1075400000BF00BFB8F1000F05D028460AF05CFB71
:1075500028460AF0F9F92FB103216869017028461D
:107560000AF0D8FA2EB105216869017028460AF0A0
:1075700034FBBDE8F08100002DE9F04106460F46DE
:1075800014461D464FF0000823462A463946304629
:10759000DFF810C0DCF800C0E04780464046BDE898
:1075A000F0810000E40200202DE9FF4F83B0834604
:1075B00091469A46DDF84080DDE9124600200290AF
:1075C000306023466A465846DFF8B8C00499DCF8B4
:1075D00000C0E04702901198012827D19DF80000D3
:1075E00000EA09008DF80000601EC4B21DF8040016
:1075F00000EA0A000DF80400C8EBC400C7B2002579
:107600000AE01DF80510B940306808433060A7F162
:107610000800C7B2681CC5B2A542F2DB1DF8041011
:1076200041FA08F130680843306026E09DF8000018
:1076300000EA0A008DF80000601EC4B21DF80400C4
:1076400000EA09000DF80400C8EBC400C7B22546E3
:107650000AE01DF80510B940306808433060A7F112
:107660000800C7B2681EC5B2002DF2DC9DF80010FC
:1076700041FA08F1306808433060029807B0BDE86D
:10768000F08F0000E40200202DE9F047074688460D
:1076900015461E46089C4FF000090123224641462C
:1076A0003846DFF818C0DCF800C0E0478146207893
:1076B0002840304120704846BDE8F087E4020020B1
:1076C0002DE9F04106460F4614461D464FF00008CE
:1076D00023462A4639463046DFF810C0DCF800C0A1
:1076E000E04780464046BDE8F0810000E802002007
:1076F0002DE9FE4F82468B4690469946DDE90E47BE
:107700000C9E0020029023466A4659465046DFF8F8
:10771000E8C0DCF800C0E04702900D98012834D1A1
:107720009DF8000020EA0800611EC6EBC10227FA9E
:1077300002F101EA080108438DF8000001250AE082
:10774000601B401EC6EBC00027FA00F0C0B20DF867
:107750000500681CC5B2601EA842F1DC1DF80000DF
:1077600020EA090007FA06F101EA09010843611E4F
:107770000DF8010023466A4659465046DFF87CC0A2
:10778000DCF800C0E047029033E09DF8000020EAFA
:10779000090007FA06F101EA090108438DF8000023
:1077A00001250AE0601B401EC6EBC00027FA00F06E
:1077B000C0B20DF80500681CC5B2601EA842F1DC1D
:1077C0001DF8000020EA0800611EC6EBC10227FA7E
:1077D00002F101EA08010843611E0DF80100234689
:1077E0006A4659465046DFF814C0DCF800C0E0474E
:1077F00002900298BDE8FE8FE4020020E80200201B
:107800002DE9F8430746884614461D46089E4FF06A
:1078100000090096FF2C10D001236A4641463846E5
:10782000DFF830C0DCF800C0E0479DF80000A0435E
:1078300006FA05F121400843009001236A464146BB
:107840003846DFF814C0DCF800C0E04781464846FF
:10785000BDE8F883E4020020E80200202DE9F041B1
:1078600004460D46174698460026102D58D2DFE8EC
:1078700005F01314555615162935363B080C4050A3
:107880004F4B0121E06B01704DE00221206C8170B3
:107890000021206CC17046E045E044E043E0E08810
:1078A000C11E23A00CF08AF8A179C91EC8B200211C
:1078B0000CF064FAE088052803D1002101200BF0C8
:1078C00027FB30E0E088C11E23A00CF077F8A179F7
:1078D000C91EC8B201210CF051FA24E023E00021B6
:1078E00008460CF0DBF81EE0012100200CF0D6F871
:1078F00019E0606B8079052805D02046FFF7D4F9A0
:107900000521606B81710EE02046FFF77DF90AE0EA
:1079100009E04FF0FF31A06B016104E003E002E0F9
:107920006FF0020600BF00BF3046BDE8F0810000E6
:1079300041764576656E74506F7274446F776E53FE
:10794000747265616D446973636F6E6E65637465AF
:10795000645B25645D0D0A0041764576656E745062
:107960006F7274446F776E53747265616D436F6E9E
:107970006E65637465645B25645D0D0A000000003C
:1079800010B503460020034C2360034C2160034CD8
:10799000226010BDD8020020DC020020E00200209E
:1079A00003465AB103B109B90020704704E00878D2
:1079B00018705B1C491C521E002AF8D10120F4E704
:1079C000034642B10BB90020704702E019705B1CFE
:1079D000521E002AFAD10120F6E700002DE9F843F3
:1079E0000646002400250027A0463078012802D052
:1079F000201FBDE8F8832E480068406B00790128FD
:107A000001D00020F5E72B4800680079052806D151
:107A1000284801682648006800F092F80446264885
:107A200000680079052806D12348016820480068CD
:107A300000F086F8054621480368214802681D4881
:107A400001681B48006800F05DF80746A7420FD0A8
:107A500074B121461BA00BF0B1FF194800940368D4
:107A600016480268134801681148006800F0BCF825
:107A700012480368124802680F4801680C48006801
:107A800000F040F88046A8450FD075B1294615A0F2
:107A90000BF094FF0A4800950368084802680648FE
:107AA00001680348006800F09FF80020A1E700008B
:107AB000080300200C0300201003002018030020FE
:107AC0001C030020092A2A2A2A2A2A547841436FB3
:107AD0006E6E6563745374796C653D5B25645D0DF2
:107AE0000A000000092A2A2A2A2A2A547842436FC7
:107AF0006E6E6563745374796C653D5B25645D0DD2
:107B00000A00000030B504460020CD6DA54201D129
:107B1000012014E0CD6D9D4206D1DD6DA54201D15D
:107B200002200CE000200AE0CD6D954206D1D56D13
:107B3000A54201D1032002E0002000E0002030BD7A
:107B400002460023107908B1002070470879052803
:107B500009D1886B007A052803D1886B007D012844
:107B600003D00020F1E70020EFE70123506C0089EB
:107B7000B0F5917F13DB506C407803280FD1184883
:107B80000078012803D1C888042800D103231548B0
:107B90000078012803D1C888052800D10323506C40
:107BA0000089B0F5917F19DB506C008BB0F5706FD8
:107BB00014DB506C408BB0F5076F0FDB0848007882
:107BC000012803D1C888042800D103230548007880
:107BD000012803D1C888052800D103231846B4E73B
:107BE00005030020060300202DE9F04704460D465A
:107BF00016461F46DDF820904FF00008B9F1010F3E
:107C000006D0B9F1020F18D0B9F1030F53D133E008
:107C1000E86DA04206D04FF0010802222946204616
:107C2000FEF7E4FCB8F1010F06D1E888C21EE08837
:107C3000411C22A001F0F2F83DE0F06DA04206D018
:107C40004FF00108002231462046FEF7CFFCE86DD8
:107C5000B04206D04FF00108002229463046FEF718
:107C6000C5FCB8F1010F06D1E888C21EE088411CAE
:107C700018A001F0D3F81EE0F86DA04206D04FF036
:107C80000108002239462046FEF7B0FCE86DB842F4
:107C900006D04FF00108002229463846FEF7A6FC20
:107CA000B8F1010F06D1E888C21EE088411C10A07F
:107CB00001F0B4F800BF00BFBDE8F0874E65772043
:107CC000526F7574653A20527825642D5478256476
:107CD000000000004E657720526F7574653A20529F
:107CE0007825642D436F6C6F722D547825640000E5
:107CF0004E657720526F7574653A20527825642D51
:107D00005363616C65722D54782564002DE9F04150
:107D100004460D46002724F003060E480068204460
:107D2000B0F50E7F0DD20C480A4909680844286056
:107D3000B44200D0341D074800682044054908605B
:107D400005E006A001F06AF800BF00BFFEE7384674
:107D5000BDE8F08100030020200C00204552524F66
:107D6000523A20676C6F62616C207374617469634E
:107D700020627566666572206578686175737465E2
:107D8000642E00007CB5054600200190FF26AC6EF5
:107D9000A4B1207970B9606B407B00B90EE0A06C93
:107DA000407A012802D0A06C407A08B9002605E08C
:107DB000EF2603E02079052800D1EF26A86C807912
:107DC000012800D1FF26E888082814D101A8002343
:107DD000FF229D2100904FF4D830FFF755FC9DF80D
:107DE0000400864207D00023FF229D214FF4D830A3
:107DF0000096FFF705FD00207CBD000001B596B0A0
:107E00000020159014901390129042201190109021
:107E100000200F900E900690FE484168169881420F
:107E200002D11698406EC8B915A800230722012177
:107E30000090F948FFF728FC9DF8540018B19DF810
:107E40005400012807D104200023072201210090BB
:107E5000F148FFF7D5FC002017B000BD15A800239E
:107E6000FF2266210090EC481130FFF70DFC1698B8
:107E7000006D40789DF8541088420AD01698006D25
:107E800040780023FF2266210090E3481130FFF77D
:107E9000B7FC15A80323082201210090DE48FFF754
:107EA000F3FB1698006D807830B91698006D007954
:107EB00010B10020139001E0012013909DF85410A0
:107EC0001398814207D013980323082201210090C0
:107ED000D148FFF795FC139800287ED11698006DC5
:107EE000C078059007F05CF811901698006D407905
:107EF000059007F055F81090C8480D9000200F909D
:107F000018E0C7480F9910F83110119881420ED12E
:107F1000C3480F9900EBC10041781098814206D107
:107F2000BF480F9900EBC10040680D9009E00F9821
:107F3000401C0F90BA480F9900EBC1004068002820
:107F4000DFD100BFB6480F9900EBC1004078FF2891
:107F50000BD19DF85400E8BB012003230822014601
:107F60000090AD48FFF74CFC37E007AB1822AD4955
:107F7000A9481130FFF700FB002013900F900DE08F
:107F800007A80F99415C0F9A0D98805C814202D03E
:107F90000120139005E00F98401C0F900F981828AF
:107FA000EED300BF1398012817D118229D499A4893
:107FB00011300D9BFFF784FB0D980078C0F3411042
:107FC00015909DF854000023032238210090924818
:107FD000113000E001E0FFF713FC15A80023072291
:107FE000012100908C48FFF74FFB1698006D007937
:107FF000032807D11698006D8078032802D001204D
:1080000013900EE01698006D0079032807D016989B
:10801000006D8078032802D10020139001E0042035
:1080200013909DF854101398814207D013980023A1
:108030000722012100907848FFF7E2FB15A80423EE
:1080400070227821009074481130FFF71DFB14A8AE
:1080500000230722782100906F481130FFF714FBAE
:108060000020139012901698006D0079032807D114
:108070001698006D8078032802D0032012900BE040
:108080001698006D0079032806D01698006D807848
:10809000032801D1042013909DF8541013988142B5
:1080A00004D19DF850101298814211D013980423E6
:1080B00070227821009058481130FFF7A1FB1298E8
:1080C000002307227821009053481130FFF798FBD6
:1080D0001698006D0079032804D11698006D8078F9
:1080E000032809D11698006D0079032807D0169847
:1080F000006D8078032802D10120139001E0002058
:10810000139000200F900DE01698006D40784649BE
:108110000F9A895C884202D10020139007E00F98E3
:10812000401C0F9040480F99405CFF28ECD100BFE5
:1081300015A8002301226821009037481130FFF76D
:10814000A3FA9DF854101398814208D01398002385
:1081500001226821009030481130FFF751FB16983A
:10816000C06D0690139801287ED1069800790028EA
:10817000FAD1069890F97400401C002874D0069833
:1081800006F012FC05900FA8022101220023CDE980
:108190000032CDE90210FF231F222249143905982D
:1081A000FFF702FA0EA8022101220023CDE90032D6
:1081B000CDE90210FF231F221A493431164811302D
:1081C000FFF7F2F9DDE90E0188420FD0022101220A
:1081D00000230F98CDE90032CDE90210FF231F22C2
:1081E000104934310C481130FFF782FA069806F036
:1081F000DBFB05900FA8022101220023CDE900320C
:10820000CDE90210FF233F220649891D0598FFF79B
:10821000CBF90BE0D00B002001B0010088950108DC
:10822000F897010820000800599A01080EA80221B9
:1082300001220023CDE90032CDE90210FF231F22E5
:10824000EA49EB48FFF7B0F9DDE90E0188420FD0AB
:108250000221012200230F98CDE90032CDE902105E
:10826000FF231F22E14900E0BDE1E148FFF740FAAA
:10827000069806F099FB05900FA802210122002321
:10828000CDE90032CDE90210FF231F22D7492A3958
:108290000598FFF789F90EA8022101220023CDE9F4
:1082A0000032CDE90210FF231F22D049091DD0481A
:1082B000FFF77AF9DDE90E0188420ED00221012292
:1082C00000230F98CDE90032CDE90210FF231F22D1
:1082D000C649091DC648FFF70BFA069806F064FB6D
:1082E00005900FA8022101220023CDE90032CDE93B
:1082F0000210FF231F22BD4928390598FFF754F9C2
:108300000EA8022101220023CDE90032CDE902109E
:10831000FF231F22B549891DB548FFF745F9DDE95F
:108320000E0188420ED00221012200230F98CDE9D0
:108330000032CDE90210FF231F22AC49891DAC4851
:10834000FFF7D6F9069806F02FFB05900FA802213B
:1083500001220023CDE90032CDE90210FF231F22C4
:10836000A24926390598FFF71FF90EA8022101221C
:108370000023CDE90032CDE90210FF231F229B49E3
:1083800008319B48FFF710F9DDE90E0188420ED055
:108390000221012200230F98CDE90032CDE902101D
:1083A000FF231F22914908319148FFF7A1F9069850
:1083B00006F0FAFA05900FA8022101220023CDE968
:1083C0000032CDE90210FF233F2288492439059865
:1083D000FFF7EAF80F9840080F900EA8022101223B
:1083E0000023CDE90032CDE90210FF231F227F498F
:1083F0000A317F48FFF7D8F8DDE90E0188420ED038
:108400000221012200230F98CDE90032CDE90210AC
:10841000FF231F2275490A317548FFF769F906984D
:1084200006F0C2FA05900FA8022101220023CDE92F
:108430000032CDE90210FF231F226C494439059810
:10844000FFF7B2F80EA8022101220023CDE9003285
:10845000CDE90210FF231F2264490C316448FFF765
:10846000A3F8DDE90E0188420ED00221012200238B
:108470000F98CDE90032CDE90210FF231F225B499E
:108480000C315B48FFF734F9069806F08DFA059039
:108490000FA8022101220023CDE90032CDE902100C
:1084A000FF233F22514920390598FFF77DF80F98A7
:1084B00040080F900EA8022101220023CDE90032CE
:1084C000CDE90210FF231F2248490E314848FFF72B
:1084D0006BF8DDE90E0188420ED002210122002353
:1084E0000F98CDE90032CDE90210FF231F223F494A
:1084F0000E313F48FFF7FCF8069806F055FA059054
:108500000FA8022101220023CDE90032CDE902109B
:10851000FF233F2235491C390598FFF745F80F988E
:1085200040080F900EA8022101220023CDE900325D
:10853000CDE90210FF231F222C4910312C48FFF7F0
:1085400033F8DDE90E0188420ED00221012200231A
:108550000F98CDE90032CDE90210FF231F222349F5
:1085600010312348FFF7C4F8069806F01DFA05906D
:108570000FA8022101220023CDE90032CDE902102B
:10858000FF233F22194918390598FFF70DF80F9876
:1085900000F0010010B10F98401C0F900F98400898
:1085A0000F900EA8022101220023CDE90032CDE96F
:1085B0000210FF231F220D4912310D48FEF7F4FF70
:1085C000DDE90E0188420ED00221012200230F981E
:1085D000CDE90032CDE90210FF231F2203491231F9
:1085E0000348FFF785F8002036E400005200080039
:1085F00012B001000146002070470000FEB504469D
:108600000020029000250190002600277F48406846
:10861000A04201D1606EC8B902A80023072201213F
:1086200000907B48FFF730F89DF80800022803D03F
:108630009DF80800032807D1042000230722012108
:1086400000907348FFF7DCF80020FEBD02A803236A
:108650000822012100906E48FFF716F89DF80800E7
:1086600038B9012003230822014600906848FFF72B
:10867000C7F8E06C40785D380F283DD2DFE800F0A5
:108680000827182C120D321D37223C3C3C2D1300BC
:108690005D272021E06C81703CE062272021E06CA6
:1086A000817037E000BF61271021E06C817031E0FC
:1086B0005F272221E06C81702CE064272221E06C8E
:1086C000817027E066271021E06C817022E05E2730
:1086D0002121E06C81701DE000BF60271F21E06C4C
:1086E000817017E063272121E06C817012E065271B
:1086F0001F21E06C81700DE000200346FF226621FF
:10870000009043481130FFF77BF80021E06C817046
:10871000481E9AE700BF02A80023FF2266210090AE
:108720003B481130FEF7B0FF9DF80800B84219D061
:108730000023FF226621364811300097FFF760F8CA
:108740000020034601226821009031481130FFF7D4
:1087500057F8002001230222682100902C48113094
:10876000FFF74EF802A800230722012100902848B5
:10877000FEF78AFFE06CC078032801D1022501E0F2
:10878000032500BF00BF9DF80800A84206D00023C3
:10879000072201211E480095FFF732F802A80423A2
:1087A0007022782100901A481130FEF76DFF01A861
:1087B000002307227821009015481130FEF764FF4E
:1087C000E06CC078032802D10425002602E00025D1
:1087D000002600BF00BF9DF80800A84203D19DF805
:1087E0000400B0420FD004237022782108481130D1
:1087F0000095FFF705F8002307227821044811307F
:108800000096FEF7FDFF00201FE70000D00B0020C0
:1088100001B001002DE9F84F05460C464FF0000964
:10882000C846C24600260027E088042802D0E08817
:1088300005281CD1A06B8079052803DD0221A06BDF
:10884000017502E00021A06B8171E3480068A84235
:1088500008D0287930B9E048006818B1DE490868C6
:1088600000F0BEF90021204607F062F93BE0E08805
:10887000142802D0E088182835D1E088142802D0C6
:10888000182806D102E04FF0180802E04FF0140853
:1088900000BF00BF206890F801A0206886681DE036
:1088A000F088404504D10021F1657166316614E01D
:1088B000F76D27B1F888404501D10021F165776E49
:1088C00027B1F888404501D100217166376E27B184
:1088D000F888404501D100213166B66F1EB130687D
:1088E00040785045DCD0E088042802D0E088052894
:1088F00011D1287910B9002085F874000021A06BEF
:108900008170606CC183A06C818000224EF27E7108
:10891000204603F013FCE0880A2874D006DC042803
:1089200009D0052865D0082862D1C2E014286BD090
:108930001828F9D118E1E8880B2833D005DC58B1A4
:1089400001280AD00A2852D122E0142834D018284D
:108950003BD01C284BD141E000BFA87904237022F2
:10896000012100904FF4D830FEF74AFF0120042384
:10897000F022082100904FF4D830FEF741FF00208C
:1089800003460722052100909448FEF739FF2EE0A8
:1089900005200423F022082100904FF4D830FEF780
:1089A0002FFF24E006200423F022082100904FF43A
:1089B000D830FEF725FF1AE0022000230722052108
:1089C00000908648FEF71CFF11E0022000230722DA
:1089D000052100908148FEF713FF08E004200023E2
:1089E0000722052100907D48FEF70AFF00BF00BF67
:1089F000E1E0E8880B2835D007DC68B101280CD00D
:108A00000A2854D124E07EE087E0142834D01828C6
:108A10003BD01C284BD141E000BFA8790423702231
:108A2000012100904FF4D830FEF7EAFE0120002328
:108A30000F22082100904FF4D830FEF7E1FE00200D
:108A400003233822052100906448FEF7D9FE2EE06A
:108A5000052000230F22082100904FF4D830FEF7A4
:108A6000CFFE24E0062000230F22082100904FF4BF
:108A7000D830FEF7C5FE1AE0022003233822052174
:108A800000905648FEF7BCFE11E002200323382276
:108A9000052100905148FEF7B3FE08E004200323AF
:108AA0003822052100904D48FEF7AAFE00BF00BF06
:108AB00081E0FF20002302469D2100904FF4D83032
:108AC000FEF79EFEE88830B1012805D0042806D0C4
:108AD00005280AD106E000BF4FF0010808E04FF07A
:108AE000030805E04FF0040802E04FF0000800BF63
:108AF00000BF0423F0220A214FF4D830CDF80080C3
:108B0000FEF77EFE57E0FF20002302469D210090E5
:108B10004FF4D830FEF774FE4DE0E88830B10128FC
:108B200005D010280CD01C281CD112E000BF00205A
:108B300003460322042100902848FEF761FE11E05D
:108B4000022000230322042100902448FEF758FE4F
:108B500008E0032000230246042100901F48FEF78E
:108B60004FFE00BF00BF26E0E88830B1012805D0E5
:108B700010280CD01C281CD112E000BF0020034696
:108B80000322042100901548FEF73AFE11E002206E
:108B900000230322042100901048FEF731FE08E074
:108BA000032000230246042100900C48FEF728FE13
:108BB00000BF00BF00BF00BFE888042801DA0648F4
:108BC0000560E088142802D0E088182801D1024806
:108BD00044604846BDE8F88FD00B002001B001008A
:108BE00010B50446E088042802D0E088052806D1A4
:108BF000204603F0D7F9FF2084F874000DE0E088E8
:108C000003280ADC204606F0E3F90021606B0172BC
:108C1000606B4172FF2084F87400002010BD014693
:108C2000002070472DE9F05F04460D4616461F46AA
:108C3000DDE90B9ADDF828804FF0000B1048046046
:108C40001048056010480660104807601048C0F8DA
:108C500000801048C0F800900F48C0F800A00FA096
:108C600000F0DCF80E4800F0D9F80EA110A000F0DA
:108C7000D5F80B4800F0D2F85846BDE8F09F000048
:108C8000E4020020E8020020EC020020F0020020B4
:108C9000F4020020F8020020FC0200202000000066
:108CA0004C9E010832303139303932330000000037
:108CB000202020207C3E20417564696F2F56696416
:108CC000656F20536F6674776172652025730000AD
:108CD00000200749086007490860074908600749FC
:108CE000086007490860074908600749086070473D
:108CF000E4020020E8020020EC020020F002002044
:108D0000F4020020F8020020FC0200202DE9F84FB8
:108D1000064600250024A04647F6FF79D6F808A0AD
:108D2000D6F804B0DBF80070002007238022FF2172
:108D300000904FF4D830FEF763FD01200723802216
:108D4000FF2100904FF4D830FEF75AFD00BF00E03D
:108D50006D1C4D45FCD325A000F060F800240FE009
:108D60002A49A01C085C0B46621C0090995C1A46BC
:108D7000125D42EA07000023FF22FEF741FDE41CDA
:108D80002248005DFF28EBD1504606F0B3FA0025DB
:108D900022E015B1012D08D102E0DFF8748005E072
:108DA000DFF86C8008F1100800E000BF00BF47EA60
:108DB000080800240BE01749601C085C0090084676
:108DC000015D0023FF224046FEF71AFDA41C114856
:108DD000005DFF28EFD16D1C012DDAD90E48F0603F
:108DE00000200D4908604860BDE8F88F477376326F
:108DF0006B32202D2073657474696E67206932634D
:108E0000206164647265737365732E00F0980108C5
:108E100027B00100319A0108D00B002070B504463C
:108E2000002520460AF0CAFD02A00AF0C7FD284628
:108E300070BD00000D0A0000F8B504460025207939
:108E400010B1207901280CD1E088411C1DA0FFF74A
:108E5000E5FF204606F0BCF80121204606F02CFB79
:108E60002DE02079052802D02079062827D1E08836
:108E7000042802D0052820D100E000BF204603F0DE
:108E800091F8204603F038F9204605F017FE064613
:108E900000200346FF22C42100903046FEF7B0FCBC
:108EA000204605F00BFE06460F2000230246C9218E
:108EB00000903046FEF7A4FC00E000BF00BF28464B
:108EC000F8BD00002D2D2D2D2D2D2D2D2D2D2D2DD1
:108ED0002D2D527820256420526573657420506FC3
:108EE00072742D2D2D2D2D2D2D2D2D2D2D2D000080
:108EF0002DE9FC5F05460C4601260027B0464FF0E1
:108F000000094FF0000A4FF0000B207800B100BFBD
:108F1000607820B1284602F0E6FC4FF0000BA07804
:108F200000284CD0A86CC079012806D0062811D0A2
:108F3000072812D00C2816D111E0284605F022FD92
:108F40000190012007238022032100900198FEF761
:108F500057FC09E04FF0010906E0012704E000207A
:108F60008046064600E000BF00BF284605F00AFD27
:108F7000032308220121CDE90060FEF741FC2846C9
:108F800005F000FD042310220121CDE90070FEF759
:108F900037FC284605F0F6FC022304220121CDE926
:108FA0000080FEF72DFC284605F0ECFC0123022290
:108FB0001946CDE90090FEF723FC4FF0000BE07856
:108FC00018B14FF0010A4FF0000B207918B14FF0A3
:108FD000010A4FF0000B607918B14FF0010A4FF011
:108FE000000BA07918B14FF0010A4FF0000BE079A7
:108FF00008B14FF0000B207A08B14FF0000B607AF7
:10900000C8B1284605F0BEFC0190012005232022AE
:109010003F2100900198FEF7F3FB284605F0B2FCD3
:1090200001900020052320223F2100900198FEF7A7
:10903000E7FB4FF0000BA07A08B14FF0000BE07A8D
:1090400008B14FF0000B207B08B14FF0000B607BA4
:1090500008B14FF0000BA07B08B14FF0000BE07B94
:1090600008B14FF0000BBAF1010F17D1284605F0F7
:109070009BFC01900120034602227A210090019876
:10908000FEF7BEFB284605F08FFC0190012000236F
:1090900002467A2100900198FEF7B2FB5846BDE8DF
:1090A000FC9F0000F8B506460C460025207838B134
:1090B000012002230422362100905D48FEF7A0FB28
:1090C000607838B1012002230422372100905848EB
:1090D000FEF796FBA07878B10120062340223721C5
:1090E00000905348FEF78CFB0120062340225921B3
:1090F00000904F48FEF784FBE07838B1012006234A
:109100004022552100904A48FEF77AFB207978B139
:10911000012006234022342100904548FEF770FBD1
:10912000012002230422562100904148FEF768FBEB
:10913000607938B1012006234022562100903C4836
:10914000FEF75EFBA07938B10120022304225721EB
:1091500000903748FEF754FBE07938B10120062330
:109160004022572100903248FEF74AFB207A38B15E
:10917000012006234022542100902D48FEF740FB99
:10918000607A38B10120062340225A2100902848F5
:10919000FEF736FBA07A38B10120022304225821C1
:1091A00000902348FEF72CFBE07A38B1012002231F
:1091B0000422592100901E48FEF722FB207B38B183
:1091C000012006234022582100901948FEF718FB81
:1091D000607B38B10120022304225A2100901448F8
:1091E000FEF70EFBA07B78B1012006234022302140
:1091F00000900F48FEF704FB012006234022502177
:1092000000900B48FEF7FCFAE07B78B101200623C2
:109210004022322100900648FEF7F2FA0120062390
:109220004022522100900248FEF7EAFA2846F8BD93
:1092300003B00100F8B50446002594F97400401C01
:1092400058B1204605F09EFB064601200346022247
:109250005A2100903046FEF7D3FA2846F8BD0000A8
:10926000F8B506460C460025207838B101200223C7
:1092700004225F2100900248FEF7C2FA2846F8BD9A
:1092800003B00100F8B506460C460025207838B139
:10929000012006234022362100906D48FEF7B0FAE7
:1092A000607838B1012006234022352100906848BB
:1092B000FEF7A6FA207938B10120022304223921D1
:1092C00000906348FEF79CFA607938B101200623CC
:1092D0004022582100905E48FEF792FAA07938B1FA
:1092E0000120022304225B2100905948FEF788FAEE
:1092F000E07938B10120062340225B2100905448D8
:10930000FEF77EFA207A38B101200223042255218B
:1093100000904F48FEF774FA607A78B1012002237A
:109320000422302100904A48FEF76AFA0120022305
:109330000422502100904648FEF762FAA07A78B1E4
:10934000012002230422312100904148FEF758FAFF
:10935000012002230422512100903D48FEF750FADB
:10936000E07A78B10120062340223D210090384860
:10937000FEF746FA0120062340226A210090344875
:10938000FEF73EFA207B78B10120062340223121EE
:1093900000902F48FEF734FA012006234022512185
:1093A00000902B48FEF72CFA607B78B10120022355
:1093B0000422322100902648FEF722FA01200223DF
:1093C0000422522100902248FEF71AFAA07B78B1BD
:1093D000012002230422332100901D48FEF710FAD9
:1093E000012002230422532100901948FEF708FAB5
:1093F000E07B78B1012006234022332100901448FD
:10940000FEF7FEF901200623402253210090104868
:10941000FEF7F6F9207C78B10120022304223421E2
:1094200000900B48FEF7ECF901200223042254219E
:1094300000900748FEF7E4F9607C38B10120022370
:109440000422352100900248FEF7DAF92846F8BDDB
:1094500003B00100024600207047000038B5044602
:10946000E08810B1012832D118E000200346012223
:109470007D2100901848FEF7C3F901200223042241
:10948000772100901448FEF7BBF901200023024623
:10949000742100901048FEF7B3F919E00020012371
:1094A00002227D2100900C48FEF7AAF90120022338
:1094B0000422772100900848FEF7A2F90120034614
:1094C0000222742100900448FEF79AF900E000BFE0
:1094D00000BF002038BD000026B00100014600207A
:1094E000704700007CB505460C466FF00206002070
:1094F0000190102200212046FEF762FA686B407B43
:1095000000287DD00026284600F09EFD601C002328
:10951000012237210090E648FEF7B6F80023012229
:109520003621E3480094FEF7AFF8207800BB01A88D
:109530000123022236210090DD48FEF7A5F8A86C31
:109540008079012802D10020207011E09DF80400EC
:10955000012805D1A86CC07A10B90120207007E05D
:109560009DF8040020B9A86CC07A012800D12070B1
:10957000A01C0423102237210090CD48FEF784F868
:10958000A07838B9A01C0423102259210090C848A3
:10959000FEF77AF8E01C0423102255210090C448FD
:1095A000FEF772F8E07860B901A805232022552162
:1095B0000090BF48FEF768F89DF80400012800D12C
:1095C000E070201D0423102234210090B848FEF7DB
:1095D0005BF8207938B9201D002301225621009024
:1095E000B348FEF751F8601D042310225621009065
:1095F000AF48FEF749F8607970B901A8052300E08B
:10960000F9E0202256210090A948FEF73DF89DF888
:109610000400012800D16071A01D00230122572100
:109620000090A348FEF730F8A07960B901A80123A3
:109630000222572100909E48FEF726F89DF804006C
:10964000012800D1A071E01D0423102257210090B1
:109650009748FEF719F8E07960B901A805232022A0
:10966000572100909248FEF70FF89DF8040001285A
:1096700000D1E07104F1080004231022542100906D
:109680008B48FEF701F8207A60B901A80523202253
:10969000542100908648FDF7F7FF9DF8040001284B
:1096A00000D1207204F10900042310225A210090F5
:1096B0007F48FDF7E9FF607A60B901A80523202201
:1096C0005A2100907A48FDF7DFFF9DF80400012839
:1096D00000D1607204F10A00002301225821009099
:1096E0007348FDF7D1FFA07A60B901A801230222D7
:1096F000582100906E48FDF7C7FF9DF8040001282F
:1097000000D1A07204F10B00002301225921009026
:109710006748FDF7B9FFE07A60B901A8012302228A
:10972000592100906248FDF7AFFF9DF80400012821
:1097300000D1E07204F10C000423102258210090A3
:109740005B48FDF7A1FF207B60B901A8052320221B
:10975000582100905648FDF797FF9DF80400012816
:1097600000D1207304F10D00002301225A21009042
:109770004F48FDF789FF607B60B901A801230222F1
:109780005A2100904A48FDF77FFF9DF80400012808
:1097900000D1607304F10E000423102230210090E8
:1097A0004348FDF771FFA07B40B904F10E0004238C
:1097B0001022502100903E48FDF766FF04F10F0093
:1097C00004231022322100903948FDF75DFFE07B31
:1097D00040B904F10F0004231022522100903448B4
:1097E000FDF752FF686B007918B1A86C80790128E9
:1097F00001D10020A0702078012803D1E9882DA094
:10980000FFF70CFB6078012803D1E98830A0FFF74F
:1098100005FBA078012803D1E98834A0FFF7FEFA00
:10982000E078012803D1E98837A0FFF7F7FA20791B
:10983000012803D1E9883AA0FFF7F0FA60790128FE
:1098400003D1E9883DA0FFF7E9FAA079012803D107
:10985000E98841A0FFF7E2FA207A012803D1E988DC
:1098600044A0FFF7DBFA607A012803D1E98848A019
:10987000FFF7D4FA207B012803D1E9884BA0FFF73A
:10988000CDFA607B012803D1E9884FA0FFF7C6FA23
:10989000A07B012803D1E98852A0FFF7BFFAE07B43
:1098A000012803D1E98856A0FFF7B8FA30467CBDFD
:1098B00003B00100506F727425643A20496E7470D1
:1098C000742D3E4175644368616E4D6F64650000A0
:1098D000506F727425643A20496E7470742D3E493D
:1098E0006E7465726E4D757465000000506F727411
:1098F00025643A20496E7470742D3E43734461743C
:109900006156616C69640000506F727425643A207E
:10991000496E7470742D3E4E4368616E6765000039
:10992000506F727425643A20496E7470742D3E43F2
:10993000747354687265736800000000506F72742D
:1099400025643A20496E7470742D3E4175644669F1
:10995000666F4F7600000000506F727425643A20E5
:10996000496E7470742D3E4175644669666F556E1C
:1099700000000000506F727425643A20496E7470C4
:10998000742D3E417564696F506B744572720000AE
:10999000506F727425643A20496E7470742D3E4184
:1099A00075644D6F6465436867000000506F7274A2
:1099B00025643A20496E7470742D3E41756453617C
:1099C0006D70436867000000506F727425643A2020
:1099D000496E7470742D3E4175645072747945728D
:1099E00072000000506F727425643A20496E7470E2
:1099F000742D3E417564496656616C6964000000CF
:109A0000506F727425643A20496E7470742D3E4113
:109A1000637056616C696400F8B504460025204601
:109A200004F0C2FF0646606C401D00230122194667
:109A300000903046FDF728FE2846F8BD2DE9F04F8E
:109A400089B004460D464FF0000A002008900790A8
:109A5000069005900490039002900026002780460F
:109A60008146022200212846FDF7AAFFC848006867
:109A7000A04229D1002301225F21C6480095FDF7AD
:109A800003FE681C0423102239210090C148FDF711
:109A9000FBFDE06B001D012302225F210090BD4809
:109AA000FDF7F2FD606B401D052320223921009057
:109AB000B848FDF7E9FD06A8012302223A210090EB
:109AC000B448FDF7E1FD04E06FF0030009B0BDE824
:109AD000F08F6878002817D09DF8180040B9606BA7
