:020000040800F2
:104000005847002065410008496F0108BD4101087B
:10401000456F010885140108C983010800000000EC
:10402000000000000000000000000000977C010874
:104030004916010800000000BF6F0108E580010873
:104040007F410008616B01087F4100087F41000843
:104050007F4100087F4100087F4100087F41000840
:104060007F4100087F4100087F4100087F41000830
:104070007F4100087F4100087F4100087F41000820
:104080007F4100087F4100087F4100087F41000810
:104090007F4100087F4100087F4100087F41000800
:1040A0007F4100085D8101087F4100087F410008D1
:1040B0007F4100087F4100087F4100087F410008E0
:1040C0007F4100087F4100087F4100087F410008D0
:1040D0007F41000869810108ED8101087F410008E6
:1040E0007F4100087F410008818201087F4100086C
:1040F0007F4100087F4100087F4100080000000068
:104100007F410008000000007F4100087F41000857
:104110007F4100087F4100087F4100087F4100087F
:104120007F4100087F4100087F4100087F4100086F
:104130007F41000800000000000000007F410008EF
:104140007F4100087F4100087F410008718201081B
:10415000DFF80CD000F062FB00480047219701080F
:10416000584700200648804706480047FEE7FEE71C
:10417000FEE7FEE7FEE7FEE7FEE7FEE7FEE7FEE717
:10418000F18001085141000840EA01039B0703D078
:1041900009E008C9121F08C0042AFAD203E011F886
:1041A000013B00F8013B521EF9D27047D2B201E048
:1041B00000F8012B491EFBD270470022F6E710B52C
:1041C00013460A4604461946FFF7F0FF204610BD85
:1041D000421C10F8011B0029FBD1801A704710B552
:1041E000002200E0521C835C8C5CA34201D1002BB6
:1041F000F8D1D8B2E1B2401A10BD30B50446002063
:10420000034600E05B1C934203D2E05CCD5C401BA4
:10421000F8D030BD0FB400B58DB010A909900B9047
:1042200000914FF0FF300A9000200C900548069056
:10423000054807906A4609A80F9900F009F90DB0E2
:104240005DF814FB6D4400088B4400082DE9FF5F06
:104250001D464FF0FF3BD5E9014691465F464FF0C2
:104260000008A9697F1C01988847296A8246884707
:104270000028F6D1BAF1FF3F0CD024F4C064002E20
:1042800019DD600614D5BAF12B0F09D0BAF12D0F44
:104290000ED103E0584604B0BDE8F09F44F48064BA
:1042A000A9697F1C01988847761E8246002E02DD90
:1042B000BAF1300F03D0B9F1000F26D032E0A9696E
:1042C000761E44F400747F1C019888478246002EB5
:1042D00005DDBAF1780F06D0BAF1580F03D0B9F165
:1042E000000F10D01EE0B9F1000F02D0B9F1100F8D
:1042F00018D1A969761E24F400747F1C01988847A0
:104300008246102002E0082000E00A20814609E0F1
:1043100008FB0908A969761E44F400747F1C019803
:1043200088478246002E05DD4946504600F07BF85E
:104330000028EDDAE96901988847A00502D46FF0FA
:104340000100A8E7E00725D1600613D5600502D576
:10435000C8F1000000E0404629680A1D2A6009688B
:10436000220501D5087015E0220701D5088011E06B
:1043700008600FE02868011D29600068210502D54A
:1043800080F8008006E0210702D5A0F8008001E057
:10439000C0F8008038467EE730B50B460146002065
:1043A0002022012409E021FA02F59D4205D303FAF7
:1043B00002F5491B04FA02F52844151EA2F1010278
:1043C000F1DC30BD2DE9F05F0546002092469B46AA
:1043D00088460646814640241BE02846414647461B
:1043E000224600F03CFA53465A46C01A914110D377
:1043F00011461846224600F023FA2D1A67EB0108F1
:104400004F4622460120002100F01AFA17EB00095E
:104410004E41201EA4F10104DFDC484631462A4605
:104420004346BDE8F09F3A2800D2303820F0200201
:10443000412A01D3A2F13700884201D34FF0FF3067
:1044400070470000026811441378016018467047F5
:10445000D160044951610449116200211161114682
:1044600000F024BA45440008A3480008426842B15D
:10447000016811F8013B23B1521EC0E90012184631
:1044800070470121C160881E704742685AB1C368F5
:10449000016843B983688B4205D0491E521CC0E9AC
:1044A0000012002070474FF0FF3070472DE9FE4F9B
:1044B000804681EA0300C00F0C46009021F00041C5
:1044C00023F00045B8EB0200A94105D24046214641
:1044D00090461C460B46024623F00040104347D04E
:1044E000270DC7F30A00C3F30A510290401A019046
:1044F00040286BDAC3F3130040F4801B0098924607
:1045000020B10023D2EB030A63EB0B0B0198594651
:10451000C0F14002504600F093F906460D46504661
:104520005946019A00F0ABF910EB080061410024F4
:1045300087EA115284EAE7731A4340D0009A62B3C3
:10454000019A012A4FEA075215DC001B61EB0201B8
:104550004FF0004202EA0752CDE90042001C41F54B
:10456000801132462B4600F046FB03B0BDE8F08FC9
:1045700040462146F9E7001B61EB0201001C41F5B2
:10458000801300185B412018A2F5001747EB0301C8
:1045900040EAD570B6196D4111E06D084FEA360654
:1045A00045EAC0754FEA0752001B61EB0201001C8F
:1045B00041F5801149084FEA300000195141324657
:1045C0002B4603B0BDE8F04F00F006BB0098012277
:1045D00040000023D0EB020263EBE0730098214619
:1045E0004FEAE074B8EB000061EB0401E9E783F007
:1045F00000435BE781F0004158E72DE9FE4F81EA77
:10460000030404F0004421F0004100944FF0000B3B
:1046100023F0004350EA01045ED052EA03045BD069
:10462000C3F30A54C1F30A552C44A4F2F3340194A1
:10463000A0FB0254C1F3130141F48011C3F313032F
:1046400043F4801301FB024400FB034E840A970AE3
:1046500044EA815447EA8357A4FB076802958D0A10
:1046600005FB07854FEA932C04FB0C542705029D9C
:104670004FEA065847EA1637B5EB08056EEB070C0C
:10468000870E920E47EA811742EA8312A7FB0201C6
:10469000B6EB0B0164EB00042B0D43EA0C335E1800
:1046A00044EB1C50DA465146E7FB0201C5F3130404
:1046B0004FEA0B3343EA14534FEA0432019C43EAB6
:1046C0000603A4F10C040294009CCDE900B400F0B0
:1046D00092FA03B0BDE8F08F00200146F9E72DE91A
:1046E000F04D81EA030404F0004B21F0004514462C
:1046F0004FF0000A23F0004150EA050220D054EAAE
:1047000001021DD0C5F30A570246C5F31303C1F3D6
:104710001300C1F30A5640F4801543F48013A7EB4D
:104720000608101BD64608F2FD3873EB050002D3CD
:1047300008F1010801E092185B41B8F1000F03DABB
:1047400000200146BDE8F08D00204FF480110646A0
:1047500084460EE0171B73EB050705D3121B63EBB2
:10476000050306434CEA010C49084FEA3000921851
:104770005B4150EA0107EDD152EA030012D082EA10
:10478000040083EA0501084305D0101BAB4106D2A3
:104790000122002306E000224FF0004302E06FF008
:1047A000010253101AEB06004CEB085110EB0A0003
:1047B00041EB0B01BDE8F04D00F00EBAC1F30A5217
:1047C000C1F3130140F2FF3341F480119A4202DA3F
:1047D00000200146704740F233439A42A2F233422E
:1047E00002DC524200F03BB800F02AB830B5041E9B
:1047F00071F1000404DB4FF00044404264EB01011E
:10480000141E73F1000405DB1C464FF000435242B6
:1048100063EB0403994208BF904230BD064C074D3C
:1048200006E0E06840F0010394E807009847103480
:10483000AC42F6D3FFF790FC74F4010894F401083D
:10484000202A04DB203A00FA02F100207047914050
:10485000C2F1200320FA03F3194390407047202A45
:1048600004DB203A21FA02F00021704721FA02F31A
:10487000D040C2F120029140084319467047202AD7
:1048800006DBCB17203A41FA02F043EAE07306E078
:1048900041FA02F3D040C2F1200291400843194688
:1048A0007047C0B24FF4F05100F0F4B92DE9F34F66
:1048B0008BB04FF0000801F10C000C464FF0010BDB
:1048C00046460DF1080A019062690121019890475E
:1048D000051E2DD0252D2CD0216A8847C0B16269D4
:1048E000012101989047216A88470028F7D1411E8D
:1048F00062690198904700E0761CA1690B9888478F
:10490000216A88470028F7D1E1690B988847DBE7DF
:10491000A1690B9888470746A84201D1761CD3E7C6
:10492000E1690B9888477F1C02D1B8F1000F6FD066
:1049300046E1002762693D463946019890472A289A
:1049400004D162690121019890470125DFF8849222
:104950006269012101989047A0F130010A290AD229
:104960004F45E5DC07EB870100EB4107303FDFD423
:1049700045F01005ECE7E90601D46FF000476C281C
:104980000AD04C2814D0682815D06A280DD0742875
:104990001CD07A281AD01DE0626901210198904745
:1049A0006C2802D045F0040514E045F002050DE046
:1049B00045F020050AE062690121019890476828C6
:1049C00002D045F0080505E045F400656269012163
:1049D00001989047C4E9015765283DD019DC582853
:1049E0007AD00CDC452837D004DC252826D0412895
:1049F00031D131E046282FD047282CD12CE05B283C
:104A000077D0612828D063287CD0642823D15AE04D
:104A1000D0E06F2848D008DC66281DD067281BD05E
:104A2000692821D06E2816D127E0702845D0732838
:104A300068D0752847D078280DD14DE0A1690B9832
:104A40008847054625283FF469AFE1690B988847F8
:104A50006D1C3FF46AAFB3E023466A466FF0010075
:104A60000B99AFF300809EE045F040006060A8071E
:104A700023464FF0000236D43EE0E8077FF447AF0C
:104A80002068011D21600068290501D506701BE71B
:104A9000290701D5068017E7A90703D5F117C0E953
:104AA000006111E706600FE745F040006060A8076D
:104AB00023464FF0080216D41EE040F60E0125EA08
:104AC0000100606016E045F040006060A8072346E2
:104AD0004FF00A0207D40FE045F040006060A807DD
:104AE00008D5234610226FF001000B99AFF3008028
:104AF00059E007E0234610226FF001000B99FFF701
:104B0000A5FB50E04FF000094F464B46632802D00A
:104B10005B2806D040E0E80601D40120A060012710
:104B20003AE062690121019890475E2805D14FF073
:104B300001096269494601989047216939B9002104
:104B40000A46534643F82120491C0829FADBB0B332
:104B5000216969B9C11700EBD16253110AEB8301D6
:104B600022F01F02821A01200B68904003430B6061
:104B700062690121019890475D28E8D1B9F1000FE1
:104B800009D00020514651F82020D24341F820207E
:104B9000401C0828F7DB02AB224600976FF00100AB
:104BA0000B99AFF3008000280CDA401C08D1BBF150
:104BB000000F05D04FF0FF300DB0BDE8F08FFFE7DC
:104BC0004046F9E7E90701D108F1010806444FF032
:104BD000000B79E6CCCCCC0C10B5141E73F100049C
:104BE00008DA401C41F1000192185B411A4301D1DF
:104BF00020F0010010BD2DE9F04D92469B4611B109
:104C0000B1FA81F202E0B0FA80F220329046FFF76A
:104C100017FE04460F4640EA0A0041EA0B015346DC
:104C20005A46084313D0114653EA010019D0C8F17F
:104C300040025046FFF713FE05460E4650465946C1
:104C40004246FFF7FDFD084305D0012004E0204661
:104C50003946BDE8F08D0020054346EAE0762C4356
:104C600037430A986305E40AA0EB08000022FD0A16
:104C700044EA47540A3002D500200146E9E701051D
:104C800010196941DDE9084500196941BDE8F04D99
:104C9000A2E700007F2801D9002208E0064A02EBC3
:104CA0005002C007127800D1120902F00F02012051
:104CB00090400840704700008CF2010870B58C18D5
:104CC00010F8015B15F0070301D110F8013B2A1120
:104CD00006D110F8012B03E010F8016B01F8016B0D
:104CE0005B1EF9D12B0705D40023521E0DD401F809
:104CF000013BFAE710F8013BCB1A921C03E013F8D2
:104D0000015B01F8015B521EF9D5A142D8D3002006
:104D100070BD70472DE9F04106464FF000080122B2
:104D2000FCA1FD4801F0C8FB80BBFC4AFCA1FA488D
:104D3000FFF770FAF848807830280FDBF648807863
:104D400039280BDCF7480068042807D340F2813289
:104D5000F149C91CC81EFFF717FA18E0EE48407861
:104D600030280FDBEC48407839280BDCED48006830
:104D7000032807D340F28232E749891C881EFFF7D7
:104D800003FA04E04FF6FF70BDE8F08106E0E54865
:104D90000068001FE4490860012500E0002585B196
:104DA000DE48006808B9032413E0E0480078DB49D6
:104DB0000968884201D101240BE002244FF6FF70FC
:104DC000E2E7DA48007818B102244FF6FF70DBE71B
:104DD000002400F03DFD0422D5A1CF4801F06CFB7A
:104DE00020B9304600F04CFD0020CDE70622D2A1CC
:104DF000C94801F061FB20B9304601F0EDFA00200E
:104E0000C2E70322CEA1C44801F056FB00286ED1B0
:104E10000322CCA1C048C01C01F04EFB00283DD1AC
:104E20000422C9A1BC48C01D01F046FB30B10422D8
:104E3000C5A1B948083001F03FFB70BBC44BC54A5F
:104E4000C5A1B548FFF7E6F900BFC24800680128D0
:104E500004D93046FFF75DFF012095E7BC480068A4
:104E600018B1BB480068022804D93046FFF751FF4B
:104E7000012089E7B6480368B648BBA10268BE486E
:104E800013F020FBBC4800F095FCB14A1178B14A00
:104E9000107802F053F9002076E7FFE70322A9A17A
:104EA0009D48C01C01F008FBA8BB0822B3A19A488A
:104EB000C01D01F001FB70BBA54BA64AB2A19648EC
:104EC000FFF7A8F9A3480068012804D03046FFF78F
:104ED00020FF012058E79E480068012808D09C4820
:104EE000006828B13046FFF714FF01204CE701E2CB
:104EF000974803689748A9A102689F4813F0E2FA0F
:104F00009D4800F057FC92480068012804D1002019
:104F100001F0D4FD03E004E0012001F0CFFD00200A
:104F200032E7032287A17C48C01C01F0C5FAA0BB70
:104F300004229FA17848C01D01F0BEFA68BB844BD3
:104F4000844A9DA17448FFF765F9824800680128EA
:104F500004D03046FFF7DDFE012015E77C480068ED
:104F600040B17B480068022804D03046FFF7D1FEEC
:104F7000012009E776480368764893A102687E48D5
:104F800013F0A0FA7C4800F015FC714A1178714AC0
:104F9000107801F027FF0020F6E6FFE702228EA13D
:104FA0005D48C01C01F088FAE0BB04228BA15A487E
:104FB000801D01F081FA30B1042288A15648C01D3D
:104FC00001F07AFA70BB624B624A86A15248FFF741
:104FD00021F960480068012804D03046FFF799FEA7
:104FE0000120D1E600BF5A480068232804D9304682
:104FF000FFF78FFE0120C7E65548036855487DA19D
:1050000002685D4813F05EFA5B4800F0D3FB0120B4
:1050100001F05AFD4E4A11784E4A107801F05AFFBD
:105020000020B1E6FFE7042276A13B48C01C01F056
:1050300043FAE0B9474A75A13748FFF7EBF845480E
:105040000068632804D93046FFF763FE01209BE621
:10505000404871A10268484813F034FA464800F00D
:10506000A9FB3C49087802F08FF800208CE6092261
:105070006CA12948C01C01F01FFA88BB354A6CA1FD
:105080002548FFF7C7F833480068012804D03046A8
:10509000FFF73FFE012077E6032269A11E480D308D
:1050A00001F00AFA50B967A1334813F00BFA3248FD
:1050B00000F080FB012001F001FD17E0042265A152
:1050C00015480D3001F0F8F958B964A12A4813F0D9
:1050D000F9F9294800F06EFB002001F0EFFC05E033
:1050E00006E03046FFF715FE01204DE600204BE6B6
:1050F00004225EA10848C01C01F0DEF938B9032281
:105100005CA10548C01D01F0D7F908B9B4E0D6E0AC
:10511000BDE0000041000000BC1700208C00002012
:10512000412564009400002090000020401B0020D6
:10513000455A480D00000000455A5354410D0000E7
:10514000455A53004F5554005653494E0000000035
:105150007800002074000020455A534F55542564B0
:105160005653494E256400004F555425642056532C
:1051700020494E2564000000740E0020484443502E
:105180004D4F444500000000455A534F5554256487
:10519000484443504D4F4445256400004F55542525
:1051A000642048444350204D4F444525640000008E
:1051B0004844435000000000455A534F555425645D
:1051C00048444350256400004F555425642048440A
:1051D0004350202564000000494E000045444944E6
:1051E00000000000455A53494E2564454449442572
:1051F00064000000494E256420454449442025644C
:10520000000000004144445200000000455A534150
:105210004444522564000000414444522025302E6D
:105220003264000044454255474D4F44450000005C
:10523000455A5344454255474D4F44452564000067
:10524000454E0D004445425547204D4F44453120C1
:10525000454E00004449530D0000000044454255AE
:1052600047204D4F44453120444953004155544F48
:10527000000000004F4E0D00F8A1FA4813F022F98B
:10528000F84800F097FA012001F00CFA15E004222A
:10529000F5A1F74801F010F950B9F6A1F14813F063
:1052A00011F9F04800F086FA002001F0FBF904E063
:1052B0003046FFF72EFD012066E5002064E504225C
:1052C000EFA1EB48001F01F0F7F850B9EEA1E54857
:1052D00013F0F8F8E34800F06DFA01F03FFF00200A
:1052E00052E54FF46171E248C01FFEF766FF4FF6CA
:1052F000FF7049E50322E5A1DD48C01F01F0DCF89D
:1053000000286FD10322AFF2C411D948001F01F069
:10531000D3F878BB0322DEA1D54801F0CDF830B137
:105320000322DBA1D248401C01F0C6F810BBD94AC9
:10533000D9A1CF48C01FFEF76DFF00BFD548006858
:10534000012804D93046FFF7E4FC01201CE5D148D0
:10535000006880B9012001F0D1FE07463B460122DA
:10536000AFF2FC11BF4813F0ADF83146BD4800F074
:105370002DFA11E012E0C749087801F0BFFE074698
:105380003B46C448AFF220210268B64813F09AF8B1
:105390003146B44800F01AFA0020F5E40322AFF2D7
:1053A0005C21B348001F01F087F888BB0522BDA12E
:1053B000AF4801F081F830B10522BAA1AC48401CD9
:1053C00001F07AF820BBB34AB9A1A948C01FFEF783
:1053D00021FFB0480068012805D03046FFF799FC4E
:1053E0000120D1E4DCE101F063FB08B9012000E019
:1053F000002007463B46A748AFF260210268994863
:1054000013F060F83146974800F0E0F90020BBE463
:10541000FFE70322AFF2D4219548001F01F04CF8BA
:1054200070BB0522A7A1924801F046F830B10522D1
:10543000A4A18F48401C01F03FF808BB954AA3A1E6
:105440008B48C01FFEF7E6FE92480068012804D092
:105450003046FFF75EFC012096E48E49087801F0A3
:10546000A1FC07463B468B48AFF2A42102687D4869
:1054700013F028F831467B4800F0A8F9002083E4B7
:105480000222AFF2AC217A48001F01F015F830B9C2
:10549000072292A17648401E01F00EF828B107229B
:1054A0008EA1734801F008F8F8B97A4A8DA17048C6
:1054B000C01FFEF7AFFE77480068012804D03046D1
:1054C000FFF727FC01205FE472480068401E89490D
:1054D0000B5C704888A10268624812F0F3FF314605
:1054E000604800F073F900204EE40222AFF2183158
:1054F0005F48001F00F0E0FF30B9052282A15C4840
:10550000401E00F0D9FF28B105227FA1584800F0C5
:10551000D3FF00BB5F4A7EA15548C01FFEF77AFE4D
:105520005C480068012804D03046FFF7F2FB0120F8
:105530002AE458480068401E78490B5C5548AFF291
:105540004C310268474812F0BDFF3146454800F033
:105550003DF9002018E4052271A14548001F00F024
:10556000ABFF68B96D48C01E0278AFF254313D48B8
:1055700012F0A8FF31463B4800F028F9002003E470
:10558000072269A13A48001F00F096FF58B9092385
:10559000012267A1334812F095FF3146314800F0EF
:1055A00015F900200CE4082266A13148001F00F024
:1055B00083FF50B966A269A12A4812F083FF3146E1
:1055C000284800F003F900200FE40922AFF2AC31C3
:1055D0002748001F00F070FF08BB2E4A60A1244836
:1055E000C01FFEF717FE2B480068012804D0304684
:1055F000FFF78FFB012030E401F05AFA08B15CA0FC
:1056000001E0AFF29C3007463A465AA1154812F025
:1056100059FF3146134800F0D9F800201DE4092253
:1056200058A11348001F00F047FF68B901F034F893
:1056300007463A4656A10B4812F044FF3146094846
:1056400000F0C4F8002008E44FF461710848C01F5E
:10565000FEF7B3FD4FF6FF700BE400004155544FC9
:10566000204F4E00740E00204F46460D00000000F3
:10567000C31700204155544F204F464600000000FC
:105680005253540D0000000052535400455A470035
:1056900056530D0074000020455A474F5554256459
:1056A00056530000484443504D4F44450D00000000
:1056B000455A474F55542564484443504D4F44453F
:1056C00000000000484443500D000000455A474F79
:1056D0005554256448444350000000005349475343
:1056E00054410D00455A47494E2564534947535488
:1056F00041000000571B0020494E256420534947B4
:105700002053544120256400454449440D000000C5
:10571000455A47494E25644544494400431B0020EF
:10572000414444520D000000564552494E460D007A
:105730004D41494E204D4355205625642E252E328D
:105740006400000054595045494E460D00000000C9
:1057500053573231484132310000000025730000B8
:10576000455A4744454255474D4F4445256400003E
:10577000454E20004445425547204D4F4445312079
:10578000257300004155544F4D4F44450D00000016
:105790004155544F204D4F444520256400000000E2
:1057A0004FF461710248FEF708FD4FF6FF7018E4F0
:1057B000BC17002010B50446214602A012F09CFD43
:1057C00010BD000025730D0A0000000070B50446EE
:1057D0000D46214601A012F08FFD70BD25730D0A04
:1057E0000000000070B50646002400254FF46171EA
:1057F0001448FEF7E2FC00BF1EE01348005D2028BD
:1058000000D117E01048005D61280CDB0E48005DF8
:105810007A2808DC0C48005D2038C2B228466D1C8E
:1058200008490A5405E00848025D28466D1C0549F0
:105830000A5400BF601C84B2B442DED30348056042
:10584000AD1E70BDBC1700205C1E0020940000201F
:105850004FF6FF7005490860054908600549086072
:105860000549086005490860704700007400002081
:10587000780000207C0000208000002084000020B0
:1058800010B5044641A012F037FD022013F092FB40
:105890004EA012F031FD022013F08CFB3BA012F061
:1058A0002BFD022013F086FB5848017809230122C2
:1058B000574812F021FD022013F07CFB55A012F096
:1058C0001BFD022013F076FB62A012F015FD0220F2
:1058D00013F070FB6FA012F00FFD022013F06AFBB3
:1058E0007CA012F009FD022013F064FB89A012F0E5
:1058F00003FD022013F05EFB96A012F0FDFC0220D7
:1059000013F058FBA3A012F0F7FC022013F052FB97
:10591000B0A012F0F1FC022013F04CFBBDA012F07D
:10592000EBFC022013F046FBCAA012F0E5FC0220BB
:1059300013F040FB37A012F0DFFC022013F03AFB1B
:10594000D44812F0D9FC022013F034FBD2A012F09C
:10595000D3FC022013F02EFBDFA012F0CDFC0220BE
:1059600013F028FBE8A012F0C7FC022013F022FB82
:1059700028A012F0C1FC022013F01CFBF2A012F0D0
:10598000BBFC022013F016FBFEE100003D3D3D3D57
:105990003D3D3D3D3D3D3D3D3D3D3D3D3D3D3D3D37
:1059A0003D3D3D3D3D3D3D3D3D3D3D3D3D3D3D3D27
:1059B0003D3D3D3D3D3D3D3D3D3D3D3D3D3D3D3D17
:1059C0003D3D3D3D3D3D3D3D0D0A00003D3D20201E
:1059D00020202020202020202020202020202020C7
:1059E000202020202020202053797374656D73209F
:1059F00048454C50202020202020202020202020FE
:105A00002020202020203D3D0D0A0000401B0020CA
:105A1000CCF201083D3D2D2D2D2D2D2D2D2D2D2D83
:105A20002D2D2D2D2D2D2D2D2D2D2D2D2D2D2D2DA6
:105A30002D2D2D2D2D2D2D2D2D2D2D2D2D2D2D2D96
:105A40002D2D2D2D2D2D2D2D2D2D2D2D2D2D3D3D66
:105A50000D0A00003D3D2053797374656D20436F3E
:105A60006E74726F6C20536574757020436F6D6D2A
:105A7000616E64733A2020202020202020202020E6
:105A800020202020202020202020202020203D3DDC
:105A90000D0A00003D3D20455A48202020202020AE
:105AA00020202020202020202020202020203A20DC
:105AB00048656C70202020202020202020202020DD
:105AC00020202020202020202020202020203D3D9C
:105AD0000D0A00003D3D20455A535441202020200E
:105AE00020202020202020202020202020203A209C
:105AF00053686F7720476C6F62616C2053797374C1
:105B0000656D2053746174757320202020203D3D05
:105B10000D0A00003D3D20455A5320414444522087
:105B20007878202020202020202020203A20536533
:105B3000742053797374656D204164647265737366
:105B400020746F20787820202020202020203D3DC8
:105B50000D0A00003D3D2020202020202020202074
:105B600020202020202020202020202020207B7882
:105B7000783D5B30307E39395D2830303D53696E79
:105B8000676C65297D2020202020202020203D3D9D
:105B90000D0A00003D3D20455A5320525354202009
:105BA0002020202020202020202020203A20526564
:105BB00073657420746F20466163746F727920443A
:105BC000656661756C7473202020202020203D3D87
:105BD0000D0A00003D3D20455A53204155544F20A9
:105BE0004F4E2F4F46462020202020203A2053653C
:105BF00074204175746F20537769746368204D6F0A
:105C00006465204F6E2F4F666620202020203D3D8A
:105C10000D0A00003D3D20455A47204155544F2074
:105C20004D4F444520202020202020203A20476549
:105C300074204175746F20537769746368204D6FC9
:105C400064652053746174757320202020203D3DCD
:105C50000D0A00003D3D20455A4720414444522052
:105C60002020202020202020202020203A204765AE
:105C7000742053797374656D204164647265737325
:105C800020202020202020202020202020203D3DDA
:105C90000D0A000014F301083D3D20455A47204FEE
:105CA00055547820565320494E792020202020201A
:105CB0003A20536574204F757470757420782054A1
:105CC0006F20496E707574207920202020202020BC
:105CD00020203D3D0D0A00003D3D20090909207BA3
:105CE000783D312C20793D5B317E325D7D20202056
:105CF00020202020202020202020202020202020A4
:105D00003D3D0D0A000000003D3D20455A47204F13
:105D10005554782056532020202020202020202059
:105D20003A20476574204F7574707574207820563A
:105D30006964656F20526F757465207B783D317D95
:105D400020203D3D0D0A00003D3D20496E707574D8
:105D500020536574757020436F6D6D616E643A20D9
:105D6000284E6F74653A696E707574206E756D6239
:105D700065722878293D48444D492878292C783D7A
:105D800031293D3D0D0A000030A012F0B5FA022085
:105D900013F010F93DA012F0AFFA022013F00AF947
:105DA0004AA012F0A9FA022013F004F957A012F049
:105DB000A3FA022013F0FEF864A012F09DFA02206C
:105DC00013F0F8F871A012F097FA022013F0F2F82D
:105DD0007EA012F091FA022013F0ECF88BA012F0E2
:105DE0008BFA022013F0E6F898A012F085FA022050
:105DF00013F0E0F8A5A012F07FFA022013F0DAF811
:105E0000B2A012F079FA022013F0D4F8BFA012F079
:105E100073FA022013F0CEF8CCA012F06DFA022033
:105E200013F0C8F8D9A012F067FA022013F0C2F8F4
:105E3000E6A012F061FA022013F0BCF8F3A012F011
:105E40005BFA022013F0B6F800E200003D3D204569
:105E50005A5320494E782045444944207920202037
:105E6000202020203A2053657420496E70757420DC
:105E70007820454449447B783D5B315D2C20793D59
:105E80005B307E33305D3D3D0D0A00003D3D2020FE
:105E9000303A31303830505F3243482850434D2932
:105EA0002020202020313A31303830505F364348AE
:105EB00020202020202020323A31303830505F38E6
:105EC0004348202020203D3D0D0A00003D3D20207C
:105ED000333A31303830505F33445F3243482850D2
:105EE000434D292020343A31303830505F33445FFD
:105EF00036434820202020353A31303830505F3347
:105F0000445F384348203D3D0D0A00003D3D2020C0
:105F1000363A344B3330487A5F33445F3243482853
:105F200050434D2920373A344B3330485A5F33447D
:105F30005F364348202020383A344B3330485A5F8C
:105F400033445F3843483D3D0D0A00003D3D20206D
:105F5000393A344B3630487A2859343230295F3355
:105F6000445F3243482850434D29202020202031CF
:105F7000303A344B3630487A2859343230295F333E
:105F8000445F364348203D3D0D0A00003D3D202042
:105F900031313A344B3630487A2859343230295F1F
:105FA00033445F3843482020202020202020203107
:105FB000323A344B3630485A5F33445F32434820DC
:105FC0002020202020203D3D0D0A00003D3D2020C6
:105FD00031333A344B3630485A5F33445F364348A6
:105FE00020202020202020202020202020202031A0
:105FF000343A344B3630485A5F33445F3843482094
:106000002020202020203D3D0D0A00003D3D202085
:1060100031353A31303830505F3243485F4844526E
:106020002031363A31303830505F3643485F48448B
:10603000522031373A31303830505F3843485F486A
:106040004452202020203D3D0D0A00003D3D2020EF
:1060500031383A31303830505F33445F324348286A
:1060600050434D295F484452202020202031393AA6
:1060700031303830505F33445F3643485F484452D4
:106080002020202020203D3D0D0A00003D3D202005
:1060900032303A31303830505F33445F3843485FF4
:1060A0004844522020202020202020202032313A35
:1060B000344B3330487A5F33445F3243482850438F
:1060C0004D295F4844523D3D0D0A00003D3D2020D2
:1060D00032323A344B3330487A5F33445F36434888
:1060E0005F48445220202020202020202032333AB4
:1060F000344B3330487A5F33445F3843485F484419
:106100005220202020203D3D0D0A00003D3D202052
:1061100032343A344B3630487A2859343230295F99
:1061200033445F3243485F4844522032353A344B5F
:106130003630487A2859343230295F33445F364349
:10614000485F484452203D3D0D0A00003D3D20205F
:1061500032363A344B3630487A2859343230295F57
:1061600033445F3843485F4844522032373A344B17
:106170003630487A5F33445F3243482850434D29D4
:106180005F48445220203D3D0D0A00003D3D202047
:1061900032383A344B3630487A5F33445F364348BE
:1061A0005F4844522020202020202032393A344BAE
:1061B0003630487A5F33445F3843485F4844522062
:1061C0002020202020203D3D0D0A00003D3D2020C4
:1061D00033303A344B3630487A5F33445F32434889
:1061E0002850434D295F444C56532033313A344BA9
:1061F0003630487A5F33445F3643485F444C5653E9
:106200005F444C4154203D3D0D0A00003D3D20209F
:1062100033323A344B3630487A5F33445F38434840
:106220005F444C56535F444C41542033333A4652FA
:106230004C3430475F384B5F3243482850434D2938
:106240005F48562020203D3D0D0A000012A012F0AC
:1062500053F8022012F0AEFE1FA012F04DF80220FB
:1062600012F0A8FE2CA012F047F8022012F0A2FEB5
:1062700039A012F041F8022012F09CFE46A012F064
:106280003BF8022012F096FEAFF6780012F034F8D8
:10629000022012F08FFE10BD3D3D202033343A46DF
:1062A000524C3430475F384B5F3643485F48562086
:1062B0002020202020202033353A46524C343047CD
:1062C0005F384B5F3843485F4856412020202020EC
:1062D00020203D3D0D0A00003D3D202033363A434D
:1062E0006F7079204F75747075743120454449443E
:1062F000284E4F20535555504F525420434D442063
:1063000053455454494E4729202020202020202046
:1063100020203D3D0D0A00003D3D202033373A430B
:106320006F7079204F7574707574312045444944FD
:1063300020322E314348284E4F20535555504F524E
:106340005420434D442053455454494E472920205E
:1063500020203D3D0D0A00003D3D202033383A43CA
:106360006F7079204F7574707574312045444944BD
:1063700020352E314348284E4F20535555504F520B
:106380005420434D442053455454494E472920201E
:1063900020203D3D0D0A00003D3D20455A47204943
:1063A0004E782045444944202020202020202020D1
:1063B0003A2047657420496E7075742078204544F2
:1063C000494420496E6465787B783D5B315D7D2072
:1063D00020203D3D0D0A00007047000070B50646C4
:1063E0000024002540212D48FDF7E7FE00202C4920
:1063F000088000BF48E02A480088C0B92948005DED
:1064000020283FD02748005D0D283BD02548005D5F
:106410000A2837D022480088401C2149088021489A
:10642000025D2846691C8DB21C490A542AE01D48A9
:10643000005D202826D01B48005D0D2803D0194898
:10644000005D0A280FD10120174908701448008800
:10645000401C134908801348025D2846691C8DB210
:106460000E490A540EE01048007858B90C480088CC
:10647000401C0B4908800B48025D2846691C8DB200
:1064800006490A54601C84B2B442B4DB0648007862
:1064900010B906A011F030FF70BD00005C1E002096
:1064A000A00100209C1E0020A2010020434D44209A
:1064B0004552520D0A00000030B503460C4600213B
:1064C00000BF0AE0585C655CA84204D0585C655C7B
:1064D000401BC0B230BD481C81B29142F2DB0020AB
:1064E000F8E7000001460022122903DC144830F8C6
:1064F000310008B900207047042902DA1148026807
:1065000001E0114802680E4800EBC100406890426B
:1065100005D80B4800EBC1004068121A06E0084895
:1065200000EBC1004068C0F1FF300244044830F87D
:106530003100904201D80220DDE70120DBE70000B6
:106540008C1D0020380100203C010020122800DAB8
:1065500001B97047094A22F83010042806DA084ABF
:106560001268064B03EBC0035A6005E0054A126847
:10657000024B03EBC0035A6000BFEAE78C1D00200A
:10658000380100203C010020122800DB7047002168
:10659000034A22F8301002EBC002516000BFF5E759
:1065A0008C1D0020012801D000B1704701494873BB
:1065B00000BFFAE7521B002010B5002400BF14E012
:1065C000601C0DF065FC38B10120A0401D49097820
:1065D00008431C49087006E00120A04019490978C9
:1065E000814318480170601CC4B2022CE8DB1648D5
:1065F00000781449097888420DDA12480278124866
:10660000017812A011F0BCFA0E4801780E4800780B
:1066100000F012FC10E00C4800780A490978884222
:106620000ADD084802780848017811A011F0A8FA9C
:106630000448007800F02AFC0248007802490870FB
:1066400010BD00009E0000209F0000204E657720B6
:10665000506F727420416464204C696E6B5B25300E
:106660002E32785D2D3E5B25302E32785D0D0A008E
:106670004E657720506F7274204C6F7374204C6994
:106680006E6B5B25302E32785D2D3E5B25302E32D1
:10669000785D0D0A000000000148007A7047000094
:1066A000401B00200149087270470000401B002079
:1066B00010B5044600F04EFBE0B1012C02D0022CD4
:1066C00016D10AE04FF40051104812F047FE4FF483
:1066D00080510E4812F042FE0BE04FF400510B487F
:1066E00012F03EFE4FF48051084812F037FE00E0F1
:1066F00000BF09E04FF40051044812F02FFE4FF4A0
:106700008051024812F02CFE10BD0000000C014028
:10671000704710B502460B460024002107E0012017
:106720008840104008B1601CC4B2481CC1B20229A4
:10673000F5DB012C0DD1002109E00120884010403B
:1067400018B1481C1870012010BD481CC1B20229A4
:10675000F3DB0020F8E7000070B5002500260A20D2
:10676000FFF7C0FE022806D180217C4812F0F8FD18
:106770000A20FFF709FF7A48007878B90D20FFF763
:10678000B1FE02280AD10D20FFF7FEFE0120744958
:1067900008707448C178012000F056FA7148807979
:1067A00071490978884219D06E4880796E4908701D
:1067B0006C4880796D4948746A4881796CA011F001
:1067C000DFF96848817901200DF022FC654988795C
:1067D00000F0CAFA63498879FFF76AFF6E48407B88
:1067E0006249497B884220D06048407B6A494873AF
:1067F0005E48417B69A011F0C3F95A498879FFF7D7
:1068000057FF00F0A7FA70B1564988790DF090FC57
:106810000DF084FA8021514812F0A0FD64210A2075
:10682000FFF794FE01E00DF071FA5B48407C4F49A0
:10683000497C88420CD04D48407C574948745021CF
:106840000B20FFF783FE4948417C5BA011F098F9CB
:106850000B20FFF747FE02280BD10B20FFF794FE19
:106860004249487CFFF754FF4048417C5AA011F050
:1068700087F95E48007A3B49097A884208D00126A8
:106880003848017A5AA011F07BF90020604908705D
:106890005648C0793349C97988420FD0012631481A
:1068A000C1795CA011F06CF9002405E00120A04042
:1068B0002843C5B2601CC4B2012CF7DB00241CE0E5
:1068C0004A48401D015D2748401D005D81420AD0B5
:1068D00001262448401D015D55A011F051F9012009
:1068E000A0402843C5B20120A040284018B1611C37
:1068F00000200DF049FC601CC4B2012CE0DB0EB19D
:106900000AF0E2FD002425E0601C0DF025FC17498B
:10691000C91D095D88421BD0601C0DF01DFCC1B271
:106920001248C01D0155025D611C49A011F028F9F3
:10693000601C01280CD10D48C01D005D20B18021D4
:106940004B4812F00DFD03E08021494812F006FD8E
:10695000601CC4B2012CD7DB70BD0000000C0140EC
:106960009C000020401B0020A0000020521B0020A3
:10697000092A2A2A496E70757454686F75676820F1
:10698000537461747573204368616E67655B256439
:106990005D210D0A00000000641B0020092A2A2A3C
:1069A000417263204D6F6465204368616E67655B6B
:1069B00025645D210D0A0000092A2A2A55736253B5
:1069C000656C656374204368616E676520746F2031
:1069D0005B25645D210D0A00092A2A2A53656E642D
:1069E000546F557362202564200D0A00491B002056
:1069F0004175746F5377697463684D6F6465206384
:106A000068616E676520746F2025640D0A000000C0
:106A10009F00002044656275674D6F646531206397
:106A200068616E676520746F2025640D0A000000A0
:106A30004F7574707574486463704D6F646520633E
:106A400068616E676520746F2025640D0A00000080
:106A50004F75747075745B25645D204850442063E5
:106A600068616E676520746F202564210D0A00003F
:106A70000008014070472DE9F04104460F4600250B
:106A800000268920207000BF00BF04E0605D304414
:106A9000C6B2681C85B2781EA842F7DCF043401CE1
:106AA000C6B266553946204600F088FABDE8F08146
:106AB0000148C07970470000401B00200149C8719F
:106AC00070470000401B002003494978814201D0F3
:106AD0000149487070470000401B00200349897835
:106AE000814201D00149887070470000401B00209E
:106AF0000748C078252807D00548C078262803D045
:106B00000348C078272801D1012070470020FCE706
:106B1000401B00202DE9F04104460F4600250026C9
:106B20002078892806D0217811A011F029F80020BA
:106B3000BDE8F0810026002504E0605D3044C6B267
:106B4000681C85B2781EA842F7DCF043401CC6B230
:106B5000605DB04206D0625D31460DA011F010F8C4
:106B60000020E5E715A011F00BF80120E0E7000098
:106B700041707020446174612048656164657220D1
:106B80004572726F72205B252E32585D0D0A00002F
:106B9000417070204461746120436865636B537574
:106BA0006D204572726F72205B252E32585D213D3B
:106BB0005B252E32585D0D0A0000000041707020E8
:106BC0004461746120436865636B53756D2052693D
:106BD000676874210D0A000002461046012A02D09F
:106BE000022A16D10AE001F001030BB1012004E0F2
:106BF00001F00203022B00D102200BE001F002039E
:106C0000022B01D1022003E001F0010303B10120B6
:106C100000E000BF00BF704770B504460025FFF7D5
:106C200047FF00B10EE0204600F0BCF810B102288A
:106C300007D104E000200DF041F9C5B201E00025C4
:106C400000BF00BF284670BD2DE9F04105460C4647
:106C50002D4E0027681E2D490C542D48007808B988
:106C6000BDE8F081252C03D0262C01D0272C22D181
:106C700028480AF075FFB0B1252C01D0272C06D189
:106C8000002332462449234811F006F807E0262C59
:106C900005D10023324621491E4810F0FDFF304641
:106CA0000AF0A5FD19E01E484FF48072C16E30460F
:106CB000FDF76AFA11E0232C08DC194850F824107B
:106CC0004FF480723046FDF75FFA06E014484FF447
:106CD0008072C16E3046FDF757FA681E0B4A115C90
:106CE00010A010F04DFF1548007810B130460AF0A2
:106CF000FBFD232C02DC30460AF0F4FB3146002079
:106D00000DF0CAF900BFABE7761B0020431B002043
:106D10009C000020442E00207EDE01087EDC01085D
:106D2000A40000204170705374617475732E456423
:106D3000696453656C3D25640D0A00003D00002028
:106D40000348407B012800D170470020FCE7000089
:106D5000521B00200348407B08B9012070470020E7
:106D6000FCE70000521B002010B5044620210C480F
:106D700012F0F4FA40210A4812F0F0FA012C02D085
:106D8000022C0AD104E02021054812F0E9FA05E0BE
:106D90004021034812F0E4FA00E000BF00BF10BD3C
:106DA0000008014010B50446204610F0F7F828B955
:106DB000214604A010F0E4FEFF2010BD601E08492B
:106DC000085CFAE74F757075745B25645D2072612D
:106DD0006E6765206572726F72210D0A00000000F7
:106DE000451B002010B5002248B9012204E0531EC3
:106DF000054CE154531CDAB2012AF8DD02E0431ECF
:106E0000014CE15410BD0000451B002010B51221BB
:106E10000748FDF7D2F912210648FDF7CEF9FF2009
:106E200004494873487401200149087410BD0000EA
:106E3000521B0020641B002078B505460C4601203B
:106E400000900026FFF728FC00B978BD04F00F0081
:106E5000C0B169462046FFF75CFC78B9601B012889
:106E600001D100900AE0601B022801D1009005E0EA
:106E7000054988792146FFF7AFFE00909DF8000094
:106E80000149887100BFE0E7401B002038B5044687
:106E9000012000900025FFF7FFFB00B938BD04F08A
:106EA000030098B169462046FFF733FC20B19DF8F6
:106EB00000000749887109E0054988792146FFF7F4
:106EC0008BFE00909DF800000149887100BFE5E746
:106ED000401B00202DE9F04105460E460024002706
:106EE00055B9012405E031462046FFF7ADFE601C90
:106EF000C4B2022CF7DD03E031462846FFF7A4FEBA
:106F0000BDE8F08170B505464FF4007229461B4874
:106F1000FDF773F9002830D04FF400722946174866
:106F2000FDF732F90E22032128460AF013FCC6B2FF
:106F300056B1301D2C5C701D285C40EA04242146AB
:106F40000FA010F01DFE00E00024FFF7D1FD40B1BE
:106F50000CB1104804601048C1780120FFF774FE9E
:106F60000BE00C480068A04207D034B10948046027
:106F70000948C1780120FFF767FE70BD442E00204C
:106F80004345432061646472203078253034780DA5
:106F90000A00000040010020401B002070B504469C
:106FA0000D4612F05BF92A46214603480FF040FFD8
:106FB00012F0F4F870BD000000F8010870B5044646
:106FC0000D4612F04BF905480FF018FF2A462146EE
:106FD00002480FF040FF12F0E1F870BD00F8010820
:106FE00010B500240F4800210160416001720020AB
:106FF0000C4908700120C8710020487148700620B3
:1070000088702520C87001208871087206480A68B7
:1070100002604A684260097A01720B21401EFFF744
:107020002AFD10BD401B0020801D002010B500244B
:107030000B211448FFF7B2FF0B211248FFF76AFD3E
:1070400030B90B210F48FFF715FDFFF7C9FF0FE01F
:107050000DA010F095FD0B210A48FFF70BFD12481B
:107060000849491C0A6802604A684260097A01724C
:107070000E480D490A6802604A684260097A017246
:1070800010BD00007F1D00204170702044617461BC
:107090002056616C756520697320696E6974204F94
:1070A0004B210D0A00000000401B0020491B00205E
:1070B00010B50F480F490A6802604A684260097AB1
:1070C00001720D4800210160416001818172401C04
:1070D00008490A6802604A684260097A01720B2115
:1070E000401EFFF7C8FC0B210348FFF7C3FC10BD8F
:1070F000491B0020401B00207F1D002010B50446C6
:1071000020460FF053FF28B9214604A010F038FDA7
:10711000FF2010BD08488079FBE700004F757075AF
:10712000745B25645D2072616E6765206572726FA5
:1071300072210D0A00000000401B0020002240B90F
:10714000012203E0044B9971531CDAB2012AF9DDE4
:1071500001E0014B99717047401B002010B5FFF70B
:107160003FFF002005490870FF20054908700548C9
:10717000C1780120FFF768FD10BD00009F000020CE
:10718000A0000020401B002001490870704700004B
:10719000401B002010B500242A48007800F00704A6
:1071A00029480078A0424BD02748047027488078AF
:1071B00025490978884202D12448407808BB00203C
:1071C000FFF782FC20480078FFF788FC1E48007813
:1071D000062804D125210120FFF736FD19E01A48C1
:1071E0000078032804D126210120FFF72DFD10E0AF
:1071F0001548007805280CD127210120FFF724FD30
:1072000007E01248407820B11048C1780120FFF70C
:107210001BFD21460EA010F0B3FC0B480078062899
:1072200003D10120FFF7BEF90AE0074800780328E0
:1072300003D005480078052802D10020FFF7B2F9F5
:1072400010BD00003700002038000020401B002047
:107250004469704564696453656C2073776974632D
:107260006820746F2025640D0A00000070B5044684
:10727000DDE90456217062706360A560E66000205D
:1072800070BD00002DE9F04107460C4615461E462C
:107290000B48006808B90A4804602760E580267139
:1072A000204600F0E3F80748006810B10548006880
:1072B000C467044804600020E067BDE8F081000076
:1072C0007C030020800300202DE9F04104460D4698
:1072D000164600270EB1022E32D120790F282DD26A
:1072E000DFE800F00809100A112C0B120C0D0E0F2C
:1072F0002C2C130000BF00BF00BF00BF00BF00BFA9
:1073000000BF00BF00BF00BF00BF28460AF072F9EF
:10731000A06E20B1A06EA84201D0A16E6966A566DC
:107320002C662879062808D10021686C4185002345
:107330001A460421204602F07DFB00E000BF00BF9A
:10734000012E01D0022E2BD12079052810D005DC8A
:1073500058B101280AD0032820D10CE0062806D015
:10736000082807D00F2819D103E000BF00BF00BFD5
:1073700000BF00BF00BF28460AF012F9606F20B1BD
:10738000606FA84201D0616F29676567EC66287954
:10739000062802D10021A86C018100E000BF00BFD7
:1073A0000EB1022E29D12079102825D2DFE800F075
:1073B0000809120C13200A100B0D0E0F24241121A2
:1073C00000BF00BF00BF00BF00BF00BF00BF00BFC5
:1073D00000BF00BF00BFA06D38B1A76D00E0BF6D5A
:1073E000B86D0028FBD1AF6501E0A16DA96503E090
:1073F00000BF0021A16500BF00BF324629462046DC
:1074000003F018FD0020BDE8F08110B5002403F062
:107410005BFF0446204610BD10B50446204603F02D
:1074200071FF002010BD10B504462079072819D23D
:10743000DFE800F0040518180C10110000BF20460A
:1074400001F0E4FB204601F0EEFB0CE0204601F0E9
:10745000EAFB08E007E0204601F0DCFB204601F0F3
:10746000D1FB00E000BF00BF002010BD10B50446F6
:10747000FF2084F87800FF21792001557A200155FA
:107480007B2001550020A0600021E1602161616145
:10749000A161E16121626162A162E16221636165D2
:1074A0006163A163E16321646164A164E1642165B6
:1074B000A165E16521666166A166E1662167616794
:1074C00004F10801022003F0FBF9207906283DD0E1
:1074D00005DC58B101280AD0052830D130E0092850
:1074E0006CD00A2871D00F287BD174E000BF04F162
:1074F0000C01012003F0E4F904F11001012003F074
:10750000DFF904F11C01012003F0DAF904F1200194
:10751000012003F0D5F904F13401342003F0D0F94F
:1075200004F13C01082003F0CBF904F144013220BE
:1075300003F0C6F904F148011C2003F0C1F950E042
:1075400004F148011C2003F0BBF94AE004F11401E6
:10755000012003F0B5F904F11801012003F0B0F99E
:1075600004F12401012003F0ABF904F1280101200A
:1075700003F0A6F904F12C01012003F0A1F904F1B4
:107580003001012003F09CF904F15401482003F07C
:1075900097F904F13801442003F092F904F1400115
:1075A0000B2003F08DF904F14401322003F088F937
:1075B00004F148011C2003F083F912E004F14C01AE
:1075C0002C2003F07DF90CE0FFE704F150012420AA
:1075D00003F076F905E004F148011C2003F070F98E
:1075E00000BF00BF002010BD10B50548046803E0CF
:1075F0002046FFF718FFE46F002CF9D1002010BDE2
:107600007C03002070B5334804685EE00FF0BEFFD5
:107610002079102854D2DFE800F0080953532529B7
:107620002A53534B4F535353434700BFE0690578E8
:1076300020460DF026FA204601F0FCFC29462046A3
:107640000FF0AEFD206A057820460DF0A7FA20461F
:1076500001F0D4FF294620460FF03EFF20460EF0F1
:1076600090FC2DE020460DF00AFA29E028E0606A3F
:10767000057820460DF03BFA204601F005FE29462C
:1076800020460FF045FEE06A057820460DF0D4F95B
:10769000204601F0D1FA294620460FF091FC0FE078
:1076A00020460DF0EDF90BE020460DF0E2F907E081
:1076B00020460DF093FA03E020460DF08EFA00BF4D
:1076C00000BFE06F00B902E0E46F002C9ED100BF64
:1076D000002070BD7C030020F0B502460C244FF45E
:1076E0007045002600230DE0906B408A284000B9C9
:1076F0000AE02E432D110CB9FF20F0BD201FC4B2AB
:10770000581C83B2042BEFDB00BF906B408A3040E3
:1077100001EA0607B84205D141FA04F000F00F0370
:107720001846EAE7FF20E8E730B503460C4600219B
:10773000002000259D5400BF04E05D5C0544E8B2D4
:107740004D1CA9B2A142F8DB4542E8B2985430BDC5
:107750002DE9F04F05460F460024A046A14600261D
:10776000A246A34600BF2BE008EBC800482101EB6E
:107770004000385C00BB08EBC80001EB4000401C37
:10778000385CC8B908EBC80001EB4000801C385CCD
:1077900090B908EBC80001EB4000C01C385CFD2824
:1077A0000AD108EBC80001EB40000930385C00EB5F
:1077B00080004000A5F87E0008F1010000F0FF08FD
:1077C000B8F1030FD0DB00220221384600F07AFE28
:1077D0000446260A04F0FF0A4FF000081AE0701C65
:1077E0004044385C00F07F0B4FF000090BE06C4820
:1077F00010F80900584502D1012005F8090009F1E7
:10780000010000F0FF09B9F1330FF0DB08F10100CE
:1078100000F0FF08D045E2DB00220121384600F0ED
:1078200051FE0446260A04F0FF0A2EB133465246A2
:107830003946284600F0B6F800220321384600F009
:1078400041FE0446260A04F0FF0A26B132463946B4
:10785000284600F084FA01220321384600F032FE67
:107860000446260A04F0FF0A26B122463946284675
:1078700000F076FB97F8830000F0100028B1A220FA
:10788000405D401CC1B2A220415597F8830000F032
:10789000200028B1A320405D401CC1B2A320415567
:1078A00000220721384600F00DFE0446260A04F0A7
:1078B000FF0A26B132463946284600F0F2F9062280
:1078C0000721384600F0FEFD0446260A04F0FF0AB0
:1078D00026B132463946284600F0B6F90E22072175
:1078E000384600F0EFFD0446260A04F0FF0A26B1F0
:1078F00032463946284600F061FD05220721384608
:1079000000F0E0FD0446260A04F0FF0A26B13246E4
:107910003946284600F034F90F220721384600F096
:10792000D1FD0446260A04F0FF0A26B13246394644
:10793000284600F0B3FC01220721384600F0C2FDC2
:107940000446260A04F0FF0A26B132463946284684
:1079500000F088FC02220321384600F0B3FD044603
:10796000260A04F0FF0A26B132463946284600F0BE
:10797000D3F9B5F87E00B5F88010884204DDB5F87B
:107980007E00A5F8800009E0B5F87E00B5F880100B
:10799000884203DAB5F88000A5F87E00BDE8F08FD4
:1079A00026F201082DE9F04F88B004460D46164630
:1079B000002100200027804681460022824684461E
:1079C0008346CDF810B0CDF814B0CDF818B0CDF88E
:1079D0001CB0CDF800B0CDF804B0CDF808B0CDF8AB
:1079E0000CB04FF0030B96FBFBFB0BF0FF0703F112
:1079F000010BB34415F80BB00BF0E00BBBF1200FFB
:107A00000CD103F1010BB34415F80BB00BF01F0BB5
:107A10004FF0030E9BFBFEFB0BF0FF0807EB080B80
:107A20000BF0FF0900217CE0B94205DA01EB410BC4
:107A30009B440BF0FF020AE003EB060BA1EB070EE1
:107A40000EEB4E0EF3440BF1010B0BF0FF0202F1B3
:107A5000010B15F80BB00BF0780A02F1010B15F8C9
:107A60000BB00BF0070C002055E0DFF810B11BF84D
:107A700000B0D3454BD10DF1100B1BF800B0BBF19A
:107A8000000F07D14FF0010B0DF1100E0EF800B0F2
:107A90000DF800C004F1410B1BF800B002F1020E1A
:107AA00015F80EE00BEA0E0B04F1410E0EF800B0D3
:107AB0001DF800B0E34501DA0DF800C050B994F8A4
:107AC0005DB002F1030E15F80EE00BEA0E0B84F820
:107AD0005DB01CE0072812DA02F1030B15F80BB0B9
:107AE00004F15D0E1EF800E0F34510DA02F1030B1D
:107AF00015F80BB004F15D0E0EF800B007E002F1CE
:107B0000030B15F80BB004F15D0E0EF800B000F198
:107B1000010B0BF0FF000E28A7DB01F1010B0BF0AE
:107B2000FF01494580DB002122E00DF1100B1BF81D
:107B300001B0BBF1000F17D004F1330B1BF801B0FB
:107B40000BF1010B04F1330E0EF801B01DF801B07A
:107B500004F14F0E1EF801E0F34505DA1DF801B0FF
:107B600004F14F0E0EF801B001F1010B0BF0FF0113
:107B70000E29DADB08B0BDE8F08F000018F201082A
:107B800010B5931CCB5C03F0010323B190F8C63011
:107B90005B1C80F8C630931CCB5C03F002032BB156
:107BA000C7231B5C5B1CDCB2C7231C54931CCB5C3F
:107BB00003F004032BB1C8231B5C5B1CDCB2C8239D
:107BC0001C54931CCB5C03F008032BB1C9231B5C32
:107BD0005B1CDCB2C9231C54931CCB5C03F0100368
:107BE0002BB1CA231B5C5B1CDCB2CA231C54931C44
:107BF000CB5C03F020032BB1CB231B5C5B1CDCB202
:107C0000CB231C54931CCB5C03F040032BB1CC233F
:107C10001B5C5B1CDCB2CC231C54931CCB5C03F0C0
:107C200080032BB1CD231B5C5B1CDCB2CD231C5429
:107C3000D31CCB5C03F080032BB1CE231B5C5B1CFD
:107C4000DCB2CE231C5410BD10B5931CCB5C03F0EA
:107C5000010323B190F8C2305B1C80F8C230931C42
:107C6000CB5C03F002032BB1C3231B5C5B1CDCB2B7
:107C7000C3231C54931CCB5C03F004032BB1C4231B
:107C80001B5C5B1CDCB2C4231C54931CCB5C03F058
:107C900008032BB1C5231B5C5B1CDCB2C5231C5441
:107CA00010BD10B5931CCB5C03F0800323B190F89A
:107CB0009E305B1C80F89E30931CCB5C03F040032D
:107CC0002BB19F231B5C5B1CDCB29F231C54931CB9
:107CD000CB5C03F00C030C2B05D1A0231B5C5B1CBD
:107CE000DCB2A0231C54931CCB5C03F00303032BD6
:107CF00005D1A1231B5C5B1CDCB2A1231C54931C8B
:107D0000CB5C03F03003302B05D1A4231B5C5B1C40
:107D1000DCB2A4231C5410BD10B5131DCB5C012B89
:107D200003D1082380F8D0300AE0131DCB5C022B6E
:107D300003D10A2380F8D03002E0002380F8D0304D
:107D4000531DCB5C03F00104D1231C54931DCC5C68
:107D5000D2231C54D31DCC5CD3231C5410BDF0B5CE
:107D6000002400230025161D8E5D16B9561D8E5D5C
:107D70002EB17A26365C761CF7B27A2637548E5CA2
:107D800006F01F06062E07DCB0F87E601EB1B0F8C4
:107D90007E60A0F87C60F0BD961D8E5D06F08006CA
:107DA0002EB17326365C761CF7B273263754961DB7
:107DB0008E5D06F040062EB17426365C761CF7B256
:107DC00074263754961D8E5D06F020062EB175265A
:107DD000365C761CF7B275263754961D8E5D06F01C
:107DE00010062EB17626365C761CF7B2762637540E
:107DF000961D8E5D06F008062EB17726365C761C41
:107E0000F7B277263754961D8E5D06F001062EB127
:107E10007826365C761CF7B27826375402F10806CD
:107E20008E5D06F0080626B190F86B60761C80F82F
:107E30006B6002F108068E5D06F004062EB16C261A
:107E4000365C761CF7B26C26375402F108068E5D5C
:107E500006F002062EB16D26365C761CF7B26D2652
:107E6000375402F108068E5D06F001062EB16E262B
:107E7000365C761CF7B26E26375402F108068E5D2A
:107E800006F02006002E55D00A2302F108068E5D6A
:107E900006F080060EB19E1CF3B202F108068E5D5C
:107EA00006F040060EB19E1CF3B2D6188E5D750921
:107EB000002431E0D618761C26448E5D012E05D1B3
:107EC0006F26365C761CF7B26F263754D618761CB0
:107ED00026448E5D022E05D17026365C761CF7B2E4
:107EE00070263754D618761C26448E5D032E05D195
:107EF0007126365C761CF7B271263754D618761C7C
:107F000026448E5D042E05D17226365C761CF7B2AF
:107F100072263754661CF4B2AC42CBDBD618761E00
:107F20008E5D06F080062EB17926365C761CF7B29F
:107F300079263754D61D8E5D06EB8606B0F87C7028
:107F4000BE4202DBB0F87C6046B9D61D8E5D2EB114
:107F5000D61D8E5D06EB8606A0F87C6000BF1AE792
:107F6000F0B5154600232A0AECB2D61D8E5D06F048
:107F7000040626B190F88860761C80F88860D61DCB
:107F80008E5D06F002062EB18926365C761CF7B2AD
:107F900089263754D61D8E5D06F001062EB18A263D
:107FA000365C761CF7B28A263754961D8E5D06F035
:107FB00080062EB18B26365C761CF7B28B263754A2
:107FC000961D8E5D06F001062EB18C26365C761C61
:107FD000F7B28C263754961D8E5D06F002062EB140
:107FE0008D26365C761CF7B28D263754961D8E5D35
:107FF00006F004062EB18E26365C761CF7B28E266D
:108000003754961D8E5D06F008062EB18F26365C1D
:10801000761CF7B28F263754961D8E5D06F040060B
:108020002EB19026365C761CF7B290263754961DFA
:108030008E5D06F010062EB19C26365C761CF7B2DB
:108040009C263754561D8E5D06EB8603B0F8806083
:108050009E4202DCB0F880601EB9A0F88030A0F823
:108060007E30D61D8E5D331190F87B609E4202DC1F
:1080700090F87B600EB980F87B30072C47DD02F169
:1080800008068E5D06F020062EB19126365C761C21
:10809000F7B29126375402F108068E5D06F01006FD
:1080A0002EB19226365C761CF7B29226375402F136
:1080B00008068E5D06F008062EB19326365C761C07
:1080C000F7B29326375402F108068E5D06F00406D7
:1080D0002EB19426365C761CF7B29426375402F102
:1080E00008068E5D06F002062EB19526365C761CDB
:1080F000F7B29526375402F108068E5D06F00106A8
:108100002EB19626365C761CF7B296263754082C8C
:1081100020DD02F10A068F5D761E8E5D06F0C00638
:1081200007EB8603B0F882609E4202DCB0F8826002
:108130000EB9A0F8823002F109068E5D06F03F0309
:1081400090F884609E4202DB90F884603EB980F82B
:10815000843004E00026A0F8826080F884600A2C55
:1081600047DD02F10B068E5D06F080062EB19726E4
:10817000365C761CF7B29726375402F10B068E5DFB
:1081800006F040062EB19826365C761CF7B298268B
:10819000375402F10B068E5D06F004062EB19926C7
:1081A000365C761CF7B29926375402F10B068E5DC9
:1081B00006F002062EB19A26365C761CF7B29A2695
:1081C000375402F10B068E5D06F001062EB19B2698
:1081D000365C761CF7B29B26375402F10B068E5D97
:1081E00006F008062EB19D26365C761CF7B29D2659
:1081F00037540B2C1BDD02F10C068E5D330990F811
:1082000085609E4202DC90F885600EB980F885306A
:1082100002F10C068E5D06F00F0390F886609E4218
:1082200002DC90F886603EB980F8863004E00026D3
:1082300080F8856080F886600C2C0EDD02F10D065A
:108240008E5D06F03F0390F887609E4202DC90F856
:1082500087602EB980F8873002E0002680F88760BA
:10826000F0BD000010B5931CCB5C0B4C2478A342EE
:1082700010D1D31CCB5C084C6478A3420AD1131DE7
:10828000CB5C054CA478A34204D190F8CF305B1CA2
:1082900080F8CF3010BD0000DCF101082DE9F84F67
:1082A00005460E4691460020009082460024002795
:1082B0008046834600220221304600F003F90090F8
:1082C00000984FEA1028009800F0FF0B16F80900FC
:1082D00000F01F00401E00F0FF0ABBEBCA0F03DDD9
:1082E0004FEACA604FEA106BBBF1000F62D0002466
:1082F0005EE0E21704EB5272D31009F102021A4455
:10830000B25CE31704EB5373DB10A4EBC30C012343
:1083100003FA0CF31A40002A48D008EB0400401C72
:10832000305C602805D195F8A500401C85F8A500B3
:108330003CE008EB0400401C305C612806D1A6201C
:10834000405D401CC1B2A62041552FE008EB04005F
:10835000401C305C652806D1A720405D401CC1B29E
:10836000A720415522E008EB0400401C305C662841
:1083700006D1A820405D401CC1B2A820415515E09F
:10838000002711E008EB0400401C305C0A49C95D7D
:10839000884207D105F1A900C05D401CC1B205F1BA
:1083A000A900C155781CC7B2192FEBDB601CC4B201
:1083B0005C459EDBBDE8F88F26F20108F0B500258C
:1083C000002300248E5C06F01F06761EF5B200BF67
:1083D00045E0D618B61C8E5D602E05D190F8A560DC
:1083E000761C80F8A56038E0D618B61C8E5D612E2C
:1083F00006D1A626365C761CF7B2A62637542CE0AA
:10840000D618B61C8E5D652E06D1A726365C761C66
:10841000F7B2A726375420E0D618B61C8E5D662E1C
:1084200006D1A826365C761CF7B2A826375414E08D
:10843000002410E0D618B61C8E5D0A4F3F5DBE4288
:1084400007D100F1A906365D761CF7B200F1A90646
:108450003755661CF4B2192CECDB5E1CF3B2AB4250
:10846000B7DBF0BD26F2010810B50246002000215E
:1084700000BF04E0535C0344D8B24B1CD9B27F293F
:10848000F8DB0346C41700EB14642412A0EB0424A9
:10849000644282F87F400020002106E001F1800361
:1084A000D35C0344D8B24B1CD9B27F29F6DB034618
:1084B000C41700EB14642412A0EB0424644282F875
:1084C000FF4010BDF0B503460D46144600220027BC
:1084D000002684215878FF2803D193F880000228D1
:1084E00001D00020F0BD99E0585C00F01F02585CFC
:1084F0004609AE4276D1032D5FD1E4B9481C185C21
:10850000DFF824C19CF800C0604514D1881C185CB9
:10851000DFF814C19CF801C060450CD1C81C185C80
:10852000DFF804C19CF802C0604504D102EB0120D1
:1085300087B23846D6E7012C1CD1481C185CDFF8FE
:10854000ECC09CF800C0604514D1881C185CDFF8B2
:10855000DCC09CF801C060450CD1C81C185CDFF879
:10856000CCC09CF802C0604504D102EB012087B268
:108570003846B7E7022C1CD1481C185CDFF8B0C0A5
:108580009CF800C0604514D1881C185CDFF8A0C0BE
:108590009CF801C060450CD1C81C185CDFF890C085
:1085A0009CF802C0604504D102EB012087B2384636
:1085B00098E78818401C81B230E0072D0DD1481C87
:1085C000185CA04204D102EB012087B2384689E74B
:1085D0008818401C81B221E004E002EB012087B240
:1085E00038467FE712B9481C81B217E0072E12D136
:1085F000032D10D1012C0ED1481C185C79280AD10A
:10860000881C185C38B9C81C185C20B902EB012022
:1086100087B2384666E78818401C81B2FD297FF78B
:1086200063AF002738465DE7C1F10108C4F10108D6
:10863000C7F101080146002000BF03E000220A54F0
:10864000421CD0B23328F9DB002005E0002301F101
:1086500033021354421CD0B20E28F7DB002005E091
:10866000002301F141021354421CD0B20E28F7DB63
:10867000002005E0002301F14F021354421CD0B248
:108680000E28F7DB002005E0002301F15D02135402
:10869000421CD0B20E28F7DB002005E0002301F1D8
:1086A0006B021354421CD0B21028F7DB00227C313D
:1086B00001F8012C0A804A808A80CA800A724A72B4
:1086C0008A72CA727C39002005E0002301F1880219
:1086D0001354421CD0B21628F7DB002005E000231B
:1086E00001F19E021354421CD0B20728F7DB002090
:1086F00005E0002301F1A5021354421CD0B2042866
:10870000F7DB002005E0002301F1A9021354421C0D
:10871000D0B21928F7DB002005E0002301F1C202E6
:108720001354421CD0B20428F7DB002005E00023DC
:1087300001F1C6021354421CD0B20928F7DB002213
:1087400081F8CF20002005E0002301F1D00213546E
:10875000421CD0B20428F7DB7047000070B5044615
:1087600000251026FE4920460DF039FDFD48FFF793
:1087700061FFFB49FB48FEF7EBFFF948FEF7C2FB40
:10878000F74890F87E00022801D1182605E0F44849
:1087900090F87E00032800D12026F248B0F87C0033
:1087A00050B9F048B0F87E00EE49A1F87C000846C8
:1087B000B0F87E00A1F880004FF48061A06B816169
:1087C0000021A06BC161A06B806940F00101A06B2A
:1087D0008161E44890F89000012805D1A06B806980
:1087E00040F00201A06B8161DE4890F88F00012803
:1087F00005D1A06B806940F01001A06B8161D94860
:1088000090F88900012805D1A06B806940F008012B
:10881000A06B8161D34890F88A00012805D1A06B34
:10882000806940F00401A06B8161CE48B0F88000FF
:10883000B0F5167F05DBA06B806940F02001A06BCE
:108840008161C848B0F88000B0F5E17F05DBA06B1E
:10885000806940F04001A06B8161C248B0F880009F
:10886000B0F5B97F05DBA06B806940F08001A06B9B
:108870008161BC48B0F87C00B0F5967F19DBB9483F
:1088800090F86F0001280ED0B64890F870000128CB
:1088900009D0B44890F87100012804D0B14890F88C
:1088A0007200012805D1A06B806940F48071A06B33
:1088B0008161AC48B0F87C00E12805DBA06B8069E1
:1088C00040F40071A06B8161A64890F8C20058B9CD
:1088D000A44890F8C30038B9A24890F8C40018B969
:1088E000A04890F8C50028B1A06B806940F40061F1
:1088F000A06B81619B4890F8A500012805D1A06B71
:10890000806940F40051A06B8161964890F8A60000
:10891000012805D1A06B806940F48041A06B816182
:10892000904890F8A700012805D1A06B806940F419
:108930000041A06B81618B4890F8A800012805D107
:10894000A06B806940F48031A06B8161854890F80C
:10895000C600012805D1A06B806940F40031A06BEE
:108960008161804890F8C700012805D1A06B80691B
:1089700040F48021A06B81617A4890F8CB000128F7
:1089800004D0784890F8CC00012805D1A06B80690C
:1089900040F48011A06B8161724890F8CD000128ED
:1089A00005D1A06B806940F40021A06B81616D4806
:1089B00090F89E00012805D1A06B806940F4001159
:1089C000A06B8161674890F89F00012805D1A06BDA
:1089D000806940F48001A06B8161A06B806940F0E8
:1089E0000061A06B8161A06B806940F08061A06B29
:1089F00081615C4890F8D000082813D1594890F85C
:108A0000D10078B1A06BC06940F00101A06BC161D9
:108A1000544890F8D31090F8D20041EA0021A06B9E
:108A2000818217E04F4890F8D0000A2812D14D48B3
:108A300090F8D10070B1A06BC06940F00201A06B4A
:108A4000C161484890F8D31090F8D20041EA002163
:108A5000A06B818201250DE042483330405D012842
:108A600006D1A06B806940F08051A06B816103E06A
:108A7000681CC5B20E2DEFDB00BF0021A06BC162E8
:108A8000384890F87B00062805DBA06BC06A40F0F0
:108A90000101A06BC162334890F87B00052805DB1B
:108AA000A06BC06A40F00201A06BC1622D4890F833
:108AB0007B00042805DBA06BC06A40F00401A06BBA
:108AC000C162284890F87B00032805DBA06BC06AD0
:108AD00040F00801A06BC162224890F87B00022898
:108AE00005DBA06BC06A40F01001A06BC1621D489D
:108AF00090F87B00012805DBA06BC06A40F02001E4
:108B0000A06BC1621748B0F88200164991F8841032
:108B1000884205D0A06BC06A40F08001A06BC162A2
:108B2000104890F89400012805D1A06BC06A40F469
:108B30008071A06BC1620B4890F89700012805D1A5
:108B4000A06BC06A40F04001A06BC162054890F87C
:108B50007B00062808DB0621A06B80F830102FE090
:108B60004426002070250020164890F87B00052838
:108B700004DB0521A06B80F8301021E0114890F84B
:108B80007B00042804DB0421A06B80F8301017E080
:108B90000C4890F87B00032804DB0321A06B80F8CD
:108BA00030100DE0074890F87B00022804DB02211A
:108BB000A06B80F8301003E00021A06B80F830102B
:108BC000002070BD7025002038B5044600252168BE
:108BD00049780B4A02EB412069460CF0FDF8054646
:108BE00020684078064A02EB40216B462A46204620
:108BF0000DF02CF90521606B8171002038BD00005B
:108C0000442C00200922C16A0A7070470122C16900
:108C10000A70704710B504460121606A0170204651
:108C20000CF025FC10BD10B504460121206A01702E
:108C300020460CF0C1FD10BD2DE9F04105466C6DDC
:108C4000AE6B002700BFE86A00780E2875D2DFE817
:108C500000F07407161A6789A3D0EFEEEDECEBEA8B
:108C600096F82000012806D00C21E86A01702846F9
:108C70000BF0BEFB02E00321E86A0170CDE10321A5
:108C8000E86A0170C9E1207818B90921E86A017021
:108C900045E096F82000012806D00C21E86A017012
:108CA00028460BF0A5FB3AE094F83D00012803D0DC
:108CB00094F83D00032803D10721E86A01702EE0F3
:108CC0002079012806D1E07F442803D10121E86AF8
:108CD000017024E02079012806D1E07FA42803D187
:108CE0000221E86A01701AE094F83C0003280CD0D5
:108CF00094F83C00012808D0207901280CD1E07FAD
:108D0000C32802D0E07FC42806D10621E86A01709A
:108D1000002084F83E0002E028460BF08DFB7CE149
:108D200096F82000012801D1207838B90C21E86A92
:108D3000017028460BF05CFB13E060E1207901280C
:108D400009D1E07FC12802D0E07FC22803D10A21E7
:108D5000E86A017005E000231A461521284600F054
:108D600069FE5AE196F82000012801D1207830B937
:108D70000C21E86A017028460BF03AFB0BE06079A1
:108D8000122808D10821E86A017000231A461F2121
:108D9000284600F04FFE40E194F83D00012803D042
:108DA00094F83D00032803D10721E86A01701FE011
:108DB0002079012809D1E07FC12802D0E07FC228B4
:108DC00003D10321E86A017012E096F8200001281F
:108DD00001D1207830B90C21E86A017028460BF0E7
:108DE00007FB05E000231A461521284600F022FE65
:108DF00013E196F8200001280CD000231A46242104
:108E0000284600F017FE0C21E86A017028460BF096
:108E1000EFFA20E094F83D0001280AD1022084F8FE
:108E20003D00012717E0C2E0A6E080E032E027E045
:108E300012E094F83D00032804D1002084F83D009E
:108E4000012708E094F83D00022801D1012702E043
:108E500028460BF0F1FAE0E096F82000012801D155
:108E6000207830B90C21E86A017028460BF0C0FA6E
:108E700005E06079122802D10A21E86A0170CCE08D
:108E80002078012805D10C21E86A017028460BF0F2
:108E9000AFFAC2E0207818B90921E86A017045E00C
:108EA00096F82000012806D00C21E86A01702846B7
:108EB0000BF09EFA3AE02079012802D1E07F702879
:108EC00007D094F83D00012803D094F83D00032812
:108ED00003D10721E86A017028E094F83C000328D8
:108EE0000CD094F83C00012808D0207901280CD13E
:108EF000E07FC32802D0E07FC42806D10421E86ABD
:108F00000170002084F83E0010E094F83D00022833
:108F100009D100231A462421284600F08BFD0321A5
:108F2000E86A017002E028460BF086FA75E02078C6
:108F300018B90921E86A01701DE094F835000F287E
:108F400003D00D21E86A017015E096F82000012891
:108F500006D00C21E86A017028460BF049FA0AE0B5
:108F6000708A40B10521E86A017000231A46192170
:108F7000284600F05FFD50E0207838B9002060718D
:108F800084F835000921E86A01700FE096F82000A6
:108F900001280BD1708A48B1707B052806D10020CA
:108FA000607184F835000D21E86A017035E02078A1
:108FB00018B90921E86A017020E094F835000F28FB
:108FC00008D00E21E86A01700020E086052084F8B0
:108FD000350013E094F835000F2805D10B21E86A1D
:108FE00001700020207709E096F82000012805D0C4
:108FF0000C21E86A017028460BF0FAF90DE094F8AC
:1090000035000F2805D1607918B90D21E86A017083
:1090100002E028460CF04BF900BF00BF47B1002327
:109020001A462421284600F005FD0321E86A017054
:10903000BDE8F0812DE9F04105466C6B0026002764
:1090400000BF00BFE8690078092875D2DFE800F0AA
:10905000C5051237467F9CACBC000821E869017049
:1090600028460CF0F6F828460CF0EDF828460CF0EF
:10907000CFF8F6E0E07908B901271FE0207860B169
:109080000821E869017028460CF0E3F828460CF046
:10909000DAF828460CF0BCF810E0A079052801D0D9
:1090A00001270BE0207A012805D1607C18B1052149
:1090B000E869017002E028460CF032F8D1E0607CEB
:1090C00030B90221E869017028460CF029F804E063
:1090D0000921E86901700120E070C2E0207878B1D0
:1090E00028460CF0A0FB0821E869017028460CF026
:1090F000B0F828460CF0A7F828460CF089F825E0CF
:10910000607C30B90221E869017028460CF008F84B
:109110001CE0207918B90521E869017016E0A079F2
:10912000052802D1207A012807D00621E8690170BC
:1091300028460CF06DF809E04FE0A079052805D12C
:109140000721E869017028460CF0A3FF89E0607CE4
:1091500030B90221E869017028460BF0E1FF12E006
:10916000A079052802D1207A012806D00621E869D5
:10917000017028460CF04CF805E02079012802D156
:109180000421E86901706CE0E07948B1A079052814
:1091900006D10221E869017028460BF0C1FF02E008
:1091A00028460CF077F85CE0607C30B90221E86971
:1091B000017028460BF0B4FF05E00321E869017057
:1091C00028460CF002FB4CE0207828B90621E8691B
:1091D000017028460CF01CF843E0207888B128463E
:1091E0000CF021FB0020E0700821E869017028469E
:1091F0000CF02FF828460CF026F828460CF008F85A
:109200002EE0A079052801D1E07970B928460CF04C
:109210000AFB28460CF017F80020E0700621E869E8
:10922000017028460BF0F4FF1AE0207A28B1207A6A
:10923000022802D0207A052804D128460CF0F3FA3F
:1092400001260DE0607C08B9012609E0207D38B9CF
:10925000607C012804D10020E0700421E8690170DD
:1092600000BF00BF2FB10621E869017028460BF04E
:10927000CFFF3EB10020E0700221E869017028466E
:109280000BF04EFFBDE8F0812DE9F84F0546AC6BC1
:109290002E6C0027B846B946BA46BB46002000905F
:1092A00000BF00BF00BF00BF00BF0090686A007829
:1092B0000C2870D2DFE800F06F0613174051747865
:1092C000A9C7D3F00921686A017028460CF0F6F8A6
:1092D00028460CF0D2F828460CF0EDFF4DE10521B0
:1092E000686A017049E194F8200001280CD0092136
:1092F000686A017028460CF0E1F828460CF0BDF8C9
:1093000028460CF0D8FF16E0A86B407B022810D14D
:10931000A07B30B90421686A017028460CF045FF33
:1093200009E0A07B012801D1012704E04FF0010BE7
:1093300001E04FF0010B20E194F8200001280BD050
:109340000921686A017028460CF0B8F828460CF02C
:1093500094F828460CF0AFFF0FE194F820000128A4
:109360000FD028460CF0B9FF0921686A0170284621
:109370000CF0A4F828460CF080F828460CF09BFF6F
:109380000DE0A078012807D1607B052804D10B21CE
:10939000686A017003E0C5E028460BF0AFFAECE024
:1093A0000321686A0170E8E094F82000012818D0D1
:1093B00094F82000022804D1012084F8200080467F
:1093C00022E028460CF089FF0921686A01702846CE
:1093D0000CF074F828460CF050F828460CF06BFF9F
:1093E00012E0307908B9B07A30B10A21686A0170A8
:1093F00028460CF0C8FE07E0A07810B94FF001082D
:1094000002E028460CF0DBFEB7E0606A30B10621CE
:10941000686A017028460CF017F813E094F82000F1
:1094200001280CD00921686A017028460CF046F822
:1094300028460CF022F828460CF03DFF02E02846B2
:109440000BF0FCFF99E094F82000012803D10821DB
:10945000686A017002E0002084F820008DE094F832
:109460002000012819D094F82000022804D10120FE
:1094700084F8200081461EE028460CF02EFF0921CA
:10948000686A017028460CF019F828460BF0F5FFC1
:1094900028460CF010FF0EE00EE0A07810B94FF057
:1094A000010908E028460CF042FF28460CF0F7FDC1
:1094B00028460CF084FE60E094F82000012818D0C3
:1094C00094F82000022804D1012084F8200082466C
:1094D00027E028460CF001FF0921686A0170284640
:1094E0000BF0ECFF28460BF0C8FF28460CF0E3FE1B
:1094F00017E0A0680A2812D37078012803D1072149
:10950000686A01700DE0707830B90A21686A0170EC
:1095100028460CF038FE04E00120009001E0012014
:1095200000902AE0A07830B128460BF08DFF0B2187
:10953000686A017020E094F8200001281CD094F89B
:109540002000022809D1012084F820000C21686A3B
:10955000017028460CF0CBFE0EE028460CF0BDFE54
:109560000921686A017028460BF0A8FF28460BF015
:1095700084FF28460CF09FFE00BF00BF009850B14A
:10958000A07810B94FF0010A05E028460CF0CFFE94
:1095900028460CF084FDBBF1000F0BD0607B48B176
:1095A000A07B012801D1012704E0A07B10B905218F
:1095B000686A0170BAF1000F05D00C21686A017069
:1095C00028460CF094FEB9F1000F05D00C21686A12
:1095D000017028460CF08BFEB8F1000F05D00C216D
:1095E000686A017028460CF082FE2FB10221686A79
:1095F000017028460CF08BFEBDE8F88F2DE9F04194
:1096000005466C6B00260027B04600BF00BF00BFB8
:10961000286A0078012806D002280BD003282AD017
:10962000042864D14BE00521286A017028460CF01B
:109630001DF962E02078012806D10521286A017011
:1096400028460CF013F915E0207908B9607808B9BC
:10965000A07830B10321286A017028460CF096F8F2
:1096600008E02079012805D10421286A01702846E4
:109670000CF07CF841E0607830B928460CF07FF8B7
:109680000221286A017019E02078012809D12846B2
:109690000CF075F80521286A017028460CF0E6F8F0
:1096A0000CE0207950B1A07840B928460CF067F85A
:1096B0000421286A017028460CF058F81DE0207833
:1096C00008B1012612E0A07808B101270EE0207948
:1096D00050B9607808B1012708E0A07808B90126E0
:1096E00004E04FF0010801E04FF0010805E02078A8
:1096F00010B90221286A017000BF00BFB8F1000F45
:1097000005D028460CF0FCF928460BF00DFF2FB1D0
:109710000321286A017028460CF038F82EB1052183
:10972000286A017028460CF0A1F8BDE8F08110B558
:1097300004462079062809D1606A00780A2805D1F4
:109740000C21606A017020460CF0D1FD10BD0000B4
:109750002DE9F04106460F4614461D464FF000081D
:1097600023462A4639463046DFF810C0DCF800C0F0
:10977000E04780464046BDE8F081000090030020AD
:109780002DE9FF4F83B0834691469A46DDF840802D
:10979000DDE9124600200290306023466A465846B2
:1097A000DFF8B8C00499DCF800C0E04702901198D7
:1097B000012827D19DF8000000EA09008DF800007B
:1097C000601EC4B21DF8040000EA0A000DF804008F
:1097D000C8EBC400C7B200250AE01DF80510B94067
:1097E000306808433060A7F10800C7B2681CC5B2F2
:1097F000A542F2DB1DF8041041FA08F13068084375
:10980000306026E09DF8000000EA0A008DF80000B4
:10981000601EC4B21DF8040000EA09000DF804003F
:10982000C8EBC400C7B225460AE01DF80510B940D0
:10983000306808433060A7F10800C7B2681EC5B29F
:10984000002DF2DC9DF8001041FA08F13068084361
:109850003060029807B0BDE8F08F00009003002050
:109860002DE9F0470746884615461E46089C4FF0EE
:1098700000090123224641463846DFF818C0DCF8CB
:1098800000C0E0478146207828403041207048469B
:10989000BDE8F087900300202DE9F04106460F4611
:1098A00014461D464FF0000823462A4639463046E6
:1098B000DFF810C0DCF800C0E04780464046BDE855
:1098C000F0810000940300202DE9FE4F82468B4674
:1098D00090469946DDE90E470C9E002002902346F3
:1098E0006A4659465046DFF8E8C0DCF800C0E04759
:1098F00002900D98012834D19DF8000020EA08005C
:10990000611EC6EBC10227FA02F101EA0801084311
:109910008DF8000001250AE0601B401EC6EBC00068
:1099200027FA00F0C0B20DF80500681CC5B2601E31
:10993000A842F1DC1DF8000020EA090007FA06F150
:1099400001EA09010843611E0DF8010023466A4639
:1099500059465046DFF87CC0DCF800C0E047029072
:1099600033E09DF8000020EA090007FA06F101EA59
:10997000090108438DF8000001250AE0601B401E24
:10998000C6EBC00027FA00F0C0B20DF80500681C55
:10999000C5B2601EA842F1DC1DF8000020EA0800F4
:1099A000611EC6EBC10227FA02F101EA0801084371
:1099B000611E0DF8010023466A4659465046DFF8FD
:1099C00014C0DCF800C0E04702900298BDE8FE8FAA
:1099D00090030020940300202DE9F84307468846B1
:1099E00014461D46089E4FF000090096FF2C10D02B
:1099F00001236A4641463846DFF830C0DCF800C033
:109A0000E0479DF80000A04306FA05F12140084315
:109A1000009001236A4641463846DFF814C0DCF85E
:109A200000C0E04781464846BDE8F8839003002027
:109A3000940300202DE9F04F89B004468B46174669
:109A4000994600200890606D00F12105606D00F1DD
:109A500008060220069006A8059000200490BBF19D
:109A6000610F80F0C486DFE81BF077007800EE001D
:109A7000EF0079007A0085009000BC00C000C400AF
:109A8000C900C206F000F100F200F9000001C206B0
:109A90000F010E013E01120167019301C501000291
:109AA000190232024C0265028C02A202B702D102F4
:109AB000E302F802150334034A036B0380038403B3
:109AC0008C039703A003A403C803CC03DE03F003B5
:109AD0000A0427043C044E045C0470047F048D04D3
